{
  "contracts/MockBridgeMsgValue.sol": {
    "MockGoerliBridge": {
      "abi": [
        {
          "inputs": [],
          "stateMutability": "nonpayable",
          "type": "constructor"
        },
        {
          "inputs": [],
          "name": "bridgeEmpty",
          "type": "error"
        },
        {
          "inputs": [],
          "name": "bridgeOnOtherSideNeedsLiqudity",
          "type": "error"
        },
        {
          "inputs": [],
          "name": "bridgedAlready",
          "type": "error"
        },
        {
          "inputs": [],
          "name": "msgValueNot1003",
          "type": "error"
        },
        {
          "inputs": [],
          "name": "msgValueZero",
          "type": "error"
        },
        {
          "inputs": [],
          "name": "notExternalBridge",
          "type": "error"
        },
        {
          "inputs": [],
          "name": "notOwnerAddress",
          "type": "error"
        },
        {
          "inputs": [],
          "name": "ownerBridgeUsersBeforeWithdraw",
          "type": "error"
        },
        {
          "inputs": [],
          "name": "queueIsEmpty",
          "type": "error"
        },
        {
          "inputs": [],
          "name": "queueNotEmpty",
          "type": "error"
        },
        {
          "inputs": [],
          "name": "Owner",
          "outputs": [
            {
              "internalType": "address",
              "name": "",
              "type": "address"
            }
          ],
          "stateMutability": "view",
          "type": "function"
        },
        {
          "inputs": [],
          "name": "dequeue",
          "outputs": [],
          "stateMutability": "nonpayable",
          "type": "function"
        },
        {
          "inputs": [],
          "name": "first",
          "outputs": [
            {
              "internalType": "uint256",
              "name": "",
              "type": "uint256"
            }
          ],
          "stateMutability": "view",
          "type": "function"
        },
        {
          "inputs": [],
          "name": "last",
          "outputs": [
            {
              "internalType": "uint256",
              "name": "",
              "type": "uint256"
            }
          ],
          "stateMutability": "view",
          "type": "function"
        },
        {
          "inputs": [],
          "name": "lockTokensForOptimism",
          "outputs": [],
          "stateMutability": "payable",
          "type": "function"
        },
        {
          "inputs": [
            {
              "internalType": "address",
              "name": "_token",
              "type": "address"
            }
          ],
          "name": "mockOwnerOptimismBridgeAddress",
          "outputs": [],
          "stateMutability": "nonpayable",
          "type": "function"
        },
        {
          "inputs": [],
          "name": "optimismBridgeInstance",
          "outputs": [
            {
              "internalType": "contract MockOptimismBridge",
              "name": "",
              "type": "address"
            }
          ],
          "stateMutability": "view",
          "type": "function"
        },
        {
          "inputs": [],
          "name": "ownerAddBridgeLiqudity",
          "outputs": [],
          "stateMutability": "payable",
          "type": "function"
        },
        {
          "inputs": [],
          "name": "ownerRemoveBridgeLiqudity",
          "outputs": [],
          "stateMutability": "nonpayable",
          "type": "function"
        },
        {
          "inputs": [],
          "name": "ownerUnlockGoerliETH",
          "outputs": [],
          "stateMutability": "nonpayable",
          "type": "function"
        },
        {
          "inputs": [
            {
              "internalType": "uint256",
              "name": "",
              "type": "uint256"
            }
          ],
          "name": "queue",
          "outputs": [
            {
              "internalType": "address",
              "name": "",
              "type": "address"
            }
          ],
          "stateMutability": "view",
          "type": "function"
        }
      ],
      "evm": {
        "bytecode": {
          "linkReferences": {},
          "object": "60a060405260016003553480156200001657600080fd5b506200004b7f9fb2ed19dbc03887b6e4eccd6699c1a01e7ea052729cfe426841d72ca24aa67660001b620000ed60201b60201c565b6200007f7fd9e234e0fc00194e388bcd0c166ae5913f343bd2d8bcb974933807f4305014c360001b620000ed60201b60201c565b620000b37f93b0ebd103240e64b5c2117eabb6dbed8d4ba08271671b8af43a7fc52f151f4160001b620000ed60201b60201c565b3373ffffffffffffffffffffffffffffffffffffffff1660808173ffffffffffffffffffffffffffffffffffffffff1681525050620000f0565b50565b608051611e1d62000136600039600081816102920152818161070e01528181610af101528181610c02015281816110ef0152818161172901526117d10152611e1d6000f3fe60806040526004361061009c5760003560e01c80638521eebe116100645780638521eebe14610143578063957908d11461014d578063af11cb4014610164578063b4a99a4e1461017b578063d06019f5146101a6578063ddf0b009146101cf5761009c565b806308dd057a146100a15780633df4ddf4146100b857806347799da8146100e35780634e22d2081461010e5780637f6c6d1014610118575b600080fd5b3480156100ad57600080fd5b506100b661020c565b005b3480156100c457600080fd5b506100cd610775565b6040516100da9190611ae2565b60405180910390f35b3480156100ef57600080fd5b506100f861077b565b6040516101059190611ae2565b60405180910390f35b610116610781565b005b34801561012457600080fd5b5061012d610b58565b60405161013a9190611b7c565b60405180910390f35b61014b610b7c565b005b34801561015957600080fd5b50610162610dc9565b005b34801561017057600080fd5b50610179611069565b005b34801561018757600080fd5b50610190611727565b60405161019d9190611bb8565b60405180910390f35b3480156101b257600080fd5b506101cd60048036038101906101c89190611c04565b61174b565b005b3480156101db57600080fd5b506101f660048036038101906101f19190611c5d565b611947565b6040516102039190611bb8565b60405180910390f35b6102387fdb7f5305665fa2fd7157b0d928e247121063297776bde8f87dc566c60a0fdcf360001b61197a565b6102647fdcc17256fb11f2c0d901726988a131836bf0bec957e696ebf9af59be8b1ac2a560001b61197a565b6102907f747408cf779832fad6492d2f491bab58d276aca48b9f4653eec0c3f484f7171860001b61197a565b7f000000000000000000000000000000000000000000000000000000000000000073ffffffffffffffffffffffffffffffffffffffff163373ffffffffffffffffffffffffffffffffffffffff16146103415761030f7fea902181e57b2e06f76cb01a6a16d5b2fdc1fce3be3cda1abf386096d5479d2360001b61197a565b6040517f1ee8575e00000000000000000000000000000000000000000000000000000000815260040160405180910390fd5b61036d7f96ea2aeda73882f183a3ac41dfc757088a317d93fe6ec950b849d69318ded13e60001b61197a565b6103997f351948596abeb350e22ee4addda14b67f83451011ad1736276ed028cd630635760001b61197a565b6103c57f5aff6913036a6bfaf601a211c06b00063b75c92ffb7bbcc59673ce8b7e61e99860001b61197a565b6000470361042b576103f97ffc6f44abce422fcd830ea06512022839bb12ad946a1e1cf95bc03e912e30a5b660001b61197a565b6040517f7a1f291700000000000000000000000000000000000000000000000000000000815260040160405180910390fd5b6104577f080b7a86f9ebc2db27a07d4a8b180094f8d9628e35df3163ed59ec533aa1430360001b61197a565b6104837fc90af6cec9bdf8d1a7764895841378f14c13b5ae49b6f9a724ea256320e997bc60001b61197a565b6104ae7ee6111787f5ae0ed88c629d5fb89f6fa6b7265d7066570f84bb9ebbf7e1e9aa60001b61197a565b600073ffffffffffffffffffffffffffffffffffffffff1660008054906101000a900473ffffffffffffffffffffffffffffffffffffffff1673ffffffffffffffffffffffffffffffffffffffff161480610625575060008054906101000a900473ffffffffffffffffffffffffffffffffffffffff1673ffffffffffffffffffffffffffffffffffffffff16633df4ddf46040518163ffffffff1660e01b8152600401602060405180830381865afa15801561056f573d6000803e3d6000fd5b505050506040513d601f19601f820116820180604052508101906105939190611c9f565b60008054906101000a900473ffffffffffffffffffffffffffffffffffffffff1673ffffffffffffffffffffffffffffffffffffffff166347799da86040518163ffffffff1660e01b8152600401602060405180830381865afa1580156105fe573d6000803e3d6000fd5b505050506040513d601f19601f820116820180604052508101906106229190611c9f565b10155b15610688576106567f82d28e8e5b098e29bd74cc1ef194a5551093a2c4fd1c84d327ee29eebf8e770e60001b61197a565b6040517f230accfd00000000000000000000000000000000000000000000000000000000815260040160405180910390fd5b6106b47f0686358ace1fe96f125061f401a75f18c3c19eb9a9cc78b4a05502acfc192da260001b61197a565b6106e07f4bc03139c9f65529a8df1260681608327194dfa77594695086765333f5e992b860001b61197a565b61070c7f547437cde1565f27e4e1d5215d7fee90a239261d6a10fb942d38c1d85580e26060001b61197a565b7f000000000000000000000000000000000000000000000000000000000000000073ffffffffffffffffffffffffffffffffffffffff166108fc479081150290604051600060405180830381858888f19350505050158015610772573d6000803e3d6000fd5b50565b60035481565b60025481565b6107ad7fb7b5fb235e2df4c33d416bf2c5fbd06c426ba73f4a3cc3a0cdcf10308e6130b660001b61197a565b6107d97f6b22dde089400637cbf8fc770abac64eeaa0ccee7c445b8ae0b68d95d272d9b060001b61197a565b6108057fb92a99f6d4a015924ad2f2ccfd60b1a965c5ff9e88250fabe2df70e91d5c5f1360001b61197a565b6103eb341461086c5761083a7f7f6a85195c3991b4c757af4f7843bb5bf42968869e1697a6fb5620b259bca59660001b61197a565b6040517fa43d860800000000000000000000000000000000000000000000000000000000815260040160405180910390fd5b6108987fb8afbd4d0e11dd367a87e7fd36a805f855554a3cdf94cbaa3dafc3b07e5f687560001b61197a565b6108c47f4d922b8843dea955d63b5b933f45d8eb3b1cd6f541ef32d04e9f3c3ad5d5d77960001b61197a565b6108f07fb22e9b7f57570665c33a5059aec562c4952a320f151a2e69888f9f9d6047cf7860001b61197a565b600073ffffffffffffffffffffffffffffffffffffffff1660008054906101000a900473ffffffffffffffffffffffffffffffffffffffff1673ffffffffffffffffffffffffffffffffffffffff1614806109a8575060008054906101000a900473ffffffffffffffffffffffffffffffffffffffff1673ffffffffffffffffffffffffffffffffffffffff16316103e8600354600280546109929190611cfb565b61099c9190611d2f565b6109a69190611d63565b115b15610a0b576109d97fa6a00b89cca598a0f57f78829e8e97854399d0f965024e4d0f92c7eb5b2a87fe60001b61197a565b6040517ff06294a300000000000000000000000000000000000000000000000000000000815260040160405180910390fd5b610a377f669a0f405199088b0fb20e88a6870b75d88fc6654705fd2718d4309b59c5d8cf60001b61197a565b610a637f3c27b69d769c1374ad3a1d56c512f35af82842419eaa1ed6f9315abd6c496fbf60001b61197a565b610a8f7f2074ac94a2edf1fe5fd6945e4bb42e485b31b387616d52be14a6f16d233a5ff160001b61197a565b610a9761197d565b610ac37fe3bf91cd0c8a95def7d61032caf0e355cfff06bac869001113549ec0289abc9560001b61197a565b610aef7f14c8d0b2db23248e1c01a2f77e4851311054f8b0b7e840065014e89789b23a0f60001b61197a565b7f000000000000000000000000000000000000000000000000000000000000000073ffffffffffffffffffffffffffffffffffffffff166108fc349081150290604051600060405180830381858888f19350505050158015610b55573d6000803e3d6000fd5b50565b60008054906101000a900473ffffffffffffffffffffffffffffffffffffffff1681565b610ba87f08814f43cad5fc30266dd814ecaca50de4f9b9ed5a41b1e3b8b3a2995d2119a460001b61197a565b610bd47f9d6cd873d12066b905053a2798a36416e8805d61a272ef24d41c111b717639f460001b61197a565b610c007fca7c0a2730679018cfddacfcf90ba42cddcc4b9dc81c3731795f133846a7797760001b61197a565b7f000000000000000000000000000000000000000000000000000000000000000073ffffffffffffffffffffffffffffffffffffffff163373ffffffffffffffffffffffffffffffffffffffff1614610cb157610c7f7fd1af7dde007a12f7c51a4a36cecdb46236079d301f32e6f79d726939793eba6960001b61197a565b6040517f1ee8575e00000000000000000000000000000000000000000000000000000000815260040160405180910390fd5b610cdd7fad36c8511bf597ebf37d665461c5b0aa02e44d3db68472d9b0d4ecd753223bd460001b61197a565b610d097f4846b0328240a5112220880d1c6591d2ccc4a1dee835d5685d4640e565164dcd60001b61197a565b610d357f218147dfca35fe947a4e00543b0e48c0d2ce0af0a5cf2ceea4da0eb98e57679560001b61197a565b60003403610d9b57610d697ff8a330e175dfac408493ee532bbf8595e1ea54ecdf25f1bb9e6f2846479b802f60001b61197a565b6040517f0cdb5d8500000000000000000000000000000000000000000000000000000000815260040160405180910390fd5b610dc77f74bb17b394f8cc7b5b0045515b9197554b295b02ad39458c5b14eea948ca11a960001b61197a565b565b610df57faa4a7941547db74574678ae749cc0df2dd2a1d71bda715c90d9aaf81d6b0629660001b61197a565b610e217f5342bc649c4dcf4aefe78e9ea24bc4507393efd53d3d7fdc016b8407f9f7409e60001b61197a565b610e4d7f4cc31d34c740aa52ec1ba6ebb4746663ccb0d58c596eb612c6f46feceb51ac1060001b61197a565b600073ffffffffffffffffffffffffffffffffffffffff1660008054906101000a900473ffffffffffffffffffffffffffffffffffffffff1673ffffffffffffffffffffffffffffffffffffffff161480610ef4575060008054906101000a900473ffffffffffffffffffffffffffffffffffffffff1673ffffffffffffffffffffffffffffffffffffffff163373ffffffffffffffffffffffffffffffffffffffff1614155b80610f025750600354600254105b15610f6557610f337f3ad632e5ce40dda95432da9c0be6ba64bd49dd8e47acffacf8e793d532e8ecc760001b61197a565b6040517f4da1bc3400000000000000000000000000000000000000000000000000000000815260040160405180910390fd5b610f917fea1ff922c5953a3e1f0b038237b9626cd878663b2cc27aed8f06e05f84c89a2d60001b61197a565b610fbd7f26692386e539330ec784e9fdc1eb10aa2ca7eb30156fed49bb6e56f429260f1760001b61197a565b60016000600354815260200190815260200160002060006101000a81549073ffffffffffffffffffffffffffffffffffffffff02191690556110217fbc6ecbbeeed7d87ac88bd70fd75687b380ad4e3f62dee9733ae68eb57697e1c760001b61197a565b61104d7f9002a21d2ac9eba0f45df1ca4e78a30515d87162a6e478f95efe94f41e03d58360001b61197a565b6001600360008282546110609190611cfb565b92505081905550565b6110957f64dd5ab96501c2f95f98cb0a92d6760b73e671401a3cfa2474b917953539375960001b61197a565b6110c17fdc7486fe88c3cc76047d09549f0b334d1e41c3a1521f4fa051e63ac981437a8660001b61197a565b6110ed7ffefdd31c97bcc591aaf33981cd26ba5d17362814156ef7877854ea787830cf2760001b61197a565b7f000000000000000000000000000000000000000000000000000000000000000073ffffffffffffffffffffffffffffffffffffffff163373ffffffffffffffffffffffffffffffffffffffff161461119e5761116c7ff570d3d74aa13683cb3b43080c682c01047c5e1290760e9fff5c608166bea97260001b61197a565b6040517f1ee8575e00000000000000000000000000000000000000000000000000000000815260040160405180910390fd5b6111c97ede50e54afdb419b4c96a2cc32a041cf93bf520197e92809885cf5d3b2bab5160001b61197a565b6111f57fcb930ccbb89f61013df526ec335c7a4107f101bb23fa615ad38ea86d36da5e7560001b61197a565b6112217f41e49198cada5d6cd5ccc37cc30b29a47a1574afc9dfcce66eb9c37bee7a732660001b61197a565b600073ffffffffffffffffffffffffffffffffffffffff1660008054906101000a900473ffffffffffffffffffffffffffffffffffffffff1673ffffffffffffffffffffffffffffffffffffffff161480611397575060008054906101000a900473ffffffffffffffffffffffffffffffffffffffff1673ffffffffffffffffffffffffffffffffffffffff16633df4ddf46040518163ffffffff1660e01b8152600401602060405180830381865afa1580156112e2573d6000803e3d6000fd5b505050506040513d601f19601f820116820180604052508101906113069190611c9f565b60008054906101000a900473ffffffffffffffffffffffffffffffffffffffff1673ffffffffffffffffffffffffffffffffffffffff166347799da86040518163ffffffff1660e01b8152600401602060405180830381865afa158015611371573d6000803e3d6000fd5b505050506040513d601f19601f820116820180604052508101906113959190611c9f565b105b156113fa576113c87f90acdc28e46e2eaaec38a14766f5915f0fc1d525294f98038f7058919812f5e460001b61197a565b6040517f5e61bb8700000000000000000000000000000000000000000000000000000000815260040160405180910390fd5b6114267f2f04ad311eaa17c9ac55a1ca702073c3aadbec62bd29380c8106ac6f33da4f1860001b61197a565b6114527f231ac68bb1d16f62a9fbe266b9ea9794c9ca9eedd09e49eebccb8d57b44615fe60001b61197a565b61147e7f5886e9dc65ceb3439ee6bd5e749092bbc8571aac8731b58fe89b4b26895b919060001b61197a565b60008060009054906101000a900473ffffffffffffffffffffffffffffffffffffffff1673ffffffffffffffffffffffffffffffffffffffff1663ddf0b00960008054906101000a900473ffffffffffffffffffffffffffffffffffffffff1673ffffffffffffffffffffffffffffffffffffffff166347799da86040518163ffffffff1660e01b8152600401602060405180830381865afa158015611528573d6000803e3d6000fd5b505050506040513d601f19601f8201168201806040525081019061154c9190611c9f565b6040518263ffffffff1660e01b81526004016115689190611ae2565b602060405180830381865afa158015611585573d6000803e3d6000fd5b505050506040513d601f19601f820116820180604052508101906115a99190611dba565b90506115d77f1cccb60d2973bd95e754a4f10c5464370dedef1a132e10450c91e78203c4565a60001b61197a565b6116037f5af3733f2ecc4eb76ecba313216ed64d49880c6e13bc12e28fd112507ba1ca1760001b61197a565b60008054906101000a900473ffffffffffffffffffffffffffffffffffffffff1673ffffffffffffffffffffffffffffffffffffffff1663957908d16040518163ffffffff1660e01b8152600401600060405180830381600087803b15801561166b57600080fd5b505af115801561167f573d6000803e3d6000fd5b505050506116af7f4ffdeadc1b3a24fff23144d37f3ca328749eef90764a6c8392e0706538ffb84e60001b61197a565b6116db7fdb076cd4b8319bba5cb2eaf8a4eb31b459f734322e22ea6e2b17e40a5d832de160001b61197a565b8073ffffffffffffffffffffffffffffffffffffffff166108fc6103e89081150290604051600060405180830381858888f19350505050158015611723573d6000803e3d6000fd5b5050565b7f000000000000000000000000000000000000000000000000000000000000000081565b6117777f4d4dc8040520baf52059facb9984059d5d90b646ba0738768e8455b525ac395460001b61197a565b6117a37f6402c7264c64085472e83b2c3ee6ed1bbee2490d6029f4233fd89b7ba198041e60001b61197a565b6117cf7f0718b68f8e2c9e932d44977de477d020f949d7d637ef8790c15b806c95da3b8260001b61197a565b7f000000000000000000000000000000000000000000000000000000000000000073ffffffffffffffffffffffffffffffffffffffff163373ffffffffffffffffffffffffffffffffffffffff16146118805761184e7f71642c31aa0ac975e27b8a558be686b863cf6c7ca93bc8e86f795261e5e2ac9260001b61197a565b6040517f1ee8575e00000000000000000000000000000000000000000000000000000000815260040160405180910390fd5b6118ac7f3450c326fe3b8eb379b74fb88a734b655947b2b83b0e63d55411d4052b16595460001b61197a565b6118d87f1cb6806bc21594e2e3afb4f3bc191b955c63f48b70dd04222c9dd7011219b6f860001b61197a565b6119047fe09aec326b82489fd575950c862e4cd8994d7bf6aa03fe558f476df00815e3ec60001b61197a565b806000806101000a81548173ffffffffffffffffffffffffffffffffffffffff021916908373ffffffffffffffffffffffffffffffffffffffff16021790555050565b60016020528060005260406000206000915054906101000a900473ffffffffffffffffffffffffffffffffffffffff1681565b50565b6119a97fa9e8e5e888d950f5abfa84ba210a1c100e90a1a2bc60153d3659c68724f08bc460001b61197a565b6119d57f6356912c8ff69f99a75fee56d8adab179d9da4de2eba2cb915f38cc1a9dac6ca60001b61197a565b611a017fd78f26e30970a1f8d937c4f4cf1d24cb769be55d7e8a4f740911d0ed3ab7a86060001b61197a565b600160026000828254611a149190611cfb565b92505081905550611a477f7939813665161724a3f06c843708f870060d120a3512911530e3fa35a6b2748360001b61197a565b611a737fb8b72037b7e0186a2b7b6bda1fc209ed13e46ae4ec645235a5a8e025fd792f4f60001b61197a565b3360016000600254815260200190815260200160002060006101000a81548173ffffffffffffffffffffffffffffffffffffffff021916908373ffffffffffffffffffffffffffffffffffffffff160217905550565b6000819050919050565b611adc81611ac9565b82525050565b6000602082019050611af76000830184611ad3565b92915050565b600073ffffffffffffffffffffffffffffffffffffffff82169050919050565b6000819050919050565b6000611b42611b3d611b3884611afd565b611b1d565b611afd565b9050919050565b6000611b5482611b27565b9050919050565b6000611b6682611b49565b9050919050565b611b7681611b5b565b82525050565b6000602082019050611b916000830184611b6d565b92915050565b6000611ba282611afd565b9050919050565b611bb281611b97565b82525050565b6000602082019050611bcd6000830184611ba9565b92915050565b600080fd5b611be181611b97565b8114611bec57600080fd5b50565b600081359050611bfe81611bd8565b92915050565b600060208284031215611c1a57611c19611bd3565b5b6000611c2884828501611bef565b91505092915050565b611c3a81611ac9565b8114611c4557600080fd5b50565b600081359050611c5781611c31565b92915050565b600060208284031215611c7357611c72611bd3565b5b6000611c8184828501611c48565b91505092915050565b600081519050611c9981611c31565b92915050565b600060208284031215611cb557611cb4611bd3565b5b6000611cc384828501611c8a565b91505092915050565b7f4e487b7100000000000000000000000000000000000000000000000000000000600052601160045260246000fd5b6000611d0682611ac9565b9150611d1183611ac9565b9250828201905080821115611d2957611d28611ccc565b5b92915050565b6000611d3a82611ac9565b9150611d4583611ac9565b9250828203905081811115611d5d57611d5c611ccc565b5b92915050565b6000611d6e82611ac9565b9150611d7983611ac9565b9250828202611d8781611ac9565b91508282048414831517611d9e57611d9d611ccc565b5b5092915050565b600081519050611db481611bd8565b92915050565b600060208284031215611dd057611dcf611bd3565b5b6000611dde84828501611da5565b9150509291505056fea26469706673582212208b7697e6ce0edc46e6e95f4e648ebbb4ae19e7d7072b7c38e6fc6eacc224d2e764736f6c63430008110033",
          "opcodes": "PUSH1 0xA0 PUSH1 0x40 MSTORE PUSH1 0x1 PUSH1 0x3 SSTORE CALLVALUE DUP1 ISZERO PUSH3 0x16 JUMPI PUSH1 0x0 DUP1 REVERT JUMPDEST POP PUSH3 0x4B PUSH32 0x9FB2ED19DBC03887B6E4ECCD6699C1A01E7EA052729CFE426841D72CA24AA676 PUSH1 0x0 SHL PUSH3 0xED PUSH1 0x20 SHL PUSH1 0x20 SHR JUMP JUMPDEST PUSH3 0x7F PUSH32 0xD9E234E0FC00194E388BCD0C166AE5913F343BD2D8BCB974933807F4305014C3 PUSH1 0x0 SHL PUSH3 0xED PUSH1 0x20 SHL PUSH1 0x20 SHR JUMP JUMPDEST PUSH3 0xB3 PUSH32 0x93B0EBD103240E64B5C2117EABB6DBED8D4BA08271671B8AF43A7FC52F151F41 PUSH1 0x0 SHL PUSH3 0xED PUSH1 0x20 SHL PUSH1 0x20 SHR JUMP JUMPDEST CALLER PUSH20 0xFFFFFFFFFFFFFFFFFFFFFFFFFFFFFFFFFFFFFFFF AND PUSH1 0x80 DUP2 PUSH20 0xFFFFFFFFFFFFFFFFFFFFFFFFFFFFFFFFFFFFFFFF AND DUP2 MSTORE POP POP PUSH3 0xF0 JUMP JUMPDEST POP JUMP JUMPDEST PUSH1 0x80 MLOAD PUSH2 0x1E1D PUSH3 0x136 PUSH1 0x0 CODECOPY PUSH1 0x0 DUP2 DUP2 PUSH2 0x292 ADD MSTORE DUP2 DUP2 PUSH2 0x70E ADD MSTORE DUP2 DUP2 PUSH2 0xAF1 ADD MSTORE DUP2 DUP2 PUSH2 0xC02 ADD MSTORE DUP2 DUP2 PUSH2 0x10EF ADD MSTORE DUP2 DUP2 PUSH2 0x1729 ADD MSTORE PUSH2 0x17D1 ADD MSTORE PUSH2 0x1E1D PUSH1 0x0 RETURN INVALID PUSH1 0x80 PUSH1 0x40 MSTORE PUSH1 0x4 CALLDATASIZE LT PUSH2 0x9C JUMPI PUSH1 0x0 CALLDATALOAD PUSH1 0xE0 SHR DUP1 PUSH4 0x8521EEBE GT PUSH2 0x64 JUMPI DUP1 PUSH4 0x8521EEBE EQ PUSH2 0x143 JUMPI DUP1 PUSH4 0x957908D1 EQ PUSH2 0x14D JUMPI DUP1 PUSH4 0xAF11CB40 EQ PUSH2 0x164 JUMPI DUP1 PUSH4 0xB4A99A4E EQ PUSH2 0x17B JUMPI DUP1 PUSH4 0xD06019F5 EQ PUSH2 0x1A6 JUMPI DUP1 PUSH4 0xDDF0B009 EQ PUSH2 0x1CF JUMPI PUSH2 0x9C JUMP JUMPDEST DUP1 PUSH4 0x8DD057A EQ PUSH2 0xA1 JUMPI DUP1 PUSH4 0x3DF4DDF4 EQ PUSH2 0xB8 JUMPI DUP1 PUSH4 0x47799DA8 EQ PUSH2 0xE3 JUMPI DUP1 PUSH4 0x4E22D208 EQ PUSH2 0x10E JUMPI DUP1 PUSH4 0x7F6C6D10 EQ PUSH2 0x118 JUMPI JUMPDEST PUSH1 0x0 DUP1 REVERT JUMPDEST CALLVALUE DUP1 ISZERO PUSH2 0xAD JUMPI PUSH1 0x0 DUP1 REVERT JUMPDEST POP PUSH2 0xB6 PUSH2 0x20C JUMP JUMPDEST STOP JUMPDEST CALLVALUE DUP1 ISZERO PUSH2 0xC4 JUMPI PUSH1 0x0 DUP1 REVERT JUMPDEST POP PUSH2 0xCD PUSH2 0x775 JUMP JUMPDEST PUSH1 0x40 MLOAD PUSH2 0xDA SWAP2 SWAP1 PUSH2 0x1AE2 JUMP JUMPDEST PUSH1 0x40 MLOAD DUP1 SWAP2 SUB SWAP1 RETURN JUMPDEST CALLVALUE DUP1 ISZERO PUSH2 0xEF JUMPI PUSH1 0x0 DUP1 REVERT JUMPDEST POP PUSH2 0xF8 PUSH2 0x77B JUMP JUMPDEST PUSH1 0x40 MLOAD PUSH2 0x105 SWAP2 SWAP1 PUSH2 0x1AE2 JUMP JUMPDEST PUSH1 0x40 MLOAD DUP1 SWAP2 SUB SWAP1 RETURN JUMPDEST PUSH2 0x116 PUSH2 0x781 JUMP JUMPDEST STOP JUMPDEST CALLVALUE DUP1 ISZERO PUSH2 0x124 JUMPI PUSH1 0x0 DUP1 REVERT JUMPDEST POP PUSH2 0x12D PUSH2 0xB58 JUMP JUMPDEST PUSH1 0x40 MLOAD PUSH2 0x13A SWAP2 SWAP1 PUSH2 0x1B7C JUMP JUMPDEST PUSH1 0x40 MLOAD DUP1 SWAP2 SUB SWAP1 RETURN JUMPDEST PUSH2 0x14B PUSH2 0xB7C JUMP JUMPDEST STOP JUMPDEST CALLVALUE DUP1 ISZERO PUSH2 0x159 JUMPI PUSH1 0x0 DUP1 REVERT JUMPDEST POP PUSH2 0x162 PUSH2 0xDC9 JUMP JUMPDEST STOP JUMPDEST CALLVALUE DUP1 ISZERO PUSH2 0x170 JUMPI PUSH1 0x0 DUP1 REVERT JUMPDEST POP PUSH2 0x179 PUSH2 0x1069 JUMP JUMPDEST STOP JUMPDEST CALLVALUE DUP1 ISZERO PUSH2 0x187 JUMPI PUSH1 0x0 DUP1 REVERT JUMPDEST POP PUSH2 0x190 PUSH2 0x1727 JUMP JUMPDEST PUSH1 0x40 MLOAD PUSH2 0x19D SWAP2 SWAP1 PUSH2 0x1BB8 JUMP JUMPDEST PUSH1 0x40 MLOAD DUP1 SWAP2 SUB SWAP1 RETURN JUMPDEST CALLVALUE DUP1 ISZERO PUSH2 0x1B2 JUMPI PUSH1 0x0 DUP1 REVERT JUMPDEST POP PUSH2 0x1CD PUSH1 0x4 DUP1 CALLDATASIZE SUB DUP2 ADD SWAP1 PUSH2 0x1C8 SWAP2 SWAP1 PUSH2 0x1C04 JUMP JUMPDEST PUSH2 0x174B JUMP JUMPDEST STOP JUMPDEST CALLVALUE DUP1 ISZERO PUSH2 0x1DB JUMPI PUSH1 0x0 DUP1 REVERT JUMPDEST POP PUSH2 0x1F6 PUSH1 0x4 DUP1 CALLDATASIZE SUB DUP2 ADD SWAP1 PUSH2 0x1F1 SWAP2 SWAP1 PUSH2 0x1C5D JUMP JUMPDEST PUSH2 0x1947 JUMP JUMPDEST PUSH1 0x40 MLOAD PUSH2 0x203 SWAP2 SWAP1 PUSH2 0x1BB8 JUMP JUMPDEST PUSH1 0x40 MLOAD DUP1 SWAP2 SUB SWAP1 RETURN JUMPDEST PUSH2 0x238 PUSH32 0xDB7F5305665FA2FD7157B0D928E247121063297776BDE8F87DC566C60A0FDCF3 PUSH1 0x0 SHL PUSH2 0x197A JUMP JUMPDEST PUSH2 0x264 PUSH32 0xDCC17256FB11F2C0D901726988A131836BF0BEC957E696EBF9AF59BE8B1AC2A5 PUSH1 0x0 SHL PUSH2 0x197A JUMP JUMPDEST PUSH2 0x290 PUSH32 0x747408CF779832FAD6492D2F491BAB58D276ACA48B9F4653EEC0C3F484F71718 PUSH1 0x0 SHL PUSH2 0x197A JUMP JUMPDEST PUSH32 0x0 PUSH20 0xFFFFFFFFFFFFFFFFFFFFFFFFFFFFFFFFFFFFFFFF AND CALLER PUSH20 0xFFFFFFFFFFFFFFFFFFFFFFFFFFFFFFFFFFFFFFFF AND EQ PUSH2 0x341 JUMPI PUSH2 0x30F PUSH32 0xEA902181E57B2E06F76CB01A6A16D5B2FDC1FCE3BE3CDA1ABF386096D5479D23 PUSH1 0x0 SHL PUSH2 0x197A JUMP JUMPDEST PUSH1 0x40 MLOAD PUSH32 0x1EE8575E00000000000000000000000000000000000000000000000000000000 DUP2 MSTORE PUSH1 0x4 ADD PUSH1 0x40 MLOAD DUP1 SWAP2 SUB SWAP1 REVERT JUMPDEST PUSH2 0x36D PUSH32 0x96EA2AEDA73882F183A3AC41DFC757088A317D93FE6EC950B849D69318DED13E PUSH1 0x0 SHL PUSH2 0x197A JUMP JUMPDEST PUSH2 0x399 PUSH32 0x351948596ABEB350E22EE4ADDDA14B67F83451011AD1736276ED028CD6306357 PUSH1 0x0 SHL PUSH2 0x197A JUMP JUMPDEST PUSH2 0x3C5 PUSH32 0x5AFF6913036A6BFAF601A211C06B00063B75C92FFB7BBCC59673CE8B7E61E998 PUSH1 0x0 SHL PUSH2 0x197A JUMP JUMPDEST PUSH1 0x0 SELFBALANCE SUB PUSH2 0x42B JUMPI PUSH2 0x3F9 PUSH32 0xFC6F44ABCE422FCD830EA06512022839BB12AD946A1E1CF95BC03E912E30A5B6 PUSH1 0x0 SHL PUSH2 0x197A JUMP JUMPDEST PUSH1 0x40 MLOAD PUSH32 0x7A1F291700000000000000000000000000000000000000000000000000000000 DUP2 MSTORE PUSH1 0x4 ADD PUSH1 0x40 MLOAD DUP1 SWAP2 SUB SWAP1 REVERT JUMPDEST PUSH2 0x457 PUSH32 0x80B7A86F9EBC2DB27A07D4A8B180094F8D9628E35DF3163ED59EC533AA14303 PUSH1 0x0 SHL PUSH2 0x197A JUMP JUMPDEST PUSH2 0x483 PUSH32 0xC90AF6CEC9BDF8D1A7764895841378F14C13B5AE49B6F9A724EA256320E997BC PUSH1 0x0 SHL PUSH2 0x197A JUMP JUMPDEST PUSH2 0x4AE PUSH31 0xE6111787F5AE0ED88C629D5FB89F6FA6B7265D7066570F84BB9EBBF7E1E9AA PUSH1 0x0 SHL PUSH2 0x197A JUMP JUMPDEST PUSH1 0x0 PUSH20 0xFFFFFFFFFFFFFFFFFFFFFFFFFFFFFFFFFFFFFFFF AND PUSH1 0x0 DUP1 SLOAD SWAP1 PUSH2 0x100 EXP SWAP1 DIV PUSH20 0xFFFFFFFFFFFFFFFFFFFFFFFFFFFFFFFFFFFFFFFF AND PUSH20 0xFFFFFFFFFFFFFFFFFFFFFFFFFFFFFFFFFFFFFFFF AND EQ DUP1 PUSH2 0x625 JUMPI POP PUSH1 0x0 DUP1 SLOAD SWAP1 PUSH2 0x100 EXP SWAP1 DIV PUSH20 0xFFFFFFFFFFFFFFFFFFFFFFFFFFFFFFFFFFFFFFFF AND PUSH20 0xFFFFFFFFFFFFFFFFFFFFFFFFFFFFFFFFFFFFFFFF AND PUSH4 0x3DF4DDF4 PUSH1 0x40 MLOAD DUP2 PUSH4 0xFFFFFFFF AND PUSH1 0xE0 SHL DUP2 MSTORE PUSH1 0x4 ADD PUSH1 0x20 PUSH1 0x40 MLOAD DUP1 DUP4 SUB DUP2 DUP7 GAS STATICCALL ISZERO DUP1 ISZERO PUSH2 0x56F JUMPI RETURNDATASIZE PUSH1 0x0 DUP1 RETURNDATACOPY RETURNDATASIZE PUSH1 0x0 REVERT JUMPDEST POP POP POP POP PUSH1 0x40 MLOAD RETURNDATASIZE PUSH1 0x1F NOT PUSH1 0x1F DUP3 ADD AND DUP3 ADD DUP1 PUSH1 0x40 MSTORE POP DUP2 ADD SWAP1 PUSH2 0x593 SWAP2 SWAP1 PUSH2 0x1C9F JUMP JUMPDEST PUSH1 0x0 DUP1 SLOAD SWAP1 PUSH2 0x100 EXP SWAP1 DIV PUSH20 0xFFFFFFFFFFFFFFFFFFFFFFFFFFFFFFFFFFFFFFFF AND PUSH20 0xFFFFFFFFFFFFFFFFFFFFFFFFFFFFFFFFFFFFFFFF AND PUSH4 0x47799DA8 PUSH1 0x40 MLOAD DUP2 PUSH4 0xFFFFFFFF AND PUSH1 0xE0 SHL DUP2 MSTORE PUSH1 0x4 ADD PUSH1 0x20 PUSH1 0x40 MLOAD DUP1 DUP4 SUB DUP2 DUP7 GAS STATICCALL ISZERO DUP1 ISZERO PUSH2 0x5FE JUMPI RETURNDATASIZE PUSH1 0x0 DUP1 RETURNDATACOPY RETURNDATASIZE PUSH1 0x0 REVERT JUMPDEST POP POP POP POP PUSH1 0x40 MLOAD RETURNDATASIZE PUSH1 0x1F NOT PUSH1 0x1F DUP3 ADD AND DUP3 ADD DUP1 PUSH1 0x40 MSTORE POP DUP2 ADD SWAP1 PUSH2 0x622 SWAP2 SWAP1 PUSH2 0x1C9F JUMP JUMPDEST LT ISZERO JUMPDEST ISZERO PUSH2 0x688 JUMPI PUSH2 0x656 PUSH32 0x82D28E8E5B098E29BD74CC1EF194A5551093A2C4FD1C84D327EE29EEBF8E770E PUSH1 0x0 SHL PUSH2 0x197A JUMP JUMPDEST PUSH1 0x40 MLOAD PUSH32 0x230ACCFD00000000000000000000000000000000000000000000000000000000 DUP2 MSTORE PUSH1 0x4 ADD PUSH1 0x40 MLOAD DUP1 SWAP2 SUB SWAP1 REVERT JUMPDEST PUSH2 0x6B4 PUSH32 0x686358ACE1FE96F125061F401A75F18C3C19EB9A9CC78B4A05502ACFC192DA2 PUSH1 0x0 SHL PUSH2 0x197A JUMP JUMPDEST PUSH2 0x6E0 PUSH32 0x4BC03139C9F65529A8DF1260681608327194DFA77594695086765333F5E992B8 PUSH1 0x0 SHL PUSH2 0x197A JUMP JUMPDEST PUSH2 0x70C PUSH32 0x547437CDE1565F27E4E1D5215D7FEE90A239261D6A10FB942D38C1D85580E260 PUSH1 0x0 SHL PUSH2 0x197A JUMP JUMPDEST PUSH32 0x0 PUSH20 0xFFFFFFFFFFFFFFFFFFFFFFFFFFFFFFFFFFFFFFFF AND PUSH2 0x8FC SELFBALANCE SWAP1 DUP2 ISZERO MUL SWAP1 PUSH1 0x40 MLOAD PUSH1 0x0 PUSH1 0x40 MLOAD DUP1 DUP4 SUB DUP2 DUP6 DUP9 DUP9 CALL SWAP4 POP POP POP POP ISZERO DUP1 ISZERO PUSH2 0x772 JUMPI RETURNDATASIZE PUSH1 0x0 DUP1 RETURNDATACOPY RETURNDATASIZE PUSH1 0x0 REVERT JUMPDEST POP JUMP JUMPDEST PUSH1 0x3 SLOAD DUP2 JUMP JUMPDEST PUSH1 0x2 SLOAD DUP2 JUMP JUMPDEST PUSH2 0x7AD PUSH32 0xB7B5FB235E2DF4C33D416BF2C5FBD06C426BA73F4A3CC3A0CDCF10308E6130B6 PUSH1 0x0 SHL PUSH2 0x197A JUMP JUMPDEST PUSH2 0x7D9 PUSH32 0x6B22DDE089400637CBF8FC770ABAC64EEAA0CCEE7C445B8AE0B68D95D272D9B0 PUSH1 0x0 SHL PUSH2 0x197A JUMP JUMPDEST PUSH2 0x805 PUSH32 0xB92A99F6D4A015924AD2F2CCFD60B1A965C5FF9E88250FABE2DF70E91D5C5F13 PUSH1 0x0 SHL PUSH2 0x197A JUMP JUMPDEST PUSH2 0x3EB CALLVALUE EQ PUSH2 0x86C JUMPI PUSH2 0x83A PUSH32 0x7F6A85195C3991B4C757AF4F7843BB5BF42968869E1697A6FB5620B259BCA596 PUSH1 0x0 SHL PUSH2 0x197A JUMP JUMPDEST PUSH1 0x40 MLOAD PUSH32 0xA43D860800000000000000000000000000000000000000000000000000000000 DUP2 MSTORE PUSH1 0x4 ADD PUSH1 0x40 MLOAD DUP1 SWAP2 SUB SWAP1 REVERT JUMPDEST PUSH2 0x898 PUSH32 0xB8AFBD4D0E11DD367A87E7FD36A805F855554A3CDF94CBAA3DAFC3B07E5F6875 PUSH1 0x0 SHL PUSH2 0x197A JUMP JUMPDEST PUSH2 0x8C4 PUSH32 0x4D922B8843DEA955D63B5B933F45D8EB3B1CD6F541EF32D04E9F3C3AD5D5D779 PUSH1 0x0 SHL PUSH2 0x197A JUMP JUMPDEST PUSH2 0x8F0 PUSH32 0xB22E9B7F57570665C33A5059AEC562C4952A320F151A2E69888F9F9D6047CF78 PUSH1 0x0 SHL PUSH2 0x197A JUMP JUMPDEST PUSH1 0x0 PUSH20 0xFFFFFFFFFFFFFFFFFFFFFFFFFFFFFFFFFFFFFFFF AND PUSH1 0x0 DUP1 SLOAD SWAP1 PUSH2 0x100 EXP SWAP1 DIV PUSH20 0xFFFFFFFFFFFFFFFFFFFFFFFFFFFFFFFFFFFFFFFF AND PUSH20 0xFFFFFFFFFFFFFFFFFFFFFFFFFFFFFFFFFFFFFFFF AND EQ DUP1 PUSH2 0x9A8 JUMPI POP PUSH1 0x0 DUP1 SLOAD SWAP1 PUSH2 0x100 EXP SWAP1 DIV PUSH20 0xFFFFFFFFFFFFFFFFFFFFFFFFFFFFFFFFFFFFFFFF AND PUSH20 0xFFFFFFFFFFFFFFFFFFFFFFFFFFFFFFFFFFFFFFFF AND BALANCE PUSH2 0x3E8 PUSH1 0x3 SLOAD PUSH1 0x2 DUP1 SLOAD PUSH2 0x992 SWAP2 SWAP1 PUSH2 0x1CFB JUMP JUMPDEST PUSH2 0x99C SWAP2 SWAP1 PUSH2 0x1D2F JUMP JUMPDEST PUSH2 0x9A6 SWAP2 SWAP1 PUSH2 0x1D63 JUMP JUMPDEST GT JUMPDEST ISZERO PUSH2 0xA0B JUMPI PUSH2 0x9D9 PUSH32 0xA6A00B89CCA598A0F57F78829E8E97854399D0F965024E4D0F92C7EB5B2A87FE PUSH1 0x0 SHL PUSH2 0x197A JUMP JUMPDEST PUSH1 0x40 MLOAD PUSH32 0xF06294A300000000000000000000000000000000000000000000000000000000 DUP2 MSTORE PUSH1 0x4 ADD PUSH1 0x40 MLOAD DUP1 SWAP2 SUB SWAP1 REVERT JUMPDEST PUSH2 0xA37 PUSH32 0x669A0F405199088B0FB20E88A6870B75D88FC6654705FD2718D4309B59C5D8CF PUSH1 0x0 SHL PUSH2 0x197A JUMP JUMPDEST PUSH2 0xA63 PUSH32 0x3C27B69D769C1374AD3A1D56C512F35AF82842419EAA1ED6F9315ABD6C496FBF PUSH1 0x0 SHL PUSH2 0x197A JUMP JUMPDEST PUSH2 0xA8F PUSH32 0x2074AC94A2EDF1FE5FD6945E4BB42E485B31B387616D52BE14A6F16D233A5FF1 PUSH1 0x0 SHL PUSH2 0x197A JUMP JUMPDEST PUSH2 0xA97 PUSH2 0x197D JUMP JUMPDEST PUSH2 0xAC3 PUSH32 0xE3BF91CD0C8A95DEF7D61032CAF0E355CFFF06BAC869001113549EC0289ABC95 PUSH1 0x0 SHL PUSH2 0x197A JUMP JUMPDEST PUSH2 0xAEF PUSH32 0x14C8D0B2DB23248E1C01A2F77E4851311054F8B0B7E840065014E89789B23A0F PUSH1 0x0 SHL PUSH2 0x197A JUMP JUMPDEST PUSH32 0x0 PUSH20 0xFFFFFFFFFFFFFFFFFFFFFFFFFFFFFFFFFFFFFFFF AND PUSH2 0x8FC CALLVALUE SWAP1 DUP2 ISZERO MUL SWAP1 PUSH1 0x40 MLOAD PUSH1 0x0 PUSH1 0x40 MLOAD DUP1 DUP4 SUB DUP2 DUP6 DUP9 DUP9 CALL SWAP4 POP POP POP POP ISZERO DUP1 ISZERO PUSH2 0xB55 JUMPI RETURNDATASIZE PUSH1 0x0 DUP1 RETURNDATACOPY RETURNDATASIZE PUSH1 0x0 REVERT JUMPDEST POP JUMP JUMPDEST PUSH1 0x0 DUP1 SLOAD SWAP1 PUSH2 0x100 EXP SWAP1 DIV PUSH20 0xFFFFFFFFFFFFFFFFFFFFFFFFFFFFFFFFFFFFFFFF AND DUP2 JUMP JUMPDEST PUSH2 0xBA8 PUSH32 0x8814F43CAD5FC30266DD814ECACA50DE4F9B9ED5A41B1E3B8B3A2995D2119A4 PUSH1 0x0 SHL PUSH2 0x197A JUMP JUMPDEST PUSH2 0xBD4 PUSH32 0x9D6CD873D12066B905053A2798A36416E8805D61A272EF24D41C111B717639F4 PUSH1 0x0 SHL PUSH2 0x197A JUMP JUMPDEST PUSH2 0xC00 PUSH32 0xCA7C0A2730679018CFDDACFCF90BA42CDDCC4B9DC81C3731795F133846A77977 PUSH1 0x0 SHL PUSH2 0x197A JUMP JUMPDEST PUSH32 0x0 PUSH20 0xFFFFFFFFFFFFFFFFFFFFFFFFFFFFFFFFFFFFFFFF AND CALLER PUSH20 0xFFFFFFFFFFFFFFFFFFFFFFFFFFFFFFFFFFFFFFFF AND EQ PUSH2 0xCB1 JUMPI PUSH2 0xC7F PUSH32 0xD1AF7DDE007A12F7C51A4A36CECDB46236079D301F32E6F79D726939793EBA69 PUSH1 0x0 SHL PUSH2 0x197A JUMP JUMPDEST PUSH1 0x40 MLOAD PUSH32 0x1EE8575E00000000000000000000000000000000000000000000000000000000 DUP2 MSTORE PUSH1 0x4 ADD PUSH1 0x40 MLOAD DUP1 SWAP2 SUB SWAP1 REVERT JUMPDEST PUSH2 0xCDD PUSH32 0xAD36C8511BF597EBF37D665461C5B0AA02E44D3DB68472D9B0D4ECD753223BD4 PUSH1 0x0 SHL PUSH2 0x197A JUMP JUMPDEST PUSH2 0xD09 PUSH32 0x4846B0328240A5112220880D1C6591D2CCC4A1DEE835D5685D4640E565164DCD PUSH1 0x0 SHL PUSH2 0x197A JUMP JUMPDEST PUSH2 0xD35 PUSH32 0x218147DFCA35FE947A4E00543B0E48C0D2CE0AF0A5CF2CEEA4DA0EB98E576795 PUSH1 0x0 SHL PUSH2 0x197A JUMP JUMPDEST PUSH1 0x0 CALLVALUE SUB PUSH2 0xD9B JUMPI PUSH2 0xD69 PUSH32 0xF8A330E175DFAC408493EE532BBF8595E1EA54ECDF25F1BB9E6F2846479B802F PUSH1 0x0 SHL PUSH2 0x197A JUMP JUMPDEST PUSH1 0x40 MLOAD PUSH32 0xCDB5D8500000000000000000000000000000000000000000000000000000000 DUP2 MSTORE PUSH1 0x4 ADD PUSH1 0x40 MLOAD DUP1 SWAP2 SUB SWAP1 REVERT JUMPDEST PUSH2 0xDC7 PUSH32 0x74BB17B394F8CC7B5B0045515B9197554B295B02AD39458C5B14EEA948CA11A9 PUSH1 0x0 SHL PUSH2 0x197A JUMP JUMPDEST JUMP JUMPDEST PUSH2 0xDF5 PUSH32 0xAA4A7941547DB74574678AE749CC0DF2DD2A1D71BDA715C90D9AAF81D6B06296 PUSH1 0x0 SHL PUSH2 0x197A JUMP JUMPDEST PUSH2 0xE21 PUSH32 0x5342BC649C4DCF4AEFE78E9EA24BC4507393EFD53D3D7FDC016B8407F9F7409E PUSH1 0x0 SHL PUSH2 0x197A JUMP JUMPDEST PUSH2 0xE4D PUSH32 0x4CC31D34C740AA52EC1BA6EBB4746663CCB0D58C596EB612C6F46FECEB51AC10 PUSH1 0x0 SHL PUSH2 0x197A JUMP JUMPDEST PUSH1 0x0 PUSH20 0xFFFFFFFFFFFFFFFFFFFFFFFFFFFFFFFFFFFFFFFF AND PUSH1 0x0 DUP1 SLOAD SWAP1 PUSH2 0x100 EXP SWAP1 DIV PUSH20 0xFFFFFFFFFFFFFFFFFFFFFFFFFFFFFFFFFFFFFFFF AND PUSH20 0xFFFFFFFFFFFFFFFFFFFFFFFFFFFFFFFFFFFFFFFF AND EQ DUP1 PUSH2 0xEF4 JUMPI POP PUSH1 0x0 DUP1 SLOAD SWAP1 PUSH2 0x100 EXP SWAP1 DIV PUSH20 0xFFFFFFFFFFFFFFFFFFFFFFFFFFFFFFFFFFFFFFFF AND PUSH20 0xFFFFFFFFFFFFFFFFFFFFFFFFFFFFFFFFFFFFFFFF AND CALLER PUSH20 0xFFFFFFFFFFFFFFFFFFFFFFFFFFFFFFFFFFFFFFFF AND EQ ISZERO JUMPDEST DUP1 PUSH2 0xF02 JUMPI POP PUSH1 0x3 SLOAD PUSH1 0x2 SLOAD LT JUMPDEST ISZERO PUSH2 0xF65 JUMPI PUSH2 0xF33 PUSH32 0x3AD632E5CE40DDA95432DA9C0BE6BA64BD49DD8E47ACFFACF8E793D532E8ECC7 PUSH1 0x0 SHL PUSH2 0x197A JUMP JUMPDEST PUSH1 0x40 MLOAD PUSH32 0x4DA1BC3400000000000000000000000000000000000000000000000000000000 DUP2 MSTORE PUSH1 0x4 ADD PUSH1 0x40 MLOAD DUP1 SWAP2 SUB SWAP1 REVERT JUMPDEST PUSH2 0xF91 PUSH32 0xEA1FF922C5953A3E1F0B038237B9626CD878663B2CC27AED8F06E05F84C89A2D PUSH1 0x0 SHL PUSH2 0x197A JUMP JUMPDEST PUSH2 0xFBD PUSH32 0x26692386E539330EC784E9FDC1EB10AA2CA7EB30156FED49BB6E56F429260F17 PUSH1 0x0 SHL PUSH2 0x197A JUMP JUMPDEST PUSH1 0x1 PUSH1 0x0 PUSH1 0x3 SLOAD DUP2 MSTORE PUSH1 0x20 ADD SWAP1 DUP2 MSTORE PUSH1 0x20 ADD PUSH1 0x0 KECCAK256 PUSH1 0x0 PUSH2 0x100 EXP DUP2 SLOAD SWAP1 PUSH20 0xFFFFFFFFFFFFFFFFFFFFFFFFFFFFFFFFFFFFFFFF MUL NOT AND SWAP1 SSTORE PUSH2 0x1021 PUSH32 0xBC6ECBBEEED7D87AC88BD70FD75687B380AD4E3F62DEE9733AE68EB57697E1C7 PUSH1 0x0 SHL PUSH2 0x197A JUMP JUMPDEST PUSH2 0x104D PUSH32 0x9002A21D2AC9EBA0F45DF1CA4E78A30515D87162A6E478F95EFE94F41E03D583 PUSH1 0x0 SHL PUSH2 0x197A JUMP JUMPDEST PUSH1 0x1 PUSH1 0x3 PUSH1 0x0 DUP3 DUP3 SLOAD PUSH2 0x1060 SWAP2 SWAP1 PUSH2 0x1CFB JUMP JUMPDEST SWAP3 POP POP DUP2 SWAP1 SSTORE POP JUMP JUMPDEST PUSH2 0x1095 PUSH32 0x64DD5AB96501C2F95F98CB0A92D6760B73E671401A3CFA2474B9179535393759 PUSH1 0x0 SHL PUSH2 0x197A JUMP JUMPDEST PUSH2 0x10C1 PUSH32 0xDC7486FE88C3CC76047D09549F0B334D1E41C3A1521F4FA051E63AC981437A86 PUSH1 0x0 SHL PUSH2 0x197A JUMP JUMPDEST PUSH2 0x10ED PUSH32 0xFEFDD31C97BCC591AAF33981CD26BA5D17362814156EF7877854EA787830CF27 PUSH1 0x0 SHL PUSH2 0x197A JUMP JUMPDEST PUSH32 0x0 PUSH20 0xFFFFFFFFFFFFFFFFFFFFFFFFFFFFFFFFFFFFFFFF AND CALLER PUSH20 0xFFFFFFFFFFFFFFFFFFFFFFFFFFFFFFFFFFFFFFFF AND EQ PUSH2 0x119E JUMPI PUSH2 0x116C PUSH32 0xF570D3D74AA13683CB3B43080C682C01047C5E1290760E9FFF5C608166BEA972 PUSH1 0x0 SHL PUSH2 0x197A JUMP JUMPDEST PUSH1 0x40 MLOAD PUSH32 0x1EE8575E00000000000000000000000000000000000000000000000000000000 DUP2 MSTORE PUSH1 0x4 ADD PUSH1 0x40 MLOAD DUP1 SWAP2 SUB SWAP1 REVERT JUMPDEST PUSH2 0x11C9 PUSH31 0xDE50E54AFDB419B4C96A2CC32A041CF93BF520197E92809885CF5D3B2BAB51 PUSH1 0x0 SHL PUSH2 0x197A JUMP JUMPDEST PUSH2 0x11F5 PUSH32 0xCB930CCBB89F61013DF526EC335C7A4107F101BB23FA615AD38EA86D36DA5E75 PUSH1 0x0 SHL PUSH2 0x197A JUMP JUMPDEST PUSH2 0x1221 PUSH32 0x41E49198CADA5D6CD5CCC37CC30B29A47A1574AFC9DFCCE66EB9C37BEE7A7326 PUSH1 0x0 SHL PUSH2 0x197A JUMP JUMPDEST PUSH1 0x0 PUSH20 0xFFFFFFFFFFFFFFFFFFFFFFFFFFFFFFFFFFFFFFFF AND PUSH1 0x0 DUP1 SLOAD SWAP1 PUSH2 0x100 EXP SWAP1 DIV PUSH20 0xFFFFFFFFFFFFFFFFFFFFFFFFFFFFFFFFFFFFFFFF AND PUSH20 0xFFFFFFFFFFFFFFFFFFFFFFFFFFFFFFFFFFFFFFFF AND EQ DUP1 PUSH2 0x1397 JUMPI POP PUSH1 0x0 DUP1 SLOAD SWAP1 PUSH2 0x100 EXP SWAP1 DIV PUSH20 0xFFFFFFFFFFFFFFFFFFFFFFFFFFFFFFFFFFFFFFFF AND PUSH20 0xFFFFFFFFFFFFFFFFFFFFFFFFFFFFFFFFFFFFFFFF AND PUSH4 0x3DF4DDF4 PUSH1 0x40 MLOAD DUP2 PUSH4 0xFFFFFFFF AND PUSH1 0xE0 SHL DUP2 MSTORE PUSH1 0x4 ADD PUSH1 0x20 PUSH1 0x40 MLOAD DUP1 DUP4 SUB DUP2 DUP7 GAS STATICCALL ISZERO DUP1 ISZERO PUSH2 0x12E2 JUMPI RETURNDATASIZE PUSH1 0x0 DUP1 RETURNDATACOPY RETURNDATASIZE PUSH1 0x0 REVERT JUMPDEST POP POP POP POP PUSH1 0x40 MLOAD RETURNDATASIZE PUSH1 0x1F NOT PUSH1 0x1F DUP3 ADD AND DUP3 ADD DUP1 PUSH1 0x40 MSTORE POP DUP2 ADD SWAP1 PUSH2 0x1306 SWAP2 SWAP1 PUSH2 0x1C9F JUMP JUMPDEST PUSH1 0x0 DUP1 SLOAD SWAP1 PUSH2 0x100 EXP SWAP1 DIV PUSH20 0xFFFFFFFFFFFFFFFFFFFFFFFFFFFFFFFFFFFFFFFF AND PUSH20 0xFFFFFFFFFFFFFFFFFFFFFFFFFFFFFFFFFFFFFFFF AND PUSH4 0x47799DA8 PUSH1 0x40 MLOAD DUP2 PUSH4 0xFFFFFFFF AND PUSH1 0xE0 SHL DUP2 MSTORE PUSH1 0x4 ADD PUSH1 0x20 PUSH1 0x40 MLOAD DUP1 DUP4 SUB DUP2 DUP7 GAS STATICCALL ISZERO DUP1 ISZERO PUSH2 0x1371 JUMPI RETURNDATASIZE PUSH1 0x0 DUP1 RETURNDATACOPY RETURNDATASIZE PUSH1 0x0 REVERT JUMPDEST POP POP POP POP PUSH1 0x40 MLOAD RETURNDATASIZE PUSH1 0x1F NOT PUSH1 0x1F DUP3 ADD AND DUP3 ADD DUP1 PUSH1 0x40 MSTORE POP DUP2 ADD SWAP1 PUSH2 0x1395 SWAP2 SWAP1 PUSH2 0x1C9F JUMP JUMPDEST LT JUMPDEST ISZERO PUSH2 0x13FA JUMPI PUSH2 0x13C8 PUSH32 0x90ACDC28E46E2EAAEC38A14766F5915F0FC1D525294F98038F7058919812F5E4 PUSH1 0x0 SHL PUSH2 0x197A JUMP JUMPDEST PUSH1 0x40 MLOAD PUSH32 0x5E61BB8700000000000000000000000000000000000000000000000000000000 DUP2 MSTORE PUSH1 0x4 ADD PUSH1 0x40 MLOAD DUP1 SWAP2 SUB SWAP1 REVERT JUMPDEST PUSH2 0x1426 PUSH32 0x2F04AD311EAA17C9AC55A1CA702073C3AADBEC62BD29380C8106AC6F33DA4F18 PUSH1 0x0 SHL PUSH2 0x197A JUMP JUMPDEST PUSH2 0x1452 PUSH32 0x231AC68BB1D16F62A9FBE266B9EA9794C9CA9EEDD09E49EEBCCB8D57B44615FE PUSH1 0x0 SHL PUSH2 0x197A JUMP JUMPDEST PUSH2 0x147E PUSH32 0x5886E9DC65CEB3439EE6BD5E749092BBC8571AAC8731B58FE89B4B26895B9190 PUSH1 0x0 SHL PUSH2 0x197A JUMP JUMPDEST PUSH1 0x0 DUP1 PUSH1 0x0 SWAP1 SLOAD SWAP1 PUSH2 0x100 EXP SWAP1 DIV PUSH20 0xFFFFFFFFFFFFFFFFFFFFFFFFFFFFFFFFFFFFFFFF AND PUSH20 0xFFFFFFFFFFFFFFFFFFFFFFFFFFFFFFFFFFFFFFFF AND PUSH4 0xDDF0B009 PUSH1 0x0 DUP1 SLOAD SWAP1 PUSH2 0x100 EXP SWAP1 DIV PUSH20 0xFFFFFFFFFFFFFFFFFFFFFFFFFFFFFFFFFFFFFFFF AND PUSH20 0xFFFFFFFFFFFFFFFFFFFFFFFFFFFFFFFFFFFFFFFF AND PUSH4 0x47799DA8 PUSH1 0x40 MLOAD DUP2 PUSH4 0xFFFFFFFF AND PUSH1 0xE0 SHL DUP2 MSTORE PUSH1 0x4 ADD PUSH1 0x20 PUSH1 0x40 MLOAD DUP1 DUP4 SUB DUP2 DUP7 GAS STATICCALL ISZERO DUP1 ISZERO PUSH2 0x1528 JUMPI RETURNDATASIZE PUSH1 0x0 DUP1 RETURNDATACOPY RETURNDATASIZE PUSH1 0x0 REVERT JUMPDEST POP POP POP POP PUSH1 0x40 MLOAD RETURNDATASIZE PUSH1 0x1F NOT PUSH1 0x1F DUP3 ADD AND DUP3 ADD DUP1 PUSH1 0x40 MSTORE POP DUP2 ADD SWAP1 PUSH2 0x154C SWAP2 SWAP1 PUSH2 0x1C9F JUMP JUMPDEST PUSH1 0x40 MLOAD DUP3 PUSH4 0xFFFFFFFF AND PUSH1 0xE0 SHL DUP2 MSTORE PUSH1 0x4 ADD PUSH2 0x1568 SWAP2 SWAP1 PUSH2 0x1AE2 JUMP JUMPDEST PUSH1 0x20 PUSH1 0x40 MLOAD DUP1 DUP4 SUB DUP2 DUP7 GAS STATICCALL ISZERO DUP1 ISZERO PUSH2 0x1585 JUMPI RETURNDATASIZE PUSH1 0x0 DUP1 RETURNDATACOPY RETURNDATASIZE PUSH1 0x0 REVERT JUMPDEST POP POP POP POP PUSH1 0x40 MLOAD RETURNDATASIZE PUSH1 0x1F NOT PUSH1 0x1F DUP3 ADD AND DUP3 ADD DUP1 PUSH1 0x40 MSTORE POP DUP2 ADD SWAP1 PUSH2 0x15A9 SWAP2 SWAP1 PUSH2 0x1DBA JUMP JUMPDEST SWAP1 POP PUSH2 0x15D7 PUSH32 0x1CCCB60D2973BD95E754A4F10C5464370DEDEF1A132E10450C91E78203C4565A PUSH1 0x0 SHL PUSH2 0x197A JUMP JUMPDEST PUSH2 0x1603 PUSH32 0x5AF3733F2ECC4EB76ECBA313216ED64D49880C6E13BC12E28FD112507BA1CA17 PUSH1 0x0 SHL PUSH2 0x197A JUMP JUMPDEST PUSH1 0x0 DUP1 SLOAD SWAP1 PUSH2 0x100 EXP SWAP1 DIV PUSH20 0xFFFFFFFFFFFFFFFFFFFFFFFFFFFFFFFFFFFFFFFF AND PUSH20 0xFFFFFFFFFFFFFFFFFFFFFFFFFFFFFFFFFFFFFFFF AND PUSH4 0x957908D1 PUSH1 0x40 MLOAD DUP2 PUSH4 0xFFFFFFFF AND PUSH1 0xE0 SHL DUP2 MSTORE PUSH1 0x4 ADD PUSH1 0x0 PUSH1 0x40 MLOAD DUP1 DUP4 SUB DUP2 PUSH1 0x0 DUP8 DUP1 EXTCODESIZE ISZERO DUP1 ISZERO PUSH2 0x166B JUMPI PUSH1 0x0 DUP1 REVERT JUMPDEST POP GAS CALL ISZERO DUP1 ISZERO PUSH2 0x167F JUMPI RETURNDATASIZE PUSH1 0x0 DUP1 RETURNDATACOPY RETURNDATASIZE PUSH1 0x0 REVERT JUMPDEST POP POP POP POP PUSH2 0x16AF PUSH32 0x4FFDEADC1B3A24FFF23144D37F3CA328749EEF90764A6C8392E0706538FFB84E PUSH1 0x0 SHL PUSH2 0x197A JUMP JUMPDEST PUSH2 0x16DB PUSH32 0xDB076CD4B8319BBA5CB2EAF8A4EB31B459F734322E22EA6E2B17E40A5D832DE1 PUSH1 0x0 SHL PUSH2 0x197A JUMP JUMPDEST DUP1 PUSH20 0xFFFFFFFFFFFFFFFFFFFFFFFFFFFFFFFFFFFFFFFF AND PUSH2 0x8FC PUSH2 0x3E8 SWAP1 DUP2 ISZERO MUL SWAP1 PUSH1 0x40 MLOAD PUSH1 0x0 PUSH1 0x40 MLOAD DUP1 DUP4 SUB DUP2 DUP6 DUP9 DUP9 CALL SWAP4 POP POP POP POP ISZERO DUP1 ISZERO PUSH2 0x1723 JUMPI RETURNDATASIZE PUSH1 0x0 DUP1 RETURNDATACOPY RETURNDATASIZE PUSH1 0x0 REVERT JUMPDEST POP POP JUMP JUMPDEST PUSH32 0x0 DUP2 JUMP JUMPDEST PUSH2 0x1777 PUSH32 0x4D4DC8040520BAF52059FACB9984059D5D90B646BA0738768E8455B525AC3954 PUSH1 0x0 SHL PUSH2 0x197A JUMP JUMPDEST PUSH2 0x17A3 PUSH32 0x6402C7264C64085472E83B2C3EE6ED1BBEE2490D6029F4233FD89B7BA198041E PUSH1 0x0 SHL PUSH2 0x197A JUMP JUMPDEST PUSH2 0x17CF PUSH32 0x718B68F8E2C9E932D44977DE477D020F949D7D637EF8790C15B806C95DA3B82 PUSH1 0x0 SHL PUSH2 0x197A JUMP JUMPDEST PUSH32 0x0 PUSH20 0xFFFFFFFFFFFFFFFFFFFFFFFFFFFFFFFFFFFFFFFF AND CALLER PUSH20 0xFFFFFFFFFFFFFFFFFFFFFFFFFFFFFFFFFFFFFFFF AND EQ PUSH2 0x1880 JUMPI PUSH2 0x184E PUSH32 0x71642C31AA0AC975E27B8A558BE686B863CF6C7CA93BC8E86F795261E5E2AC92 PUSH1 0x0 SHL PUSH2 0x197A JUMP JUMPDEST PUSH1 0x40 MLOAD PUSH32 0x1EE8575E00000000000000000000000000000000000000000000000000000000 DUP2 MSTORE PUSH1 0x4 ADD PUSH1 0x40 MLOAD DUP1 SWAP2 SUB SWAP1 REVERT JUMPDEST PUSH2 0x18AC PUSH32 0x3450C326FE3B8EB379B74FB88A734B655947B2B83B0E63D55411D4052B165954 PUSH1 0x0 SHL PUSH2 0x197A JUMP JUMPDEST PUSH2 0x18D8 PUSH32 0x1CB6806BC21594E2E3AFB4F3BC191B955C63F48B70DD04222C9DD7011219B6F8 PUSH1 0x0 SHL PUSH2 0x197A JUMP JUMPDEST PUSH2 0x1904 PUSH32 0xE09AEC326B82489FD575950C862E4CD8994D7BF6AA03FE558F476DF00815E3EC PUSH1 0x0 SHL PUSH2 0x197A JUMP JUMPDEST DUP1 PUSH1 0x0 DUP1 PUSH2 0x100 EXP DUP2 SLOAD DUP2 PUSH20 0xFFFFFFFFFFFFFFFFFFFFFFFFFFFFFFFFFFFFFFFF MUL NOT AND SWAP1 DUP4 PUSH20 0xFFFFFFFFFFFFFFFFFFFFFFFFFFFFFFFFFFFFFFFF AND MUL OR SWAP1 SSTORE POP POP JUMP JUMPDEST PUSH1 0x1 PUSH1 0x20 MSTORE DUP1 PUSH1 0x0 MSTORE PUSH1 0x40 PUSH1 0x0 KECCAK256 PUSH1 0x0 SWAP2 POP SLOAD SWAP1 PUSH2 0x100 EXP SWAP1 DIV PUSH20 0xFFFFFFFFFFFFFFFFFFFFFFFFFFFFFFFFFFFFFFFF AND DUP2 JUMP JUMPDEST POP JUMP JUMPDEST PUSH2 0x19A9 PUSH32 0xA9E8E5E888D950F5ABFA84BA210A1C100E90A1A2BC60153D3659C68724F08BC4 PUSH1 0x0 SHL PUSH2 0x197A JUMP JUMPDEST PUSH2 0x19D5 PUSH32 0x6356912C8FF69F99A75FEE56D8ADAB179D9DA4DE2EBA2CB915F38CC1A9DAC6CA PUSH1 0x0 SHL PUSH2 0x197A JUMP JUMPDEST PUSH2 0x1A01 PUSH32 0xD78F26E30970A1F8D937C4F4CF1D24CB769BE55D7E8A4F740911D0ED3AB7A860 PUSH1 0x0 SHL PUSH2 0x197A JUMP JUMPDEST PUSH1 0x1 PUSH1 0x2 PUSH1 0x0 DUP3 DUP3 SLOAD PUSH2 0x1A14 SWAP2 SWAP1 PUSH2 0x1CFB JUMP JUMPDEST SWAP3 POP POP DUP2 SWAP1 SSTORE POP PUSH2 0x1A47 PUSH32 0x7939813665161724A3F06C843708F870060D120A3512911530E3FA35A6B27483 PUSH1 0x0 SHL PUSH2 0x197A JUMP JUMPDEST PUSH2 0x1A73 PUSH32 0xB8B72037B7E0186A2B7B6BDA1FC209ED13E46AE4EC645235A5A8E025FD792F4F PUSH1 0x0 SHL PUSH2 0x197A JUMP JUMPDEST CALLER PUSH1 0x1 PUSH1 0x0 PUSH1 0x2 SLOAD DUP2 MSTORE PUSH1 0x20 ADD SWAP1 DUP2 MSTORE PUSH1 0x20 ADD PUSH1 0x0 KECCAK256 PUSH1 0x0 PUSH2 0x100 EXP DUP2 SLOAD DUP2 PUSH20 0xFFFFFFFFFFFFFFFFFFFFFFFFFFFFFFFFFFFFFFFF MUL NOT AND SWAP1 DUP4 PUSH20 0xFFFFFFFFFFFFFFFFFFFFFFFFFFFFFFFFFFFFFFFF AND MUL OR SWAP1 SSTORE POP JUMP JUMPDEST PUSH1 0x0 DUP2 SWAP1 POP SWAP2 SWAP1 POP JUMP JUMPDEST PUSH2 0x1ADC DUP2 PUSH2 0x1AC9 JUMP JUMPDEST DUP3 MSTORE POP POP JUMP JUMPDEST PUSH1 0x0 PUSH1 0x20 DUP3 ADD SWAP1 POP PUSH2 0x1AF7 PUSH1 0x0 DUP4 ADD DUP5 PUSH2 0x1AD3 JUMP JUMPDEST SWAP3 SWAP2 POP POP JUMP JUMPDEST PUSH1 0x0 PUSH20 0xFFFFFFFFFFFFFFFFFFFFFFFFFFFFFFFFFFFFFFFF DUP3 AND SWAP1 POP SWAP2 SWAP1 POP JUMP JUMPDEST PUSH1 0x0 DUP2 SWAP1 POP SWAP2 SWAP1 POP JUMP JUMPDEST PUSH1 0x0 PUSH2 0x1B42 PUSH2 0x1B3D PUSH2 0x1B38 DUP5 PUSH2 0x1AFD JUMP JUMPDEST PUSH2 0x1B1D JUMP JUMPDEST PUSH2 0x1AFD JUMP JUMPDEST SWAP1 POP SWAP2 SWAP1 POP JUMP JUMPDEST PUSH1 0x0 PUSH2 0x1B54 DUP3 PUSH2 0x1B27 JUMP JUMPDEST SWAP1 POP SWAP2 SWAP1 POP JUMP JUMPDEST PUSH1 0x0 PUSH2 0x1B66 DUP3 PUSH2 0x1B49 JUMP JUMPDEST SWAP1 POP SWAP2 SWAP1 POP JUMP JUMPDEST PUSH2 0x1B76 DUP2 PUSH2 0x1B5B JUMP JUMPDEST DUP3 MSTORE POP POP JUMP JUMPDEST PUSH1 0x0 PUSH1 0x20 DUP3 ADD SWAP1 POP PUSH2 0x1B91 PUSH1 0x0 DUP4 ADD DUP5 PUSH2 0x1B6D JUMP JUMPDEST SWAP3 SWAP2 POP POP JUMP JUMPDEST PUSH1 0x0 PUSH2 0x1BA2 DUP3 PUSH2 0x1AFD JUMP JUMPDEST SWAP1 POP SWAP2 SWAP1 POP JUMP JUMPDEST PUSH2 0x1BB2 DUP2 PUSH2 0x1B97 JUMP JUMPDEST DUP3 MSTORE POP POP JUMP JUMPDEST PUSH1 0x0 PUSH1 0x20 DUP3 ADD SWAP1 POP PUSH2 0x1BCD PUSH1 0x0 DUP4 ADD DUP5 PUSH2 0x1BA9 JUMP JUMPDEST SWAP3 SWAP2 POP POP JUMP JUMPDEST PUSH1 0x0 DUP1 REVERT JUMPDEST PUSH2 0x1BE1 DUP2 PUSH2 0x1B97 JUMP JUMPDEST DUP2 EQ PUSH2 0x1BEC JUMPI PUSH1 0x0 DUP1 REVERT JUMPDEST POP JUMP JUMPDEST PUSH1 0x0 DUP2 CALLDATALOAD SWAP1 POP PUSH2 0x1BFE DUP2 PUSH2 0x1BD8 JUMP JUMPDEST SWAP3 SWAP2 POP POP JUMP JUMPDEST PUSH1 0x0 PUSH1 0x20 DUP3 DUP5 SUB SLT ISZERO PUSH2 0x1C1A JUMPI PUSH2 0x1C19 PUSH2 0x1BD3 JUMP JUMPDEST JUMPDEST PUSH1 0x0 PUSH2 0x1C28 DUP5 DUP3 DUP6 ADD PUSH2 0x1BEF JUMP JUMPDEST SWAP2 POP POP SWAP3 SWAP2 POP POP JUMP JUMPDEST PUSH2 0x1C3A DUP2 PUSH2 0x1AC9 JUMP JUMPDEST DUP2 EQ PUSH2 0x1C45 JUMPI PUSH1 0x0 DUP1 REVERT JUMPDEST POP JUMP JUMPDEST PUSH1 0x0 DUP2 CALLDATALOAD SWAP1 POP PUSH2 0x1C57 DUP2 PUSH2 0x1C31 JUMP JUMPDEST SWAP3 SWAP2 POP POP JUMP JUMPDEST PUSH1 0x0 PUSH1 0x20 DUP3 DUP5 SUB SLT ISZERO PUSH2 0x1C73 JUMPI PUSH2 0x1C72 PUSH2 0x1BD3 JUMP JUMPDEST JUMPDEST PUSH1 0x0 PUSH2 0x1C81 DUP5 DUP3 DUP6 ADD PUSH2 0x1C48 JUMP JUMPDEST SWAP2 POP POP SWAP3 SWAP2 POP POP JUMP JUMPDEST PUSH1 0x0 DUP2 MLOAD SWAP1 POP PUSH2 0x1C99 DUP2 PUSH2 0x1C31 JUMP JUMPDEST SWAP3 SWAP2 POP POP JUMP JUMPDEST PUSH1 0x0 PUSH1 0x20 DUP3 DUP5 SUB SLT ISZERO PUSH2 0x1CB5 JUMPI PUSH2 0x1CB4 PUSH2 0x1BD3 JUMP JUMPDEST JUMPDEST PUSH1 0x0 PUSH2 0x1CC3 DUP5 DUP3 DUP6 ADD PUSH2 0x1C8A JUMP JUMPDEST SWAP2 POP POP SWAP3 SWAP2 POP POP JUMP JUMPDEST PUSH32 0x4E487B7100000000000000000000000000000000000000000000000000000000 PUSH1 0x0 MSTORE PUSH1 0x11 PUSH1 0x4 MSTORE PUSH1 0x24 PUSH1 0x0 REVERT JUMPDEST PUSH1 0x0 PUSH2 0x1D06 DUP3 PUSH2 0x1AC9 JUMP JUMPDEST SWAP2 POP PUSH2 0x1D11 DUP4 PUSH2 0x1AC9 JUMP JUMPDEST SWAP3 POP DUP3 DUP3 ADD SWAP1 POP DUP1 DUP3 GT ISZERO PUSH2 0x1D29 JUMPI PUSH2 0x1D28 PUSH2 0x1CCC JUMP JUMPDEST JUMPDEST SWAP3 SWAP2 POP POP JUMP JUMPDEST PUSH1 0x0 PUSH2 0x1D3A DUP3 PUSH2 0x1AC9 JUMP JUMPDEST SWAP2 POP PUSH2 0x1D45 DUP4 PUSH2 0x1AC9 JUMP JUMPDEST SWAP3 POP DUP3 DUP3 SUB SWAP1 POP DUP2 DUP2 GT ISZERO PUSH2 0x1D5D JUMPI PUSH2 0x1D5C PUSH2 0x1CCC JUMP JUMPDEST JUMPDEST SWAP3 SWAP2 POP POP JUMP JUMPDEST PUSH1 0x0 PUSH2 0x1D6E DUP3 PUSH2 0x1AC9 JUMP JUMPDEST SWAP2 POP PUSH2 0x1D79 DUP4 PUSH2 0x1AC9 JUMP JUMPDEST SWAP3 POP DUP3 DUP3 MUL PUSH2 0x1D87 DUP2 PUSH2 0x1AC9 JUMP JUMPDEST SWAP2 POP DUP3 DUP3 DIV DUP5 EQ DUP4 ISZERO OR PUSH2 0x1D9E JUMPI PUSH2 0x1D9D PUSH2 0x1CCC JUMP JUMPDEST JUMPDEST POP SWAP3 SWAP2 POP POP JUMP JUMPDEST PUSH1 0x0 DUP2 MLOAD SWAP1 POP PUSH2 0x1DB4 DUP2 PUSH2 0x1BD8 JUMP JUMPDEST SWAP3 SWAP2 POP POP JUMP JUMPDEST PUSH1 0x0 PUSH1 0x20 DUP3 DUP5 SUB SLT ISZERO PUSH2 0x1DD0 JUMPI PUSH2 0x1DCF PUSH2 0x1BD3 JUMP JUMPDEST JUMPDEST PUSH1 0x0 PUSH2 0x1DDE DUP5 DUP3 DUP6 ADD PUSH2 0x1DA5 JUMP JUMPDEST SWAP2 POP POP SWAP3 SWAP2 POP POP JUMP INVALID LOG2 PUSH5 0x6970667358 0x22 SLT KECCAK256 DUP12 PUSH23 0x97E6CE0EDC46E6E95F4E648EBBB4AE19E7D7072B7C38E6 0xFC PUSH15 0xACC224D2E764736F6C634300081100 CALLER "
        },
        "methodIdentifiers": {
          "Owner()": "b4a99a4e",
          "dequeue()": "957908d1",
          "first()": "3df4ddf4",
          "last()": "47799da8",
          "lockTokensForOptimism()": "4e22d208",
          "mockOwnerOptimismBridgeAddress(address)": "d06019f5",
          "optimismBridgeInstance()": "7f6c6d10",
          "ownerAddBridgeLiqudity()": "8521eebe",
          "ownerRemoveBridgeLiqudity()": "08dd057a",
          "ownerUnlockGoerliETH()": "af11cb40",
          "queue(uint256)": "ddf0b009"
        }
      }
    }
  }
}