{
  "contracts/MockBridgeMsgValue.sol": {
    "MockOptimismBridge": {
      "abi": [
        {
          "inputs": [],
          "stateMutability": "nonpayable",
          "type": "constructor"
        },
        {
          "inputs": [],
          "name": "bridgeEmpty",
          "type": "error"
        },
        {
          "inputs": [],
          "name": "bridgeOnOtherSideNeedsLiqudity",
          "type": "error"
        },
        {
          "inputs": [],
          "name": "msgValueNot1003",
          "type": "error"
        },
        {
          "inputs": [],
          "name": "msgValueZero",
          "type": "error"
        },
        {
          "inputs": [],
          "name": "notExternalBridge",
          "type": "error"
        },
        {
          "inputs": [],
          "name": "notOwnerAddress",
          "type": "error"
        },
        {
          "inputs": [],
          "name": "queueIsEmpty",
          "type": "error"
        },
        {
          "inputs": [],
          "name": "queueNotEmpty",
          "type": "error"
        },
        {
          "inputs": [],
          "name": "Owner",
          "outputs": [
            {
              "internalType": "address",
              "name": "",
              "type": "address"
            }
          ],
          "stateMutability": "view",
          "type": "function"
        },
        {
          "inputs": [],
          "name": "dequeue",
          "outputs": [],
          "stateMutability": "nonpayable",
          "type": "function"
        },
        {
          "inputs": [],
          "name": "first",
          "outputs": [
            {
              "internalType": "uint256",
              "name": "",
              "type": "uint256"
            }
          ],
          "stateMutability": "view",
          "type": "function"
        },
        {
          "inputs": [],
          "name": "goerliBridgeInstance",
          "outputs": [
            {
              "internalType": "contract MockGoerliBridge",
              "name": "",
              "type": "address"
            }
          ],
          "stateMutability": "view",
          "type": "function"
        },
        {
          "inputs": [],
          "name": "last",
          "outputs": [
            {
              "internalType": "uint256",
              "name": "",
              "type": "uint256"
            }
          ],
          "stateMutability": "view",
          "type": "function"
        },
        {
          "inputs": [],
          "name": "lockTokensForGoerli",
          "outputs": [],
          "stateMutability": "payable",
          "type": "function"
        },
        {
          "inputs": [
            {
              "internalType": "address",
              "name": "_token",
              "type": "address"
            }
          ],
          "name": "mockOwnerGoerliBridgeAddress",
          "outputs": [],
          "stateMutability": "nonpayable",
          "type": "function"
        },
        {
          "inputs": [],
          "name": "ownerAddBridgeLiqudity",
          "outputs": [],
          "stateMutability": "payable",
          "type": "function"
        },
        {
          "inputs": [],
          "name": "ownerRemoveBridgeLiqudity",
          "outputs": [],
          "stateMutability": "nonpayable",
          "type": "function"
        },
        {
          "inputs": [],
          "name": "ownerUnlockOptimismETH",
          "outputs": [],
          "stateMutability": "nonpayable",
          "type": "function"
        },
        {
          "inputs": [
            {
              "internalType": "uint256",
              "name": "",
              "type": "uint256"
            }
          ],
          "name": "queue",
          "outputs": [
            {
              "internalType": "address",
              "name": "",
              "type": "address"
            }
          ],
          "stateMutability": "view",
          "type": "function"
        }
      ],
      "evm": {
        "bytecode": {
          "linkReferences": {},
          "object": "60a060405260016003553480156200001657600080fd5b506200004b7f2eb81b04ac49b990e03def42f6021a537aa0d7a93c5eb0d25eee3689225e382b60001b620000ed60201b60201c565b6200007f7f7430008b6cf0e6ea4aeb809fe22edaafba4c020f463fb5c28b0fb5382dd7225860001b620000ed60201b60201c565b620000b37f60715aa93bd48692fa574246846eae86a0d549fa91e992f02b3710463c71564460001b620000ed60201b60201c565b3373ffffffffffffffffffffffffffffffffffffffff1660808173ffffffffffffffffffffffffffffffffffffffff1681525050620000f0565b50565b608051611e1d62000136600039600081816102b6015281816107330152818161082c01528181610eea01528181611353015281816113fb01526119130152611e1d6000f3fe60806040526004361061009c5760003560e01c80638521eebe116100645780638521eebe14610150578063957908d11461015a578063b4a99a4e14610171578063bd31a23a1461019c578063ddf0b009146101c5578063f67744c4146102025761009c565b806306557c31146100a157806308dd057a146100cc5780633df4ddf4146100e357806347799da81461010e578063515b74f214610139575b600080fd5b3480156100ad57600080fd5b506100b661020c565b6040516100c39190611b48565b60405180910390f35b3480156100d857600080fd5b506100e1610230565b005b3480156100ef57600080fd5b506100f861079a565b6040516101059190611b7c565b60405180910390f35b34801561011a57600080fd5b506101236107a0565b6040516101309190611b7c565b60405180910390f35b34801561014557600080fd5b5061014e6107a6565b005b610158610e64565b005b34801561016657600080fd5b5061016f6110b1565b005b34801561017d57600080fd5b50610186611351565b6040516101939190611bb8565b60405180910390f35b3480156101a857600080fd5b506101c360048036038101906101be9190611c04565b611375565b005b3480156101d157600080fd5b506101ec60048036038101906101e79190611c5d565b611571565b6040516101f99190611bb8565b60405180910390f35b61020a6115a4565b005b60008054906101000a900473ffffffffffffffffffffffffffffffffffffffff1681565b61025c7fbe590e8da9d4545ffa11eef6fe7e78bac90261a190f29c0e5d315a1d8c663e2160001b61197a565b6102887f6e7407f38eb4d2c713e7803d87c37a1aac880f7fde0ad74d074fc8e272cf488c60001b61197a565b6102b47ffa96c03e9675e5ac896fc6715d2d4af42a2ad2fb64bb728ae0f525528d00e5a360001b61197a565b7f000000000000000000000000000000000000000000000000000000000000000073ffffffffffffffffffffffffffffffffffffffff163373ffffffffffffffffffffffffffffffffffffffff1614610365576103337f98e8f715a3c00338d2bf0a1789c7b0fc471ef331eec5c2bda867cf8a19dc940d60001b61197a565b6040517f1ee8575e00000000000000000000000000000000000000000000000000000000815260040160405180910390fd5b6103917f4094f0bdfbc920151109dfee54c1cb050bd27d87a7a68a8c96c2e1a1d2ae035960001b61197a565b6103bd7ff8be64cf2f11f19e135ebc98dd229f5a3a9438e6de6f9c56f6cf94db4290c83160001b61197a565b6103e97fb3368d03295f3ec2a9f9e8445d56fa9034270da55315f4e2a565324152120d8160001b61197a565b6000470361044f5761041d7f9fa8554cdeb73a838198c9a24ba32066afac02819406f4540003025e62ef1fb660001b61197a565b6040517f7a1f291700000000000000000000000000000000000000000000000000000000815260040160405180910390fd5b61047b7f9d13dad1f6dee1be2ed29b4122bc36d25a36b1ac399760333baab599bfa24c4760001b61197a565b6104a77fbf5663188a90bfcdb86c8b431fe7c40b86a739036c0c3aa86661ce2634e2807660001b61197a565b6104d37fdeb5119f645ff7ae5e96c94ae8504c17ecd27326e5ac6da9c6841ef8920f4a3160001b61197a565b600073ffffffffffffffffffffffffffffffffffffffff1660008054906101000a900473ffffffffffffffffffffffffffffffffffffffff1673ffffffffffffffffffffffffffffffffffffffff16148061064a575060008054906101000a900473ffffffffffffffffffffffffffffffffffffffff1673ffffffffffffffffffffffffffffffffffffffff16633df4ddf46040518163ffffffff1660e01b8152600401602060405180830381865afa158015610594573d6000803e3d6000fd5b505050506040513d601f19601f820116820180604052508101906105b89190611c9f565b60008054906101000a900473ffffffffffffffffffffffffffffffffffffffff1673ffffffffffffffffffffffffffffffffffffffff166347799da86040518163ffffffff1660e01b8152600401602060405180830381865afa158015610623573d6000803e3d6000fd5b505050506040513d601f19601f820116820180604052508101906106479190611c9f565b10155b156106ad5761067b7f0ec82e0e288663b34306681318f81e889bfd97b76ce4645c4efe317c84d0cc6f60001b61197a565b6040517f230accfd00000000000000000000000000000000000000000000000000000000815260040160405180910390fd5b6106d97fd69c4751c5e1796a3abfe78b3aca326501a83dd47620e3a72140bfa0bb22093660001b61197a565b6107057fad0d0a875c43941136ad44e3b3c873b074e2cd4a27953a80d2e513ef7214aade60001b61197a565b6107317f231e800abb914c199aa11671a6e34bb02c086aceb22191ddaa3490b037aaa7ae60001b61197a565b7f000000000000000000000000000000000000000000000000000000000000000073ffffffffffffffffffffffffffffffffffffffff166108fc479081150290604051600060405180830381858888f19350505050158015610797573d6000803e3d6000fd5b50565b60035481565b60025481565b6107d27f359a4d37ed0cfa45d4416b1cbdf85aa9be4288ab8044928db83ee5bf087c8e4260001b61197a565b6107fe7f17bbc6284ce5844d257fe3c8c2991228830d5d0821014b2353333d69bf2e547460001b61197a565b61082a7f30864fddbdd534d8e3e66f991655e67e3443a90203f8a3a98ea5a3bb37b915f660001b61197a565b7f000000000000000000000000000000000000000000000000000000000000000073ffffffffffffffffffffffffffffffffffffffff163373ffffffffffffffffffffffffffffffffffffffff16146108db576108a97f8d459c547718be03732d875fd9ea329820d265b823e14ed64136351214388b6f60001b61197a565b6040517f1ee8575e00000000000000000000000000000000000000000000000000000000815260040160405180910390fd5b6109077f71a219899dda5c5dcaa5f765113532ef3464fdd50ea1be9c54011b47a6777f9260001b61197a565b6109337f16e430c72f5e452f639c94e4e7bfa5ec3dd5470178c8023b36e4a1df919f87a260001b61197a565b61095f7fb285af37a4c93e1ad06ac48b086f4b7e5f921b17b6e8ec53551a5d240c07cee760001b61197a565b600073ffffffffffffffffffffffffffffffffffffffff1660008054906101000a900473ffffffffffffffffffffffffffffffffffffffff1673ffffffffffffffffffffffffffffffffffffffff161480610ad5575060008054906101000a900473ffffffffffffffffffffffffffffffffffffffff1673ffffffffffffffffffffffffffffffffffffffff16633df4ddf46040518163ffffffff1660e01b8152600401602060405180830381865afa158015610a20573d6000803e3d6000fd5b505050506040513d601f19601f82011682018060405250810190610a449190611c9f565b60008054906101000a900473ffffffffffffffffffffffffffffffffffffffff1673ffffffffffffffffffffffffffffffffffffffff166347799da86040518163ffffffff1660e01b8152600401602060405180830381865afa158015610aaf573d6000803e3d6000fd5b505050506040513d601f19601f82011682018060405250810190610ad39190611c9f565b105b15610b3757610b057e754db5d4c3e2b594f5ea491504b99035d69abf3df947f389a68be8819fc4e360001b61197a565b6040517f5e61bb8700000000000000000000000000000000000000000000000000000000815260040160405180910390fd5b610b637f81bfdfaeef812c1429c0f9267b63bb6e973be135625706d175683169543e010560001b61197a565b610b8f7f2457ba42d6cde67cbad2cbbe6e064cbf400bcaa4865eb8d4001fdc2b22344d0660001b61197a565b610bbb7f35d993e8086434d3fd1942f2ce901ccce3fc1540abe0dc0560e808610a14014d60001b61197a565b60008060009054906101000a900473ffffffffffffffffffffffffffffffffffffffff1673ffffffffffffffffffffffffffffffffffffffff1663ddf0b00960008054906101000a900473ffffffffffffffffffffffffffffffffffffffff1673ffffffffffffffffffffffffffffffffffffffff166347799da86040518163ffffffff1660e01b8152600401602060405180830381865afa158015610c65573d6000803e3d6000fd5b505050506040513d601f19601f82011682018060405250810190610c899190611c9f565b6040518263ffffffff1660e01b8152600401610ca59190611b7c565b602060405180830381865afa158015610cc2573d6000803e3d6000fd5b505050506040513d601f19601f82011682018060405250810190610ce69190611ce1565b9050610d147fe735f68f298bd51489277bce893a6547cd26ec2eeee61b01d45b4d0da0af20dd60001b61197a565b610d407f40dd9f874998dfd3720bcf704ed0de30162baf02e0be6b19c3a06f4d38ff5d5360001b61197a565b60008054906101000a900473ffffffffffffffffffffffffffffffffffffffff1673ffffffffffffffffffffffffffffffffffffffff1663957908d16040518163ffffffff1660e01b8152600401600060405180830381600087803b158015610da857600080fd5b505af1158015610dbc573d6000803e3d6000fd5b50505050610dec7fa6f76bd72fd7d82c3eea77ad688c96a5a7921082f71efa7a8820c81eb471703b60001b61197a565b610e187f04e16fbc9c644895844a76bcfd14be937954f017bcc1a7a5c031e892bba6235d60001b61197a565b8073ffffffffffffffffffffffffffffffffffffffff166108fc6103e89081150290604051600060405180830381858888f19350505050158015610e60573d6000803e3d6000fd5b5050565b610e907f77041256efd28c67e0f9b2cfcd8b6041b601d338d5c66fe7840b2f2d29aaa9ad60001b61197a565b610ebc7f2516e6d6eceb2ffffbb70592da412741393efe9523c9d9fea8fa1213359357e060001b61197a565b610ee87f48db7b7c5b58dadccb1c4739a4c90f3eef12009f998e4873b0d3c3988db0ef4e60001b61197a565b7f000000000000000000000000000000000000000000000000000000000000000073ffffffffffffffffffffffffffffffffffffffff163373ffffffffffffffffffffffffffffffffffffffff1614610f9957610f677f219856057805290b6461449e22d115270fd239428c3209bdf7f56dd506f88c2960001b61197a565b6040517f1ee8575e00000000000000000000000000000000000000000000000000000000815260040160405180910390fd5b610fc57fd9e981b29c43a4c8eb86b3370135fff9fe72d046f9f0cf08c4eb6d99c2efc3f860001b61197a565b610ff17fd60458dc735cef3fb0b3e121d0252f81988b1c3651ee39449a39728dd05a6a4860001b61197a565b61101d7f55ee088844ffb70f83907f7ae0522e7a7b302621a4e6e12504aaaf93b309797f60001b61197a565b60003403611083576110517f57b27fbe0ac03bae26d3d394eec4e97acfacbb5f6412eb08b7076df3c836699b60001b61197a565b6040517f0cdb5d8500000000000000000000000000000000000000000000000000000000815260040160405180910390fd5b6110af7f117cb357aba1c15483feef519d3ae2d8efc8765ecba68dd8c048528f888e071f60001b61197a565b565b6110dd7f15e1cc766e9d5f6115296f526ca37640df23242e82ee9f3941b45b137b6995b660001b61197a565b6111097f4ec75259bc62051717ec659d3185b031b8b5c3fc08e3cd31c49daec8203cf8f460001b61197a565b6111357f47bb451a033b55a16830ccb16d3f25b542e5aa813c97d44b6f1be97ac3f3045e60001b61197a565b600073ffffffffffffffffffffffffffffffffffffffff1660008054906101000a900473ffffffffffffffffffffffffffffffffffffffff1673ffffffffffffffffffffffffffffffffffffffff1614806111dc575060008054906101000a900473ffffffffffffffffffffffffffffffffffffffff1673ffffffffffffffffffffffffffffffffffffffff163373ffffffffffffffffffffffffffffffffffffffff1614155b806111ea5750600354600254105b1561124d5761121b7fe24b69c71c9088b3b2bc90c619d99061de4bea6bd4ad5afee80e0d5f0697027860001b61197a565b6040517f4da1bc3400000000000000000000000000000000000000000000000000000000815260040160405180910390fd5b6112797fae371bcecbc54efbfdc926b8e38739d55009f2472c4446bfebee23f60c8f7bf860001b61197a565b6112a57fc143fb79a8a1f3a8acf512b6bc5733ddb0779e1ae93f989b14c3c459a0d5e0e260001b61197a565b60016000600354815260200190815260200160002060006101000a81549073ffffffffffffffffffffffffffffffffffffffff02191690556113097faf3a0480e009e1a85e8f4f8d3c475b607b4bad65caa7bc3bd9df64ef4ef0435360001b61197a565b6113357f1ca4590f7dcbaf51e57f8d484f477b99a5442d8aa755a164e86adf411e5dd33560001b61197a565b6001600360008282546113489190611d3d565b92505081905550565b7f000000000000000000000000000000000000000000000000000000000000000081565b6113a17fde7d1e5205dfd0c7c199ae53f5117f3caad45e7b36e57f3bd3eca5b4697bd67060001b61197a565b6113cd7f7d2aeebe24aa28aee1d2183922c76a0978d5a3ac51579283084f8e5a69d9eee560001b61197a565b6113f97f874453dbbb91dfedc94b5c0803c411e8984c44da7660fa1f80f55a0bf9058c7c60001b61197a565b7f000000000000000000000000000000000000000000000000000000000000000073ffffffffffffffffffffffffffffffffffffffff163373ffffffffffffffffffffffffffffffffffffffff16146114aa576114787f359128172bb085451b4932f8f8d0fbaacb01026ad148d1a1d597e60cc9ed434c60001b61197a565b6040517f1ee8575e00000000000000000000000000000000000000000000000000000000815260040160405180910390fd5b6114d67f9150999b4b114fa88e2eb62b77dcef74545c6df7f3bf291d4891ab5b9fa3f67960001b61197a565b6115027f9c63ff065c433ad1ca4fbeb1171075011ff387937c8e2c1e5c4f850f74797d3360001b61197a565b61152e7f15a59c30fc435a8e8a33b948ab9448b58dd76c56f505f3f5184aa42d1e40df3860001b61197a565b806000806101000a81548173ffffffffffffffffffffffffffffffffffffffff021916908373ffffffffffffffffffffffffffffffffffffffff16021790555050565b60016020528060005260406000206000915054906101000a900473ffffffffffffffffffffffffffffffffffffffff1681565b6115d07f7a036c9683ed0069ad0093b5f817325d8ad7832552905bb14c08aede4a9e579760001b61197a565b6115fc7f36809914ec6cf7d5629ea2206569bf3bb7e5936ff567ec68e4d89a2c1f9dde5c60001b61197a565b6116287fce9b1b8332470093c0ae02e317eaadd7d3f393df6891751344c2f49cdc698a0960001b61197a565b6103eb341461168f5761165d7fb38778523f78fcf0c8719e33693f32fe4bda39f9d13f94015ab9b2f8878e729c60001b61197a565b6040517fa43d860800000000000000000000000000000000000000000000000000000000815260040160405180910390fd5b6116ba7e11264ad564aeaa79af6e42abac41e8a7119807fd93818f9b180f934bf2102360001b61197a565b6116e67f89745e89221cae93bd390ce3573690e62e2cf92f40c90961a2ac3c695a78394760001b61197a565b6117127f6e78c230f96b55f4c3deac8b678af5aa50f2665dade776a3e2f956152493328e60001b61197a565b600073ffffffffffffffffffffffffffffffffffffffff1660008054906101000a900473ffffffffffffffffffffffffffffffffffffffff1673ffffffffffffffffffffffffffffffffffffffff1614806117ca575060008054906101000a900473ffffffffffffffffffffffffffffffffffffffff1673ffffffffffffffffffffffffffffffffffffffff16316103e8600354600280546117b49190611d3d565b6117be9190611d71565b6117c89190611da5565b115b1561182d576117fb7f946d9eeb4b7cbc0f61e453fe87da2f357ad981c8b7b89109a8a007ef8791a83c60001b61197a565b6040517ff06294a300000000000000000000000000000000000000000000000000000000815260040160405180910390fd5b6118597f6bd897a0b013b57a18949966ad2e4c5c3edeba74e6217e90c63c3d80fe5b7de060001b61197a565b6118857f50a3f50ac8401d36a1b65fc96240d2870f7ef81ec6544dd2a0a17fd48f328b6960001b61197a565b6118b17fdfa1aed931e5e12bac76a2e71afc8fdb7651f5c364636f8c7ff25bd66af2a30960001b61197a565b6118b961197d565b6118e57f229c01766f07f2562bc970262d50ba2ce14a7f0bf1d518bf20bace6d4c59d37a60001b61197a565b6119117faa44c258a2234d4637bc406d4c6b37cd6708aff97958a094a577115d72815e4c60001b61197a565b7f000000000000000000000000000000000000000000000000000000000000000073ffffffffffffffffffffffffffffffffffffffff166108fc349081150290604051600060405180830381858888f19350505050158015611977573d6000803e3d6000fd5b50565b50565b6119a97f752797c815bf2aa74ba024622a42786d5cc4c6417d652f23b017cea4f2a0f1f360001b61197a565b6119d57f73e2d9b5cbc7111f65f07efa2e73e5bc808ef6fcf72a1fc05deeeef0d6e1889a60001b61197a565b611a017f3f3f0bf1a3be805abe7f5ed626ab5163df94fa56bc516cfab8aace5b368d72b460001b61197a565b600160026000828254611a149190611d3d565b92505081905550611a477f970f13faaeebd85f7c2fea9e78ed6e64c19ffd5a0b9de40ab1a5d1fc3d6ffb7c60001b61197a565b611a737f22d68a23b76efbd28d571b23874156432dc5710822bfe4917422613777795a7f60001b61197a565b3360016000600254815260200190815260200160002060006101000a81548173ffffffffffffffffffffffffffffffffffffffff021916908373ffffffffffffffffffffffffffffffffffffffff160217905550565b600073ffffffffffffffffffffffffffffffffffffffff82169050919050565b6000819050919050565b6000611b0e611b09611b0484611ac9565b611ae9565b611ac9565b9050919050565b6000611b2082611af3565b9050919050565b6000611b3282611b15565b9050919050565b611b4281611b27565b82525050565b6000602082019050611b5d6000830184611b39565b92915050565b6000819050919050565b611b7681611b63565b82525050565b6000602082019050611b916000830184611b6d565b92915050565b6000611ba282611ac9565b9050919050565b611bb281611b97565b82525050565b6000602082019050611bcd6000830184611ba9565b92915050565b600080fd5b611be181611b97565b8114611bec57600080fd5b50565b600081359050611bfe81611bd8565b92915050565b600060208284031215611c1a57611c19611bd3565b5b6000611c2884828501611bef565b91505092915050565b611c3a81611b63565b8114611c4557600080fd5b50565b600081359050611c5781611c31565b92915050565b600060208284031215611c7357611c72611bd3565b5b6000611c8184828501611c48565b91505092915050565b600081519050611c9981611c31565b92915050565b600060208284031215611cb557611cb4611bd3565b5b6000611cc384828501611c8a565b91505092915050565b600081519050611cdb81611bd8565b92915050565b600060208284031215611cf757611cf6611bd3565b5b6000611d0584828501611ccc565b91505092915050565b7f4e487b7100000000000000000000000000000000000000000000000000000000600052601160045260246000fd5b6000611d4882611b63565b9150611d5383611b63565b9250828201905080821115611d6b57611d6a611d0e565b5b92915050565b6000611d7c82611b63565b9150611d8783611b63565b9250828203905081811115611d9f57611d9e611d0e565b5b92915050565b6000611db082611b63565b9150611dbb83611b63565b9250828202611dc981611b63565b91508282048414831517611de057611ddf611d0e565b5b509291505056fea26469706673582212205c5121453ca337dff5163784645320c31053b96a84b8d82a0213e5971bdc53ee64736f6c63430008110033",
          "opcodes": "PUSH1 0xA0 PUSH1 0x40 MSTORE PUSH1 0x1 PUSH1 0x3 SSTORE CALLVALUE DUP1 ISZERO PUSH3 0x16 JUMPI PUSH1 0x0 DUP1 REVERT JUMPDEST POP PUSH3 0x4B PUSH32 0x2EB81B04AC49B990E03DEF42F6021A537AA0D7A93C5EB0D25EEE3689225E382B PUSH1 0x0 SHL PUSH3 0xED PUSH1 0x20 SHL PUSH1 0x20 SHR JUMP JUMPDEST PUSH3 0x7F PUSH32 0x7430008B6CF0E6EA4AEB809FE22EDAAFBA4C020F463FB5C28B0FB5382DD72258 PUSH1 0x0 SHL PUSH3 0xED PUSH1 0x20 SHL PUSH1 0x20 SHR JUMP JUMPDEST PUSH3 0xB3 PUSH32 0x60715AA93BD48692FA574246846EAE86A0D549FA91E992F02B3710463C715644 PUSH1 0x0 SHL PUSH3 0xED PUSH1 0x20 SHL PUSH1 0x20 SHR JUMP JUMPDEST CALLER PUSH20 0xFFFFFFFFFFFFFFFFFFFFFFFFFFFFFFFFFFFFFFFF AND PUSH1 0x80 DUP2 PUSH20 0xFFFFFFFFFFFFFFFFFFFFFFFFFFFFFFFFFFFFFFFF AND DUP2 MSTORE POP POP PUSH3 0xF0 JUMP JUMPDEST POP JUMP JUMPDEST PUSH1 0x80 MLOAD PUSH2 0x1E1D PUSH3 0x136 PUSH1 0x0 CODECOPY PUSH1 0x0 DUP2 DUP2 PUSH2 0x2B6 ADD MSTORE DUP2 DUP2 PUSH2 0x733 ADD MSTORE DUP2 DUP2 PUSH2 0x82C ADD MSTORE DUP2 DUP2 PUSH2 0xEEA ADD MSTORE DUP2 DUP2 PUSH2 0x1353 ADD MSTORE DUP2 DUP2 PUSH2 0x13FB ADD MSTORE PUSH2 0x1913 ADD MSTORE PUSH2 0x1E1D PUSH1 0x0 RETURN INVALID PUSH1 0x80 PUSH1 0x40 MSTORE PUSH1 0x4 CALLDATASIZE LT PUSH2 0x9C JUMPI PUSH1 0x0 CALLDATALOAD PUSH1 0xE0 SHR DUP1 PUSH4 0x8521EEBE GT PUSH2 0x64 JUMPI DUP1 PUSH4 0x8521EEBE EQ PUSH2 0x150 JUMPI DUP1 PUSH4 0x957908D1 EQ PUSH2 0x15A JUMPI DUP1 PUSH4 0xB4A99A4E EQ PUSH2 0x171 JUMPI DUP1 PUSH4 0xBD31A23A EQ PUSH2 0x19C JUMPI DUP1 PUSH4 0xDDF0B009 EQ PUSH2 0x1C5 JUMPI DUP1 PUSH4 0xF67744C4 EQ PUSH2 0x202 JUMPI PUSH2 0x9C JUMP JUMPDEST DUP1 PUSH4 0x6557C31 EQ PUSH2 0xA1 JUMPI DUP1 PUSH4 0x8DD057A EQ PUSH2 0xCC JUMPI DUP1 PUSH4 0x3DF4DDF4 EQ PUSH2 0xE3 JUMPI DUP1 PUSH4 0x47799DA8 EQ PUSH2 0x10E JUMPI DUP1 PUSH4 0x515B74F2 EQ PUSH2 0x139 JUMPI JUMPDEST PUSH1 0x0 DUP1 REVERT JUMPDEST CALLVALUE DUP1 ISZERO PUSH2 0xAD JUMPI PUSH1 0x0 DUP1 REVERT JUMPDEST POP PUSH2 0xB6 PUSH2 0x20C JUMP JUMPDEST PUSH1 0x40 MLOAD PUSH2 0xC3 SWAP2 SWAP1 PUSH2 0x1B48 JUMP JUMPDEST PUSH1 0x40 MLOAD DUP1 SWAP2 SUB SWAP1 RETURN JUMPDEST CALLVALUE DUP1 ISZERO PUSH2 0xD8 JUMPI PUSH1 0x0 DUP1 REVERT JUMPDEST POP PUSH2 0xE1 PUSH2 0x230 JUMP JUMPDEST STOP JUMPDEST CALLVALUE DUP1 ISZERO PUSH2 0xEF JUMPI PUSH1 0x0 DUP1 REVERT JUMPDEST POP PUSH2 0xF8 PUSH2 0x79A JUMP JUMPDEST PUSH1 0x40 MLOAD PUSH2 0x105 SWAP2 SWAP1 PUSH2 0x1B7C JUMP JUMPDEST PUSH1 0x40 MLOAD DUP1 SWAP2 SUB SWAP1 RETURN JUMPDEST CALLVALUE DUP1 ISZERO PUSH2 0x11A JUMPI PUSH1 0x0 DUP1 REVERT JUMPDEST POP PUSH2 0x123 PUSH2 0x7A0 JUMP JUMPDEST PUSH1 0x40 MLOAD PUSH2 0x130 SWAP2 SWAP1 PUSH2 0x1B7C JUMP JUMPDEST PUSH1 0x40 MLOAD DUP1 SWAP2 SUB SWAP1 RETURN JUMPDEST CALLVALUE DUP1 ISZERO PUSH2 0x145 JUMPI PUSH1 0x0 DUP1 REVERT JUMPDEST POP PUSH2 0x14E PUSH2 0x7A6 JUMP JUMPDEST STOP JUMPDEST PUSH2 0x158 PUSH2 0xE64 JUMP JUMPDEST STOP JUMPDEST CALLVALUE DUP1 ISZERO PUSH2 0x166 JUMPI PUSH1 0x0 DUP1 REVERT JUMPDEST POP PUSH2 0x16F PUSH2 0x10B1 JUMP JUMPDEST STOP JUMPDEST CALLVALUE DUP1 ISZERO PUSH2 0x17D JUMPI PUSH1 0x0 DUP1 REVERT JUMPDEST POP PUSH2 0x186 PUSH2 0x1351 JUMP JUMPDEST PUSH1 0x40 MLOAD PUSH2 0x193 SWAP2 SWAP1 PUSH2 0x1BB8 JUMP JUMPDEST PUSH1 0x40 MLOAD DUP1 SWAP2 SUB SWAP1 RETURN JUMPDEST CALLVALUE DUP1 ISZERO PUSH2 0x1A8 JUMPI PUSH1 0x0 DUP1 REVERT JUMPDEST POP PUSH2 0x1C3 PUSH1 0x4 DUP1 CALLDATASIZE SUB DUP2 ADD SWAP1 PUSH2 0x1BE SWAP2 SWAP1 PUSH2 0x1C04 JUMP JUMPDEST PUSH2 0x1375 JUMP JUMPDEST STOP JUMPDEST CALLVALUE DUP1 ISZERO PUSH2 0x1D1 JUMPI PUSH1 0x0 DUP1 REVERT JUMPDEST POP PUSH2 0x1EC PUSH1 0x4 DUP1 CALLDATASIZE SUB DUP2 ADD SWAP1 PUSH2 0x1E7 SWAP2 SWAP1 PUSH2 0x1C5D JUMP JUMPDEST PUSH2 0x1571 JUMP JUMPDEST PUSH1 0x40 MLOAD PUSH2 0x1F9 SWAP2 SWAP1 PUSH2 0x1BB8 JUMP JUMPDEST PUSH1 0x40 MLOAD DUP1 SWAP2 SUB SWAP1 RETURN JUMPDEST PUSH2 0x20A PUSH2 0x15A4 JUMP JUMPDEST STOP JUMPDEST PUSH1 0x0 DUP1 SLOAD SWAP1 PUSH2 0x100 EXP SWAP1 DIV PUSH20 0xFFFFFFFFFFFFFFFFFFFFFFFFFFFFFFFFFFFFFFFF AND DUP2 JUMP JUMPDEST PUSH2 0x25C PUSH32 0xBE590E8DA9D4545FFA11EEF6FE7E78BAC90261A190F29C0E5D315A1D8C663E21 PUSH1 0x0 SHL PUSH2 0x197A JUMP JUMPDEST PUSH2 0x288 PUSH32 0x6E7407F38EB4D2C713E7803D87C37A1AAC880F7FDE0AD74D074FC8E272CF488C PUSH1 0x0 SHL PUSH2 0x197A JUMP JUMPDEST PUSH2 0x2B4 PUSH32 0xFA96C03E9675E5AC896FC6715D2D4AF42A2AD2FB64BB728AE0F525528D00E5A3 PUSH1 0x0 SHL PUSH2 0x197A JUMP JUMPDEST PUSH32 0x0 PUSH20 0xFFFFFFFFFFFFFFFFFFFFFFFFFFFFFFFFFFFFFFFF AND CALLER PUSH20 0xFFFFFFFFFFFFFFFFFFFFFFFFFFFFFFFFFFFFFFFF AND EQ PUSH2 0x365 JUMPI PUSH2 0x333 PUSH32 0x98E8F715A3C00338D2BF0A1789C7B0FC471EF331EEC5C2BDA867CF8A19DC940D PUSH1 0x0 SHL PUSH2 0x197A JUMP JUMPDEST PUSH1 0x40 MLOAD PUSH32 0x1EE8575E00000000000000000000000000000000000000000000000000000000 DUP2 MSTORE PUSH1 0x4 ADD PUSH1 0x40 MLOAD DUP1 SWAP2 SUB SWAP1 REVERT JUMPDEST PUSH2 0x391 PUSH32 0x4094F0BDFBC920151109DFEE54C1CB050BD27D87A7A68A8C96C2E1A1D2AE0359 PUSH1 0x0 SHL PUSH2 0x197A JUMP JUMPDEST PUSH2 0x3BD PUSH32 0xF8BE64CF2F11F19E135EBC98DD229F5A3A9438E6DE6F9C56F6CF94DB4290C831 PUSH1 0x0 SHL PUSH2 0x197A JUMP JUMPDEST PUSH2 0x3E9 PUSH32 0xB3368D03295F3EC2A9F9E8445D56FA9034270DA55315F4E2A565324152120D81 PUSH1 0x0 SHL PUSH2 0x197A JUMP JUMPDEST PUSH1 0x0 SELFBALANCE SUB PUSH2 0x44F JUMPI PUSH2 0x41D PUSH32 0x9FA8554CDEB73A838198C9A24BA32066AFAC02819406F4540003025E62EF1FB6 PUSH1 0x0 SHL PUSH2 0x197A JUMP JUMPDEST PUSH1 0x40 MLOAD PUSH32 0x7A1F291700000000000000000000000000000000000000000000000000000000 DUP2 MSTORE PUSH1 0x4 ADD PUSH1 0x40 MLOAD DUP1 SWAP2 SUB SWAP1 REVERT JUMPDEST PUSH2 0x47B PUSH32 0x9D13DAD1F6DEE1BE2ED29B4122BC36D25A36B1AC399760333BAAB599BFA24C47 PUSH1 0x0 SHL PUSH2 0x197A JUMP JUMPDEST PUSH2 0x4A7 PUSH32 0xBF5663188A90BFCDB86C8B431FE7C40B86A739036C0C3AA86661CE2634E28076 PUSH1 0x0 SHL PUSH2 0x197A JUMP JUMPDEST PUSH2 0x4D3 PUSH32 0xDEB5119F645FF7AE5E96C94AE8504C17ECD27326E5AC6DA9C6841EF8920F4A31 PUSH1 0x0 SHL PUSH2 0x197A JUMP JUMPDEST PUSH1 0x0 PUSH20 0xFFFFFFFFFFFFFFFFFFFFFFFFFFFFFFFFFFFFFFFF AND PUSH1 0x0 DUP1 SLOAD SWAP1 PUSH2 0x100 EXP SWAP1 DIV PUSH20 0xFFFFFFFFFFFFFFFFFFFFFFFFFFFFFFFFFFFFFFFF AND PUSH20 0xFFFFFFFFFFFFFFFFFFFFFFFFFFFFFFFFFFFFFFFF AND EQ DUP1 PUSH2 0x64A JUMPI POP PUSH1 0x0 DUP1 SLOAD SWAP1 PUSH2 0x100 EXP SWAP1 DIV PUSH20 0xFFFFFFFFFFFFFFFFFFFFFFFFFFFFFFFFFFFFFFFF AND PUSH20 0xFFFFFFFFFFFFFFFFFFFFFFFFFFFFFFFFFFFFFFFF AND PUSH4 0x3DF4DDF4 PUSH1 0x40 MLOAD DUP2 PUSH4 0xFFFFFFFF AND PUSH1 0xE0 SHL DUP2 MSTORE PUSH1 0x4 ADD PUSH1 0x20 PUSH1 0x40 MLOAD DUP1 DUP4 SUB DUP2 DUP7 GAS STATICCALL ISZERO DUP1 ISZERO PUSH2 0x594 JUMPI RETURNDATASIZE PUSH1 0x0 DUP1 RETURNDATACOPY RETURNDATASIZE PUSH1 0x0 REVERT JUMPDEST POP POP POP POP PUSH1 0x40 MLOAD RETURNDATASIZE PUSH1 0x1F NOT PUSH1 0x1F DUP3 ADD AND DUP3 ADD DUP1 PUSH1 0x40 MSTORE POP DUP2 ADD SWAP1 PUSH2 0x5B8 SWAP2 SWAP1 PUSH2 0x1C9F JUMP JUMPDEST PUSH1 0x0 DUP1 SLOAD SWAP1 PUSH2 0x100 EXP SWAP1 DIV PUSH20 0xFFFFFFFFFFFFFFFFFFFFFFFFFFFFFFFFFFFFFFFF AND PUSH20 0xFFFFFFFFFFFFFFFFFFFFFFFFFFFFFFFFFFFFFFFF AND PUSH4 0x47799DA8 PUSH1 0x40 MLOAD DUP2 PUSH4 0xFFFFFFFF AND PUSH1 0xE0 SHL DUP2 MSTORE PUSH1 0x4 ADD PUSH1 0x20 PUSH1 0x40 MLOAD DUP1 DUP4 SUB DUP2 DUP7 GAS STATICCALL ISZERO DUP1 ISZERO PUSH2 0x623 JUMPI RETURNDATASIZE PUSH1 0x0 DUP1 RETURNDATACOPY RETURNDATASIZE PUSH1 0x0 REVERT JUMPDEST POP POP POP POP PUSH1 0x40 MLOAD RETURNDATASIZE PUSH1 0x1F NOT PUSH1 0x1F DUP3 ADD AND DUP3 ADD DUP1 PUSH1 0x40 MSTORE POP DUP2 ADD SWAP1 PUSH2 0x647 SWAP2 SWAP1 PUSH2 0x1C9F JUMP JUMPDEST LT ISZERO JUMPDEST ISZERO PUSH2 0x6AD JUMPI PUSH2 0x67B PUSH32 0xEC82E0E288663B34306681318F81E889BFD97B76CE4645C4EFE317C84D0CC6F PUSH1 0x0 SHL PUSH2 0x197A JUMP JUMPDEST PUSH1 0x40 MLOAD PUSH32 0x230ACCFD00000000000000000000000000000000000000000000000000000000 DUP2 MSTORE PUSH1 0x4 ADD PUSH1 0x40 MLOAD DUP1 SWAP2 SUB SWAP1 REVERT JUMPDEST PUSH2 0x6D9 PUSH32 0xD69C4751C5E1796A3ABFE78B3ACA326501A83DD47620E3A72140BFA0BB220936 PUSH1 0x0 SHL PUSH2 0x197A JUMP JUMPDEST PUSH2 0x705 PUSH32 0xAD0D0A875C43941136AD44E3B3C873B074E2CD4A27953A80D2E513EF7214AADE PUSH1 0x0 SHL PUSH2 0x197A JUMP JUMPDEST PUSH2 0x731 PUSH32 0x231E800ABB914C199AA11671A6E34BB02C086ACEB22191DDAA3490B037AAA7AE PUSH1 0x0 SHL PUSH2 0x197A JUMP JUMPDEST PUSH32 0x0 PUSH20 0xFFFFFFFFFFFFFFFFFFFFFFFFFFFFFFFFFFFFFFFF AND PUSH2 0x8FC SELFBALANCE SWAP1 DUP2 ISZERO MUL SWAP1 PUSH1 0x40 MLOAD PUSH1 0x0 PUSH1 0x40 MLOAD DUP1 DUP4 SUB DUP2 DUP6 DUP9 DUP9 CALL SWAP4 POP POP POP POP ISZERO DUP1 ISZERO PUSH2 0x797 JUMPI RETURNDATASIZE PUSH1 0x0 DUP1 RETURNDATACOPY RETURNDATASIZE PUSH1 0x0 REVERT JUMPDEST POP JUMP JUMPDEST PUSH1 0x3 SLOAD DUP2 JUMP JUMPDEST PUSH1 0x2 SLOAD DUP2 JUMP JUMPDEST PUSH2 0x7D2 PUSH32 0x359A4D37ED0CFA45D4416B1CBDF85AA9BE4288AB8044928DB83EE5BF087C8E42 PUSH1 0x0 SHL PUSH2 0x197A JUMP JUMPDEST PUSH2 0x7FE PUSH32 0x17BBC6284CE5844D257FE3C8C2991228830D5D0821014B2353333D69BF2E5474 PUSH1 0x0 SHL PUSH2 0x197A JUMP JUMPDEST PUSH2 0x82A PUSH32 0x30864FDDBDD534D8E3E66F991655E67E3443A90203F8A3A98EA5A3BB37B915F6 PUSH1 0x0 SHL PUSH2 0x197A JUMP JUMPDEST PUSH32 0x0 PUSH20 0xFFFFFFFFFFFFFFFFFFFFFFFFFFFFFFFFFFFFFFFF AND CALLER PUSH20 0xFFFFFFFFFFFFFFFFFFFFFFFFFFFFFFFFFFFFFFFF AND EQ PUSH2 0x8DB JUMPI PUSH2 0x8A9 PUSH32 0x8D459C547718BE03732D875FD9EA329820D265B823E14ED64136351214388B6F PUSH1 0x0 SHL PUSH2 0x197A JUMP JUMPDEST PUSH1 0x40 MLOAD PUSH32 0x1EE8575E00000000000000000000000000000000000000000000000000000000 DUP2 MSTORE PUSH1 0x4 ADD PUSH1 0x40 MLOAD DUP1 SWAP2 SUB SWAP1 REVERT JUMPDEST PUSH2 0x907 PUSH32 0x71A219899DDA5C5DCAA5F765113532EF3464FDD50EA1BE9C54011B47A6777F92 PUSH1 0x0 SHL PUSH2 0x197A JUMP JUMPDEST PUSH2 0x933 PUSH32 0x16E430C72F5E452F639C94E4E7BFA5EC3DD5470178C8023B36E4A1DF919F87A2 PUSH1 0x0 SHL PUSH2 0x197A JUMP JUMPDEST PUSH2 0x95F PUSH32 0xB285AF37A4C93E1AD06AC48B086F4B7E5F921B17B6E8EC53551A5D240C07CEE7 PUSH1 0x0 SHL PUSH2 0x197A JUMP JUMPDEST PUSH1 0x0 PUSH20 0xFFFFFFFFFFFFFFFFFFFFFFFFFFFFFFFFFFFFFFFF AND PUSH1 0x0 DUP1 SLOAD SWAP1 PUSH2 0x100 EXP SWAP1 DIV PUSH20 0xFFFFFFFFFFFFFFFFFFFFFFFFFFFFFFFFFFFFFFFF AND PUSH20 0xFFFFFFFFFFFFFFFFFFFFFFFFFFFFFFFFFFFFFFFF AND EQ DUP1 PUSH2 0xAD5 JUMPI POP PUSH1 0x0 DUP1 SLOAD SWAP1 PUSH2 0x100 EXP SWAP1 DIV PUSH20 0xFFFFFFFFFFFFFFFFFFFFFFFFFFFFFFFFFFFFFFFF AND PUSH20 0xFFFFFFFFFFFFFFFFFFFFFFFFFFFFFFFFFFFFFFFF AND PUSH4 0x3DF4DDF4 PUSH1 0x40 MLOAD DUP2 PUSH4 0xFFFFFFFF AND PUSH1 0xE0 SHL DUP2 MSTORE PUSH1 0x4 ADD PUSH1 0x20 PUSH1 0x40 MLOAD DUP1 DUP4 SUB DUP2 DUP7 GAS STATICCALL ISZERO DUP1 ISZERO PUSH2 0xA20 JUMPI RETURNDATASIZE PUSH1 0x0 DUP1 RETURNDATACOPY RETURNDATASIZE PUSH1 0x0 REVERT JUMPDEST POP POP POP POP PUSH1 0x40 MLOAD RETURNDATASIZE PUSH1 0x1F NOT PUSH1 0x1F DUP3 ADD AND DUP3 ADD DUP1 PUSH1 0x40 MSTORE POP DUP2 ADD SWAP1 PUSH2 0xA44 SWAP2 SWAP1 PUSH2 0x1C9F JUMP JUMPDEST PUSH1 0x0 DUP1 SLOAD SWAP1 PUSH2 0x100 EXP SWAP1 DIV PUSH20 0xFFFFFFFFFFFFFFFFFFFFFFFFFFFFFFFFFFFFFFFF AND PUSH20 0xFFFFFFFFFFFFFFFFFFFFFFFFFFFFFFFFFFFFFFFF AND PUSH4 0x47799DA8 PUSH1 0x40 MLOAD DUP2 PUSH4 0xFFFFFFFF AND PUSH1 0xE0 SHL DUP2 MSTORE PUSH1 0x4 ADD PUSH1 0x20 PUSH1 0x40 MLOAD DUP1 DUP4 SUB DUP2 DUP7 GAS STATICCALL ISZERO DUP1 ISZERO PUSH2 0xAAF JUMPI RETURNDATASIZE PUSH1 0x0 DUP1 RETURNDATACOPY RETURNDATASIZE PUSH1 0x0 REVERT JUMPDEST POP POP POP POP PUSH1 0x40 MLOAD RETURNDATASIZE PUSH1 0x1F NOT PUSH1 0x1F DUP3 ADD AND DUP3 ADD DUP1 PUSH1 0x40 MSTORE POP DUP2 ADD SWAP1 PUSH2 0xAD3 SWAP2 SWAP1 PUSH2 0x1C9F JUMP JUMPDEST LT JUMPDEST ISZERO PUSH2 0xB37 JUMPI PUSH2 0xB05 PUSH31 0x754DB5D4C3E2B594F5EA491504B99035D69ABF3DF947F389A68BE8819FC4E3 PUSH1 0x0 SHL PUSH2 0x197A JUMP JUMPDEST PUSH1 0x40 MLOAD PUSH32 0x5E61BB8700000000000000000000000000000000000000000000000000000000 DUP2 MSTORE PUSH1 0x4 ADD PUSH1 0x40 MLOAD DUP1 SWAP2 SUB SWAP1 REVERT JUMPDEST PUSH2 0xB63 PUSH32 0x81BFDFAEEF812C1429C0F9267B63BB6E973BE135625706D175683169543E0105 PUSH1 0x0 SHL PUSH2 0x197A JUMP JUMPDEST PUSH2 0xB8F PUSH32 0x2457BA42D6CDE67CBAD2CBBE6E064CBF400BCAA4865EB8D4001FDC2B22344D06 PUSH1 0x0 SHL PUSH2 0x197A JUMP JUMPDEST PUSH2 0xBBB PUSH32 0x35D993E8086434D3FD1942F2CE901CCCE3FC1540ABE0DC0560E808610A14014D PUSH1 0x0 SHL PUSH2 0x197A JUMP JUMPDEST PUSH1 0x0 DUP1 PUSH1 0x0 SWAP1 SLOAD SWAP1 PUSH2 0x100 EXP SWAP1 DIV PUSH20 0xFFFFFFFFFFFFFFFFFFFFFFFFFFFFFFFFFFFFFFFF AND PUSH20 0xFFFFFFFFFFFFFFFFFFFFFFFFFFFFFFFFFFFFFFFF AND PUSH4 0xDDF0B009 PUSH1 0x0 DUP1 SLOAD SWAP1 PUSH2 0x100 EXP SWAP1 DIV PUSH20 0xFFFFFFFFFFFFFFFFFFFFFFFFFFFFFFFFFFFFFFFF AND PUSH20 0xFFFFFFFFFFFFFFFFFFFFFFFFFFFFFFFFFFFFFFFF AND PUSH4 0x47799DA8 PUSH1 0x40 MLOAD DUP2 PUSH4 0xFFFFFFFF AND PUSH1 0xE0 SHL DUP2 MSTORE PUSH1 0x4 ADD PUSH1 0x20 PUSH1 0x40 MLOAD DUP1 DUP4 SUB DUP2 DUP7 GAS STATICCALL ISZERO DUP1 ISZERO PUSH2 0xC65 JUMPI RETURNDATASIZE PUSH1 0x0 DUP1 RETURNDATACOPY RETURNDATASIZE PUSH1 0x0 REVERT JUMPDEST POP POP POP POP PUSH1 0x40 MLOAD RETURNDATASIZE PUSH1 0x1F NOT PUSH1 0x1F DUP3 ADD AND DUP3 ADD DUP1 PUSH1 0x40 MSTORE POP DUP2 ADD SWAP1 PUSH2 0xC89 SWAP2 SWAP1 PUSH2 0x1C9F JUMP JUMPDEST PUSH1 0x40 MLOAD DUP3 PUSH4 0xFFFFFFFF AND PUSH1 0xE0 SHL DUP2 MSTORE PUSH1 0x4 ADD PUSH2 0xCA5 SWAP2 SWAP1 PUSH2 0x1B7C JUMP JUMPDEST PUSH1 0x20 PUSH1 0x40 MLOAD DUP1 DUP4 SUB DUP2 DUP7 GAS STATICCALL ISZERO DUP1 ISZERO PUSH2 0xCC2 JUMPI RETURNDATASIZE PUSH1 0x0 DUP1 RETURNDATACOPY RETURNDATASIZE PUSH1 0x0 REVERT JUMPDEST POP POP POP POP PUSH1 0x40 MLOAD RETURNDATASIZE PUSH1 0x1F NOT PUSH1 0x1F DUP3 ADD AND DUP3 ADD DUP1 PUSH1 0x40 MSTORE POP DUP2 ADD SWAP1 PUSH2 0xCE6 SWAP2 SWAP1 PUSH2 0x1CE1 JUMP JUMPDEST SWAP1 POP PUSH2 0xD14 PUSH32 0xE735F68F298BD51489277BCE893A6547CD26EC2EEEE61B01D45B4D0DA0AF20DD PUSH1 0x0 SHL PUSH2 0x197A JUMP JUMPDEST PUSH2 0xD40 PUSH32 0x40DD9F874998DFD3720BCF704ED0DE30162BAF02E0BE6B19C3A06F4D38FF5D53 PUSH1 0x0 SHL PUSH2 0x197A JUMP JUMPDEST PUSH1 0x0 DUP1 SLOAD SWAP1 PUSH2 0x100 EXP SWAP1 DIV PUSH20 0xFFFFFFFFFFFFFFFFFFFFFFFFFFFFFFFFFFFFFFFF AND PUSH20 0xFFFFFFFFFFFFFFFFFFFFFFFFFFFFFFFFFFFFFFFF AND PUSH4 0x957908D1 PUSH1 0x40 MLOAD DUP2 PUSH4 0xFFFFFFFF AND PUSH1 0xE0 SHL DUP2 MSTORE PUSH1 0x4 ADD PUSH1 0x0 PUSH1 0x40 MLOAD DUP1 DUP4 SUB DUP2 PUSH1 0x0 DUP8 DUP1 EXTCODESIZE ISZERO DUP1 ISZERO PUSH2 0xDA8 JUMPI PUSH1 0x0 DUP1 REVERT JUMPDEST POP GAS CALL ISZERO DUP1 ISZERO PUSH2 0xDBC JUMPI RETURNDATASIZE PUSH1 0x0 DUP1 RETURNDATACOPY RETURNDATASIZE PUSH1 0x0 REVERT JUMPDEST POP POP POP POP PUSH2 0xDEC PUSH32 0xA6F76BD72FD7D82C3EEA77AD688C96A5A7921082F71EFA7A8820C81EB471703B PUSH1 0x0 SHL PUSH2 0x197A JUMP JUMPDEST PUSH2 0xE18 PUSH32 0x4E16FBC9C644895844A76BCFD14BE937954F017BCC1A7A5C031E892BBA6235D PUSH1 0x0 SHL PUSH2 0x197A JUMP JUMPDEST DUP1 PUSH20 0xFFFFFFFFFFFFFFFFFFFFFFFFFFFFFFFFFFFFFFFF AND PUSH2 0x8FC PUSH2 0x3E8 SWAP1 DUP2 ISZERO MUL SWAP1 PUSH1 0x40 MLOAD PUSH1 0x0 PUSH1 0x40 MLOAD DUP1 DUP4 SUB DUP2 DUP6 DUP9 DUP9 CALL SWAP4 POP POP POP POP ISZERO DUP1 ISZERO PUSH2 0xE60 JUMPI RETURNDATASIZE PUSH1 0x0 DUP1 RETURNDATACOPY RETURNDATASIZE PUSH1 0x0 REVERT JUMPDEST POP POP JUMP JUMPDEST PUSH2 0xE90 PUSH32 0x77041256EFD28C67E0F9B2CFCD8B6041B601D338D5C66FE7840B2F2D29AAA9AD PUSH1 0x0 SHL PUSH2 0x197A JUMP JUMPDEST PUSH2 0xEBC PUSH32 0x2516E6D6ECEB2FFFFBB70592DA412741393EFE9523C9D9FEA8FA1213359357E0 PUSH1 0x0 SHL PUSH2 0x197A JUMP JUMPDEST PUSH2 0xEE8 PUSH32 0x48DB7B7C5B58DADCCB1C4739A4C90F3EEF12009F998E4873B0D3C3988DB0EF4E PUSH1 0x0 SHL PUSH2 0x197A JUMP JUMPDEST PUSH32 0x0 PUSH20 0xFFFFFFFFFFFFFFFFFFFFFFFFFFFFFFFFFFFFFFFF AND CALLER PUSH20 0xFFFFFFFFFFFFFFFFFFFFFFFFFFFFFFFFFFFFFFFF AND EQ PUSH2 0xF99 JUMPI PUSH2 0xF67 PUSH32 0x219856057805290B6461449E22D115270FD239428C3209BDF7F56DD506F88C29 PUSH1 0x0 SHL PUSH2 0x197A JUMP JUMPDEST PUSH1 0x40 MLOAD PUSH32 0x1EE8575E00000000000000000000000000000000000000000000000000000000 DUP2 MSTORE PUSH1 0x4 ADD PUSH1 0x40 MLOAD DUP1 SWAP2 SUB SWAP1 REVERT JUMPDEST PUSH2 0xFC5 PUSH32 0xD9E981B29C43A4C8EB86B3370135FFF9FE72D046F9F0CF08C4EB6D99C2EFC3F8 PUSH1 0x0 SHL PUSH2 0x197A JUMP JUMPDEST PUSH2 0xFF1 PUSH32 0xD60458DC735CEF3FB0B3E121D0252F81988B1C3651EE39449A39728DD05A6A48 PUSH1 0x0 SHL PUSH2 0x197A JUMP JUMPDEST PUSH2 0x101D PUSH32 0x55EE088844FFB70F83907F7AE0522E7A7B302621A4E6E12504AAAF93B309797F PUSH1 0x0 SHL PUSH2 0x197A JUMP JUMPDEST PUSH1 0x0 CALLVALUE SUB PUSH2 0x1083 JUMPI PUSH2 0x1051 PUSH32 0x57B27FBE0AC03BAE26D3D394EEC4E97ACFACBB5F6412EB08B7076DF3C836699B PUSH1 0x0 SHL PUSH2 0x197A JUMP JUMPDEST PUSH1 0x40 MLOAD PUSH32 0xCDB5D8500000000000000000000000000000000000000000000000000000000 DUP2 MSTORE PUSH1 0x4 ADD PUSH1 0x40 MLOAD DUP1 SWAP2 SUB SWAP1 REVERT JUMPDEST PUSH2 0x10AF PUSH32 0x117CB357ABA1C15483FEEF519D3AE2D8EFC8765ECBA68DD8C048528F888E071F PUSH1 0x0 SHL PUSH2 0x197A JUMP JUMPDEST JUMP JUMPDEST PUSH2 0x10DD PUSH32 0x15E1CC766E9D5F6115296F526CA37640DF23242E82EE9F3941B45B137B6995B6 PUSH1 0x0 SHL PUSH2 0x197A JUMP JUMPDEST PUSH2 0x1109 PUSH32 0x4EC75259BC62051717EC659D3185B031B8B5C3FC08E3CD31C49DAEC8203CF8F4 PUSH1 0x0 SHL PUSH2 0x197A JUMP JUMPDEST PUSH2 0x1135 PUSH32 0x47BB451A033B55A16830CCB16D3F25B542E5AA813C97D44B6F1BE97AC3F3045E PUSH1 0x0 SHL PUSH2 0x197A JUMP JUMPDEST PUSH1 0x0 PUSH20 0xFFFFFFFFFFFFFFFFFFFFFFFFFFFFFFFFFFFFFFFF AND PUSH1 0x0 DUP1 SLOAD SWAP1 PUSH2 0x100 EXP SWAP1 DIV PUSH20 0xFFFFFFFFFFFFFFFFFFFFFFFFFFFFFFFFFFFFFFFF AND PUSH20 0xFFFFFFFFFFFFFFFFFFFFFFFFFFFFFFFFFFFFFFFF AND EQ DUP1 PUSH2 0x11DC JUMPI POP PUSH1 0x0 DUP1 SLOAD SWAP1 PUSH2 0x100 EXP SWAP1 DIV PUSH20 0xFFFFFFFFFFFFFFFFFFFFFFFFFFFFFFFFFFFFFFFF AND PUSH20 0xFFFFFFFFFFFFFFFFFFFFFFFFFFFFFFFFFFFFFFFF AND CALLER PUSH20 0xFFFFFFFFFFFFFFFFFFFFFFFFFFFFFFFFFFFFFFFF AND EQ ISZERO JUMPDEST DUP1 PUSH2 0x11EA JUMPI POP PUSH1 0x3 SLOAD PUSH1 0x2 SLOAD LT JUMPDEST ISZERO PUSH2 0x124D JUMPI PUSH2 0x121B PUSH32 0xE24B69C71C9088B3B2BC90C619D99061DE4BEA6BD4AD5AFEE80E0D5F06970278 PUSH1 0x0 SHL PUSH2 0x197A JUMP JUMPDEST PUSH1 0x40 MLOAD PUSH32 0x4DA1BC3400000000000000000000000000000000000000000000000000000000 DUP2 MSTORE PUSH1 0x4 ADD PUSH1 0x40 MLOAD DUP1 SWAP2 SUB SWAP1 REVERT JUMPDEST PUSH2 0x1279 PUSH32 0xAE371BCECBC54EFBFDC926B8E38739D55009F2472C4446BFEBEE23F60C8F7BF8 PUSH1 0x0 SHL PUSH2 0x197A JUMP JUMPDEST PUSH2 0x12A5 PUSH32 0xC143FB79A8A1F3A8ACF512B6BC5733DDB0779E1AE93F989B14C3C459A0D5E0E2 PUSH1 0x0 SHL PUSH2 0x197A JUMP JUMPDEST PUSH1 0x1 PUSH1 0x0 PUSH1 0x3 SLOAD DUP2 MSTORE PUSH1 0x20 ADD SWAP1 DUP2 MSTORE PUSH1 0x20 ADD PUSH1 0x0 KECCAK256 PUSH1 0x0 PUSH2 0x100 EXP DUP2 SLOAD SWAP1 PUSH20 0xFFFFFFFFFFFFFFFFFFFFFFFFFFFFFFFFFFFFFFFF MUL NOT AND SWAP1 SSTORE PUSH2 0x1309 PUSH32 0xAF3A0480E009E1A85E8F4F8D3C475B607B4BAD65CAA7BC3BD9DF64EF4EF04353 PUSH1 0x0 SHL PUSH2 0x197A JUMP JUMPDEST PUSH2 0x1335 PUSH32 0x1CA4590F7DCBAF51E57F8D484F477B99A5442D8AA755A164E86ADF411E5DD335 PUSH1 0x0 SHL PUSH2 0x197A JUMP JUMPDEST PUSH1 0x1 PUSH1 0x3 PUSH1 0x0 DUP3 DUP3 SLOAD PUSH2 0x1348 SWAP2 SWAP1 PUSH2 0x1D3D JUMP JUMPDEST SWAP3 POP POP DUP2 SWAP1 SSTORE POP JUMP JUMPDEST PUSH32 0x0 DUP2 JUMP JUMPDEST PUSH2 0x13A1 PUSH32 0xDE7D1E5205DFD0C7C199AE53F5117F3CAAD45E7B36E57F3BD3ECA5B4697BD670 PUSH1 0x0 SHL PUSH2 0x197A JUMP JUMPDEST PUSH2 0x13CD PUSH32 0x7D2AEEBE24AA28AEE1D2183922C76A0978D5A3AC51579283084F8E5A69D9EEE5 PUSH1 0x0 SHL PUSH2 0x197A JUMP JUMPDEST PUSH2 0x13F9 PUSH32 0x874453DBBB91DFEDC94B5C0803C411E8984C44DA7660FA1F80F55A0BF9058C7C PUSH1 0x0 SHL PUSH2 0x197A JUMP JUMPDEST PUSH32 0x0 PUSH20 0xFFFFFFFFFFFFFFFFFFFFFFFFFFFFFFFFFFFFFFFF AND CALLER PUSH20 0xFFFFFFFFFFFFFFFFFFFFFFFFFFFFFFFFFFFFFFFF AND EQ PUSH2 0x14AA JUMPI PUSH2 0x1478 PUSH32 0x359128172BB085451B4932F8F8D0FBAACB01026AD148D1A1D597E60CC9ED434C PUSH1 0x0 SHL PUSH2 0x197A JUMP JUMPDEST PUSH1 0x40 MLOAD PUSH32 0x1EE8575E00000000000000000000000000000000000000000000000000000000 DUP2 MSTORE PUSH1 0x4 ADD PUSH1 0x40 MLOAD DUP1 SWAP2 SUB SWAP1 REVERT JUMPDEST PUSH2 0x14D6 PUSH32 0x9150999B4B114FA88E2EB62B77DCEF74545C6DF7F3BF291D4891AB5B9FA3F679 PUSH1 0x0 SHL PUSH2 0x197A JUMP JUMPDEST PUSH2 0x1502 PUSH32 0x9C63FF065C433AD1CA4FBEB1171075011FF387937C8E2C1E5C4F850F74797D33 PUSH1 0x0 SHL PUSH2 0x197A JUMP JUMPDEST PUSH2 0x152E PUSH32 0x15A59C30FC435A8E8A33B948AB9448B58DD76C56F505F3F5184AA42D1E40DF38 PUSH1 0x0 SHL PUSH2 0x197A JUMP JUMPDEST DUP1 PUSH1 0x0 DUP1 PUSH2 0x100 EXP DUP2 SLOAD DUP2 PUSH20 0xFFFFFFFFFFFFFFFFFFFFFFFFFFFFFFFFFFFFFFFF MUL NOT AND SWAP1 DUP4 PUSH20 0xFFFFFFFFFFFFFFFFFFFFFFFFFFFFFFFFFFFFFFFF AND MUL OR SWAP1 SSTORE POP POP JUMP JUMPDEST PUSH1 0x1 PUSH1 0x20 MSTORE DUP1 PUSH1 0x0 MSTORE PUSH1 0x40 PUSH1 0x0 KECCAK256 PUSH1 0x0 SWAP2 POP SLOAD SWAP1 PUSH2 0x100 EXP SWAP1 DIV PUSH20 0xFFFFFFFFFFFFFFFFFFFFFFFFFFFFFFFFFFFFFFFF AND DUP2 JUMP JUMPDEST PUSH2 0x15D0 PUSH32 0x7A036C9683ED0069AD0093B5F817325D8AD7832552905BB14C08AEDE4A9E5797 PUSH1 0x0 SHL PUSH2 0x197A JUMP JUMPDEST PUSH2 0x15FC PUSH32 0x36809914EC6CF7D5629EA2206569BF3BB7E5936FF567EC68E4D89A2C1F9DDE5C PUSH1 0x0 SHL PUSH2 0x197A JUMP JUMPDEST PUSH2 0x1628 PUSH32 0xCE9B1B8332470093C0AE02E317EAADD7D3F393DF6891751344C2F49CDC698A09 PUSH1 0x0 SHL PUSH2 0x197A JUMP JUMPDEST PUSH2 0x3EB CALLVALUE EQ PUSH2 0x168F JUMPI PUSH2 0x165D PUSH32 0xB38778523F78FCF0C8719E33693F32FE4BDA39F9D13F94015AB9B2F8878E729C PUSH1 0x0 SHL PUSH2 0x197A JUMP JUMPDEST PUSH1 0x40 MLOAD PUSH32 0xA43D860800000000000000000000000000000000000000000000000000000000 DUP2 MSTORE PUSH1 0x4 ADD PUSH1 0x40 MLOAD DUP1 SWAP2 SUB SWAP1 REVERT JUMPDEST PUSH2 0x16BA PUSH31 0x11264AD564AEAA79AF6E42ABAC41E8A7119807FD93818F9B180F934BF21023 PUSH1 0x0 SHL PUSH2 0x197A JUMP JUMPDEST PUSH2 0x16E6 PUSH32 0x89745E89221CAE93BD390CE3573690E62E2CF92F40C90961A2AC3C695A783947 PUSH1 0x0 SHL PUSH2 0x197A JUMP JUMPDEST PUSH2 0x1712 PUSH32 0x6E78C230F96B55F4C3DEAC8B678AF5AA50F2665DADE776A3E2F956152493328E PUSH1 0x0 SHL PUSH2 0x197A JUMP JUMPDEST PUSH1 0x0 PUSH20 0xFFFFFFFFFFFFFFFFFFFFFFFFFFFFFFFFFFFFFFFF AND PUSH1 0x0 DUP1 SLOAD SWAP1 PUSH2 0x100 EXP SWAP1 DIV PUSH20 0xFFFFFFFFFFFFFFFFFFFFFFFFFFFFFFFFFFFFFFFF AND PUSH20 0xFFFFFFFFFFFFFFFFFFFFFFFFFFFFFFFFFFFFFFFF AND EQ DUP1 PUSH2 0x17CA JUMPI POP PUSH1 0x0 DUP1 SLOAD SWAP1 PUSH2 0x100 EXP SWAP1 DIV PUSH20 0xFFFFFFFFFFFFFFFFFFFFFFFFFFFFFFFFFFFFFFFF AND PUSH20 0xFFFFFFFFFFFFFFFFFFFFFFFFFFFFFFFFFFFFFFFF AND BALANCE PUSH2 0x3E8 PUSH1 0x3 SLOAD PUSH1 0x2 DUP1 SLOAD PUSH2 0x17B4 SWAP2 SWAP1 PUSH2 0x1D3D JUMP JUMPDEST PUSH2 0x17BE SWAP2 SWAP1 PUSH2 0x1D71 JUMP JUMPDEST PUSH2 0x17C8 SWAP2 SWAP1 PUSH2 0x1DA5 JUMP JUMPDEST GT JUMPDEST ISZERO PUSH2 0x182D JUMPI PUSH2 0x17FB PUSH32 0x946D9EEB4B7CBC0F61E453FE87DA2F357AD981C8B7B89109A8A007EF8791A83C PUSH1 0x0 SHL PUSH2 0x197A JUMP JUMPDEST PUSH1 0x40 MLOAD PUSH32 0xF06294A300000000000000000000000000000000000000000000000000000000 DUP2 MSTORE PUSH1 0x4 ADD PUSH1 0x40 MLOAD DUP1 SWAP2 SUB SWAP1 REVERT JUMPDEST PUSH2 0x1859 PUSH32 0x6BD897A0B013B57A18949966AD2E4C5C3EDEBA74E6217E90C63C3D80FE5B7DE0 PUSH1 0x0 SHL PUSH2 0x197A JUMP JUMPDEST PUSH2 0x1885 PUSH32 0x50A3F50AC8401D36A1B65FC96240D2870F7EF81EC6544DD2A0A17FD48F328B69 PUSH1 0x0 SHL PUSH2 0x197A JUMP JUMPDEST PUSH2 0x18B1 PUSH32 0xDFA1AED931E5E12BAC76A2E71AFC8FDB7651F5C364636F8C7FF25BD66AF2A309 PUSH1 0x0 SHL PUSH2 0x197A JUMP JUMPDEST PUSH2 0x18B9 PUSH2 0x197D JUMP JUMPDEST PUSH2 0x18E5 PUSH32 0x229C01766F07F2562BC970262D50BA2CE14A7F0BF1D518BF20BACE6D4C59D37A PUSH1 0x0 SHL PUSH2 0x197A JUMP JUMPDEST PUSH2 0x1911 PUSH32 0xAA44C258A2234D4637BC406D4C6B37CD6708AFF97958A094A577115D72815E4C PUSH1 0x0 SHL PUSH2 0x197A JUMP JUMPDEST PUSH32 0x0 PUSH20 0xFFFFFFFFFFFFFFFFFFFFFFFFFFFFFFFFFFFFFFFF AND PUSH2 0x8FC CALLVALUE SWAP1 DUP2 ISZERO MUL SWAP1 PUSH1 0x40 MLOAD PUSH1 0x0 PUSH1 0x40 MLOAD DUP1 DUP4 SUB DUP2 DUP6 DUP9 DUP9 CALL SWAP4 POP POP POP POP ISZERO DUP1 ISZERO PUSH2 0x1977 JUMPI RETURNDATASIZE PUSH1 0x0 DUP1 RETURNDATACOPY RETURNDATASIZE PUSH1 0x0 REVERT JUMPDEST POP JUMP JUMPDEST POP JUMP JUMPDEST PUSH2 0x19A9 PUSH32 0x752797C815BF2AA74BA024622A42786D5CC4C6417D652F23B017CEA4F2A0F1F3 PUSH1 0x0 SHL PUSH2 0x197A JUMP JUMPDEST PUSH2 0x19D5 PUSH32 0x73E2D9B5CBC7111F65F07EFA2E73E5BC808EF6FCF72A1FC05DEEEEF0D6E1889A PUSH1 0x0 SHL PUSH2 0x197A JUMP JUMPDEST PUSH2 0x1A01 PUSH32 0x3F3F0BF1A3BE805ABE7F5ED626AB5163DF94FA56BC516CFAB8AACE5B368D72B4 PUSH1 0x0 SHL PUSH2 0x197A JUMP JUMPDEST PUSH1 0x1 PUSH1 0x2 PUSH1 0x0 DUP3 DUP3 SLOAD PUSH2 0x1A14 SWAP2 SWAP1 PUSH2 0x1D3D JUMP JUMPDEST SWAP3 POP POP DUP2 SWAP1 SSTORE POP PUSH2 0x1A47 PUSH32 0x970F13FAAEEBD85F7C2FEA9E78ED6E64C19FFD5A0B9DE40AB1A5D1FC3D6FFB7C PUSH1 0x0 SHL PUSH2 0x197A JUMP JUMPDEST PUSH2 0x1A73 PUSH32 0x22D68A23B76EFBD28D571B23874156432DC5710822BFE4917422613777795A7F PUSH1 0x0 SHL PUSH2 0x197A JUMP JUMPDEST CALLER PUSH1 0x1 PUSH1 0x0 PUSH1 0x2 SLOAD DUP2 MSTORE PUSH1 0x20 ADD SWAP1 DUP2 MSTORE PUSH1 0x20 ADD PUSH1 0x0 KECCAK256 PUSH1 0x0 PUSH2 0x100 EXP DUP2 SLOAD DUP2 PUSH20 0xFFFFFFFFFFFFFFFFFFFFFFFFFFFFFFFFFFFFFFFF MUL NOT AND SWAP1 DUP4 PUSH20 0xFFFFFFFFFFFFFFFFFFFFFFFFFFFFFFFFFFFFFFFF AND MUL OR SWAP1 SSTORE POP JUMP JUMPDEST PUSH1 0x0 PUSH20 0xFFFFFFFFFFFFFFFFFFFFFFFFFFFFFFFFFFFFFFFF DUP3 AND SWAP1 POP SWAP2 SWAP1 POP JUMP JUMPDEST PUSH1 0x0 DUP2 SWAP1 POP SWAP2 SWAP1 POP JUMP JUMPDEST PUSH1 0x0 PUSH2 0x1B0E PUSH2 0x1B09 PUSH2 0x1B04 DUP5 PUSH2 0x1AC9 JUMP JUMPDEST PUSH2 0x1AE9 JUMP JUMPDEST PUSH2 0x1AC9 JUMP JUMPDEST SWAP1 POP SWAP2 SWAP1 POP JUMP JUMPDEST PUSH1 0x0 PUSH2 0x1B20 DUP3 PUSH2 0x1AF3 JUMP JUMPDEST SWAP1 POP SWAP2 SWAP1 POP JUMP JUMPDEST PUSH1 0x0 PUSH2 0x1B32 DUP3 PUSH2 0x1B15 JUMP JUMPDEST SWAP1 POP SWAP2 SWAP1 POP JUMP JUMPDEST PUSH2 0x1B42 DUP2 PUSH2 0x1B27 JUMP JUMPDEST DUP3 MSTORE POP POP JUMP JUMPDEST PUSH1 0x0 PUSH1 0x20 DUP3 ADD SWAP1 POP PUSH2 0x1B5D PUSH1 0x0 DUP4 ADD DUP5 PUSH2 0x1B39 JUMP JUMPDEST SWAP3 SWAP2 POP POP JUMP JUMPDEST PUSH1 0x0 DUP2 SWAP1 POP SWAP2 SWAP1 POP JUMP JUMPDEST PUSH2 0x1B76 DUP2 PUSH2 0x1B63 JUMP JUMPDEST DUP3 MSTORE POP POP JUMP JUMPDEST PUSH1 0x0 PUSH1 0x20 DUP3 ADD SWAP1 POP PUSH2 0x1B91 PUSH1 0x0 DUP4 ADD DUP5 PUSH2 0x1B6D JUMP JUMPDEST SWAP3 SWAP2 POP POP JUMP JUMPDEST PUSH1 0x0 PUSH2 0x1BA2 DUP3 PUSH2 0x1AC9 JUMP JUMPDEST SWAP1 POP SWAP2 SWAP1 POP JUMP JUMPDEST PUSH2 0x1BB2 DUP2 PUSH2 0x1B97 JUMP JUMPDEST DUP3 MSTORE POP POP JUMP JUMPDEST PUSH1 0x0 PUSH1 0x20 DUP3 ADD SWAP1 POP PUSH2 0x1BCD PUSH1 0x0 DUP4 ADD DUP5 PUSH2 0x1BA9 JUMP JUMPDEST SWAP3 SWAP2 POP POP JUMP JUMPDEST PUSH1 0x0 DUP1 REVERT JUMPDEST PUSH2 0x1BE1 DUP2 PUSH2 0x1B97 JUMP JUMPDEST DUP2 EQ PUSH2 0x1BEC JUMPI PUSH1 0x0 DUP1 REVERT JUMPDEST POP JUMP JUMPDEST PUSH1 0x0 DUP2 CALLDATALOAD SWAP1 POP PUSH2 0x1BFE DUP2 PUSH2 0x1BD8 JUMP JUMPDEST SWAP3 SWAP2 POP POP JUMP JUMPDEST PUSH1 0x0 PUSH1 0x20 DUP3 DUP5 SUB SLT ISZERO PUSH2 0x1C1A JUMPI PUSH2 0x1C19 PUSH2 0x1BD3 JUMP JUMPDEST JUMPDEST PUSH1 0x0 PUSH2 0x1C28 DUP5 DUP3 DUP6 ADD PUSH2 0x1BEF JUMP JUMPDEST SWAP2 POP POP SWAP3 SWAP2 POP POP JUMP JUMPDEST PUSH2 0x1C3A DUP2 PUSH2 0x1B63 JUMP JUMPDEST DUP2 EQ PUSH2 0x1C45 JUMPI PUSH1 0x0 DUP1 REVERT JUMPDEST POP JUMP JUMPDEST PUSH1 0x0 DUP2 CALLDATALOAD SWAP1 POP PUSH2 0x1C57 DUP2 PUSH2 0x1C31 JUMP JUMPDEST SWAP3 SWAP2 POP POP JUMP JUMPDEST PUSH1 0x0 PUSH1 0x20 DUP3 DUP5 SUB SLT ISZERO PUSH2 0x1C73 JUMPI PUSH2 0x1C72 PUSH2 0x1BD3 JUMP JUMPDEST JUMPDEST PUSH1 0x0 PUSH2 0x1C81 DUP5 DUP3 DUP6 ADD PUSH2 0x1C48 JUMP JUMPDEST SWAP2 POP POP SWAP3 SWAP2 POP POP JUMP JUMPDEST PUSH1 0x0 DUP2 MLOAD SWAP1 POP PUSH2 0x1C99 DUP2 PUSH2 0x1C31 JUMP JUMPDEST SWAP3 SWAP2 POP POP JUMP JUMPDEST PUSH1 0x0 PUSH1 0x20 DUP3 DUP5 SUB SLT ISZERO PUSH2 0x1CB5 JUMPI PUSH2 0x1CB4 PUSH2 0x1BD3 JUMP JUMPDEST JUMPDEST PUSH1 0x0 PUSH2 0x1CC3 DUP5 DUP3 DUP6 ADD PUSH2 0x1C8A JUMP JUMPDEST SWAP2 POP POP SWAP3 SWAP2 POP POP JUMP JUMPDEST PUSH1 0x0 DUP2 MLOAD SWAP1 POP PUSH2 0x1CDB DUP2 PUSH2 0x1BD8 JUMP JUMPDEST SWAP3 SWAP2 POP POP JUMP JUMPDEST PUSH1 0x0 PUSH1 0x20 DUP3 DUP5 SUB SLT ISZERO PUSH2 0x1CF7 JUMPI PUSH2 0x1CF6 PUSH2 0x1BD3 JUMP JUMPDEST JUMPDEST PUSH1 0x0 PUSH2 0x1D05 DUP5 DUP3 DUP6 ADD PUSH2 0x1CCC JUMP JUMPDEST SWAP2 POP POP SWAP3 SWAP2 POP POP JUMP JUMPDEST PUSH32 0x4E487B7100000000000000000000000000000000000000000000000000000000 PUSH1 0x0 MSTORE PUSH1 0x11 PUSH1 0x4 MSTORE PUSH1 0x24 PUSH1 0x0 REVERT JUMPDEST PUSH1 0x0 PUSH2 0x1D48 DUP3 PUSH2 0x1B63 JUMP JUMPDEST SWAP2 POP PUSH2 0x1D53 DUP4 PUSH2 0x1B63 JUMP JUMPDEST SWAP3 POP DUP3 DUP3 ADD SWAP1 POP DUP1 DUP3 GT ISZERO PUSH2 0x1D6B JUMPI PUSH2 0x1D6A PUSH2 0x1D0E JUMP JUMPDEST JUMPDEST SWAP3 SWAP2 POP POP JUMP JUMPDEST PUSH1 0x0 PUSH2 0x1D7C DUP3 PUSH2 0x1B63 JUMP JUMPDEST SWAP2 POP PUSH2 0x1D87 DUP4 PUSH2 0x1B63 JUMP JUMPDEST SWAP3 POP DUP3 DUP3 SUB SWAP1 POP DUP2 DUP2 GT ISZERO PUSH2 0x1D9F JUMPI PUSH2 0x1D9E PUSH2 0x1D0E JUMP JUMPDEST JUMPDEST SWAP3 SWAP2 POP POP JUMP JUMPDEST PUSH1 0x0 PUSH2 0x1DB0 DUP3 PUSH2 0x1B63 JUMP JUMPDEST SWAP2 POP PUSH2 0x1DBB DUP4 PUSH2 0x1B63 JUMP JUMPDEST SWAP3 POP DUP3 DUP3 MUL PUSH2 0x1DC9 DUP2 PUSH2 0x1B63 JUMP JUMPDEST SWAP2 POP DUP3 DUP3 DIV DUP5 EQ DUP4 ISZERO OR PUSH2 0x1DE0 JUMPI PUSH2 0x1DDF PUSH2 0x1D0E JUMP JUMPDEST JUMPDEST POP SWAP3 SWAP2 POP POP JUMP INVALID LOG2 PUSH5 0x6970667358 0x22 SLT KECCAK256 0x5C MLOAD 0x21 GASLIMIT EXTCODECOPY LOG3 CALLDATACOPY 0xDF CREATE2 AND CALLDATACOPY DUP5 PUSH5 0x5320C31053 0xB9 PUSH11 0x84B8D82A0213E5971BDC53 0xEE PUSH5 0x736F6C6343 STOP ADDMOD GT STOP CALLER "
        },
        "methodIdentifiers": {
          "Owner()": "b4a99a4e",
          "dequeue()": "957908d1",
          "first()": "3df4ddf4",
          "goerliBridgeInstance()": "06557c31",
          "last()": "47799da8",
          "lockTokensForGoerli()": "f67744c4",
          "mockOwnerGoerliBridgeAddress(address)": "bd31a23a",
          "ownerAddBridgeLiqudity()": "8521eebe",
          "ownerRemoveBridgeLiqudity()": "08dd057a",
          "ownerUnlockOptimismETH()": "515b74f2",
          "queue(uint256)": "ddf0b009"
        }
      }
    }
  }
}