{
  "contracts/MockBridgeMsgValue.sol": {
    "MockGoerliBridge": {
      "abi": [
        {
          "inputs": [],
          "stateMutability": "nonpayable",
          "type": "constructor"
        },
        {
          "inputs": [],
          "name": "bridgeEmpty",
          "type": "error"
        },
        {
          "inputs": [],
          "name": "bridgeOnOtherSideNeedsLiqudity",
          "type": "error"
        },
        {
          "inputs": [],
          "name": "bridgedAlready",
          "type": "error"
        },
        {
          "inputs": [],
          "name": "msgValueDoesNotCoverFee",
          "type": "error"
        },
        {
          "inputs": [],
          "name": "msgValueLessThan1000",
          "type": "error"
        },
        {
          "inputs": [],
          "name": "msgValueZero",
          "type": "error"
        },
        {
          "inputs": [],
          "name": "notExternalBridge",
          "type": "error"
        },
        {
          "inputs": [],
          "name": "notOwnerAddress",
          "type": "error"
        },
        {
          "inputs": [],
          "name": "ownerBridgeUsersBeforeWithdraw",
          "type": "error"
        },
        {
          "inputs": [],
          "name": "queueIsEmpty",
          "type": "error"
        },
        {
          "inputs": [],
          "name": "queueNotEmpty",
          "type": "error"
        },
        {
          "inputs": [],
          "name": "Owner",
          "outputs": [
            {
              "internalType": "address",
              "name": "",
              "type": "address"
            }
          ],
          "stateMutability": "view",
          "type": "function"
        },
        {
          "inputs": [],
          "name": "dequeue",
          "outputs": [],
          "stateMutability": "nonpayable",
          "type": "function"
        },
        {
          "inputs": [],
          "name": "first",
          "outputs": [
            {
              "internalType": "uint256",
              "name": "",
              "type": "uint256"
            }
          ],
          "stateMutability": "view",
          "type": "function"
        },
        {
          "inputs": [
            {
              "internalType": "address",
              "name": "",
              "type": "address"
            }
          ],
          "name": "goerliBridgedETH",
          "outputs": [
            {
              "internalType": "uint256",
              "name": "",
              "type": "uint256"
            }
          ],
          "stateMutability": "view",
          "type": "function"
        },
        {
          "inputs": [],
          "name": "last",
          "outputs": [
            {
              "internalType": "uint256",
              "name": "",
              "type": "uint256"
            }
          ],
          "stateMutability": "view",
          "type": "function"
        },
        {
          "inputs": [
            {
              "internalType": "uint256",
              "name": "bridgeAmount",
              "type": "uint256"
            }
          ],
          "name": "lockTokensForOptimism",
          "outputs": [],
          "stateMutability": "payable",
          "type": "function"
        },
        {
          "inputs": [
            {
              "internalType": "address",
              "name": "",
              "type": "address"
            }
          ],
          "name": "lockedForOptimismETH",
          "outputs": [
            {
              "internalType": "uint256",
              "name": "",
              "type": "uint256"
            }
          ],
          "stateMutability": "view",
          "type": "function"
        },
        {
          "inputs": [
            {
              "internalType": "address",
              "name": "_token",
              "type": "address"
            }
          ],
          "name": "mockOwnerOptimismBridgeAddress",
          "outputs": [],
          "stateMutability": "nonpayable",
          "type": "function"
        },
        {
          "inputs": [],
          "name": "optimismBridgeInstance",
          "outputs": [
            {
              "internalType": "contract MockOptimismBridge",
              "name": "",
              "type": "address"
            }
          ],
          "stateMutability": "view",
          "type": "function"
        },
        {
          "inputs": [],
          "name": "ownerAddBridgeLiqudity",
          "outputs": [],
          "stateMutability": "payable",
          "type": "function"
        },
        {
          "inputs": [],
          "name": "ownerRemoveBridgeLiqudity",
          "outputs": [],
          "stateMutability": "nonpayable",
          "type": "function"
        },
        {
          "inputs": [],
          "name": "ownerUnlockGoerliETH",
          "outputs": [],
          "stateMutability": "nonpayable",
          "type": "function"
        },
        {
          "inputs": [
            {
              "internalType": "uint256",
              "name": "",
              "type": "uint256"
            }
          ],
          "name": "queue",
          "outputs": [
            {
              "internalType": "address",
              "name": "",
              "type": "address"
            }
          ],
          "stateMutability": "view",
          "type": "function"
        }
      ],
      "evm": {
        "bytecode": {
          "linkReferences": {},
          "object": "60a060405260016005553480156200001657600080fd5b506200004b7f32f5d9fe11b6dda396cd2a64c74bbadaf7c2006a6bc4e9e5b41cefdfbd9ad6c160001b620000ed60201b60201c565b6200007f7ff032777aa87477bbfdfe97398662c2e81c68632022d1d2030ff5fd792e71d61360001b620000ed60201b60201c565b620000b37ff6c97f496babc64349830cb8b7e07dca185afbed84b142ba180836b9555a9d4460001b620000ed60201b60201c565b3373ffffffffffffffffffffffffffffffffffffffff1660808173ffffffffffffffffffffffffffffffffffffffff1681525050620000f0565b50565b6080516123106200013660003960008181610344015281816107c7015281816108fe01528181610e070152818161163b015281816116e30152611da501526123106000f3fe6080604052600436106100c25760003560e01c8063957908d11161007f578063b4a99a4e11610059578063b4a99a4e14610211578063d06019f51461023c578063ddf0b00914610265578063e76438ab146102a2576100c2565b8063957908d1146101a6578063abb6b5a1146101bd578063af11cb40146101fa576100c2565b806308dd057a146100c75780633df4ddf4146100de57806347799da8146101095780637bb1fdd2146101345780637f6c6d10146101715780638521eebe1461019c575b600080fd5b3480156100d357600080fd5b506100dc6102be565b005b3480156100ea57600080fd5b506100f361082e565b6040516101009190611f75565b60405180910390f35b34801561011557600080fd5b5061011e610834565b60405161012b9190611f75565b60405180910390f35b34801561014057600080fd5b5061015b60048036038101906101569190611ff3565b61083a565b6040516101689190611f75565b60405180910390f35b34801561017d57600080fd5b50610186610852565b604051610193919061207f565b60405180910390f35b6101a4610878565b005b3480156101b257600080fd5b506101bb610ac5565b005b3480156101c957600080fd5b506101e460048036038101906101df9190611ff3565b610d69565b6040516101f19190611f75565b60405180910390f35b34801561020657600080fd5b5061020f610d81565b005b34801561021d57600080fd5b50610226611639565b60405161023391906120a9565b60405180910390f35b34801561024857600080fd5b50610263600480360381019061025e9190611ff3565b61165d565b005b34801561027157600080fd5b5061028c600480360381019061028791906120f0565b61185a565b60405161029991906120a9565b60405180910390f35b6102bc60048036038101906102b791906120f0565b61188d565b005b6102ea7f7f684bc999dd4140f8ad1c62c128d00347a74d1e348297885cc67dc047f6225560001b611e0d565b6103167f68d9e622a7e683e3d9dc223155b4ac6a737624c43ef6bee9e0832bb9e706254f60001b611e0d565b6103427fe562d8c86660c750d09c060b5cd4840c03c86dba992a22dc0199cb84e76fa42a60001b611e0d565b7f000000000000000000000000000000000000000000000000000000000000000073ffffffffffffffffffffffffffffffffffffffff163373ffffffffffffffffffffffffffffffffffffffff16146103f3576103c17f6933d32c123b7e13acdfd8d9e91cc0d5fb38d6edb6c0b8bf0282093f8bd25b4760001b611e0d565b6040517f1ee8575e00000000000000000000000000000000000000000000000000000000815260040160405180910390fd5b61041f7fb2d006409bb267ad722d1dc7348ed4b425bc99b9d2fcecee43d16fb9fa70f91560001b611e0d565b61044b7f13035c0bc3c2cb87bfa888652aacefd8bb9cc274bf69cf22f880805a516f0efc60001b611e0d565b6104777fad9a4d4b72abea04328347d8211c07d9b2edd91565ef4c338ae272efbdd4b40060001b611e0d565b600047036104dd576104ab7f4d8faba873956c71c189f3b26c20b66f42fce73882fbb8449ec2c87cc5fb6a8360001b611e0d565b6040517f7a1f291700000000000000000000000000000000000000000000000000000000815260040160405180910390fd5b6105097fb0fb38a9881c348f2deb52a029988fc62cffea04445db6ad098915ee847c5dee60001b611e0d565b6105357f0a534f8f89eefddfbfb2c1a4d53231f3d77c10a54ff75f4346346de57079532b60001b611e0d565b6105617facdcf904c591e720ee1e703da5058ded942915d671bc67fed220253cbbbe788660001b611e0d565b600073ffffffffffffffffffffffffffffffffffffffff16600260009054906101000a900473ffffffffffffffffffffffffffffffffffffffff1673ffffffffffffffffffffffffffffffffffffffff1614806106de5750600260009054906101000a900473ffffffffffffffffffffffffffffffffffffffff1673ffffffffffffffffffffffffffffffffffffffff16633df4ddf46040518163ffffffff1660e01b8152600401602060405180830381865afa158015610626573d6000803e3d6000fd5b505050506040513d601f19601f8201168201806040525081019061064a9190612132565b600260009054906101000a900473ffffffffffffffffffffffffffffffffffffffff1673ffffffffffffffffffffffffffffffffffffffff166347799da86040518163ffffffff1660e01b8152600401602060405180830381865afa1580156106b7573d6000803e3d6000fd5b505050506040513d601f19601f820116820180604052508101906106db9190612132565b10155b156107415761070f7f6c5f0c09f39700304b3453463dc062c769f3313099e5eaf86600b1ecb594cd2d60001b611e0d565b6040517f230accfd00000000000000000000000000000000000000000000000000000000815260040160405180910390fd5b61076d7ff2a71264156e3353341adbf56c5031841e46a7721bfd58b1ffde2c7070f2523360001b611e0d565b6107997fa7888e4bd5910e7600d611bf0dd1d92718b2b3130fd9c4c7bee9963fa600b78760001b611e0d565b6107c57f81cfcbf8729edb01f1a4bb4f7dc9af9689af188a39d8a9447e2c3e065c8f111460001b611e0d565b7f000000000000000000000000000000000000000000000000000000000000000073ffffffffffffffffffffffffffffffffffffffff166108fc479081150290604051600060405180830381858888f1935050505015801561082b573d6000803e3d6000fd5b50565b60055481565b60045481565b60016020528060005260406000206000915090505481565b600260009054906101000a900473ffffffffffffffffffffffffffffffffffffffff1681565b6108a47febe4c1e16331b206af39ec554165552ce51ed332bb6edecb7f41274a64ed7f0c60001b611e0d565b6108d07f11b0fc9d3a6058b26717ffac88980c91975743a2ebdebcea480b1f3390c6352860001b611e0d565b6108fc7f76e754d2688e32c53fcb0b179c269e91cef1187c53cb4355cba591b6ded9a5e260001b611e0d565b7f000000000000000000000000000000000000000000000000000000000000000073ffffffffffffffffffffffffffffffffffffffff163373ffffffffffffffffffffffffffffffffffffffff16146109ad5761097b7ffe1d18101ede93fc6235fc8d512f24adc8bac75492e818d7bf400d517488d4bd60001b611e0d565b6040517f1ee8575e00000000000000000000000000000000000000000000000000000000815260040160405180910390fd5b6109d97f216aa4080a5388ef9f3a89a6f0d336a58ba37f38becf17a8533539b29009ba6e60001b611e0d565b610a057ff1a8e86522ac77b9836c063273ac1988d40d16e1f9db2c5ee55b08ac8bcb906e60001b611e0d565b610a317f54aa0d32313bad43bda855d4680b84d10cc083a73001340ce7c668c90e642a0360001b611e0d565b60003403610a9757610a657f625bd2138edaf3edf1d9e0e2fbf083f9499e5b315545bc4c65fc46b37f3dfb5860001b611e0d565b6040517f0cdb5d8500000000000000000000000000000000000000000000000000000000815260040160405180910390fd5b610ac37f8ba7cfa068ededc7d96b6e9712388fb5cb4d2c9b53051381a9e65ddcce9e229c60001b611e0d565b565b610af17f8a1184da76fcfd290921fcd82006c2f73aec634e2abecc48326975859a2ad09660001b611e0d565b610b1d7ff80da446b2faba9793170eef362cb96893822832c998c6748b3945361baa169260001b611e0d565b610b497fd45a37525997632c4dfd25afe663f131ea707ab0b330cf98e1afa08a0a14506260001b611e0d565b600073ffffffffffffffffffffffffffffffffffffffff16600260009054906101000a900473ffffffffffffffffffffffffffffffffffffffff1673ffffffffffffffffffffffffffffffffffffffff161480610bf45750600260009054906101000a900473ffffffffffffffffffffffffffffffffffffffff1673ffffffffffffffffffffffffffffffffffffffff163373ffffffffffffffffffffffffffffffffffffffff1614155b80610c025750600554600454105b15610c6557610c337f30ef286d4f1de8700036e6ab726a5fa6eb479adc2302010b57341017b25773a660001b611e0d565b6040517f4da1bc3400000000000000000000000000000000000000000000000000000000815260040160405180910390fd5b610c917febd03c40124fd89db389b93547ca6f0a4e489997410a8110b208d8189b3c2f4860001b611e0d565b610cbd7f1cfb2632a09a833b55d9f0fcd0438e8aa57e010c33e912975cc748ea30bf903260001b611e0d565b60036000600554815260200190815260200160002060006101000a81549073ffffffffffffffffffffffffffffffffffffffff0219169055610d217f1e9197be00741dc5dfc93d1a0bb8a39bf95af6ef0ed1754fc3069c2efcceba9360001b611e0d565b610d4d7f4a3f9c0af71655fa7094856806c84e9be91d6f6656499713774f02dbe9e6d9e260001b611e0d565b600160056000828254610d60919061218e565b92505081905550565b60006020528060005260406000206000915090505481565b610dad7feea409508c1460e1a122adf72224cf171d84d8f6bc01803b79b73cd3c7af555360001b611e0d565b610dd97f2bfa76d67e612cf6f90186efcde07897c32694466e780390c305ed7a5dbf38b160001b611e0d565b610e057f4df29580689839d7d31dfeb0a8f65119a09dd5d945b4350bfb67d136078b0f1f60001b611e0d565b7f000000000000000000000000000000000000000000000000000000000000000073ffffffffffffffffffffffffffffffffffffffff163373ffffffffffffffffffffffffffffffffffffffff1614610eb657610e847fdacf2719584116cc37483aed6dd48dacf749acfb320594365be223c49e371ec560001b611e0d565b6040517f1ee8575e00000000000000000000000000000000000000000000000000000000815260040160405180910390fd5b610ee27f7964126a9a468693a0446b8b90e60740dd9b845db97f5ed58aa9b694091ba33760001b611e0d565b610f0d7eeb9cb882523752e78759ad157d311aecbc57bca671d62531747ebdf959ee7e60001b611e0d565b610f397fb50157a2193e6c766ffa402780b877e73cc3796ac3c0acd71a69136e3632dd9e60001b611e0d565b600073ffffffffffffffffffffffffffffffffffffffff16600260009054906101000a900473ffffffffffffffffffffffffffffffffffffffff1673ffffffffffffffffffffffffffffffffffffffff1614806110b55750600260009054906101000a900473ffffffffffffffffffffffffffffffffffffffff1673ffffffffffffffffffffffffffffffffffffffff16633df4ddf46040518163ffffffff1660e01b8152600401602060405180830381865afa158015610ffe573d6000803e3d6000fd5b505050506040513d601f19601f820116820180604052508101906110229190612132565b600260009054906101000a900473ffffffffffffffffffffffffffffffffffffffff1673ffffffffffffffffffffffffffffffffffffffff166347799da86040518163ffffffff1660e01b8152600401602060405180830381865afa15801561108f573d6000803e3d6000fd5b505050506040513d601f19601f820116820180604052508101906110b39190612132565b105b15611118576110e67f73b97c938c16714eaa314322593146a8bdcaa1717556469cc21970e8d9a73c1a60001b611e0d565b6040517f5e61bb8700000000000000000000000000000000000000000000000000000000815260040160405180910390fd5b6111447fc93bff9359205e8129295dccd4b58e15fc68842d809de260f200b9b841af367f60001b611e0d565b6111707f0e123575f14f6c28869a00e9d62cab7f7254bba09160f9cf1a991849e741430d60001b611e0d565b61119c7f8d62fe09489336c0d2621d5dcc3489ddf99d2558a43bcea1f668d7c360befc8c60001b611e0d565b6000600260009054906101000a900473ffffffffffffffffffffffffffffffffffffffff1673ffffffffffffffffffffffffffffffffffffffff1663ddf0b009600260009054906101000a900473ffffffffffffffffffffffffffffffffffffffff1673ffffffffffffffffffffffffffffffffffffffff166347799da86040518163ffffffff1660e01b8152600401602060405180830381865afa158015611249573d6000803e3d6000fd5b505050506040513d601f19601f8201168201806040525081019061126d9190612132565b6040518263ffffffff1660e01b81526004016112899190611f75565b602060405180830381865afa1580156112a6573d6000803e3d6000fd5b505050506040513d601f19601f820116820180604052508101906112ca91906121d7565b90506112f87f83f9289e20a16d4dc0150bed1fa331f4a966dad6cc74d43e75b643db59331d2760001b611e0d565b6113247fc8e42039bad2e8e21380d7c90f131ccdd82a2e980a1be4d4fa7fb1104ea4dcbc60001b611e0d565b600260009054906101000a900473ffffffffffffffffffffffffffffffffffffffff1673ffffffffffffffffffffffffffffffffffffffff1663957908d16040518163ffffffff1660e01b8152600401600060405180830381600087803b15801561138e57600080fd5b505af11580156113a2573d6000803e3d6000fd5b505050506113d27f01fff6c1f89ffca554bbaba6e43fe3b7e460bba5c0873e11d50ff041adda5a4660001b611e0d565b6113fe7fdb71f03fcffa399d9597fce7ca8578f15755009cbc571a8fba25b856da203c5160001b611e0d565b6000600160008373ffffffffffffffffffffffffffffffffffffffff1673ffffffffffffffffffffffffffffffffffffffff16815260200190815260200160002054600260009054906101000a900473ffffffffffffffffffffffffffffffffffffffff1673ffffffffffffffffffffffffffffffffffffffff1663e3d66f68846040518263ffffffff1660e01b815260040161149b91906120a9565b602060405180830381865afa1580156114b8573d6000803e3d6000fd5b505050506040513d601f19601f820116820180604052508101906114dc9190612132565b6114e69190612204565b90506115147fe0d9935cd1e018d6fc933697637869951befc675c1d536937b910a9a29d0060b60001b611e0d565b6115407fa0fde067c914fdcc376fa1a81b882355fc69cfd5fa3b951fb4d64ca17b4c937860001b611e0d565b80600160008473ffffffffffffffffffffffffffffffffffffffff1673ffffffffffffffffffffffffffffffffffffffff168152602001908152602001600020600082825461158f919061218e565b925050819055506115c27f6220f5955aaa09c21c325fec6675d9d3142022a7e8730098578fcb30d335065d60001b611e0d565b6115ee7f5cafe10830830fa0142cb15cab360a5bd1409dafcc9d680f7bd4e810f0b6cf5860001b611e0d565b8173ffffffffffffffffffffffffffffffffffffffff166108fc829081150290604051600060405180830381858888f19350505050158015611634573d6000803e3d6000fd5b505050565b7f000000000000000000000000000000000000000000000000000000000000000081565b6116897f8886394e64a235b7633752f494dd6cefb95d6c9abd39937bfcee68f02571de6960001b611e0d565b6116b57f32974a8c3ba52edc42c527d81328f5b625b19e39bfc9f50403d1efaf136d77c460001b611e0d565b6116e17f7fbca0c309f9a73eb2a6731834b2dced5a7eaee2ca2030fe11eaf766d7bc9bfb60001b611e0d565b7f000000000000000000000000000000000000000000000000000000000000000073ffffffffffffffffffffffffffffffffffffffff163373ffffffffffffffffffffffffffffffffffffffff1614611792576117607fc15d996439cf9b12b9a5a8d8d46fd787e577a1860c56e07845757e4ecbd79b4f60001b611e0d565b6040517f1ee8575e00000000000000000000000000000000000000000000000000000000815260040160405180910390fd5b6117be7f452d8f897d20f2fbe1bd2662fcfc4424e73fb7b86c7f2d06313bd542ec562b8460001b611e0d565b6117ea7f3605adb37d37c3e0cf062846f42272f4c9c8d7aaba3e2128dd5963fc79afad4a60001b611e0d565b6118167fc636b30b546ad61e6fa17cef4cc512063e320ab803e147ffb1ce76ba1287207c60001b611e0d565b80600260006101000a81548173ffffffffffffffffffffffffffffffffffffffff021916908373ffffffffffffffffffffffffffffffffffffffff16021790555050565b60036020528060005260406000206000915054906101000a900473ffffffffffffffffffffffffffffffffffffffff1681565b6118b97f04b4360180fbc27da60503343f071daf347022d590d73b139768a21305f6328960001b611e0d565b6118e57f6781231fedb7cf37f34de7fdb429613043b8eacf963390ab52a883b734e1094960001b611e0d565b6119117f9af620106784cf803540a8cc1b21c3921e27f6fb195387b7b9c268ccc7eb917360001b611e0d565b6103e8811015611979576119477f9019dc5ac124dd47e7cac1c1ee54aeb3e1d66cd42cc71539a1e80fb2293c65f060001b611e0d565b6040517fa9f2d61800000000000000000000000000000000000000000000000000000000815260040160405180910390fd5b6119a57fb89b1b7878c6d16a7973034766ab595d4712849a1b4e594bf0ada4b609bd043d60001b611e0d565b6119d17f72b35ab5ad4811c1c251e4fb6c07716356f181855423d6d868e3f38d566d9de160001b611e0d565b6119fd7f253a8b06aaa803bd49b76deae284883d8cd2aee3479c654ca9c88dc0016d4b5060001b611e0d565b6103e8816103eb611a0e9190612238565b611a1891906122a9565b3414611a7c57611a4a7f04690624727f138e77de01e0697f0bae20eb7f25862e32667015e4deb7108fdc60001b611e0d565b6040517f400f9fb800000000000000000000000000000000000000000000000000000000815260040160405180910390fd5b611aa87f57bec4706ec22c9ef967c0e723ee9a3cb3097708b4d1b2cbbe43fd5939fa52c360001b611e0d565b611ad47f4459e9b38210f9e9c7dfe110982369db9ec3826dbfba2658cfe7e913403f31c860001b611e0d565b611b007f7d6523f8000fea8ef2a1970f7ea726dd4261aa04ba2c933b5dd2e6e573c809b360001b611e0d565b600073ffffffffffffffffffffffffffffffffffffffff16600260009054906101000a900473ffffffffffffffffffffffffffffffffffffffff1673ffffffffffffffffffffffffffffffffffffffff161480611b95575080600260009054906101000a900473ffffffffffffffffffffffffffffffffffffffff1673ffffffffffffffffffffffffffffffffffffffff1631105b15611bf857611bc67f3d9787ea0aa69ed2f0d240ce4b2ef2ef449f7044912ac01aba86ecc1f749311a60001b611e0d565b6040517ff06294a300000000000000000000000000000000000000000000000000000000815260040160405180910390fd5b611c247ffbe7d9c275dbb02852d8d2b42fda0b7e6419446869b396af7a1ae5404da7297660001b611e0d565b611c507ff6977e6eee43fc10c8f5ec6bc48f253d66d6a4fe45e987fa52aad54cb00addce60001b611e0d565b611c7c7f40bb7c75c10e6ca5dca625edfdbb1d0274976f185962f84383a5e3dd0de4fb5860001b611e0d565b6103eb346103e8611c8d9190612238565b611c9791906122a9565b6000803373ffffffffffffffffffffffffffffffffffffffff1673ffffffffffffffffffffffffffffffffffffffff1681526020019081526020016000206000828254611ce4919061218e565b92505081905550611d177f12e576e23a3875216fe47810539dab25d86904c62a77f3b4680b2a3ec1429a3160001b611e0d565b611d437f0a2ea7b99df1c2a4b6b397892b5b70f5cf9972626bf082362649113f766e2a8b60001b611e0d565b611d4b611e10565b611d777ff579c20b54e18a7be07783e3cf9dd26f168bb857f0e70efb5e4af2b6b72ba59d60001b611e0d565b611da37f75333c67d6d987559e5c556e46bb53e8976d9be259949f65f1ce6d3917cf5ef960001b611e0d565b7f000000000000000000000000000000000000000000000000000000000000000073ffffffffffffffffffffffffffffffffffffffff166108fc349081150290604051600060405180830381858888f19350505050158015611e09573d6000803e3d6000fd5b5050565b50565b611e3c7ff37ecd1466fe9dc964811451e7c680c216514c605d4fdc1da8631ecb5846952a60001b611e0d565b611e687ff17a198ec5bdea5f5b90d483ec23ad2a0aea7b0396eb2af004c74571173f73fe60001b611e0d565b611e947f72b741c749a04a6342f127ebb24f901b8fd63115f18adfc4e730662fedf73d3f60001b611e0d565b600160046000828254611ea7919061218e565b92505081905550611eda7f453161c54387a252726f882a0d853d2f3bf66b088efe382cb1cc50037d04dcbd60001b611e0d565b611f067f17f0c6abb907cafca6414edf6799cddcf2ffd4e8001de522966a22aca99d630560001b611e0d565b3360036000600454815260200190815260200160002060006101000a81548173ffffffffffffffffffffffffffffffffffffffff021916908373ffffffffffffffffffffffffffffffffffffffff160217905550565b6000819050919050565b611f6f81611f5c565b82525050565b6000602082019050611f8a6000830184611f66565b92915050565b600080fd5b600073ffffffffffffffffffffffffffffffffffffffff82169050919050565b6000611fc082611f95565b9050919050565b611fd081611fb5565b8114611fdb57600080fd5b50565b600081359050611fed81611fc7565b92915050565b60006020828403121561200957612008611f90565b5b600061201784828501611fde565b91505092915050565b6000819050919050565b600061204561204061203b84611f95565b612020565b611f95565b9050919050565b60006120578261202a565b9050919050565b60006120698261204c565b9050919050565b6120798161205e565b82525050565b60006020820190506120946000830184612070565b92915050565b6120a381611fb5565b82525050565b60006020820190506120be600083018461209a565b92915050565b6120cd81611f5c565b81146120d857600080fd5b50565b6000813590506120ea816120c4565b92915050565b60006020828403121561210657612105611f90565b5b6000612114848285016120db565b91505092915050565b60008151905061212c816120c4565b92915050565b60006020828403121561214857612147611f90565b5b60006121568482850161211d565b91505092915050565b7f4e487b7100000000000000000000000000000000000000000000000000000000600052601160045260246000fd5b600061219982611f5c565b91506121a483611f5c565b92508282019050808211156121bc576121bb61215f565b5b92915050565b6000815190506121d181611fc7565b92915050565b6000602082840312156121ed576121ec611f90565b5b60006121fb848285016121c2565b91505092915050565b600061220f82611f5c565b915061221a83611f5c565b92508282039050818111156122325761223161215f565b5b92915050565b600061224382611f5c565b915061224e83611f5c565b925082820261225c81611f5c565b915082820484148315176122735761227261215f565b5b5092915050565b7f4e487b7100000000000000000000000000000000000000000000000000000000600052601260045260246000fd5b60006122b482611f5c565b91506122bf83611f5c565b9250826122cf576122ce61227a565b5b82820490509291505056fea2646970667358221220022ce95555d40c8cd9ee3d391d32e80a0d4d92aec8dfccca8584026d0c252fb664736f6c63430008110033",
          "opcodes": "PUSH1 0xA0 PUSH1 0x40 MSTORE PUSH1 0x1 PUSH1 0x5 SSTORE CALLVALUE DUP1 ISZERO PUSH3 0x16 JUMPI PUSH1 0x0 DUP1 REVERT JUMPDEST POP PUSH3 0x4B PUSH32 0x32F5D9FE11B6DDA396CD2A64C74BBADAF7C2006A6BC4E9E5B41CEFDFBD9AD6C1 PUSH1 0x0 SHL PUSH3 0xED PUSH1 0x20 SHL PUSH1 0x20 SHR JUMP JUMPDEST PUSH3 0x7F PUSH32 0xF032777AA87477BBFDFE97398662C2E81C68632022D1D2030FF5FD792E71D613 PUSH1 0x0 SHL PUSH3 0xED PUSH1 0x20 SHL PUSH1 0x20 SHR JUMP JUMPDEST PUSH3 0xB3 PUSH32 0xF6C97F496BABC64349830CB8B7E07DCA185AFBED84B142BA180836B9555A9D44 PUSH1 0x0 SHL PUSH3 0xED PUSH1 0x20 SHL PUSH1 0x20 SHR JUMP JUMPDEST CALLER PUSH20 0xFFFFFFFFFFFFFFFFFFFFFFFFFFFFFFFFFFFFFFFF AND PUSH1 0x80 DUP2 PUSH20 0xFFFFFFFFFFFFFFFFFFFFFFFFFFFFFFFFFFFFFFFF AND DUP2 MSTORE POP POP PUSH3 0xF0 JUMP JUMPDEST POP JUMP JUMPDEST PUSH1 0x80 MLOAD PUSH2 0x2310 PUSH3 0x136 PUSH1 0x0 CODECOPY PUSH1 0x0 DUP2 DUP2 PUSH2 0x344 ADD MSTORE DUP2 DUP2 PUSH2 0x7C7 ADD MSTORE DUP2 DUP2 PUSH2 0x8FE ADD MSTORE DUP2 DUP2 PUSH2 0xE07 ADD MSTORE DUP2 DUP2 PUSH2 0x163B ADD MSTORE DUP2 DUP2 PUSH2 0x16E3 ADD MSTORE PUSH2 0x1DA5 ADD MSTORE PUSH2 0x2310 PUSH1 0x0 RETURN INVALID PUSH1 0x80 PUSH1 0x40 MSTORE PUSH1 0x4 CALLDATASIZE LT PUSH2 0xC2 JUMPI PUSH1 0x0 CALLDATALOAD PUSH1 0xE0 SHR DUP1 PUSH4 0x957908D1 GT PUSH2 0x7F JUMPI DUP1 PUSH4 0xB4A99A4E GT PUSH2 0x59 JUMPI DUP1 PUSH4 0xB4A99A4E EQ PUSH2 0x211 JUMPI DUP1 PUSH4 0xD06019F5 EQ PUSH2 0x23C JUMPI DUP1 PUSH4 0xDDF0B009 EQ PUSH2 0x265 JUMPI DUP1 PUSH4 0xE76438AB EQ PUSH2 0x2A2 JUMPI PUSH2 0xC2 JUMP JUMPDEST DUP1 PUSH4 0x957908D1 EQ PUSH2 0x1A6 JUMPI DUP1 PUSH4 0xABB6B5A1 EQ PUSH2 0x1BD JUMPI DUP1 PUSH4 0xAF11CB40 EQ PUSH2 0x1FA JUMPI PUSH2 0xC2 JUMP JUMPDEST DUP1 PUSH4 0x8DD057A EQ PUSH2 0xC7 JUMPI DUP1 PUSH4 0x3DF4DDF4 EQ PUSH2 0xDE JUMPI DUP1 PUSH4 0x47799DA8 EQ PUSH2 0x109 JUMPI DUP1 PUSH4 0x7BB1FDD2 EQ PUSH2 0x134 JUMPI DUP1 PUSH4 0x7F6C6D10 EQ PUSH2 0x171 JUMPI DUP1 PUSH4 0x8521EEBE EQ PUSH2 0x19C JUMPI JUMPDEST PUSH1 0x0 DUP1 REVERT JUMPDEST CALLVALUE DUP1 ISZERO PUSH2 0xD3 JUMPI PUSH1 0x0 DUP1 REVERT JUMPDEST POP PUSH2 0xDC PUSH2 0x2BE JUMP JUMPDEST STOP JUMPDEST CALLVALUE DUP1 ISZERO PUSH2 0xEA JUMPI PUSH1 0x0 DUP1 REVERT JUMPDEST POP PUSH2 0xF3 PUSH2 0x82E JUMP JUMPDEST PUSH1 0x40 MLOAD PUSH2 0x100 SWAP2 SWAP1 PUSH2 0x1F75 JUMP JUMPDEST PUSH1 0x40 MLOAD DUP1 SWAP2 SUB SWAP1 RETURN JUMPDEST CALLVALUE DUP1 ISZERO PUSH2 0x115 JUMPI PUSH1 0x0 DUP1 REVERT JUMPDEST POP PUSH2 0x11E PUSH2 0x834 JUMP JUMPDEST PUSH1 0x40 MLOAD PUSH2 0x12B SWAP2 SWAP1 PUSH2 0x1F75 JUMP JUMPDEST PUSH1 0x40 MLOAD DUP1 SWAP2 SUB SWAP1 RETURN JUMPDEST CALLVALUE DUP1 ISZERO PUSH2 0x140 JUMPI PUSH1 0x0 DUP1 REVERT JUMPDEST POP PUSH2 0x15B PUSH1 0x4 DUP1 CALLDATASIZE SUB DUP2 ADD SWAP1 PUSH2 0x156 SWAP2 SWAP1 PUSH2 0x1FF3 JUMP JUMPDEST PUSH2 0x83A JUMP JUMPDEST PUSH1 0x40 MLOAD PUSH2 0x168 SWAP2 SWAP1 PUSH2 0x1F75 JUMP JUMPDEST PUSH1 0x40 MLOAD DUP1 SWAP2 SUB SWAP1 RETURN JUMPDEST CALLVALUE DUP1 ISZERO PUSH2 0x17D JUMPI PUSH1 0x0 DUP1 REVERT JUMPDEST POP PUSH2 0x186 PUSH2 0x852 JUMP JUMPDEST PUSH1 0x40 MLOAD PUSH2 0x193 SWAP2 SWAP1 PUSH2 0x207F JUMP JUMPDEST PUSH1 0x40 MLOAD DUP1 SWAP2 SUB SWAP1 RETURN JUMPDEST PUSH2 0x1A4 PUSH2 0x878 JUMP JUMPDEST STOP JUMPDEST CALLVALUE DUP1 ISZERO PUSH2 0x1B2 JUMPI PUSH1 0x0 DUP1 REVERT JUMPDEST POP PUSH2 0x1BB PUSH2 0xAC5 JUMP JUMPDEST STOP JUMPDEST CALLVALUE DUP1 ISZERO PUSH2 0x1C9 JUMPI PUSH1 0x0 DUP1 REVERT JUMPDEST POP PUSH2 0x1E4 PUSH1 0x4 DUP1 CALLDATASIZE SUB DUP2 ADD SWAP1 PUSH2 0x1DF SWAP2 SWAP1 PUSH2 0x1FF3 JUMP JUMPDEST PUSH2 0xD69 JUMP JUMPDEST PUSH1 0x40 MLOAD PUSH2 0x1F1 SWAP2 SWAP1 PUSH2 0x1F75 JUMP JUMPDEST PUSH1 0x40 MLOAD DUP1 SWAP2 SUB SWAP1 RETURN JUMPDEST CALLVALUE DUP1 ISZERO PUSH2 0x206 JUMPI PUSH1 0x0 DUP1 REVERT JUMPDEST POP PUSH2 0x20F PUSH2 0xD81 JUMP JUMPDEST STOP JUMPDEST CALLVALUE DUP1 ISZERO PUSH2 0x21D JUMPI PUSH1 0x0 DUP1 REVERT JUMPDEST POP PUSH2 0x226 PUSH2 0x1639 JUMP JUMPDEST PUSH1 0x40 MLOAD PUSH2 0x233 SWAP2 SWAP1 PUSH2 0x20A9 JUMP JUMPDEST PUSH1 0x40 MLOAD DUP1 SWAP2 SUB SWAP1 RETURN JUMPDEST CALLVALUE DUP1 ISZERO PUSH2 0x248 JUMPI PUSH1 0x0 DUP1 REVERT JUMPDEST POP PUSH2 0x263 PUSH1 0x4 DUP1 CALLDATASIZE SUB DUP2 ADD SWAP1 PUSH2 0x25E SWAP2 SWAP1 PUSH2 0x1FF3 JUMP JUMPDEST PUSH2 0x165D JUMP JUMPDEST STOP JUMPDEST CALLVALUE DUP1 ISZERO PUSH2 0x271 JUMPI PUSH1 0x0 DUP1 REVERT JUMPDEST POP PUSH2 0x28C PUSH1 0x4 DUP1 CALLDATASIZE SUB DUP2 ADD SWAP1 PUSH2 0x287 SWAP2 SWAP1 PUSH2 0x20F0 JUMP JUMPDEST PUSH2 0x185A JUMP JUMPDEST PUSH1 0x40 MLOAD PUSH2 0x299 SWAP2 SWAP1 PUSH2 0x20A9 JUMP JUMPDEST PUSH1 0x40 MLOAD DUP1 SWAP2 SUB SWAP1 RETURN JUMPDEST PUSH2 0x2BC PUSH1 0x4 DUP1 CALLDATASIZE SUB DUP2 ADD SWAP1 PUSH2 0x2B7 SWAP2 SWAP1 PUSH2 0x20F0 JUMP JUMPDEST PUSH2 0x188D JUMP JUMPDEST STOP JUMPDEST PUSH2 0x2EA PUSH32 0x7F684BC999DD4140F8AD1C62C128D00347A74D1E348297885CC67DC047F62255 PUSH1 0x0 SHL PUSH2 0x1E0D JUMP JUMPDEST PUSH2 0x316 PUSH32 0x68D9E622A7E683E3D9DC223155B4AC6A737624C43EF6BEE9E0832BB9E706254F PUSH1 0x0 SHL PUSH2 0x1E0D JUMP JUMPDEST PUSH2 0x342 PUSH32 0xE562D8C86660C750D09C060B5CD4840C03C86DBA992A22DC0199CB84E76FA42A PUSH1 0x0 SHL PUSH2 0x1E0D JUMP JUMPDEST PUSH32 0x0 PUSH20 0xFFFFFFFFFFFFFFFFFFFFFFFFFFFFFFFFFFFFFFFF AND CALLER PUSH20 0xFFFFFFFFFFFFFFFFFFFFFFFFFFFFFFFFFFFFFFFF AND EQ PUSH2 0x3F3 JUMPI PUSH2 0x3C1 PUSH32 0x6933D32C123B7E13ACDFD8D9E91CC0D5FB38D6EDB6C0B8BF0282093F8BD25B47 PUSH1 0x0 SHL PUSH2 0x1E0D JUMP JUMPDEST PUSH1 0x40 MLOAD PUSH32 0x1EE8575E00000000000000000000000000000000000000000000000000000000 DUP2 MSTORE PUSH1 0x4 ADD PUSH1 0x40 MLOAD DUP1 SWAP2 SUB SWAP1 REVERT JUMPDEST PUSH2 0x41F PUSH32 0xB2D006409BB267AD722D1DC7348ED4B425BC99B9D2FCECEE43D16FB9FA70F915 PUSH1 0x0 SHL PUSH2 0x1E0D JUMP JUMPDEST PUSH2 0x44B PUSH32 0x13035C0BC3C2CB87BFA888652AACEFD8BB9CC274BF69CF22F880805A516F0EFC PUSH1 0x0 SHL PUSH2 0x1E0D JUMP JUMPDEST PUSH2 0x477 PUSH32 0xAD9A4D4B72ABEA04328347D8211C07D9B2EDD91565EF4C338AE272EFBDD4B400 PUSH1 0x0 SHL PUSH2 0x1E0D JUMP JUMPDEST PUSH1 0x0 SELFBALANCE SUB PUSH2 0x4DD JUMPI PUSH2 0x4AB PUSH32 0x4D8FABA873956C71C189F3B26C20B66F42FCE73882FBB8449EC2C87CC5FB6A83 PUSH1 0x0 SHL PUSH2 0x1E0D JUMP JUMPDEST PUSH1 0x40 MLOAD PUSH32 0x7A1F291700000000000000000000000000000000000000000000000000000000 DUP2 MSTORE PUSH1 0x4 ADD PUSH1 0x40 MLOAD DUP1 SWAP2 SUB SWAP1 REVERT JUMPDEST PUSH2 0x509 PUSH32 0xB0FB38A9881C348F2DEB52A029988FC62CFFEA04445DB6AD098915EE847C5DEE PUSH1 0x0 SHL PUSH2 0x1E0D JUMP JUMPDEST PUSH2 0x535 PUSH32 0xA534F8F89EEFDDFBFB2C1A4D53231F3D77C10A54FF75F4346346DE57079532B PUSH1 0x0 SHL PUSH2 0x1E0D JUMP JUMPDEST PUSH2 0x561 PUSH32 0xACDCF904C591E720EE1E703DA5058DED942915D671BC67FED220253CBBBE7886 PUSH1 0x0 SHL PUSH2 0x1E0D JUMP JUMPDEST PUSH1 0x0 PUSH20 0xFFFFFFFFFFFFFFFFFFFFFFFFFFFFFFFFFFFFFFFF AND PUSH1 0x2 PUSH1 0x0 SWAP1 SLOAD SWAP1 PUSH2 0x100 EXP SWAP1 DIV PUSH20 0xFFFFFFFFFFFFFFFFFFFFFFFFFFFFFFFFFFFFFFFF AND PUSH20 0xFFFFFFFFFFFFFFFFFFFFFFFFFFFFFFFFFFFFFFFF AND EQ DUP1 PUSH2 0x6DE JUMPI POP PUSH1 0x2 PUSH1 0x0 SWAP1 SLOAD SWAP1 PUSH2 0x100 EXP SWAP1 DIV PUSH20 0xFFFFFFFFFFFFFFFFFFFFFFFFFFFFFFFFFFFFFFFF AND PUSH20 0xFFFFFFFFFFFFFFFFFFFFFFFFFFFFFFFFFFFFFFFF AND PUSH4 0x3DF4DDF4 PUSH1 0x40 MLOAD DUP2 PUSH4 0xFFFFFFFF AND PUSH1 0xE0 SHL DUP2 MSTORE PUSH1 0x4 ADD PUSH1 0x20 PUSH1 0x40 MLOAD DUP1 DUP4 SUB DUP2 DUP7 GAS STATICCALL ISZERO DUP1 ISZERO PUSH2 0x626 JUMPI RETURNDATASIZE PUSH1 0x0 DUP1 RETURNDATACOPY RETURNDATASIZE PUSH1 0x0 REVERT JUMPDEST POP POP POP POP PUSH1 0x40 MLOAD RETURNDATASIZE PUSH1 0x1F NOT PUSH1 0x1F DUP3 ADD AND DUP3 ADD DUP1 PUSH1 0x40 MSTORE POP DUP2 ADD SWAP1 PUSH2 0x64A SWAP2 SWAP1 PUSH2 0x2132 JUMP JUMPDEST PUSH1 0x2 PUSH1 0x0 SWAP1 SLOAD SWAP1 PUSH2 0x100 EXP SWAP1 DIV PUSH20 0xFFFFFFFFFFFFFFFFFFFFFFFFFFFFFFFFFFFFFFFF AND PUSH20 0xFFFFFFFFFFFFFFFFFFFFFFFFFFFFFFFFFFFFFFFF AND PUSH4 0x47799DA8 PUSH1 0x40 MLOAD DUP2 PUSH4 0xFFFFFFFF AND PUSH1 0xE0 SHL DUP2 MSTORE PUSH1 0x4 ADD PUSH1 0x20 PUSH1 0x40 MLOAD DUP1 DUP4 SUB DUP2 DUP7 GAS STATICCALL ISZERO DUP1 ISZERO PUSH2 0x6B7 JUMPI RETURNDATASIZE PUSH1 0x0 DUP1 RETURNDATACOPY RETURNDATASIZE PUSH1 0x0 REVERT JUMPDEST POP POP POP POP PUSH1 0x40 MLOAD RETURNDATASIZE PUSH1 0x1F NOT PUSH1 0x1F DUP3 ADD AND DUP3 ADD DUP1 PUSH1 0x40 MSTORE POP DUP2 ADD SWAP1 PUSH2 0x6DB SWAP2 SWAP1 PUSH2 0x2132 JUMP JUMPDEST LT ISZERO JUMPDEST ISZERO PUSH2 0x741 JUMPI PUSH2 0x70F PUSH32 0x6C5F0C09F39700304B3453463DC062C769F3313099E5EAF86600B1ECB594CD2D PUSH1 0x0 SHL PUSH2 0x1E0D JUMP JUMPDEST PUSH1 0x40 MLOAD PUSH32 0x230ACCFD00000000000000000000000000000000000000000000000000000000 DUP2 MSTORE PUSH1 0x4 ADD PUSH1 0x40 MLOAD DUP1 SWAP2 SUB SWAP1 REVERT JUMPDEST PUSH2 0x76D PUSH32 0xF2A71264156E3353341ADBF56C5031841E46A7721BFD58B1FFDE2C7070F25233 PUSH1 0x0 SHL PUSH2 0x1E0D JUMP JUMPDEST PUSH2 0x799 PUSH32 0xA7888E4BD5910E7600D611BF0DD1D92718B2B3130FD9C4C7BEE9963FA600B787 PUSH1 0x0 SHL PUSH2 0x1E0D JUMP JUMPDEST PUSH2 0x7C5 PUSH32 0x81CFCBF8729EDB01F1A4BB4F7DC9AF9689AF188A39D8A9447E2C3E065C8F1114 PUSH1 0x0 SHL PUSH2 0x1E0D JUMP JUMPDEST PUSH32 0x0 PUSH20 0xFFFFFFFFFFFFFFFFFFFFFFFFFFFFFFFFFFFFFFFF AND PUSH2 0x8FC SELFBALANCE SWAP1 DUP2 ISZERO MUL SWAP1 PUSH1 0x40 MLOAD PUSH1 0x0 PUSH1 0x40 MLOAD DUP1 DUP4 SUB DUP2 DUP6 DUP9 DUP9 CALL SWAP4 POP POP POP POP ISZERO DUP1 ISZERO PUSH2 0x82B JUMPI RETURNDATASIZE PUSH1 0x0 DUP1 RETURNDATACOPY RETURNDATASIZE PUSH1 0x0 REVERT JUMPDEST POP JUMP JUMPDEST PUSH1 0x5 SLOAD DUP2 JUMP JUMPDEST PUSH1 0x4 SLOAD DUP2 JUMP JUMPDEST PUSH1 0x1 PUSH1 0x20 MSTORE DUP1 PUSH1 0x0 MSTORE PUSH1 0x40 PUSH1 0x0 KECCAK256 PUSH1 0x0 SWAP2 POP SWAP1 POP SLOAD DUP2 JUMP JUMPDEST PUSH1 0x2 PUSH1 0x0 SWAP1 SLOAD SWAP1 PUSH2 0x100 EXP SWAP1 DIV PUSH20 0xFFFFFFFFFFFFFFFFFFFFFFFFFFFFFFFFFFFFFFFF AND DUP2 JUMP JUMPDEST PUSH2 0x8A4 PUSH32 0xEBE4C1E16331B206AF39EC554165552CE51ED332BB6EDECB7F41274A64ED7F0C PUSH1 0x0 SHL PUSH2 0x1E0D JUMP JUMPDEST PUSH2 0x8D0 PUSH32 0x11B0FC9D3A6058B26717FFAC88980C91975743A2EBDEBCEA480B1F3390C63528 PUSH1 0x0 SHL PUSH2 0x1E0D JUMP JUMPDEST PUSH2 0x8FC PUSH32 0x76E754D2688E32C53FCB0B179C269E91CEF1187C53CB4355CBA591B6DED9A5E2 PUSH1 0x0 SHL PUSH2 0x1E0D JUMP JUMPDEST PUSH32 0x0 PUSH20 0xFFFFFFFFFFFFFFFFFFFFFFFFFFFFFFFFFFFFFFFF AND CALLER PUSH20 0xFFFFFFFFFFFFFFFFFFFFFFFFFFFFFFFFFFFFFFFF AND EQ PUSH2 0x9AD JUMPI PUSH2 0x97B PUSH32 0xFE1D18101EDE93FC6235FC8D512F24ADC8BAC75492E818D7BF400D517488D4BD PUSH1 0x0 SHL PUSH2 0x1E0D JUMP JUMPDEST PUSH1 0x40 MLOAD PUSH32 0x1EE8575E00000000000000000000000000000000000000000000000000000000 DUP2 MSTORE PUSH1 0x4 ADD PUSH1 0x40 MLOAD DUP1 SWAP2 SUB SWAP1 REVERT JUMPDEST PUSH2 0x9D9 PUSH32 0x216AA4080A5388EF9F3A89A6F0D336A58BA37F38BECF17A8533539B29009BA6E PUSH1 0x0 SHL PUSH2 0x1E0D JUMP JUMPDEST PUSH2 0xA05 PUSH32 0xF1A8E86522AC77B9836C063273AC1988D40D16E1F9DB2C5EE55B08AC8BCB906E PUSH1 0x0 SHL PUSH2 0x1E0D JUMP JUMPDEST PUSH2 0xA31 PUSH32 0x54AA0D32313BAD43BDA855D4680B84D10CC083A73001340CE7C668C90E642A03 PUSH1 0x0 SHL PUSH2 0x1E0D JUMP JUMPDEST PUSH1 0x0 CALLVALUE SUB PUSH2 0xA97 JUMPI PUSH2 0xA65 PUSH32 0x625BD2138EDAF3EDF1D9E0E2FBF083F9499E5B315545BC4C65FC46B37F3DFB58 PUSH1 0x0 SHL PUSH2 0x1E0D JUMP JUMPDEST PUSH1 0x40 MLOAD PUSH32 0xCDB5D8500000000000000000000000000000000000000000000000000000000 DUP2 MSTORE PUSH1 0x4 ADD PUSH1 0x40 MLOAD DUP1 SWAP2 SUB SWAP1 REVERT JUMPDEST PUSH2 0xAC3 PUSH32 0x8BA7CFA068EDEDC7D96B6E9712388FB5CB4D2C9B53051381A9E65DDCCE9E229C PUSH1 0x0 SHL PUSH2 0x1E0D JUMP JUMPDEST JUMP JUMPDEST PUSH2 0xAF1 PUSH32 0x8A1184DA76FCFD290921FCD82006C2F73AEC634E2ABECC48326975859A2AD096 PUSH1 0x0 SHL PUSH2 0x1E0D JUMP JUMPDEST PUSH2 0xB1D PUSH32 0xF80DA446B2FABA9793170EEF362CB96893822832C998C6748B3945361BAA1692 PUSH1 0x0 SHL PUSH2 0x1E0D JUMP JUMPDEST PUSH2 0xB49 PUSH32 0xD45A37525997632C4DFD25AFE663F131EA707AB0B330CF98E1AFA08A0A145062 PUSH1 0x0 SHL PUSH2 0x1E0D JUMP JUMPDEST PUSH1 0x0 PUSH20 0xFFFFFFFFFFFFFFFFFFFFFFFFFFFFFFFFFFFFFFFF AND PUSH1 0x2 PUSH1 0x0 SWAP1 SLOAD SWAP1 PUSH2 0x100 EXP SWAP1 DIV PUSH20 0xFFFFFFFFFFFFFFFFFFFFFFFFFFFFFFFFFFFFFFFF AND PUSH20 0xFFFFFFFFFFFFFFFFFFFFFFFFFFFFFFFFFFFFFFFF AND EQ DUP1 PUSH2 0xBF4 JUMPI POP PUSH1 0x2 PUSH1 0x0 SWAP1 SLOAD SWAP1 PUSH2 0x100 EXP SWAP1 DIV PUSH20 0xFFFFFFFFFFFFFFFFFFFFFFFFFFFFFFFFFFFFFFFF AND PUSH20 0xFFFFFFFFFFFFFFFFFFFFFFFFFFFFFFFFFFFFFFFF AND CALLER PUSH20 0xFFFFFFFFFFFFFFFFFFFFFFFFFFFFFFFFFFFFFFFF AND EQ ISZERO JUMPDEST DUP1 PUSH2 0xC02 JUMPI POP PUSH1 0x5 SLOAD PUSH1 0x4 SLOAD LT JUMPDEST ISZERO PUSH2 0xC65 JUMPI PUSH2 0xC33 PUSH32 0x30EF286D4F1DE8700036E6AB726A5FA6EB479ADC2302010B57341017B25773A6 PUSH1 0x0 SHL PUSH2 0x1E0D JUMP JUMPDEST PUSH1 0x40 MLOAD PUSH32 0x4DA1BC3400000000000000000000000000000000000000000000000000000000 DUP2 MSTORE PUSH1 0x4 ADD PUSH1 0x40 MLOAD DUP1 SWAP2 SUB SWAP1 REVERT JUMPDEST PUSH2 0xC91 PUSH32 0xEBD03C40124FD89DB389B93547CA6F0A4E489997410A8110B208D8189B3C2F48 PUSH1 0x0 SHL PUSH2 0x1E0D JUMP JUMPDEST PUSH2 0xCBD PUSH32 0x1CFB2632A09A833B55D9F0FCD0438E8AA57E010C33E912975CC748EA30BF9032 PUSH1 0x0 SHL PUSH2 0x1E0D JUMP JUMPDEST PUSH1 0x3 PUSH1 0x0 PUSH1 0x5 SLOAD DUP2 MSTORE PUSH1 0x20 ADD SWAP1 DUP2 MSTORE PUSH1 0x20 ADD PUSH1 0x0 KECCAK256 PUSH1 0x0 PUSH2 0x100 EXP DUP2 SLOAD SWAP1 PUSH20 0xFFFFFFFFFFFFFFFFFFFFFFFFFFFFFFFFFFFFFFFF MUL NOT AND SWAP1 SSTORE PUSH2 0xD21 PUSH32 0x1E9197BE00741DC5DFC93D1A0BB8A39BF95AF6EF0ED1754FC3069C2EFCCEBA93 PUSH1 0x0 SHL PUSH2 0x1E0D JUMP JUMPDEST PUSH2 0xD4D PUSH32 0x4A3F9C0AF71655FA7094856806C84E9BE91D6F6656499713774F02DBE9E6D9E2 PUSH1 0x0 SHL PUSH2 0x1E0D JUMP JUMPDEST PUSH1 0x1 PUSH1 0x5 PUSH1 0x0 DUP3 DUP3 SLOAD PUSH2 0xD60 SWAP2 SWAP1 PUSH2 0x218E JUMP JUMPDEST SWAP3 POP POP DUP2 SWAP1 SSTORE POP JUMP JUMPDEST PUSH1 0x0 PUSH1 0x20 MSTORE DUP1 PUSH1 0x0 MSTORE PUSH1 0x40 PUSH1 0x0 KECCAK256 PUSH1 0x0 SWAP2 POP SWAP1 POP SLOAD DUP2 JUMP JUMPDEST PUSH2 0xDAD PUSH32 0xEEA409508C1460E1A122ADF72224CF171D84D8F6BC01803B79B73CD3C7AF5553 PUSH1 0x0 SHL PUSH2 0x1E0D JUMP JUMPDEST PUSH2 0xDD9 PUSH32 0x2BFA76D67E612CF6F90186EFCDE07897C32694466E780390C305ED7A5DBF38B1 PUSH1 0x0 SHL PUSH2 0x1E0D JUMP JUMPDEST PUSH2 0xE05 PUSH32 0x4DF29580689839D7D31DFEB0A8F65119A09DD5D945B4350BFB67D136078B0F1F PUSH1 0x0 SHL PUSH2 0x1E0D JUMP JUMPDEST PUSH32 0x0 PUSH20 0xFFFFFFFFFFFFFFFFFFFFFFFFFFFFFFFFFFFFFFFF AND CALLER PUSH20 0xFFFFFFFFFFFFFFFFFFFFFFFFFFFFFFFFFFFFFFFF AND EQ PUSH2 0xEB6 JUMPI PUSH2 0xE84 PUSH32 0xDACF2719584116CC37483AED6DD48DACF749ACFB320594365BE223C49E371EC5 PUSH1 0x0 SHL PUSH2 0x1E0D JUMP JUMPDEST PUSH1 0x40 MLOAD PUSH32 0x1EE8575E00000000000000000000000000000000000000000000000000000000 DUP2 MSTORE PUSH1 0x4 ADD PUSH1 0x40 MLOAD DUP1 SWAP2 SUB SWAP1 REVERT JUMPDEST PUSH2 0xEE2 PUSH32 0x7964126A9A468693A0446B8B90E60740DD9B845DB97F5ED58AA9B694091BA337 PUSH1 0x0 SHL PUSH2 0x1E0D JUMP JUMPDEST PUSH2 0xF0D PUSH31 0xEB9CB882523752E78759AD157D311AECBC57BCA671D62531747EBDF959EE7E PUSH1 0x0 SHL PUSH2 0x1E0D JUMP JUMPDEST PUSH2 0xF39 PUSH32 0xB50157A2193E6C766FFA402780B877E73CC3796AC3C0ACD71A69136E3632DD9E PUSH1 0x0 SHL PUSH2 0x1E0D JUMP JUMPDEST PUSH1 0x0 PUSH20 0xFFFFFFFFFFFFFFFFFFFFFFFFFFFFFFFFFFFFFFFF AND PUSH1 0x2 PUSH1 0x0 SWAP1 SLOAD SWAP1 PUSH2 0x100 EXP SWAP1 DIV PUSH20 0xFFFFFFFFFFFFFFFFFFFFFFFFFFFFFFFFFFFFFFFF AND PUSH20 0xFFFFFFFFFFFFFFFFFFFFFFFFFFFFFFFFFFFFFFFF AND EQ DUP1 PUSH2 0x10B5 JUMPI POP PUSH1 0x2 PUSH1 0x0 SWAP1 SLOAD SWAP1 PUSH2 0x100 EXP SWAP1 DIV PUSH20 0xFFFFFFFFFFFFFFFFFFFFFFFFFFFFFFFFFFFFFFFF AND PUSH20 0xFFFFFFFFFFFFFFFFFFFFFFFFFFFFFFFFFFFFFFFF AND PUSH4 0x3DF4DDF4 PUSH1 0x40 MLOAD DUP2 PUSH4 0xFFFFFFFF AND PUSH1 0xE0 SHL DUP2 MSTORE PUSH1 0x4 ADD PUSH1 0x20 PUSH1 0x40 MLOAD DUP1 DUP4 SUB DUP2 DUP7 GAS STATICCALL ISZERO DUP1 ISZERO PUSH2 0xFFE JUMPI RETURNDATASIZE PUSH1 0x0 DUP1 RETURNDATACOPY RETURNDATASIZE PUSH1 0x0 REVERT JUMPDEST POP POP POP POP PUSH1 0x40 MLOAD RETURNDATASIZE PUSH1 0x1F NOT PUSH1 0x1F DUP3 ADD AND DUP3 ADD DUP1 PUSH1 0x40 MSTORE POP DUP2 ADD SWAP1 PUSH2 0x1022 SWAP2 SWAP1 PUSH2 0x2132 JUMP JUMPDEST PUSH1 0x2 PUSH1 0x0 SWAP1 SLOAD SWAP1 PUSH2 0x100 EXP SWAP1 DIV PUSH20 0xFFFFFFFFFFFFFFFFFFFFFFFFFFFFFFFFFFFFFFFF AND PUSH20 0xFFFFFFFFFFFFFFFFFFFFFFFFFFFFFFFFFFFFFFFF AND PUSH4 0x47799DA8 PUSH1 0x40 MLOAD DUP2 PUSH4 0xFFFFFFFF AND PUSH1 0xE0 SHL DUP2 MSTORE PUSH1 0x4 ADD PUSH1 0x20 PUSH1 0x40 MLOAD DUP1 DUP4 SUB DUP2 DUP7 GAS STATICCALL ISZERO DUP1 ISZERO PUSH2 0x108F JUMPI RETURNDATASIZE PUSH1 0x0 DUP1 RETURNDATACOPY RETURNDATASIZE PUSH1 0x0 REVERT JUMPDEST POP POP POP POP PUSH1 0x40 MLOAD RETURNDATASIZE PUSH1 0x1F NOT PUSH1 0x1F DUP3 ADD AND DUP3 ADD DUP1 PUSH1 0x40 MSTORE POP DUP2 ADD SWAP1 PUSH2 0x10B3 SWAP2 SWAP1 PUSH2 0x2132 JUMP JUMPDEST LT JUMPDEST ISZERO PUSH2 0x1118 JUMPI PUSH2 0x10E6 PUSH32 0x73B97C938C16714EAA314322593146A8BDCAA1717556469CC21970E8D9A73C1A PUSH1 0x0 SHL PUSH2 0x1E0D JUMP JUMPDEST PUSH1 0x40 MLOAD PUSH32 0x5E61BB8700000000000000000000000000000000000000000000000000000000 DUP2 MSTORE PUSH1 0x4 ADD PUSH1 0x40 MLOAD DUP1 SWAP2 SUB SWAP1 REVERT JUMPDEST PUSH2 0x1144 PUSH32 0xC93BFF9359205E8129295DCCD4B58E15FC68842D809DE260F200B9B841AF367F PUSH1 0x0 SHL PUSH2 0x1E0D JUMP JUMPDEST PUSH2 0x1170 PUSH32 0xE123575F14F6C28869A00E9D62CAB7F7254BBA09160F9CF1A991849E741430D PUSH1 0x0 SHL PUSH2 0x1E0D JUMP JUMPDEST PUSH2 0x119C PUSH32 0x8D62FE09489336C0D2621D5DCC3489DDF99D2558A43BCEA1F668D7C360BEFC8C PUSH1 0x0 SHL PUSH2 0x1E0D JUMP JUMPDEST PUSH1 0x0 PUSH1 0x2 PUSH1 0x0 SWAP1 SLOAD SWAP1 PUSH2 0x100 EXP SWAP1 DIV PUSH20 0xFFFFFFFFFFFFFFFFFFFFFFFFFFFFFFFFFFFFFFFF AND PUSH20 0xFFFFFFFFFFFFFFFFFFFFFFFFFFFFFFFFFFFFFFFF AND PUSH4 0xDDF0B009 PUSH1 0x2 PUSH1 0x0 SWAP1 SLOAD SWAP1 PUSH2 0x100 EXP SWAP1 DIV PUSH20 0xFFFFFFFFFFFFFFFFFFFFFFFFFFFFFFFFFFFFFFFF AND PUSH20 0xFFFFFFFFFFFFFFFFFFFFFFFFFFFFFFFFFFFFFFFF AND PUSH4 0x47799DA8 PUSH1 0x40 MLOAD DUP2 PUSH4 0xFFFFFFFF AND PUSH1 0xE0 SHL DUP2 MSTORE PUSH1 0x4 ADD PUSH1 0x20 PUSH1 0x40 MLOAD DUP1 DUP4 SUB DUP2 DUP7 GAS STATICCALL ISZERO DUP1 ISZERO PUSH2 0x1249 JUMPI RETURNDATASIZE PUSH1 0x0 DUP1 RETURNDATACOPY RETURNDATASIZE PUSH1 0x0 REVERT JUMPDEST POP POP POP POP PUSH1 0x40 MLOAD RETURNDATASIZE PUSH1 0x1F NOT PUSH1 0x1F DUP3 ADD AND DUP3 ADD DUP1 PUSH1 0x40 MSTORE POP DUP2 ADD SWAP1 PUSH2 0x126D SWAP2 SWAP1 PUSH2 0x2132 JUMP JUMPDEST PUSH1 0x40 MLOAD DUP3 PUSH4 0xFFFFFFFF AND PUSH1 0xE0 SHL DUP2 MSTORE PUSH1 0x4 ADD PUSH2 0x1289 SWAP2 SWAP1 PUSH2 0x1F75 JUMP JUMPDEST PUSH1 0x20 PUSH1 0x40 MLOAD DUP1 DUP4 SUB DUP2 DUP7 GAS STATICCALL ISZERO DUP1 ISZERO PUSH2 0x12A6 JUMPI RETURNDATASIZE PUSH1 0x0 DUP1 RETURNDATACOPY RETURNDATASIZE PUSH1 0x0 REVERT JUMPDEST POP POP POP POP PUSH1 0x40 MLOAD RETURNDATASIZE PUSH1 0x1F NOT PUSH1 0x1F DUP3 ADD AND DUP3 ADD DUP1 PUSH1 0x40 MSTORE POP DUP2 ADD SWAP1 PUSH2 0x12CA SWAP2 SWAP1 PUSH2 0x21D7 JUMP JUMPDEST SWAP1 POP PUSH2 0x12F8 PUSH32 0x83F9289E20A16D4DC0150BED1FA331F4A966DAD6CC74D43E75B643DB59331D27 PUSH1 0x0 SHL PUSH2 0x1E0D JUMP JUMPDEST PUSH2 0x1324 PUSH32 0xC8E42039BAD2E8E21380D7C90F131CCDD82A2E980A1BE4D4FA7FB1104EA4DCBC PUSH1 0x0 SHL PUSH2 0x1E0D JUMP JUMPDEST PUSH1 0x2 PUSH1 0x0 SWAP1 SLOAD SWAP1 PUSH2 0x100 EXP SWAP1 DIV PUSH20 0xFFFFFFFFFFFFFFFFFFFFFFFFFFFFFFFFFFFFFFFF AND PUSH20 0xFFFFFFFFFFFFFFFFFFFFFFFFFFFFFFFFFFFFFFFF AND PUSH4 0x957908D1 PUSH1 0x40 MLOAD DUP2 PUSH4 0xFFFFFFFF AND PUSH1 0xE0 SHL DUP2 MSTORE PUSH1 0x4 ADD PUSH1 0x0 PUSH1 0x40 MLOAD DUP1 DUP4 SUB DUP2 PUSH1 0x0 DUP8 DUP1 EXTCODESIZE ISZERO DUP1 ISZERO PUSH2 0x138E JUMPI PUSH1 0x0 DUP1 REVERT JUMPDEST POP GAS CALL ISZERO DUP1 ISZERO PUSH2 0x13A2 JUMPI RETURNDATASIZE PUSH1 0x0 DUP1 RETURNDATACOPY RETURNDATASIZE PUSH1 0x0 REVERT JUMPDEST POP POP POP POP PUSH2 0x13D2 PUSH32 0x1FFF6C1F89FFCA554BBABA6E43FE3B7E460BBA5C0873E11D50FF041ADDA5A46 PUSH1 0x0 SHL PUSH2 0x1E0D JUMP JUMPDEST PUSH2 0x13FE PUSH32 0xDB71F03FCFFA399D9597FCE7CA8578F15755009CBC571A8FBA25B856DA203C51 PUSH1 0x0 SHL PUSH2 0x1E0D JUMP JUMPDEST PUSH1 0x0 PUSH1 0x1 PUSH1 0x0 DUP4 PUSH20 0xFFFFFFFFFFFFFFFFFFFFFFFFFFFFFFFFFFFFFFFF AND PUSH20 0xFFFFFFFFFFFFFFFFFFFFFFFFFFFFFFFFFFFFFFFF AND DUP2 MSTORE PUSH1 0x20 ADD SWAP1 DUP2 MSTORE PUSH1 0x20 ADD PUSH1 0x0 KECCAK256 SLOAD PUSH1 0x2 PUSH1 0x0 SWAP1 SLOAD SWAP1 PUSH2 0x100 EXP SWAP1 DIV PUSH20 0xFFFFFFFFFFFFFFFFFFFFFFFFFFFFFFFFFFFFFFFF AND PUSH20 0xFFFFFFFFFFFFFFFFFFFFFFFFFFFFFFFFFFFFFFFF AND PUSH4 0xE3D66F68 DUP5 PUSH1 0x40 MLOAD DUP3 PUSH4 0xFFFFFFFF AND PUSH1 0xE0 SHL DUP2 MSTORE PUSH1 0x4 ADD PUSH2 0x149B SWAP2 SWAP1 PUSH2 0x20A9 JUMP JUMPDEST PUSH1 0x20 PUSH1 0x40 MLOAD DUP1 DUP4 SUB DUP2 DUP7 GAS STATICCALL ISZERO DUP1 ISZERO PUSH2 0x14B8 JUMPI RETURNDATASIZE PUSH1 0x0 DUP1 RETURNDATACOPY RETURNDATASIZE PUSH1 0x0 REVERT JUMPDEST POP POP POP POP PUSH1 0x40 MLOAD RETURNDATASIZE PUSH1 0x1F NOT PUSH1 0x1F DUP3 ADD AND DUP3 ADD DUP1 PUSH1 0x40 MSTORE POP DUP2 ADD SWAP1 PUSH2 0x14DC SWAP2 SWAP1 PUSH2 0x2132 JUMP JUMPDEST PUSH2 0x14E6 SWAP2 SWAP1 PUSH2 0x2204 JUMP JUMPDEST SWAP1 POP PUSH2 0x1514 PUSH32 0xE0D9935CD1E018D6FC933697637869951BEFC675C1D536937B910A9A29D0060B PUSH1 0x0 SHL PUSH2 0x1E0D JUMP JUMPDEST PUSH2 0x1540 PUSH32 0xA0FDE067C914FDCC376FA1A81B882355FC69CFD5FA3B951FB4D64CA17B4C9378 PUSH1 0x0 SHL PUSH2 0x1E0D JUMP JUMPDEST DUP1 PUSH1 0x1 PUSH1 0x0 DUP5 PUSH20 0xFFFFFFFFFFFFFFFFFFFFFFFFFFFFFFFFFFFFFFFF AND PUSH20 0xFFFFFFFFFFFFFFFFFFFFFFFFFFFFFFFFFFFFFFFF AND DUP2 MSTORE PUSH1 0x20 ADD SWAP1 DUP2 MSTORE PUSH1 0x20 ADD PUSH1 0x0 KECCAK256 PUSH1 0x0 DUP3 DUP3 SLOAD PUSH2 0x158F SWAP2 SWAP1 PUSH2 0x218E JUMP JUMPDEST SWAP3 POP POP DUP2 SWAP1 SSTORE POP PUSH2 0x15C2 PUSH32 0x6220F5955AAA09C21C325FEC6675D9D3142022A7E8730098578FCB30D335065D PUSH1 0x0 SHL PUSH2 0x1E0D JUMP JUMPDEST PUSH2 0x15EE PUSH32 0x5CAFE10830830FA0142CB15CAB360A5BD1409DAFCC9D680F7BD4E810F0B6CF58 PUSH1 0x0 SHL PUSH2 0x1E0D JUMP JUMPDEST DUP2 PUSH20 0xFFFFFFFFFFFFFFFFFFFFFFFFFFFFFFFFFFFFFFFF AND PUSH2 0x8FC DUP3 SWAP1 DUP2 ISZERO MUL SWAP1 PUSH1 0x40 MLOAD PUSH1 0x0 PUSH1 0x40 MLOAD DUP1 DUP4 SUB DUP2 DUP6 DUP9 DUP9 CALL SWAP4 POP POP POP POP ISZERO DUP1 ISZERO PUSH2 0x1634 JUMPI RETURNDATASIZE PUSH1 0x0 DUP1 RETURNDATACOPY RETURNDATASIZE PUSH1 0x0 REVERT JUMPDEST POP POP POP JUMP JUMPDEST PUSH32 0x0 DUP2 JUMP JUMPDEST PUSH2 0x1689 PUSH32 0x8886394E64A235B7633752F494DD6CEFB95D6C9ABD39937BFCEE68F02571DE69 PUSH1 0x0 SHL PUSH2 0x1E0D JUMP JUMPDEST PUSH2 0x16B5 PUSH32 0x32974A8C3BA52EDC42C527D81328F5B625B19E39BFC9F50403D1EFAF136D77C4 PUSH1 0x0 SHL PUSH2 0x1E0D JUMP JUMPDEST PUSH2 0x16E1 PUSH32 0x7FBCA0C309F9A73EB2A6731834B2DCED5A7EAEE2CA2030FE11EAF766D7BC9BFB PUSH1 0x0 SHL PUSH2 0x1E0D JUMP JUMPDEST PUSH32 0x0 PUSH20 0xFFFFFFFFFFFFFFFFFFFFFFFFFFFFFFFFFFFFFFFF AND CALLER PUSH20 0xFFFFFFFFFFFFFFFFFFFFFFFFFFFFFFFFFFFFFFFF AND EQ PUSH2 0x1792 JUMPI PUSH2 0x1760 PUSH32 0xC15D996439CF9B12B9A5A8D8D46FD787E577A1860C56E07845757E4ECBD79B4F PUSH1 0x0 SHL PUSH2 0x1E0D JUMP JUMPDEST PUSH1 0x40 MLOAD PUSH32 0x1EE8575E00000000000000000000000000000000000000000000000000000000 DUP2 MSTORE PUSH1 0x4 ADD PUSH1 0x40 MLOAD DUP1 SWAP2 SUB SWAP1 REVERT JUMPDEST PUSH2 0x17BE PUSH32 0x452D8F897D20F2FBE1BD2662FCFC4424E73FB7B86C7F2D06313BD542EC562B84 PUSH1 0x0 SHL PUSH2 0x1E0D JUMP JUMPDEST PUSH2 0x17EA PUSH32 0x3605ADB37D37C3E0CF062846F42272F4C9C8D7AABA3E2128DD5963FC79AFAD4A PUSH1 0x0 SHL PUSH2 0x1E0D JUMP JUMPDEST PUSH2 0x1816 PUSH32 0xC636B30B546AD61E6FA17CEF4CC512063E320AB803E147FFB1CE76BA1287207C PUSH1 0x0 SHL PUSH2 0x1E0D JUMP JUMPDEST DUP1 PUSH1 0x2 PUSH1 0x0 PUSH2 0x100 EXP DUP2 SLOAD DUP2 PUSH20 0xFFFFFFFFFFFFFFFFFFFFFFFFFFFFFFFFFFFFFFFF MUL NOT AND SWAP1 DUP4 PUSH20 0xFFFFFFFFFFFFFFFFFFFFFFFFFFFFFFFFFFFFFFFF AND MUL OR SWAP1 SSTORE POP POP JUMP JUMPDEST PUSH1 0x3 PUSH1 0x20 MSTORE DUP1 PUSH1 0x0 MSTORE PUSH1 0x40 PUSH1 0x0 KECCAK256 PUSH1 0x0 SWAP2 POP SLOAD SWAP1 PUSH2 0x100 EXP SWAP1 DIV PUSH20 0xFFFFFFFFFFFFFFFFFFFFFFFFFFFFFFFFFFFFFFFF AND DUP2 JUMP JUMPDEST PUSH2 0x18B9 PUSH32 0x4B4360180FBC27DA60503343F071DAF347022D590D73B139768A21305F63289 PUSH1 0x0 SHL PUSH2 0x1E0D JUMP JUMPDEST PUSH2 0x18E5 PUSH32 0x6781231FEDB7CF37F34DE7FDB429613043B8EACF963390AB52A883B734E10949 PUSH1 0x0 SHL PUSH2 0x1E0D JUMP JUMPDEST PUSH2 0x1911 PUSH32 0x9AF620106784CF803540A8CC1B21C3921E27F6FB195387B7B9C268CCC7EB9173 PUSH1 0x0 SHL PUSH2 0x1E0D JUMP JUMPDEST PUSH2 0x3E8 DUP2 LT ISZERO PUSH2 0x1979 JUMPI PUSH2 0x1947 PUSH32 0x9019DC5AC124DD47E7CAC1C1EE54AEB3E1D66CD42CC71539A1E80FB2293C65F0 PUSH1 0x0 SHL PUSH2 0x1E0D JUMP JUMPDEST PUSH1 0x40 MLOAD PUSH32 0xA9F2D61800000000000000000000000000000000000000000000000000000000 DUP2 MSTORE PUSH1 0x4 ADD PUSH1 0x40 MLOAD DUP1 SWAP2 SUB SWAP1 REVERT JUMPDEST PUSH2 0x19A5 PUSH32 0xB89B1B7878C6D16A7973034766AB595D4712849A1B4E594BF0ADA4B609BD043D PUSH1 0x0 SHL PUSH2 0x1E0D JUMP JUMPDEST PUSH2 0x19D1 PUSH32 0x72B35AB5AD4811C1C251E4FB6C07716356F181855423D6D868E3F38D566D9DE1 PUSH1 0x0 SHL PUSH2 0x1E0D JUMP JUMPDEST PUSH2 0x19FD PUSH32 0x253A8B06AAA803BD49B76DEAE284883D8CD2AEE3479C654CA9C88DC0016D4B50 PUSH1 0x0 SHL PUSH2 0x1E0D JUMP JUMPDEST PUSH2 0x3E8 DUP2 PUSH2 0x3EB PUSH2 0x1A0E SWAP2 SWAP1 PUSH2 0x2238 JUMP JUMPDEST PUSH2 0x1A18 SWAP2 SWAP1 PUSH2 0x22A9 JUMP JUMPDEST CALLVALUE EQ PUSH2 0x1A7C JUMPI PUSH2 0x1A4A PUSH32 0x4690624727F138E77DE01E0697F0BAE20EB7F25862E32667015E4DEB7108FDC PUSH1 0x0 SHL PUSH2 0x1E0D JUMP JUMPDEST PUSH1 0x40 MLOAD PUSH32 0x400F9FB800000000000000000000000000000000000000000000000000000000 DUP2 MSTORE PUSH1 0x4 ADD PUSH1 0x40 MLOAD DUP1 SWAP2 SUB SWAP1 REVERT JUMPDEST PUSH2 0x1AA8 PUSH32 0x57BEC4706EC22C9EF967C0E723EE9A3CB3097708B4D1B2CBBE43FD5939FA52C3 PUSH1 0x0 SHL PUSH2 0x1E0D JUMP JUMPDEST PUSH2 0x1AD4 PUSH32 0x4459E9B38210F9E9C7DFE110982369DB9EC3826DBFBA2658CFE7E913403F31C8 PUSH1 0x0 SHL PUSH2 0x1E0D JUMP JUMPDEST PUSH2 0x1B00 PUSH32 0x7D6523F8000FEA8EF2A1970F7EA726DD4261AA04BA2C933B5DD2E6E573C809B3 PUSH1 0x0 SHL PUSH2 0x1E0D JUMP JUMPDEST PUSH1 0x0 PUSH20 0xFFFFFFFFFFFFFFFFFFFFFFFFFFFFFFFFFFFFFFFF AND PUSH1 0x2 PUSH1 0x0 SWAP1 SLOAD SWAP1 PUSH2 0x100 EXP SWAP1 DIV PUSH20 0xFFFFFFFFFFFFFFFFFFFFFFFFFFFFFFFFFFFFFFFF AND PUSH20 0xFFFFFFFFFFFFFFFFFFFFFFFFFFFFFFFFFFFFFFFF AND EQ DUP1 PUSH2 0x1B95 JUMPI POP DUP1 PUSH1 0x2 PUSH1 0x0 SWAP1 SLOAD SWAP1 PUSH2 0x100 EXP SWAP1 DIV PUSH20 0xFFFFFFFFFFFFFFFFFFFFFFFFFFFFFFFFFFFFFFFF AND PUSH20 0xFFFFFFFFFFFFFFFFFFFFFFFFFFFFFFFFFFFFFFFF AND BALANCE LT JUMPDEST ISZERO PUSH2 0x1BF8 JUMPI PUSH2 0x1BC6 PUSH32 0x3D9787EA0AA69ED2F0D240CE4B2EF2EF449F7044912AC01ABA86ECC1F749311A PUSH1 0x0 SHL PUSH2 0x1E0D JUMP JUMPDEST PUSH1 0x40 MLOAD PUSH32 0xF06294A300000000000000000000000000000000000000000000000000000000 DUP2 MSTORE PUSH1 0x4 ADD PUSH1 0x40 MLOAD DUP1 SWAP2 SUB SWAP1 REVERT JUMPDEST PUSH2 0x1C24 PUSH32 0xFBE7D9C275DBB02852D8D2B42FDA0B7E6419446869B396AF7A1AE5404DA72976 PUSH1 0x0 SHL PUSH2 0x1E0D JUMP JUMPDEST PUSH2 0x1C50 PUSH32 0xF6977E6EEE43FC10C8F5EC6BC48F253D66D6A4FE45E987FA52AAD54CB00ADDCE PUSH1 0x0 SHL PUSH2 0x1E0D JUMP JUMPDEST PUSH2 0x1C7C PUSH32 0x40BB7C75C10E6CA5DCA625EDFDBB1D0274976F185962F84383A5E3DD0DE4FB58 PUSH1 0x0 SHL PUSH2 0x1E0D JUMP JUMPDEST PUSH2 0x3EB CALLVALUE PUSH2 0x3E8 PUSH2 0x1C8D SWAP2 SWAP1 PUSH2 0x2238 JUMP JUMPDEST PUSH2 0x1C97 SWAP2 SWAP1 PUSH2 0x22A9 JUMP JUMPDEST PUSH1 0x0 DUP1 CALLER PUSH20 0xFFFFFFFFFFFFFFFFFFFFFFFFFFFFFFFFFFFFFFFF AND PUSH20 0xFFFFFFFFFFFFFFFFFFFFFFFFFFFFFFFFFFFFFFFF AND DUP2 MSTORE PUSH1 0x20 ADD SWAP1 DUP2 MSTORE PUSH1 0x20 ADD PUSH1 0x0 KECCAK256 PUSH1 0x0 DUP3 DUP3 SLOAD PUSH2 0x1CE4 SWAP2 SWAP1 PUSH2 0x218E JUMP JUMPDEST SWAP3 POP POP DUP2 SWAP1 SSTORE POP PUSH2 0x1D17 PUSH32 0x12E576E23A3875216FE47810539DAB25D86904C62A77F3B4680B2A3EC1429A31 PUSH1 0x0 SHL PUSH2 0x1E0D JUMP JUMPDEST PUSH2 0x1D43 PUSH32 0xA2EA7B99DF1C2A4B6B397892B5B70F5CF9972626BF082362649113F766E2A8B PUSH1 0x0 SHL PUSH2 0x1E0D JUMP JUMPDEST PUSH2 0x1D4B PUSH2 0x1E10 JUMP JUMPDEST PUSH2 0x1D77 PUSH32 0xF579C20B54E18A7BE07783E3CF9DD26F168BB857F0E70EFB5E4AF2B6B72BA59D PUSH1 0x0 SHL PUSH2 0x1E0D JUMP JUMPDEST PUSH2 0x1DA3 PUSH32 0x75333C67D6D987559E5C556E46BB53E8976D9BE259949F65F1CE6D3917CF5EF9 PUSH1 0x0 SHL PUSH2 0x1E0D JUMP JUMPDEST PUSH32 0x0 PUSH20 0xFFFFFFFFFFFFFFFFFFFFFFFFFFFFFFFFFFFFFFFF AND PUSH2 0x8FC CALLVALUE SWAP1 DUP2 ISZERO MUL SWAP1 PUSH1 0x40 MLOAD PUSH1 0x0 PUSH1 0x40 MLOAD DUP1 DUP4 SUB DUP2 DUP6 DUP9 DUP9 CALL SWAP4 POP POP POP POP ISZERO DUP1 ISZERO PUSH2 0x1E09 JUMPI RETURNDATASIZE PUSH1 0x0 DUP1 RETURNDATACOPY RETURNDATASIZE PUSH1 0x0 REVERT JUMPDEST POP POP JUMP JUMPDEST POP JUMP JUMPDEST PUSH2 0x1E3C PUSH32 0xF37ECD1466FE9DC964811451E7C680C216514C605D4FDC1DA8631ECB5846952A PUSH1 0x0 SHL PUSH2 0x1E0D JUMP JUMPDEST PUSH2 0x1E68 PUSH32 0xF17A198EC5BDEA5F5B90D483EC23AD2A0AEA7B0396EB2AF004C74571173F73FE PUSH1 0x0 SHL PUSH2 0x1E0D JUMP JUMPDEST PUSH2 0x1E94 PUSH32 0x72B741C749A04A6342F127EBB24F901B8FD63115F18ADFC4E730662FEDF73D3F PUSH1 0x0 SHL PUSH2 0x1E0D JUMP JUMPDEST PUSH1 0x1 PUSH1 0x4 PUSH1 0x0 DUP3 DUP3 SLOAD PUSH2 0x1EA7 SWAP2 SWAP1 PUSH2 0x218E JUMP JUMPDEST SWAP3 POP POP DUP2 SWAP1 SSTORE POP PUSH2 0x1EDA PUSH32 0x453161C54387A252726F882A0D853D2F3BF66B088EFE382CB1CC50037D04DCBD PUSH1 0x0 SHL PUSH2 0x1E0D JUMP JUMPDEST PUSH2 0x1F06 PUSH32 0x17F0C6ABB907CAFCA6414EDF6799CDDCF2FFD4E8001DE522966A22ACA99D6305 PUSH1 0x0 SHL PUSH2 0x1E0D JUMP JUMPDEST CALLER PUSH1 0x3 PUSH1 0x0 PUSH1 0x4 SLOAD DUP2 MSTORE PUSH1 0x20 ADD SWAP1 DUP2 MSTORE PUSH1 0x20 ADD PUSH1 0x0 KECCAK256 PUSH1 0x0 PUSH2 0x100 EXP DUP2 SLOAD DUP2 PUSH20 0xFFFFFFFFFFFFFFFFFFFFFFFFFFFFFFFFFFFFFFFF MUL NOT AND SWAP1 DUP4 PUSH20 0xFFFFFFFFFFFFFFFFFFFFFFFFFFFFFFFFFFFFFFFF AND MUL OR SWAP1 SSTORE POP JUMP JUMPDEST PUSH1 0x0 DUP2 SWAP1 POP SWAP2 SWAP1 POP JUMP JUMPDEST PUSH2 0x1F6F DUP2 PUSH2 0x1F5C JUMP JUMPDEST DUP3 MSTORE POP POP JUMP JUMPDEST PUSH1 0x0 PUSH1 0x20 DUP3 ADD SWAP1 POP PUSH2 0x1F8A PUSH1 0x0 DUP4 ADD DUP5 PUSH2 0x1F66 JUMP JUMPDEST SWAP3 SWAP2 POP POP JUMP JUMPDEST PUSH1 0x0 DUP1 REVERT JUMPDEST PUSH1 0x0 PUSH20 0xFFFFFFFFFFFFFFFFFFFFFFFFFFFFFFFFFFFFFFFF DUP3 AND SWAP1 POP SWAP2 SWAP1 POP JUMP JUMPDEST PUSH1 0x0 PUSH2 0x1FC0 DUP3 PUSH2 0x1F95 JUMP JUMPDEST SWAP1 POP SWAP2 SWAP1 POP JUMP JUMPDEST PUSH2 0x1FD0 DUP2 PUSH2 0x1FB5 JUMP JUMPDEST DUP2 EQ PUSH2 0x1FDB JUMPI PUSH1 0x0 DUP1 REVERT JUMPDEST POP JUMP JUMPDEST PUSH1 0x0 DUP2 CALLDATALOAD SWAP1 POP PUSH2 0x1FED DUP2 PUSH2 0x1FC7 JUMP JUMPDEST SWAP3 SWAP2 POP POP JUMP JUMPDEST PUSH1 0x0 PUSH1 0x20 DUP3 DUP5 SUB SLT ISZERO PUSH2 0x2009 JUMPI PUSH2 0x2008 PUSH2 0x1F90 JUMP JUMPDEST JUMPDEST PUSH1 0x0 PUSH2 0x2017 DUP5 DUP3 DUP6 ADD PUSH2 0x1FDE JUMP JUMPDEST SWAP2 POP POP SWAP3 SWAP2 POP POP JUMP JUMPDEST PUSH1 0x0 DUP2 SWAP1 POP SWAP2 SWAP1 POP JUMP JUMPDEST PUSH1 0x0 PUSH2 0x2045 PUSH2 0x2040 PUSH2 0x203B DUP5 PUSH2 0x1F95 JUMP JUMPDEST PUSH2 0x2020 JUMP JUMPDEST PUSH2 0x1F95 JUMP JUMPDEST SWAP1 POP SWAP2 SWAP1 POP JUMP JUMPDEST PUSH1 0x0 PUSH2 0x2057 DUP3 PUSH2 0x202A JUMP JUMPDEST SWAP1 POP SWAP2 SWAP1 POP JUMP JUMPDEST PUSH1 0x0 PUSH2 0x2069 DUP3 PUSH2 0x204C JUMP JUMPDEST SWAP1 POP SWAP2 SWAP1 POP JUMP JUMPDEST PUSH2 0x2079 DUP2 PUSH2 0x205E JUMP JUMPDEST DUP3 MSTORE POP POP JUMP JUMPDEST PUSH1 0x0 PUSH1 0x20 DUP3 ADD SWAP1 POP PUSH2 0x2094 PUSH1 0x0 DUP4 ADD DUP5 PUSH2 0x2070 JUMP JUMPDEST SWAP3 SWAP2 POP POP JUMP JUMPDEST PUSH2 0x20A3 DUP2 PUSH2 0x1FB5 JUMP JUMPDEST DUP3 MSTORE POP POP JUMP JUMPDEST PUSH1 0x0 PUSH1 0x20 DUP3 ADD SWAP1 POP PUSH2 0x20BE PUSH1 0x0 DUP4 ADD DUP5 PUSH2 0x209A JUMP JUMPDEST SWAP3 SWAP2 POP POP JUMP JUMPDEST PUSH2 0x20CD DUP2 PUSH2 0x1F5C JUMP JUMPDEST DUP2 EQ PUSH2 0x20D8 JUMPI PUSH1 0x0 DUP1 REVERT JUMPDEST POP JUMP JUMPDEST PUSH1 0x0 DUP2 CALLDATALOAD SWAP1 POP PUSH2 0x20EA DUP2 PUSH2 0x20C4 JUMP JUMPDEST SWAP3 SWAP2 POP POP JUMP JUMPDEST PUSH1 0x0 PUSH1 0x20 DUP3 DUP5 SUB SLT ISZERO PUSH2 0x2106 JUMPI PUSH2 0x2105 PUSH2 0x1F90 JUMP JUMPDEST JUMPDEST PUSH1 0x0 PUSH2 0x2114 DUP5 DUP3 DUP6 ADD PUSH2 0x20DB JUMP JUMPDEST SWAP2 POP POP SWAP3 SWAP2 POP POP JUMP JUMPDEST PUSH1 0x0 DUP2 MLOAD SWAP1 POP PUSH2 0x212C DUP2 PUSH2 0x20C4 JUMP JUMPDEST SWAP3 SWAP2 POP POP JUMP JUMPDEST PUSH1 0x0 PUSH1 0x20 DUP3 DUP5 SUB SLT ISZERO PUSH2 0x2148 JUMPI PUSH2 0x2147 PUSH2 0x1F90 JUMP JUMPDEST JUMPDEST PUSH1 0x0 PUSH2 0x2156 DUP5 DUP3 DUP6 ADD PUSH2 0x211D JUMP JUMPDEST SWAP2 POP POP SWAP3 SWAP2 POP POP JUMP JUMPDEST PUSH32 0x4E487B7100000000000000000000000000000000000000000000000000000000 PUSH1 0x0 MSTORE PUSH1 0x11 PUSH1 0x4 MSTORE PUSH1 0x24 PUSH1 0x0 REVERT JUMPDEST PUSH1 0x0 PUSH2 0x2199 DUP3 PUSH2 0x1F5C JUMP JUMPDEST SWAP2 POP PUSH2 0x21A4 DUP4 PUSH2 0x1F5C JUMP JUMPDEST SWAP3 POP DUP3 DUP3 ADD SWAP1 POP DUP1 DUP3 GT ISZERO PUSH2 0x21BC JUMPI PUSH2 0x21BB PUSH2 0x215F JUMP JUMPDEST JUMPDEST SWAP3 SWAP2 POP POP JUMP JUMPDEST PUSH1 0x0 DUP2 MLOAD SWAP1 POP PUSH2 0x21D1 DUP2 PUSH2 0x1FC7 JUMP JUMPDEST SWAP3 SWAP2 POP POP JUMP JUMPDEST PUSH1 0x0 PUSH1 0x20 DUP3 DUP5 SUB SLT ISZERO PUSH2 0x21ED JUMPI PUSH2 0x21EC PUSH2 0x1F90 JUMP JUMPDEST JUMPDEST PUSH1 0x0 PUSH2 0x21FB DUP5 DUP3 DUP6 ADD PUSH2 0x21C2 JUMP JUMPDEST SWAP2 POP POP SWAP3 SWAP2 POP POP JUMP JUMPDEST PUSH1 0x0 PUSH2 0x220F DUP3 PUSH2 0x1F5C JUMP JUMPDEST SWAP2 POP PUSH2 0x221A DUP4 PUSH2 0x1F5C JUMP JUMPDEST SWAP3 POP DUP3 DUP3 SUB SWAP1 POP DUP2 DUP2 GT ISZERO PUSH2 0x2232 JUMPI PUSH2 0x2231 PUSH2 0x215F JUMP JUMPDEST JUMPDEST SWAP3 SWAP2 POP POP JUMP JUMPDEST PUSH1 0x0 PUSH2 0x2243 DUP3 PUSH2 0x1F5C JUMP JUMPDEST SWAP2 POP PUSH2 0x224E DUP4 PUSH2 0x1F5C JUMP JUMPDEST SWAP3 POP DUP3 DUP3 MUL PUSH2 0x225C DUP2 PUSH2 0x1F5C JUMP JUMPDEST SWAP2 POP DUP3 DUP3 DIV DUP5 EQ DUP4 ISZERO OR PUSH2 0x2273 JUMPI PUSH2 0x2272 PUSH2 0x215F JUMP JUMPDEST JUMPDEST POP SWAP3 SWAP2 POP POP JUMP JUMPDEST PUSH32 0x4E487B7100000000000000000000000000000000000000000000000000000000 PUSH1 0x0 MSTORE PUSH1 0x12 PUSH1 0x4 MSTORE PUSH1 0x24 PUSH1 0x0 REVERT JUMPDEST PUSH1 0x0 PUSH2 0x22B4 DUP3 PUSH2 0x1F5C JUMP JUMPDEST SWAP2 POP PUSH2 0x22BF DUP4 PUSH2 0x1F5C JUMP JUMPDEST SWAP3 POP DUP3 PUSH2 0x22CF JUMPI PUSH2 0x22CE PUSH2 0x227A JUMP JUMPDEST JUMPDEST DUP3 DUP3 DIV SWAP1 POP SWAP3 SWAP2 POP POP JUMP INVALID LOG2 PUSH5 0x6970667358 0x22 SLT KECCAK256 MUL 0x2C 0xE9 SSTORE SSTORE 0xD4 0xC DUP13 0xD9 0xEE RETURNDATASIZE CODECOPY SAR ORIGIN 0xE8 EXP 0xD 0x4D SWAP3 0xAE 0xC8 0xDF 0xCC 0xCA DUP6 DUP5 MUL PUSH14 0xC252FB664736F6C634300081100 CALLER "
        },
        "methodIdentifiers": {
          "Owner()": "b4a99a4e",
          "dequeue()": "957908d1",
          "first()": "3df4ddf4",
          "goerliBridgedETH(address)": "7bb1fdd2",
          "last()": "47799da8",
          "lockTokensForOptimism(uint256)": "e76438ab",
          "lockedForOptimismETH(address)": "abb6b5a1",
          "mockOwnerOptimismBridgeAddress(address)": "d06019f5",
          "optimismBridgeInstance()": "7f6c6d10",
          "ownerAddBridgeLiqudity()": "8521eebe",
          "ownerRemoveBridgeLiqudity()": "08dd057a",
          "ownerUnlockGoerliETH()": "af11cb40",
          "queue(uint256)": "ddf0b009"
        }
      }
    }
  }
}