{
  "contracts/MockBridgeMsgValue.sol": {
    "MockOptimismBridge": {
      "abi": [
        {
          "inputs": [],
          "stateMutability": "nonpayable",
          "type": "constructor"
        },
        {
          "inputs": [],
          "name": "bridgeEmpty",
          "type": "error"
        },
        {
          "inputs": [],
          "name": "bridgeOnOtherSideNeedsLiqudity",
          "type": "error"
        },
        {
          "inputs": [],
          "name": "msgValueDoesNotCoverFee",
          "type": "error"
        },
        {
          "inputs": [],
          "name": "msgValueLessThan1000",
          "type": "error"
        },
        {
          "inputs": [],
          "name": "msgValueZero",
          "type": "error"
        },
        {
          "inputs": [],
          "name": "notExternalBridge",
          "type": "error"
        },
        {
          "inputs": [],
          "name": "notOwnerAddress",
          "type": "error"
        },
        {
          "inputs": [],
          "name": "queueIsEmpty",
          "type": "error"
        },
        {
          "inputs": [],
          "name": "queueNotEmpty",
          "type": "error"
        },
        {
          "inputs": [],
          "name": "Owner",
          "outputs": [
            {
              "internalType": "address",
              "name": "",
              "type": "address"
            }
          ],
          "stateMutability": "view",
          "type": "function"
        },
        {
          "inputs": [],
          "name": "dequeue",
          "outputs": [],
          "stateMutability": "nonpayable",
          "type": "function"
        },
        {
          "inputs": [],
          "name": "first",
          "outputs": [
            {
              "internalType": "uint256",
              "name": "",
              "type": "uint256"
            }
          ],
          "stateMutability": "view",
          "type": "function"
        },
        {
          "inputs": [],
          "name": "goerliBridgeInstance",
          "outputs": [
            {
              "internalType": "contract MockGoerliBridge",
              "name": "",
              "type": "address"
            }
          ],
          "stateMutability": "view",
          "type": "function"
        },
        {
          "inputs": [],
          "name": "last",
          "outputs": [
            {
              "internalType": "uint256",
              "name": "",
              "type": "uint256"
            }
          ],
          "stateMutability": "view",
          "type": "function"
        },
        {
          "inputs": [
            {
              "internalType": "uint256",
              "name": "bridgeAmount",
              "type": "uint256"
            }
          ],
          "name": "lockTokensForGoerli",
          "outputs": [],
          "stateMutability": "payable",
          "type": "function"
        },
        {
          "inputs": [
            {
              "internalType": "address",
              "name": "",
              "type": "address"
            }
          ],
          "name": "lockedForGoerliETH",
          "outputs": [
            {
              "internalType": "uint256",
              "name": "",
              "type": "uint256"
            }
          ],
          "stateMutability": "view",
          "type": "function"
        },
        {
          "inputs": [
            {
              "internalType": "address",
              "name": "_token",
              "type": "address"
            }
          ],
          "name": "mockOwnerGoerliBridgeAddress",
          "outputs": [],
          "stateMutability": "nonpayable",
          "type": "function"
        },
        {
          "inputs": [
            {
              "internalType": "address",
              "name": "",
              "type": "address"
            }
          ],
          "name": "optimismBridgedETH",
          "outputs": [
            {
              "internalType": "uint256",
              "name": "",
              "type": "uint256"
            }
          ],
          "stateMutability": "view",
          "type": "function"
        },
        {
          "inputs": [],
          "name": "ownerAddBridgeLiqudity",
          "outputs": [],
          "stateMutability": "payable",
          "type": "function"
        },
        {
          "inputs": [],
          "name": "ownerRemoveBridgeLiqudity",
          "outputs": [],
          "stateMutability": "nonpayable",
          "type": "function"
        },
        {
          "inputs": [],
          "name": "ownerUnlockOptimismETH",
          "outputs": [],
          "stateMutability": "nonpayable",
          "type": "function"
        },
        {
          "inputs": [
            {
              "internalType": "uint256",
              "name": "",
              "type": "uint256"
            }
          ],
          "name": "queue",
          "outputs": [
            {
              "internalType": "address",
              "name": "",
              "type": "address"
            }
          ],
          "stateMutability": "view",
          "type": "function"
        }
      ],
      "evm": {
        "bytecode": {
          "linkReferences": {},
          "object": "60a060405260016005553480156200001657600080fd5b506200004b7f898e9162f537ab5194b365b85a31ac314ef01f97153880a3e01c831bc4a1e01e60001b620000ed60201b60201c565b6200007f7f3f24a56fb1bab62e49c0e9ea764842c1dab38e64ac9a37dfaecd6d950cd13b6160001b620000ed60201b60201c565b620000b37fa755b843aea2c735b72ce2cf06a40619329df290fcea88fe4de73bcf04da542460001b620000ed60201b60201c565b3373ffffffffffffffffffffffffffffffffffffffff1660808173ffffffffffffffffffffffffffffffffffffffff1681525050620000f0565b50565b608051612311620001366000396000818161036a015281816107ed015281816108e60152818161119f0152818161160c015281816116b40152611d5b01526123116000f3fe6080604052600436106100c25760003560e01c8063957908d11161007f578063c5aaccf711610059578063c5aaccf7146101eb578063c637aa9714610228578063ddf0b00914610244578063e3d66f6814610281576100c2565b8063957908d114610180578063b4a99a4e14610197578063bd31a23a146101c2576100c2565b806306557c31146100c757806308dd057a146100f25780633df4ddf41461010957806347799da814610134578063515b74f21461015f5780638521eebe14610176575b600080fd5b3480156100d357600080fd5b506100dc6102be565b6040516100e99190611fdc565b60405180910390f35b3480156100fe57600080fd5b506101076102e4565b005b34801561011557600080fd5b5061011e610854565b60405161012b9190612010565b60405180910390f35b34801561014057600080fd5b5061014961085a565b6040516101569190612010565b60405180910390f35b34801561016b57600080fd5b50610174610860565b005b61017e611119565b005b34801561018c57600080fd5b50610195611366565b005b3480156101a357600080fd5b506101ac61160a565b6040516101b9919061204c565b60405180910390f35b3480156101ce57600080fd5b506101e960048036038101906101e49190612098565b61162e565b005b3480156101f757600080fd5b50610212600480360381019061020d9190612098565b61182b565b60405161021f9190612010565b60405180910390f35b610242600480360381019061023d91906120f1565b611843565b005b34801561025057600080fd5b5061026b600480360381019061026691906120f1565b611dc3565b604051610278919061204c565b60405180910390f35b34801561028d57600080fd5b506102a860048036038101906102a39190612098565b611df6565b6040516102b59190612010565b60405180910390f35b600260009054906101000a900473ffffffffffffffffffffffffffffffffffffffff1681565b6103107f5fe15de4e1a849c969c9c51acb788cd2c9232830d92588e353fcfb8019a4e9cb60001b611e0e565b61033c7fe1b531e65b070c6f0aa9413c59abdd17238992a9b0f843a20aa2a8cb1408026160001b611e0e565b6103687f89f062a1746b05740054485eed36443bb22b715973cd567786e790455016da5260001b611e0e565b7f000000000000000000000000000000000000000000000000000000000000000073ffffffffffffffffffffffffffffffffffffffff163373ffffffffffffffffffffffffffffffffffffffff1614610419576103e77f4cb25f9bab83aa5d1090da669995fee263ee2de5c36188f90b43a6a8ea71db5160001b611e0e565b6040517f1ee8575e00000000000000000000000000000000000000000000000000000000815260040160405180910390fd5b6104457f8edcd7cbc25de8d12597a6baff1d73b746dd3753cca984d3564a6e3aa1dc1c2e60001b611e0e565b6104717fff6c188104e39c2799897ad4fa6767a8ff28c5a41e3336a58fad8796f4ede76060001b611e0e565b61049d7f8e9f64298faf274d5639ba4a59fe79463b1a2bdb605489875e458d7e55e6e2d360001b611e0e565b60004703610503576104d17fe027802ec1407c6528aa6789f88158b933cbe0826c945a356204c3d7beeb5c4060001b611e0e565b6040517f7a1f291700000000000000000000000000000000000000000000000000000000815260040160405180910390fd5b61052f7ff84597bcbb11bdd3a6bf921a458ed3931a51b80705d5c21d2d82a1b89bc4fdab60001b611e0e565b61055b7fdd826552db2ceaf69a3e850f417693712dcb22b651cc58503dd6cc0c84f246a960001b611e0e565b6105877fd28a418237e74af6486e732b89831f25f3fbea14096c0a28bd277e5afbe1757560001b611e0e565b600073ffffffffffffffffffffffffffffffffffffffff16600260009054906101000a900473ffffffffffffffffffffffffffffffffffffffff1673ffffffffffffffffffffffffffffffffffffffff1614806107045750600260009054906101000a900473ffffffffffffffffffffffffffffffffffffffff1673ffffffffffffffffffffffffffffffffffffffff16633df4ddf46040518163ffffffff1660e01b8152600401602060405180830381865afa15801561064c573d6000803e3d6000fd5b505050506040513d601f19601f820116820180604052508101906106709190612133565b600260009054906101000a900473ffffffffffffffffffffffffffffffffffffffff1673ffffffffffffffffffffffffffffffffffffffff166347799da86040518163ffffffff1660e01b8152600401602060405180830381865afa1580156106dd573d6000803e3d6000fd5b505050506040513d601f19601f820116820180604052508101906107019190612133565b10155b15610767576107357fd43e6206ab6636701d3a78b8e8f6205ce233bf947999b47b8b1837c838e186d960001b611e0e565b6040517f230accfd00000000000000000000000000000000000000000000000000000000815260040160405180910390fd5b6107937f8e9c42206ad51570c1a426bcd3db6719b8c1094f3ee74984b1f6b4e81003f6de60001b611e0e565b6107bf7f4f3085bd710eb6695e4497afb467ecee6e30374ddbeb626af5a471612812b76d60001b611e0e565b6107eb7f933e686c6e6eed7e5b5c1d0c89b08f51647d680c15aeb38d85f7c7266579fe6e60001b611e0e565b7f000000000000000000000000000000000000000000000000000000000000000073ffffffffffffffffffffffffffffffffffffffff166108fc479081150290604051600060405180830381858888f19350505050158015610851573d6000803e3d6000fd5b50565b60055481565b60045481565b61088c7f5c2b5bba9118b090deb354c65f7fd34de726238d4430f46796fc74d2070a5dce60001b611e0e565b6108b87f4610e2856113bfa5ffe91d816dd1aae87ae84e37b9f090532ef0128232868c2f60001b611e0e565b6108e47f53fe39723aa7986459b23662d25159a8bec0bd3a2831d55b3054bfac3266268560001b611e0e565b7f000000000000000000000000000000000000000000000000000000000000000073ffffffffffffffffffffffffffffffffffffffff163373ffffffffffffffffffffffffffffffffffffffff1614610995576109637fffac17b4f228667782a2c3e76932ffb698dc0eee004ccef85e3bc00e58ca028c60001b611e0e565b6040517f1ee8575e00000000000000000000000000000000000000000000000000000000815260040160405180910390fd5b6109c17fa5bcc75c60077c48bae60903feff83461e6a7a8af668436acd68db59da02d9c660001b611e0e565b6109ed7f5abde711a415bd548acb031dce1b34da9f8a5a87d03173b1ce441741ab0538bb60001b611e0e565b610a197f27af547419433dbe49a13c4d77b91fb6faa948c4d28f1fde9aa3a98cc841564260001b611e0e565b600073ffffffffffffffffffffffffffffffffffffffff16600260009054906101000a900473ffffffffffffffffffffffffffffffffffffffff1673ffffffffffffffffffffffffffffffffffffffff161480610b955750600260009054906101000a900473ffffffffffffffffffffffffffffffffffffffff1673ffffffffffffffffffffffffffffffffffffffff16633df4ddf46040518163ffffffff1660e01b8152600401602060405180830381865afa158015610ade573d6000803e3d6000fd5b505050506040513d601f19601f82011682018060405250810190610b029190612133565b600260009054906101000a900473ffffffffffffffffffffffffffffffffffffffff1673ffffffffffffffffffffffffffffffffffffffff166347799da86040518163ffffffff1660e01b8152600401602060405180830381865afa158015610b6f573d6000803e3d6000fd5b505050506040513d601f19601f82011682018060405250810190610b939190612133565b105b15610bf857610bc67f6713bc4054d2e6fee6cf7e9bfe47fe7b03acc8d9e4830886d8e66bb3661d957360001b611e0e565b6040517f5e61bb8700000000000000000000000000000000000000000000000000000000815260040160405180910390fd5b610c247f4028ecd109be29e9f916e84265f8241b0c080afe82c226529280dd462a61d82460001b611e0e565b610c507fbe6b95816dd3461b66c74f5d42d8961d339b4acd94329aded3492a082f52787c60001b611e0e565b610c7c7ff168d26cd675156979895bbe8bcb38c3258512b96b5f3c5f4a6510db05cf2f6860001b611e0e565b6000600260009054906101000a900473ffffffffffffffffffffffffffffffffffffffff1673ffffffffffffffffffffffffffffffffffffffff1663ddf0b009600260009054906101000a900473ffffffffffffffffffffffffffffffffffffffff1673ffffffffffffffffffffffffffffffffffffffff166347799da86040518163ffffffff1660e01b8152600401602060405180830381865afa158015610d29573d6000803e3d6000fd5b505050506040513d601f19601f82011682018060405250810190610d4d9190612133565b6040518263ffffffff1660e01b8152600401610d699190612010565b602060405180830381865afa158015610d86573d6000803e3d6000fd5b505050506040513d601f19601f82011682018060405250810190610daa9190612175565b9050610dd87f302a57af8eec5110606421d6fcdb85e6894e34ac3c9fb4804d3dae50b8e9034260001b611e0e565b610e047f62ed3fb8d5eda8551c61b61cfe433d778019d49d7cc00a9db5d16b851d9b2da760001b611e0e565b600260009054906101000a900473ffffffffffffffffffffffffffffffffffffffff1673ffffffffffffffffffffffffffffffffffffffff1663957908d16040518163ffffffff1660e01b8152600401600060405180830381600087803b158015610e6e57600080fd5b505af1158015610e82573d6000803e3d6000fd5b50505050610eb27fab419e3ed9bc2485a1cbea5c2f19ac69d1b7b87152a5c77e6b9ac7cbe461bfb860001b611e0e565b610ede7f1472534d07a8d402e6aa8072ca06be9869fefaf3ef8743575416d8848bbcc44760001b611e0e565b6000600160008373ffffffffffffffffffffffffffffffffffffffff1673ffffffffffffffffffffffffffffffffffffffff16815260200190815260200160002054600260009054906101000a900473ffffffffffffffffffffffffffffffffffffffff1673ffffffffffffffffffffffffffffffffffffffff1663abb6b5a1846040518263ffffffff1660e01b8152600401610f7b919061204c565b602060405180830381865afa158015610f98573d6000803e3d6000fd5b505050506040513d601f19601f82011682018060405250810190610fbc9190612133565b610fc691906121d1565b9050610ff47f2a7f75e58dda3d8f4001c35708e4f42cfaf81a4c8211dc8c5976764213a2159760001b611e0e565b6110207fd93d050b89aec88d828b8436d9ef526a2e25dd50b0aefa0aad90e432c7e1f72a60001b611e0e565b80600160008473ffffffffffffffffffffffffffffffffffffffff1673ffffffffffffffffffffffffffffffffffffffff168152602001908152602001600020600082825461106f9190612205565b925050819055506110a27f05990019a09538fc38b18aa0d216af4af0ce9d11db0968af9a7dd451a64f519660001b611e0e565b6110ce7f509cf1e91c76d1ffecf871e14332a9ee19074e29820ff951714ec2c3148a2ff160001b611e0e565b8173ffffffffffffffffffffffffffffffffffffffff166108fc829081150290604051600060405180830381858888f19350505050158015611114573d6000803e3d6000fd5b505050565b6111457f0f4722fa0a7d1b6eddf68e6658a047202294b0508d60d52c5e1230f85d7d6e0e60001b611e0e565b6111717f36c7a21ccc383c955bd08abe20053e8933f20434c93188590628da30cafe1fc360001b611e0e565b61119d7f59a8ea542ebdb495efdf9405a96b1348af67259b0cc725e034f3bbb2dff0333a60001b611e0e565b7f000000000000000000000000000000000000000000000000000000000000000073ffffffffffffffffffffffffffffffffffffffff163373ffffffffffffffffffffffffffffffffffffffff161461124e5761121c7f4aaf533f494185e2be526bf90c182a1932cfff5d70ddaf7b1f2ff5ce1c37ade060001b611e0e565b6040517f1ee8575e00000000000000000000000000000000000000000000000000000000815260040160405180910390fd5b61127a7f88343cf849feea02f596e7fddf0ae65d62959d88dbc54d30cd84a74c6d1b8d8260001b611e0e565b6112a67ffc816b1a284e0fed572f0a67b6b1fe91bb6758d7e9964044c4465e36d2c8d31b60001b611e0e565b6112d27f23c198e484e01b78a6a686fb6f2d133220883475fd2fd4a825d88fcffbcd2fc660001b611e0e565b60003403611338576113067f0143b5b02695ddef0ad942139a280feca254a49bed485509ff7d4bb2b663d4de60001b611e0e565b6040517f0cdb5d8500000000000000000000000000000000000000000000000000000000815260040160405180910390fd5b6113647f4292474b580c98ffcd7134582355920440264c994700ec019796f8921aa02d0c60001b611e0e565b565b6113927f52d5bb3ed9021da1a9168842ffff01399c33f41742dbeef440cece24c17bb27d60001b611e0e565b6113be7f68083dd797e435fc77a5bd68baa51764dbed632f329240e482c48f86e3f3e49a60001b611e0e565b6113ea7f1c1ad13112d832db4fce005cf8b192a39a472d9887b1b1c6c91a274d5f675bf360001b611e0e565b600073ffffffffffffffffffffffffffffffffffffffff16600260009054906101000a900473ffffffffffffffffffffffffffffffffffffffff1673ffffffffffffffffffffffffffffffffffffffff1614806114955750600260009054906101000a900473ffffffffffffffffffffffffffffffffffffffff1673ffffffffffffffffffffffffffffffffffffffff163373ffffffffffffffffffffffffffffffffffffffff1614155b806114a35750600554600454105b15611506576114d47fde313de4419dc22aeec1e10457c6ba0f8e6636a8501adc390123599a7a06c75060001b611e0e565b6040517f4da1bc3400000000000000000000000000000000000000000000000000000000815260040160405180910390fd5b6115327fc127c055f4e87ccd68df2311060971fe17d7e58e111137de784ef6e1e2ac07fc60001b611e0e565b61155e7f762c1bd157f8bec1f319171194625608f4770007a843acc17cd9b7dea4f7e0d860001b611e0e565b60036000600554815260200190815260200160002060006101000a81549073ffffffffffffffffffffffffffffffffffffffff02191690556115c27f70de263955f3dcb4a63c991d04524d8dd1513be4889afe43e69e4984b8060f6e60001b611e0e565b6115ee7fd6454483502931c6d1608f75fb906c58fdb88fb870bb1d55c1bb9856bd71e74d60001b611e0e565b6001600560008282546116019190612205565b92505081905550565b7f000000000000000000000000000000000000000000000000000000000000000081565b61165a7f8e2085f94b091f2516dae8084e95a132ce97d588d155fc7b744c6554da7b88a660001b611e0e565b6116867f35771817ea5a749e4de406cb893547e9565f1fbb43b3d9fe6f4d60b89158361460001b611e0e565b6116b27f11284c2876c598cf1340618142df7b5eb506a3f9727521528f48ccf70def870660001b611e0e565b7f000000000000000000000000000000000000000000000000000000000000000073ffffffffffffffffffffffffffffffffffffffff163373ffffffffffffffffffffffffffffffffffffffff1614611763576117317f8fcea256dbabae5e42d3b8e7d86ea9d3b3caa03b8aaffa76639ee87d7b0a47af60001b611e0e565b6040517f1ee8575e00000000000000000000000000000000000000000000000000000000815260040160405180910390fd5b61178f7f7c96dc9c9d98bcfbd50597f5cb466961bb045a05c9e3b0ad8e6a03c388de850060001b611e0e565b6117bb7ffb625cf14297ca5887f642a396d6a840d6e4c63873c6e7b15f505c9505ba2ef460001b611e0e565b6117e77f904561789af24e51da8f139a497eec539c6d05a3823e387f36e7130dad308c7560001b611e0e565b80600260006101000a81548173ffffffffffffffffffffffffffffffffffffffff021916908373ffffffffffffffffffffffffffffffffffffffff16021790555050565b60016020528060005260406000206000915090505481565b61186f7f7a8d4fa7426c5770b855d5445e71ea7c6e19dd5d46a3ac29e68724d3ea152e2f60001b611e0e565b61189b7fae315d76b4fdc0509614573e6aaf7b77cc7e7f4a5f2a855e1276fa883e501ab360001b611e0e565b6118c77fd8b2f05768f20732d06629991b1fd8a4561be7036b5a42e6ba379179d8ea367b60001b611e0e565b6103e881101561192f576118fd7f5bfd670527173e11977b320429131265ea69398a9907ed1dc7a6a962857c13b160001b611e0e565b6040517fa9f2d61800000000000000000000000000000000000000000000000000000000815260040160405180910390fd5b61195b7f3cdb6b2963b2738a9e0a0e9c4488f0bc12fcddde5a70124609dbe407486bdfe960001b611e0e565b6119877fe0199d7a5a51fd297befc4c63995ffd33cbd38128e7d146e619306504c3a4abd60001b611e0e565b6119b37f6ae97574e6ea75ecf3e0bdd533eb33d0f60718d02b5702a6a946d05bfdf5b4bc60001b611e0e565b6103e8816103eb6119c49190612239565b6119ce91906122aa565b3414611a3257611a007fd0914ab55b1102b82ce5d00c36e493b3dcf7a70f12bdd11abe34df323183c03560001b611e0e565b6040517f400f9fb800000000000000000000000000000000000000000000000000000000815260040160405180910390fd5b611a5e7f026232ab07c43dcd7f51c9ab32bd7a69f0f066e982e87067284f534214c7f8eb60001b611e0e565b611a8a7f50616ecc1c3a8e923c16f6f1537ac9b2d9871edb1199cf947020bf69ec6ef62160001b611e0e565b611ab67f7b9b50371ffaa528a704d1798e5317a5cba41890cf3593b58ff199ddbbf834ca60001b611e0e565b600073ffffffffffffffffffffffffffffffffffffffff16600260009054906101000a900473ffffffffffffffffffffffffffffffffffffffff1673ffffffffffffffffffffffffffffffffffffffff161480611b4b575080600260009054906101000a900473ffffffffffffffffffffffffffffffffffffffff1673ffffffffffffffffffffffffffffffffffffffff1631105b15611bae57611b7c7f46bad0f2150ac4bf2ac042eb74b6e669a7f0586020db3598278a61c4b9f67dd060001b611e0e565b6040517ff06294a300000000000000000000000000000000000000000000000000000000815260040160405180910390fd5b611bda7f69b7510f177def550123da0e3993855dac263e501be1a54796058a436fa5bd2e60001b611e0e565b611c067fe3552543074cb9e0d344bc1204d27f5508ed8efac92cba13279af99606e5b85060001b611e0e565b611c327f5310deafd878ab102e011fab77f506c3a46d76e653053d4d249ecaa05d5f976d60001b611e0e565b6103eb346103e8611c439190612239565b611c4d91906122aa565b6000803373ffffffffffffffffffffffffffffffffffffffff1673ffffffffffffffffffffffffffffffffffffffff1681526020019081526020016000206000828254611c9a9190612205565b92505081905550611ccd7f7de41a1c0b29a652e6fa3ec2fed66f84929d74b2520bf38d053c3a2326e3dd7a60001b611e0e565b611cf97f137af0620f5b9acf57763029dc63fdff45f1a5a099446470002b3f4627ef2c2460001b611e0e565b611d01611e11565b611d2d7f7ac965377c1628740cb41b5b2a8a1b2f407b320200c6e8c354938889aaa47c1060001b611e0e565b611d597fe73a9165375e6de789e92b7c3063c681fd26433c076fc6c3d2b10b45586585b160001b611e0e565b7f000000000000000000000000000000000000000000000000000000000000000073ffffffffffffffffffffffffffffffffffffffff166108fc349081150290604051600060405180830381858888f19350505050158015611dbf573d6000803e3d6000fd5b5050565b60036020528060005260406000206000915054906101000a900473ffffffffffffffffffffffffffffffffffffffff1681565b60006020528060005260406000206000915090505481565b50565b611e3d7fe3178c281edd17e86edf0f652d999a9c8b8f7828f673307b1cae423d8b94923660001b611e0e565b611e697fd33e41a55107d5fa5c252b21605a3d392d3b1dca0a4eda9e2459ec592e23687c60001b611e0e565b611e957fe74ad62008ebe5425c7ebc477f16c17706cf6aee357fa1bbfec096fc1872377660001b611e0e565b600160046000828254611ea89190612205565b92505081905550611edb7facdd3ea1802e38f0f9d22e565af0ae3a49c8f266aa9ea969894acb5c10903f3160001b611e0e565b611f077f14173c7d8928439337917c5f6e78b37088efc95a02e06b7db8945b26a1329e7860001b611e0e565b3360036000600454815260200190815260200160002060006101000a81548173ffffffffffffffffffffffffffffffffffffffff021916908373ffffffffffffffffffffffffffffffffffffffff160217905550565b600073ffffffffffffffffffffffffffffffffffffffff82169050919050565b6000819050919050565b6000611fa2611f9d611f9884611f5d565b611f7d565b611f5d565b9050919050565b6000611fb482611f87565b9050919050565b6000611fc682611fa9565b9050919050565b611fd681611fbb565b82525050565b6000602082019050611ff16000830184611fcd565b92915050565b6000819050919050565b61200a81611ff7565b82525050565b60006020820190506120256000830184612001565b92915050565b600061203682611f5d565b9050919050565b6120468161202b565b82525050565b6000602082019050612061600083018461203d565b92915050565b600080fd5b6120758161202b565b811461208057600080fd5b50565b6000813590506120928161206c565b92915050565b6000602082840312156120ae576120ad612067565b5b60006120bc84828501612083565b91505092915050565b6120ce81611ff7565b81146120d957600080fd5b50565b6000813590506120eb816120c5565b92915050565b60006020828403121561210757612106612067565b5b6000612115848285016120dc565b91505092915050565b60008151905061212d816120c5565b92915050565b60006020828403121561214957612148612067565b5b60006121578482850161211e565b91505092915050565b60008151905061216f8161206c565b92915050565b60006020828403121561218b5761218a612067565b5b600061219984828501612160565b91505092915050565b7f4e487b7100000000000000000000000000000000000000000000000000000000600052601160045260246000fd5b60006121dc82611ff7565b91506121e783611ff7565b92508282039050818111156121ff576121fe6121a2565b5b92915050565b600061221082611ff7565b915061221b83611ff7565b9250828201905080821115612233576122326121a2565b5b92915050565b600061224482611ff7565b915061224f83611ff7565b925082820261225d81611ff7565b91508282048414831517612274576122736121a2565b5b5092915050565b7f4e487b7100000000000000000000000000000000000000000000000000000000600052601260045260246000fd5b60006122b582611ff7565b91506122c083611ff7565b9250826122d0576122cf61227b565b5b82820490509291505056fea2646970667358221220a83c9b1d955ed9a32e3ae4c015e1564474ee2060e0cc8c332865964ef3298e4764736f6c63430008110033",
          "opcodes": "PUSH1 0xA0 PUSH1 0x40 MSTORE PUSH1 0x1 PUSH1 0x5 SSTORE CALLVALUE DUP1 ISZERO PUSH3 0x16 JUMPI PUSH1 0x0 DUP1 REVERT JUMPDEST POP PUSH3 0x4B PUSH32 0x898E9162F537AB5194B365B85A31AC314EF01F97153880A3E01C831BC4A1E01E PUSH1 0x0 SHL PUSH3 0xED PUSH1 0x20 SHL PUSH1 0x20 SHR JUMP JUMPDEST PUSH3 0x7F PUSH32 0x3F24A56FB1BAB62E49C0E9EA764842C1DAB38E64AC9A37DFAECD6D950CD13B61 PUSH1 0x0 SHL PUSH3 0xED PUSH1 0x20 SHL PUSH1 0x20 SHR JUMP JUMPDEST PUSH3 0xB3 PUSH32 0xA755B843AEA2C735B72CE2CF06A40619329DF290FCEA88FE4DE73BCF04DA5424 PUSH1 0x0 SHL PUSH3 0xED PUSH1 0x20 SHL PUSH1 0x20 SHR JUMP JUMPDEST CALLER PUSH20 0xFFFFFFFFFFFFFFFFFFFFFFFFFFFFFFFFFFFFFFFF AND PUSH1 0x80 DUP2 PUSH20 0xFFFFFFFFFFFFFFFFFFFFFFFFFFFFFFFFFFFFFFFF AND DUP2 MSTORE POP POP PUSH3 0xF0 JUMP JUMPDEST POP JUMP JUMPDEST PUSH1 0x80 MLOAD PUSH2 0x2311 PUSH3 0x136 PUSH1 0x0 CODECOPY PUSH1 0x0 DUP2 DUP2 PUSH2 0x36A ADD MSTORE DUP2 DUP2 PUSH2 0x7ED ADD MSTORE DUP2 DUP2 PUSH2 0x8E6 ADD MSTORE DUP2 DUP2 PUSH2 0x119F ADD MSTORE DUP2 DUP2 PUSH2 0x160C ADD MSTORE DUP2 DUP2 PUSH2 0x16B4 ADD MSTORE PUSH2 0x1D5B ADD MSTORE PUSH2 0x2311 PUSH1 0x0 RETURN INVALID PUSH1 0x80 PUSH1 0x40 MSTORE PUSH1 0x4 CALLDATASIZE LT PUSH2 0xC2 JUMPI PUSH1 0x0 CALLDATALOAD PUSH1 0xE0 SHR DUP1 PUSH4 0x957908D1 GT PUSH2 0x7F JUMPI DUP1 PUSH4 0xC5AACCF7 GT PUSH2 0x59 JUMPI DUP1 PUSH4 0xC5AACCF7 EQ PUSH2 0x1EB JUMPI DUP1 PUSH4 0xC637AA97 EQ PUSH2 0x228 JUMPI DUP1 PUSH4 0xDDF0B009 EQ PUSH2 0x244 JUMPI DUP1 PUSH4 0xE3D66F68 EQ PUSH2 0x281 JUMPI PUSH2 0xC2 JUMP JUMPDEST DUP1 PUSH4 0x957908D1 EQ PUSH2 0x180 JUMPI DUP1 PUSH4 0xB4A99A4E EQ PUSH2 0x197 JUMPI DUP1 PUSH4 0xBD31A23A EQ PUSH2 0x1C2 JUMPI PUSH2 0xC2 JUMP JUMPDEST DUP1 PUSH4 0x6557C31 EQ PUSH2 0xC7 JUMPI DUP1 PUSH4 0x8DD057A EQ PUSH2 0xF2 JUMPI DUP1 PUSH4 0x3DF4DDF4 EQ PUSH2 0x109 JUMPI DUP1 PUSH4 0x47799DA8 EQ PUSH2 0x134 JUMPI DUP1 PUSH4 0x515B74F2 EQ PUSH2 0x15F JUMPI DUP1 PUSH4 0x8521EEBE EQ PUSH2 0x176 JUMPI JUMPDEST PUSH1 0x0 DUP1 REVERT JUMPDEST CALLVALUE DUP1 ISZERO PUSH2 0xD3 JUMPI PUSH1 0x0 DUP1 REVERT JUMPDEST POP PUSH2 0xDC PUSH2 0x2BE JUMP JUMPDEST PUSH1 0x40 MLOAD PUSH2 0xE9 SWAP2 SWAP1 PUSH2 0x1FDC JUMP JUMPDEST PUSH1 0x40 MLOAD DUP1 SWAP2 SUB SWAP1 RETURN JUMPDEST CALLVALUE DUP1 ISZERO PUSH2 0xFE JUMPI PUSH1 0x0 DUP1 REVERT JUMPDEST POP PUSH2 0x107 PUSH2 0x2E4 JUMP JUMPDEST STOP JUMPDEST CALLVALUE DUP1 ISZERO PUSH2 0x115 JUMPI PUSH1 0x0 DUP1 REVERT JUMPDEST POP PUSH2 0x11E PUSH2 0x854 JUMP JUMPDEST PUSH1 0x40 MLOAD PUSH2 0x12B SWAP2 SWAP1 PUSH2 0x2010 JUMP JUMPDEST PUSH1 0x40 MLOAD DUP1 SWAP2 SUB SWAP1 RETURN JUMPDEST CALLVALUE DUP1 ISZERO PUSH2 0x140 JUMPI PUSH1 0x0 DUP1 REVERT JUMPDEST POP PUSH2 0x149 PUSH2 0x85A JUMP JUMPDEST PUSH1 0x40 MLOAD PUSH2 0x156 SWAP2 SWAP1 PUSH2 0x2010 JUMP JUMPDEST PUSH1 0x40 MLOAD DUP1 SWAP2 SUB SWAP1 RETURN JUMPDEST CALLVALUE DUP1 ISZERO PUSH2 0x16B JUMPI PUSH1 0x0 DUP1 REVERT JUMPDEST POP PUSH2 0x174 PUSH2 0x860 JUMP JUMPDEST STOP JUMPDEST PUSH2 0x17E PUSH2 0x1119 JUMP JUMPDEST STOP JUMPDEST CALLVALUE DUP1 ISZERO PUSH2 0x18C JUMPI PUSH1 0x0 DUP1 REVERT JUMPDEST POP PUSH2 0x195 PUSH2 0x1366 JUMP JUMPDEST STOP JUMPDEST CALLVALUE DUP1 ISZERO PUSH2 0x1A3 JUMPI PUSH1 0x0 DUP1 REVERT JUMPDEST POP PUSH2 0x1AC PUSH2 0x160A JUMP JUMPDEST PUSH1 0x40 MLOAD PUSH2 0x1B9 SWAP2 SWAP1 PUSH2 0x204C JUMP JUMPDEST PUSH1 0x40 MLOAD DUP1 SWAP2 SUB SWAP1 RETURN JUMPDEST CALLVALUE DUP1 ISZERO PUSH2 0x1CE JUMPI PUSH1 0x0 DUP1 REVERT JUMPDEST POP PUSH2 0x1E9 PUSH1 0x4 DUP1 CALLDATASIZE SUB DUP2 ADD SWAP1 PUSH2 0x1E4 SWAP2 SWAP1 PUSH2 0x2098 JUMP JUMPDEST PUSH2 0x162E JUMP JUMPDEST STOP JUMPDEST CALLVALUE DUP1 ISZERO PUSH2 0x1F7 JUMPI PUSH1 0x0 DUP1 REVERT JUMPDEST POP PUSH2 0x212 PUSH1 0x4 DUP1 CALLDATASIZE SUB DUP2 ADD SWAP1 PUSH2 0x20D SWAP2 SWAP1 PUSH2 0x2098 JUMP JUMPDEST PUSH2 0x182B JUMP JUMPDEST PUSH1 0x40 MLOAD PUSH2 0x21F SWAP2 SWAP1 PUSH2 0x2010 JUMP JUMPDEST PUSH1 0x40 MLOAD DUP1 SWAP2 SUB SWAP1 RETURN JUMPDEST PUSH2 0x242 PUSH1 0x4 DUP1 CALLDATASIZE SUB DUP2 ADD SWAP1 PUSH2 0x23D SWAP2 SWAP1 PUSH2 0x20F1 JUMP JUMPDEST PUSH2 0x1843 JUMP JUMPDEST STOP JUMPDEST CALLVALUE DUP1 ISZERO PUSH2 0x250 JUMPI PUSH1 0x0 DUP1 REVERT JUMPDEST POP PUSH2 0x26B PUSH1 0x4 DUP1 CALLDATASIZE SUB DUP2 ADD SWAP1 PUSH2 0x266 SWAP2 SWAP1 PUSH2 0x20F1 JUMP JUMPDEST PUSH2 0x1DC3 JUMP JUMPDEST PUSH1 0x40 MLOAD PUSH2 0x278 SWAP2 SWAP1 PUSH2 0x204C JUMP JUMPDEST PUSH1 0x40 MLOAD DUP1 SWAP2 SUB SWAP1 RETURN JUMPDEST CALLVALUE DUP1 ISZERO PUSH2 0x28D JUMPI PUSH1 0x0 DUP1 REVERT JUMPDEST POP PUSH2 0x2A8 PUSH1 0x4 DUP1 CALLDATASIZE SUB DUP2 ADD SWAP1 PUSH2 0x2A3 SWAP2 SWAP1 PUSH2 0x2098 JUMP JUMPDEST PUSH2 0x1DF6 JUMP JUMPDEST PUSH1 0x40 MLOAD PUSH2 0x2B5 SWAP2 SWAP1 PUSH2 0x2010 JUMP JUMPDEST PUSH1 0x40 MLOAD DUP1 SWAP2 SUB SWAP1 RETURN JUMPDEST PUSH1 0x2 PUSH1 0x0 SWAP1 SLOAD SWAP1 PUSH2 0x100 EXP SWAP1 DIV PUSH20 0xFFFFFFFFFFFFFFFFFFFFFFFFFFFFFFFFFFFFFFFF AND DUP2 JUMP JUMPDEST PUSH2 0x310 PUSH32 0x5FE15DE4E1A849C969C9C51ACB788CD2C9232830D92588E353FCFB8019A4E9CB PUSH1 0x0 SHL PUSH2 0x1E0E JUMP JUMPDEST PUSH2 0x33C PUSH32 0xE1B531E65B070C6F0AA9413C59ABDD17238992A9B0F843A20AA2A8CB14080261 PUSH1 0x0 SHL PUSH2 0x1E0E JUMP JUMPDEST PUSH2 0x368 PUSH32 0x89F062A1746B05740054485EED36443BB22B715973CD567786E790455016DA52 PUSH1 0x0 SHL PUSH2 0x1E0E JUMP JUMPDEST PUSH32 0x0 PUSH20 0xFFFFFFFFFFFFFFFFFFFFFFFFFFFFFFFFFFFFFFFF AND CALLER PUSH20 0xFFFFFFFFFFFFFFFFFFFFFFFFFFFFFFFFFFFFFFFF AND EQ PUSH2 0x419 JUMPI PUSH2 0x3E7 PUSH32 0x4CB25F9BAB83AA5D1090DA669995FEE263EE2DE5C36188F90B43A6A8EA71DB51 PUSH1 0x0 SHL PUSH2 0x1E0E JUMP JUMPDEST PUSH1 0x40 MLOAD PUSH32 0x1EE8575E00000000000000000000000000000000000000000000000000000000 DUP2 MSTORE PUSH1 0x4 ADD PUSH1 0x40 MLOAD DUP1 SWAP2 SUB SWAP1 REVERT JUMPDEST PUSH2 0x445 PUSH32 0x8EDCD7CBC25DE8D12597A6BAFF1D73B746DD3753CCA984D3564A6E3AA1DC1C2E PUSH1 0x0 SHL PUSH2 0x1E0E JUMP JUMPDEST PUSH2 0x471 PUSH32 0xFF6C188104E39C2799897AD4FA6767A8FF28C5A41E3336A58FAD8796F4EDE760 PUSH1 0x0 SHL PUSH2 0x1E0E JUMP JUMPDEST PUSH2 0x49D PUSH32 0x8E9F64298FAF274D5639BA4A59FE79463B1A2BDB605489875E458D7E55E6E2D3 PUSH1 0x0 SHL PUSH2 0x1E0E JUMP JUMPDEST PUSH1 0x0 SELFBALANCE SUB PUSH2 0x503 JUMPI PUSH2 0x4D1 PUSH32 0xE027802EC1407C6528AA6789F88158B933CBE0826C945A356204C3D7BEEB5C40 PUSH1 0x0 SHL PUSH2 0x1E0E JUMP JUMPDEST PUSH1 0x40 MLOAD PUSH32 0x7A1F291700000000000000000000000000000000000000000000000000000000 DUP2 MSTORE PUSH1 0x4 ADD PUSH1 0x40 MLOAD DUP1 SWAP2 SUB SWAP1 REVERT JUMPDEST PUSH2 0x52F PUSH32 0xF84597BCBB11BDD3A6BF921A458ED3931A51B80705D5C21D2D82A1B89BC4FDAB PUSH1 0x0 SHL PUSH2 0x1E0E JUMP JUMPDEST PUSH2 0x55B PUSH32 0xDD826552DB2CEAF69A3E850F417693712DCB22B651CC58503DD6CC0C84F246A9 PUSH1 0x0 SHL PUSH2 0x1E0E JUMP JUMPDEST PUSH2 0x587 PUSH32 0xD28A418237E74AF6486E732B89831F25F3FBEA14096C0A28BD277E5AFBE17575 PUSH1 0x0 SHL PUSH2 0x1E0E JUMP JUMPDEST PUSH1 0x0 PUSH20 0xFFFFFFFFFFFFFFFFFFFFFFFFFFFFFFFFFFFFFFFF AND PUSH1 0x2 PUSH1 0x0 SWAP1 SLOAD SWAP1 PUSH2 0x100 EXP SWAP1 DIV PUSH20 0xFFFFFFFFFFFFFFFFFFFFFFFFFFFFFFFFFFFFFFFF AND PUSH20 0xFFFFFFFFFFFFFFFFFFFFFFFFFFFFFFFFFFFFFFFF AND EQ DUP1 PUSH2 0x704 JUMPI POP PUSH1 0x2 PUSH1 0x0 SWAP1 SLOAD SWAP1 PUSH2 0x100 EXP SWAP1 DIV PUSH20 0xFFFFFFFFFFFFFFFFFFFFFFFFFFFFFFFFFFFFFFFF AND PUSH20 0xFFFFFFFFFFFFFFFFFFFFFFFFFFFFFFFFFFFFFFFF AND PUSH4 0x3DF4DDF4 PUSH1 0x40 MLOAD DUP2 PUSH4 0xFFFFFFFF AND PUSH1 0xE0 SHL DUP2 MSTORE PUSH1 0x4 ADD PUSH1 0x20 PUSH1 0x40 MLOAD DUP1 DUP4 SUB DUP2 DUP7 GAS STATICCALL ISZERO DUP1 ISZERO PUSH2 0x64C JUMPI RETURNDATASIZE PUSH1 0x0 DUP1 RETURNDATACOPY RETURNDATASIZE PUSH1 0x0 REVERT JUMPDEST POP POP POP POP PUSH1 0x40 MLOAD RETURNDATASIZE PUSH1 0x1F NOT PUSH1 0x1F DUP3 ADD AND DUP3 ADD DUP1 PUSH1 0x40 MSTORE POP DUP2 ADD SWAP1 PUSH2 0x670 SWAP2 SWAP1 PUSH2 0x2133 JUMP JUMPDEST PUSH1 0x2 PUSH1 0x0 SWAP1 SLOAD SWAP1 PUSH2 0x100 EXP SWAP1 DIV PUSH20 0xFFFFFFFFFFFFFFFFFFFFFFFFFFFFFFFFFFFFFFFF AND PUSH20 0xFFFFFFFFFFFFFFFFFFFFFFFFFFFFFFFFFFFFFFFF AND PUSH4 0x47799DA8 PUSH1 0x40 MLOAD DUP2 PUSH4 0xFFFFFFFF AND PUSH1 0xE0 SHL DUP2 MSTORE PUSH1 0x4 ADD PUSH1 0x20 PUSH1 0x40 MLOAD DUP1 DUP4 SUB DUP2 DUP7 GAS STATICCALL ISZERO DUP1 ISZERO PUSH2 0x6DD JUMPI RETURNDATASIZE PUSH1 0x0 DUP1 RETURNDATACOPY RETURNDATASIZE PUSH1 0x0 REVERT JUMPDEST POP POP POP POP PUSH1 0x40 MLOAD RETURNDATASIZE PUSH1 0x1F NOT PUSH1 0x1F DUP3 ADD AND DUP3 ADD DUP1 PUSH1 0x40 MSTORE POP DUP2 ADD SWAP1 PUSH2 0x701 SWAP2 SWAP1 PUSH2 0x2133 JUMP JUMPDEST LT ISZERO JUMPDEST ISZERO PUSH2 0x767 JUMPI PUSH2 0x735 PUSH32 0xD43E6206AB6636701D3A78B8E8F6205CE233BF947999B47B8B1837C838E186D9 PUSH1 0x0 SHL PUSH2 0x1E0E JUMP JUMPDEST PUSH1 0x40 MLOAD PUSH32 0x230ACCFD00000000000000000000000000000000000000000000000000000000 DUP2 MSTORE PUSH1 0x4 ADD PUSH1 0x40 MLOAD DUP1 SWAP2 SUB SWAP1 REVERT JUMPDEST PUSH2 0x793 PUSH32 0x8E9C42206AD51570C1A426BCD3DB6719B8C1094F3EE74984B1F6B4E81003F6DE PUSH1 0x0 SHL PUSH2 0x1E0E JUMP JUMPDEST PUSH2 0x7BF PUSH32 0x4F3085BD710EB6695E4497AFB467ECEE6E30374DDBEB626AF5A471612812B76D PUSH1 0x0 SHL PUSH2 0x1E0E JUMP JUMPDEST PUSH2 0x7EB PUSH32 0x933E686C6E6EED7E5B5C1D0C89B08F51647D680C15AEB38D85F7C7266579FE6E PUSH1 0x0 SHL PUSH2 0x1E0E JUMP JUMPDEST PUSH32 0x0 PUSH20 0xFFFFFFFFFFFFFFFFFFFFFFFFFFFFFFFFFFFFFFFF AND PUSH2 0x8FC SELFBALANCE SWAP1 DUP2 ISZERO MUL SWAP1 PUSH1 0x40 MLOAD PUSH1 0x0 PUSH1 0x40 MLOAD DUP1 DUP4 SUB DUP2 DUP6 DUP9 DUP9 CALL SWAP4 POP POP POP POP ISZERO DUP1 ISZERO PUSH2 0x851 JUMPI RETURNDATASIZE PUSH1 0x0 DUP1 RETURNDATACOPY RETURNDATASIZE PUSH1 0x0 REVERT JUMPDEST POP JUMP JUMPDEST PUSH1 0x5 SLOAD DUP2 JUMP JUMPDEST PUSH1 0x4 SLOAD DUP2 JUMP JUMPDEST PUSH2 0x88C PUSH32 0x5C2B5BBA9118B090DEB354C65F7FD34DE726238D4430F46796FC74D2070A5DCE PUSH1 0x0 SHL PUSH2 0x1E0E JUMP JUMPDEST PUSH2 0x8B8 PUSH32 0x4610E2856113BFA5FFE91D816DD1AAE87AE84E37B9F090532EF0128232868C2F PUSH1 0x0 SHL PUSH2 0x1E0E JUMP JUMPDEST PUSH2 0x8E4 PUSH32 0x53FE39723AA7986459B23662D25159A8BEC0BD3A2831D55B3054BFAC32662685 PUSH1 0x0 SHL PUSH2 0x1E0E JUMP JUMPDEST PUSH32 0x0 PUSH20 0xFFFFFFFFFFFFFFFFFFFFFFFFFFFFFFFFFFFFFFFF AND CALLER PUSH20 0xFFFFFFFFFFFFFFFFFFFFFFFFFFFFFFFFFFFFFFFF AND EQ PUSH2 0x995 JUMPI PUSH2 0x963 PUSH32 0xFFAC17B4F228667782A2C3E76932FFB698DC0EEE004CCEF85E3BC00E58CA028C PUSH1 0x0 SHL PUSH2 0x1E0E JUMP JUMPDEST PUSH1 0x40 MLOAD PUSH32 0x1EE8575E00000000000000000000000000000000000000000000000000000000 DUP2 MSTORE PUSH1 0x4 ADD PUSH1 0x40 MLOAD DUP1 SWAP2 SUB SWAP1 REVERT JUMPDEST PUSH2 0x9C1 PUSH32 0xA5BCC75C60077C48BAE60903FEFF83461E6A7A8AF668436ACD68DB59DA02D9C6 PUSH1 0x0 SHL PUSH2 0x1E0E JUMP JUMPDEST PUSH2 0x9ED PUSH32 0x5ABDE711A415BD548ACB031DCE1B34DA9F8A5A87D03173B1CE441741AB0538BB PUSH1 0x0 SHL PUSH2 0x1E0E JUMP JUMPDEST PUSH2 0xA19 PUSH32 0x27AF547419433DBE49A13C4D77B91FB6FAA948C4D28F1FDE9AA3A98CC8415642 PUSH1 0x0 SHL PUSH2 0x1E0E JUMP JUMPDEST PUSH1 0x0 PUSH20 0xFFFFFFFFFFFFFFFFFFFFFFFFFFFFFFFFFFFFFFFF AND PUSH1 0x2 PUSH1 0x0 SWAP1 SLOAD SWAP1 PUSH2 0x100 EXP SWAP1 DIV PUSH20 0xFFFFFFFFFFFFFFFFFFFFFFFFFFFFFFFFFFFFFFFF AND PUSH20 0xFFFFFFFFFFFFFFFFFFFFFFFFFFFFFFFFFFFFFFFF AND EQ DUP1 PUSH2 0xB95 JUMPI POP PUSH1 0x2 PUSH1 0x0 SWAP1 SLOAD SWAP1 PUSH2 0x100 EXP SWAP1 DIV PUSH20 0xFFFFFFFFFFFFFFFFFFFFFFFFFFFFFFFFFFFFFFFF AND PUSH20 0xFFFFFFFFFFFFFFFFFFFFFFFFFFFFFFFFFFFFFFFF AND PUSH4 0x3DF4DDF4 PUSH1 0x40 MLOAD DUP2 PUSH4 0xFFFFFFFF AND PUSH1 0xE0 SHL DUP2 MSTORE PUSH1 0x4 ADD PUSH1 0x20 PUSH1 0x40 MLOAD DUP1 DUP4 SUB DUP2 DUP7 GAS STATICCALL ISZERO DUP1 ISZERO PUSH2 0xADE JUMPI RETURNDATASIZE PUSH1 0x0 DUP1 RETURNDATACOPY RETURNDATASIZE PUSH1 0x0 REVERT JUMPDEST POP POP POP POP PUSH1 0x40 MLOAD RETURNDATASIZE PUSH1 0x1F NOT PUSH1 0x1F DUP3 ADD AND DUP3 ADD DUP1 PUSH1 0x40 MSTORE POP DUP2 ADD SWAP1 PUSH2 0xB02 SWAP2 SWAP1 PUSH2 0x2133 JUMP JUMPDEST PUSH1 0x2 PUSH1 0x0 SWAP1 SLOAD SWAP1 PUSH2 0x100 EXP SWAP1 DIV PUSH20 0xFFFFFFFFFFFFFFFFFFFFFFFFFFFFFFFFFFFFFFFF AND PUSH20 0xFFFFFFFFFFFFFFFFFFFFFFFFFFFFFFFFFFFFFFFF AND PUSH4 0x47799DA8 PUSH1 0x40 MLOAD DUP2 PUSH4 0xFFFFFFFF AND PUSH1 0xE0 SHL DUP2 MSTORE PUSH1 0x4 ADD PUSH1 0x20 PUSH1 0x40 MLOAD DUP1 DUP4 SUB DUP2 DUP7 GAS STATICCALL ISZERO DUP1 ISZERO PUSH2 0xB6F JUMPI RETURNDATASIZE PUSH1 0x0 DUP1 RETURNDATACOPY RETURNDATASIZE PUSH1 0x0 REVERT JUMPDEST POP POP POP POP PUSH1 0x40 MLOAD RETURNDATASIZE PUSH1 0x1F NOT PUSH1 0x1F DUP3 ADD AND DUP3 ADD DUP1 PUSH1 0x40 MSTORE POP DUP2 ADD SWAP1 PUSH2 0xB93 SWAP2 SWAP1 PUSH2 0x2133 JUMP JUMPDEST LT JUMPDEST ISZERO PUSH2 0xBF8 JUMPI PUSH2 0xBC6 PUSH32 0x6713BC4054D2E6FEE6CF7E9BFE47FE7B03ACC8D9E4830886D8E66BB3661D9573 PUSH1 0x0 SHL PUSH2 0x1E0E JUMP JUMPDEST PUSH1 0x40 MLOAD PUSH32 0x5E61BB8700000000000000000000000000000000000000000000000000000000 DUP2 MSTORE PUSH1 0x4 ADD PUSH1 0x40 MLOAD DUP1 SWAP2 SUB SWAP1 REVERT JUMPDEST PUSH2 0xC24 PUSH32 0x4028ECD109BE29E9F916E84265F8241B0C080AFE82C226529280DD462A61D824 PUSH1 0x0 SHL PUSH2 0x1E0E JUMP JUMPDEST PUSH2 0xC50 PUSH32 0xBE6B95816DD3461B66C74F5D42D8961D339B4ACD94329ADED3492A082F52787C PUSH1 0x0 SHL PUSH2 0x1E0E JUMP JUMPDEST PUSH2 0xC7C PUSH32 0xF168D26CD675156979895BBE8BCB38C3258512B96B5F3C5F4A6510DB05CF2F68 PUSH1 0x0 SHL PUSH2 0x1E0E JUMP JUMPDEST PUSH1 0x0 PUSH1 0x2 PUSH1 0x0 SWAP1 SLOAD SWAP1 PUSH2 0x100 EXP SWAP1 DIV PUSH20 0xFFFFFFFFFFFFFFFFFFFFFFFFFFFFFFFFFFFFFFFF AND PUSH20 0xFFFFFFFFFFFFFFFFFFFFFFFFFFFFFFFFFFFFFFFF AND PUSH4 0xDDF0B009 PUSH1 0x2 PUSH1 0x0 SWAP1 SLOAD SWAP1 PUSH2 0x100 EXP SWAP1 DIV PUSH20 0xFFFFFFFFFFFFFFFFFFFFFFFFFFFFFFFFFFFFFFFF AND PUSH20 0xFFFFFFFFFFFFFFFFFFFFFFFFFFFFFFFFFFFFFFFF AND PUSH4 0x47799DA8 PUSH1 0x40 MLOAD DUP2 PUSH4 0xFFFFFFFF AND PUSH1 0xE0 SHL DUP2 MSTORE PUSH1 0x4 ADD PUSH1 0x20 PUSH1 0x40 MLOAD DUP1 DUP4 SUB DUP2 DUP7 GAS STATICCALL ISZERO DUP1 ISZERO PUSH2 0xD29 JUMPI RETURNDATASIZE PUSH1 0x0 DUP1 RETURNDATACOPY RETURNDATASIZE PUSH1 0x0 REVERT JUMPDEST POP POP POP POP PUSH1 0x40 MLOAD RETURNDATASIZE PUSH1 0x1F NOT PUSH1 0x1F DUP3 ADD AND DUP3 ADD DUP1 PUSH1 0x40 MSTORE POP DUP2 ADD SWAP1 PUSH2 0xD4D SWAP2 SWAP1 PUSH2 0x2133 JUMP JUMPDEST PUSH1 0x40 MLOAD DUP3 PUSH4 0xFFFFFFFF AND PUSH1 0xE0 SHL DUP2 MSTORE PUSH1 0x4 ADD PUSH2 0xD69 SWAP2 SWAP1 PUSH2 0x2010 JUMP JUMPDEST PUSH1 0x20 PUSH1 0x40 MLOAD DUP1 DUP4 SUB DUP2 DUP7 GAS STATICCALL ISZERO DUP1 ISZERO PUSH2 0xD86 JUMPI RETURNDATASIZE PUSH1 0x0 DUP1 RETURNDATACOPY RETURNDATASIZE PUSH1 0x0 REVERT JUMPDEST POP POP POP POP PUSH1 0x40 MLOAD RETURNDATASIZE PUSH1 0x1F NOT PUSH1 0x1F DUP3 ADD AND DUP3 ADD DUP1 PUSH1 0x40 MSTORE POP DUP2 ADD SWAP1 PUSH2 0xDAA SWAP2 SWAP1 PUSH2 0x2175 JUMP JUMPDEST SWAP1 POP PUSH2 0xDD8 PUSH32 0x302A57AF8EEC5110606421D6FCDB85E6894E34AC3C9FB4804D3DAE50B8E90342 PUSH1 0x0 SHL PUSH2 0x1E0E JUMP JUMPDEST PUSH2 0xE04 PUSH32 0x62ED3FB8D5EDA8551C61B61CFE433D778019D49D7CC00A9DB5D16B851D9B2DA7 PUSH1 0x0 SHL PUSH2 0x1E0E JUMP JUMPDEST PUSH1 0x2 PUSH1 0x0 SWAP1 SLOAD SWAP1 PUSH2 0x100 EXP SWAP1 DIV PUSH20 0xFFFFFFFFFFFFFFFFFFFFFFFFFFFFFFFFFFFFFFFF AND PUSH20 0xFFFFFFFFFFFFFFFFFFFFFFFFFFFFFFFFFFFFFFFF AND PUSH4 0x957908D1 PUSH1 0x40 MLOAD DUP2 PUSH4 0xFFFFFFFF AND PUSH1 0xE0 SHL DUP2 MSTORE PUSH1 0x4 ADD PUSH1 0x0 PUSH1 0x40 MLOAD DUP1 DUP4 SUB DUP2 PUSH1 0x0 DUP8 DUP1 EXTCODESIZE ISZERO DUP1 ISZERO PUSH2 0xE6E JUMPI PUSH1 0x0 DUP1 REVERT JUMPDEST POP GAS CALL ISZERO DUP1 ISZERO PUSH2 0xE82 JUMPI RETURNDATASIZE PUSH1 0x0 DUP1 RETURNDATACOPY RETURNDATASIZE PUSH1 0x0 REVERT JUMPDEST POP POP POP POP PUSH2 0xEB2 PUSH32 0xAB419E3ED9BC2485A1CBEA5C2F19AC69D1B7B87152A5C77E6B9AC7CBE461BFB8 PUSH1 0x0 SHL PUSH2 0x1E0E JUMP JUMPDEST PUSH2 0xEDE PUSH32 0x1472534D07A8D402E6AA8072CA06BE9869FEFAF3EF8743575416D8848BBCC447 PUSH1 0x0 SHL PUSH2 0x1E0E JUMP JUMPDEST PUSH1 0x0 PUSH1 0x1 PUSH1 0x0 DUP4 PUSH20 0xFFFFFFFFFFFFFFFFFFFFFFFFFFFFFFFFFFFFFFFF AND PUSH20 0xFFFFFFFFFFFFFFFFFFFFFFFFFFFFFFFFFFFFFFFF AND DUP2 MSTORE PUSH1 0x20 ADD SWAP1 DUP2 MSTORE PUSH1 0x20 ADD PUSH1 0x0 KECCAK256 SLOAD PUSH1 0x2 PUSH1 0x0 SWAP1 SLOAD SWAP1 PUSH2 0x100 EXP SWAP1 DIV PUSH20 0xFFFFFFFFFFFFFFFFFFFFFFFFFFFFFFFFFFFFFFFF AND PUSH20 0xFFFFFFFFFFFFFFFFFFFFFFFFFFFFFFFFFFFFFFFF AND PUSH4 0xABB6B5A1 DUP5 PUSH1 0x40 MLOAD DUP3 PUSH4 0xFFFFFFFF AND PUSH1 0xE0 SHL DUP2 MSTORE PUSH1 0x4 ADD PUSH2 0xF7B SWAP2 SWAP1 PUSH2 0x204C JUMP JUMPDEST PUSH1 0x20 PUSH1 0x40 MLOAD DUP1 DUP4 SUB DUP2 DUP7 GAS STATICCALL ISZERO DUP1 ISZERO PUSH2 0xF98 JUMPI RETURNDATASIZE PUSH1 0x0 DUP1 RETURNDATACOPY RETURNDATASIZE PUSH1 0x0 REVERT JUMPDEST POP POP POP POP PUSH1 0x40 MLOAD RETURNDATASIZE PUSH1 0x1F NOT PUSH1 0x1F DUP3 ADD AND DUP3 ADD DUP1 PUSH1 0x40 MSTORE POP DUP2 ADD SWAP1 PUSH2 0xFBC SWAP2 SWAP1 PUSH2 0x2133 JUMP JUMPDEST PUSH2 0xFC6 SWAP2 SWAP1 PUSH2 0x21D1 JUMP JUMPDEST SWAP1 POP PUSH2 0xFF4 PUSH32 0x2A7F75E58DDA3D8F4001C35708E4F42CFAF81A4C8211DC8C5976764213A21597 PUSH1 0x0 SHL PUSH2 0x1E0E JUMP JUMPDEST PUSH2 0x1020 PUSH32 0xD93D050B89AEC88D828B8436D9EF526A2E25DD50B0AEFA0AAD90E432C7E1F72A PUSH1 0x0 SHL PUSH2 0x1E0E JUMP JUMPDEST DUP1 PUSH1 0x1 PUSH1 0x0 DUP5 PUSH20 0xFFFFFFFFFFFFFFFFFFFFFFFFFFFFFFFFFFFFFFFF AND PUSH20 0xFFFFFFFFFFFFFFFFFFFFFFFFFFFFFFFFFFFFFFFF AND DUP2 MSTORE PUSH1 0x20 ADD SWAP1 DUP2 MSTORE PUSH1 0x20 ADD PUSH1 0x0 KECCAK256 PUSH1 0x0 DUP3 DUP3 SLOAD PUSH2 0x106F SWAP2 SWAP1 PUSH2 0x2205 JUMP JUMPDEST SWAP3 POP POP DUP2 SWAP1 SSTORE POP PUSH2 0x10A2 PUSH32 0x5990019A09538FC38B18AA0D216AF4AF0CE9D11DB0968AF9A7DD451A64F5196 PUSH1 0x0 SHL PUSH2 0x1E0E JUMP JUMPDEST PUSH2 0x10CE PUSH32 0x509CF1E91C76D1FFECF871E14332A9EE19074E29820FF951714EC2C3148A2FF1 PUSH1 0x0 SHL PUSH2 0x1E0E JUMP JUMPDEST DUP2 PUSH20 0xFFFFFFFFFFFFFFFFFFFFFFFFFFFFFFFFFFFFFFFF AND PUSH2 0x8FC DUP3 SWAP1 DUP2 ISZERO MUL SWAP1 PUSH1 0x40 MLOAD PUSH1 0x0 PUSH1 0x40 MLOAD DUP1 DUP4 SUB DUP2 DUP6 DUP9 DUP9 CALL SWAP4 POP POP POP POP ISZERO DUP1 ISZERO PUSH2 0x1114 JUMPI RETURNDATASIZE PUSH1 0x0 DUP1 RETURNDATACOPY RETURNDATASIZE PUSH1 0x0 REVERT JUMPDEST POP POP POP JUMP JUMPDEST PUSH2 0x1145 PUSH32 0xF4722FA0A7D1B6EDDF68E6658A047202294B0508D60D52C5E1230F85D7D6E0E PUSH1 0x0 SHL PUSH2 0x1E0E JUMP JUMPDEST PUSH2 0x1171 PUSH32 0x36C7A21CCC383C955BD08ABE20053E8933F20434C93188590628DA30CAFE1FC3 PUSH1 0x0 SHL PUSH2 0x1E0E JUMP JUMPDEST PUSH2 0x119D PUSH32 0x59A8EA542EBDB495EFDF9405A96B1348AF67259B0CC725E034F3BBB2DFF0333A PUSH1 0x0 SHL PUSH2 0x1E0E JUMP JUMPDEST PUSH32 0x0 PUSH20 0xFFFFFFFFFFFFFFFFFFFFFFFFFFFFFFFFFFFFFFFF AND CALLER PUSH20 0xFFFFFFFFFFFFFFFFFFFFFFFFFFFFFFFFFFFFFFFF AND EQ PUSH2 0x124E JUMPI PUSH2 0x121C PUSH32 0x4AAF533F494185E2BE526BF90C182A1932CFFF5D70DDAF7B1F2FF5CE1C37ADE0 PUSH1 0x0 SHL PUSH2 0x1E0E JUMP JUMPDEST PUSH1 0x40 MLOAD PUSH32 0x1EE8575E00000000000000000000000000000000000000000000000000000000 DUP2 MSTORE PUSH1 0x4 ADD PUSH1 0x40 MLOAD DUP1 SWAP2 SUB SWAP1 REVERT JUMPDEST PUSH2 0x127A PUSH32 0x88343CF849FEEA02F596E7FDDF0AE65D62959D88DBC54D30CD84A74C6D1B8D82 PUSH1 0x0 SHL PUSH2 0x1E0E JUMP JUMPDEST PUSH2 0x12A6 PUSH32 0xFC816B1A284E0FED572F0A67B6B1FE91BB6758D7E9964044C4465E36D2C8D31B PUSH1 0x0 SHL PUSH2 0x1E0E JUMP JUMPDEST PUSH2 0x12D2 PUSH32 0x23C198E484E01B78A6A686FB6F2D133220883475FD2FD4A825D88FCFFBCD2FC6 PUSH1 0x0 SHL PUSH2 0x1E0E JUMP JUMPDEST PUSH1 0x0 CALLVALUE SUB PUSH2 0x1338 JUMPI PUSH2 0x1306 PUSH32 0x143B5B02695DDEF0AD942139A280FECA254A49BED485509FF7D4BB2B663D4DE PUSH1 0x0 SHL PUSH2 0x1E0E JUMP JUMPDEST PUSH1 0x40 MLOAD PUSH32 0xCDB5D8500000000000000000000000000000000000000000000000000000000 DUP2 MSTORE PUSH1 0x4 ADD PUSH1 0x40 MLOAD DUP1 SWAP2 SUB SWAP1 REVERT JUMPDEST PUSH2 0x1364 PUSH32 0x4292474B580C98FFCD7134582355920440264C994700EC019796F8921AA02D0C PUSH1 0x0 SHL PUSH2 0x1E0E JUMP JUMPDEST JUMP JUMPDEST PUSH2 0x1392 PUSH32 0x52D5BB3ED9021DA1A9168842FFFF01399C33F41742DBEEF440CECE24C17BB27D PUSH1 0x0 SHL PUSH2 0x1E0E JUMP JUMPDEST PUSH2 0x13BE PUSH32 0x68083DD797E435FC77A5BD68BAA51764DBED632F329240E482C48F86E3F3E49A PUSH1 0x0 SHL PUSH2 0x1E0E JUMP JUMPDEST PUSH2 0x13EA PUSH32 0x1C1AD13112D832DB4FCE005CF8B192A39A472D9887B1B1C6C91A274D5F675BF3 PUSH1 0x0 SHL PUSH2 0x1E0E JUMP JUMPDEST PUSH1 0x0 PUSH20 0xFFFFFFFFFFFFFFFFFFFFFFFFFFFFFFFFFFFFFFFF AND PUSH1 0x2 PUSH1 0x0 SWAP1 SLOAD SWAP1 PUSH2 0x100 EXP SWAP1 DIV PUSH20 0xFFFFFFFFFFFFFFFFFFFFFFFFFFFFFFFFFFFFFFFF AND PUSH20 0xFFFFFFFFFFFFFFFFFFFFFFFFFFFFFFFFFFFFFFFF AND EQ DUP1 PUSH2 0x1495 JUMPI POP PUSH1 0x2 PUSH1 0x0 SWAP1 SLOAD SWAP1 PUSH2 0x100 EXP SWAP1 DIV PUSH20 0xFFFFFFFFFFFFFFFFFFFFFFFFFFFFFFFFFFFFFFFF AND PUSH20 0xFFFFFFFFFFFFFFFFFFFFFFFFFFFFFFFFFFFFFFFF AND CALLER PUSH20 0xFFFFFFFFFFFFFFFFFFFFFFFFFFFFFFFFFFFFFFFF AND EQ ISZERO JUMPDEST DUP1 PUSH2 0x14A3 JUMPI POP PUSH1 0x5 SLOAD PUSH1 0x4 SLOAD LT JUMPDEST ISZERO PUSH2 0x1506 JUMPI PUSH2 0x14D4 PUSH32 0xDE313DE4419DC22AEEC1E10457C6BA0F8E6636A8501ADC390123599A7A06C750 PUSH1 0x0 SHL PUSH2 0x1E0E JUMP JUMPDEST PUSH1 0x40 MLOAD PUSH32 0x4DA1BC3400000000000000000000000000000000000000000000000000000000 DUP2 MSTORE PUSH1 0x4 ADD PUSH1 0x40 MLOAD DUP1 SWAP2 SUB SWAP1 REVERT JUMPDEST PUSH2 0x1532 PUSH32 0xC127C055F4E87CCD68DF2311060971FE17D7E58E111137DE784EF6E1E2AC07FC PUSH1 0x0 SHL PUSH2 0x1E0E JUMP JUMPDEST PUSH2 0x155E PUSH32 0x762C1BD157F8BEC1F319171194625608F4770007A843ACC17CD9B7DEA4F7E0D8 PUSH1 0x0 SHL PUSH2 0x1E0E JUMP JUMPDEST PUSH1 0x3 PUSH1 0x0 PUSH1 0x5 SLOAD DUP2 MSTORE PUSH1 0x20 ADD SWAP1 DUP2 MSTORE PUSH1 0x20 ADD PUSH1 0x0 KECCAK256 PUSH1 0x0 PUSH2 0x100 EXP DUP2 SLOAD SWAP1 PUSH20 0xFFFFFFFFFFFFFFFFFFFFFFFFFFFFFFFFFFFFFFFF MUL NOT AND SWAP1 SSTORE PUSH2 0x15C2 PUSH32 0x70DE263955F3DCB4A63C991D04524D8DD1513BE4889AFE43E69E4984B8060F6E PUSH1 0x0 SHL PUSH2 0x1E0E JUMP JUMPDEST PUSH2 0x15EE PUSH32 0xD6454483502931C6D1608F75FB906C58FDB88FB870BB1D55C1BB9856BD71E74D PUSH1 0x0 SHL PUSH2 0x1E0E JUMP JUMPDEST PUSH1 0x1 PUSH1 0x5 PUSH1 0x0 DUP3 DUP3 SLOAD PUSH2 0x1601 SWAP2 SWAP1 PUSH2 0x2205 JUMP JUMPDEST SWAP3 POP POP DUP2 SWAP1 SSTORE POP JUMP JUMPDEST PUSH32 0x0 DUP2 JUMP JUMPDEST PUSH2 0x165A PUSH32 0x8E2085F94B091F2516DAE8084E95A132CE97D588D155FC7B744C6554DA7B88A6 PUSH1 0x0 SHL PUSH2 0x1E0E JUMP JUMPDEST PUSH2 0x1686 PUSH32 0x35771817EA5A749E4DE406CB893547E9565F1FBB43B3D9FE6F4D60B891583614 PUSH1 0x0 SHL PUSH2 0x1E0E JUMP JUMPDEST PUSH2 0x16B2 PUSH32 0x11284C2876C598CF1340618142DF7B5EB506A3F9727521528F48CCF70DEF8706 PUSH1 0x0 SHL PUSH2 0x1E0E JUMP JUMPDEST PUSH32 0x0 PUSH20 0xFFFFFFFFFFFFFFFFFFFFFFFFFFFFFFFFFFFFFFFF AND CALLER PUSH20 0xFFFFFFFFFFFFFFFFFFFFFFFFFFFFFFFFFFFFFFFF AND EQ PUSH2 0x1763 JUMPI PUSH2 0x1731 PUSH32 0x8FCEA256DBABAE5E42D3B8E7D86EA9D3B3CAA03B8AAFFA76639EE87D7B0A47AF PUSH1 0x0 SHL PUSH2 0x1E0E JUMP JUMPDEST PUSH1 0x40 MLOAD PUSH32 0x1EE8575E00000000000000000000000000000000000000000000000000000000 DUP2 MSTORE PUSH1 0x4 ADD PUSH1 0x40 MLOAD DUP1 SWAP2 SUB SWAP1 REVERT JUMPDEST PUSH2 0x178F PUSH32 0x7C96DC9C9D98BCFBD50597F5CB466961BB045A05C9E3B0AD8E6A03C388DE8500 PUSH1 0x0 SHL PUSH2 0x1E0E JUMP JUMPDEST PUSH2 0x17BB PUSH32 0xFB625CF14297CA5887F642A396D6A840D6E4C63873C6E7B15F505C9505BA2EF4 PUSH1 0x0 SHL PUSH2 0x1E0E JUMP JUMPDEST PUSH2 0x17E7 PUSH32 0x904561789AF24E51DA8F139A497EEC539C6D05A3823E387F36E7130DAD308C75 PUSH1 0x0 SHL PUSH2 0x1E0E JUMP JUMPDEST DUP1 PUSH1 0x2 PUSH1 0x0 PUSH2 0x100 EXP DUP2 SLOAD DUP2 PUSH20 0xFFFFFFFFFFFFFFFFFFFFFFFFFFFFFFFFFFFFFFFF MUL NOT AND SWAP1 DUP4 PUSH20 0xFFFFFFFFFFFFFFFFFFFFFFFFFFFFFFFFFFFFFFFF AND MUL OR SWAP1 SSTORE POP POP JUMP JUMPDEST PUSH1 0x1 PUSH1 0x20 MSTORE DUP1 PUSH1 0x0 MSTORE PUSH1 0x40 PUSH1 0x0 KECCAK256 PUSH1 0x0 SWAP2 POP SWAP1 POP SLOAD DUP2 JUMP JUMPDEST PUSH2 0x186F PUSH32 0x7A8D4FA7426C5770B855D5445E71EA7C6E19DD5D46A3AC29E68724D3EA152E2F PUSH1 0x0 SHL PUSH2 0x1E0E JUMP JUMPDEST PUSH2 0x189B PUSH32 0xAE315D76B4FDC0509614573E6AAF7B77CC7E7F4A5F2A855E1276FA883E501AB3 PUSH1 0x0 SHL PUSH2 0x1E0E JUMP JUMPDEST PUSH2 0x18C7 PUSH32 0xD8B2F05768F20732D06629991B1FD8A4561BE7036B5A42E6BA379179D8EA367B PUSH1 0x0 SHL PUSH2 0x1E0E JUMP JUMPDEST PUSH2 0x3E8 DUP2 LT ISZERO PUSH2 0x192F JUMPI PUSH2 0x18FD PUSH32 0x5BFD670527173E11977B320429131265EA69398A9907ED1DC7A6A962857C13B1 PUSH1 0x0 SHL PUSH2 0x1E0E JUMP JUMPDEST PUSH1 0x40 MLOAD PUSH32 0xA9F2D61800000000000000000000000000000000000000000000000000000000 DUP2 MSTORE PUSH1 0x4 ADD PUSH1 0x40 MLOAD DUP1 SWAP2 SUB SWAP1 REVERT JUMPDEST PUSH2 0x195B PUSH32 0x3CDB6B2963B2738A9E0A0E9C4488F0BC12FCDDDE5A70124609DBE407486BDFE9 PUSH1 0x0 SHL PUSH2 0x1E0E JUMP JUMPDEST PUSH2 0x1987 PUSH32 0xE0199D7A5A51FD297BEFC4C63995FFD33CBD38128E7D146E619306504C3A4ABD PUSH1 0x0 SHL PUSH2 0x1E0E JUMP JUMPDEST PUSH2 0x19B3 PUSH32 0x6AE97574E6EA75ECF3E0BDD533EB33D0F60718D02B5702A6A946D05BFDF5B4BC PUSH1 0x0 SHL PUSH2 0x1E0E JUMP JUMPDEST PUSH2 0x3E8 DUP2 PUSH2 0x3EB PUSH2 0x19C4 SWAP2 SWAP1 PUSH2 0x2239 JUMP JUMPDEST PUSH2 0x19CE SWAP2 SWAP1 PUSH2 0x22AA JUMP JUMPDEST CALLVALUE EQ PUSH2 0x1A32 JUMPI PUSH2 0x1A00 PUSH32 0xD0914AB55B1102B82CE5D00C36E493B3DCF7A70F12BDD11ABE34DF323183C035 PUSH1 0x0 SHL PUSH2 0x1E0E JUMP JUMPDEST PUSH1 0x40 MLOAD PUSH32 0x400F9FB800000000000000000000000000000000000000000000000000000000 DUP2 MSTORE PUSH1 0x4 ADD PUSH1 0x40 MLOAD DUP1 SWAP2 SUB SWAP1 REVERT JUMPDEST PUSH2 0x1A5E PUSH32 0x26232AB07C43DCD7F51C9AB32BD7A69F0F066E982E87067284F534214C7F8EB PUSH1 0x0 SHL PUSH2 0x1E0E JUMP JUMPDEST PUSH2 0x1A8A PUSH32 0x50616ECC1C3A8E923C16F6F1537AC9B2D9871EDB1199CF947020BF69EC6EF621 PUSH1 0x0 SHL PUSH2 0x1E0E JUMP JUMPDEST PUSH2 0x1AB6 PUSH32 0x7B9B50371FFAA528A704D1798E5317A5CBA41890CF3593B58FF199DDBBF834CA PUSH1 0x0 SHL PUSH2 0x1E0E JUMP JUMPDEST PUSH1 0x0 PUSH20 0xFFFFFFFFFFFFFFFFFFFFFFFFFFFFFFFFFFFFFFFF AND PUSH1 0x2 PUSH1 0x0 SWAP1 SLOAD SWAP1 PUSH2 0x100 EXP SWAP1 DIV PUSH20 0xFFFFFFFFFFFFFFFFFFFFFFFFFFFFFFFFFFFFFFFF AND PUSH20 0xFFFFFFFFFFFFFFFFFFFFFFFFFFFFFFFFFFFFFFFF AND EQ DUP1 PUSH2 0x1B4B JUMPI POP DUP1 PUSH1 0x2 PUSH1 0x0 SWAP1 SLOAD SWAP1 PUSH2 0x100 EXP SWAP1 DIV PUSH20 0xFFFFFFFFFFFFFFFFFFFFFFFFFFFFFFFFFFFFFFFF AND PUSH20 0xFFFFFFFFFFFFFFFFFFFFFFFFFFFFFFFFFFFFFFFF AND BALANCE LT JUMPDEST ISZERO PUSH2 0x1BAE JUMPI PUSH2 0x1B7C PUSH32 0x46BAD0F2150AC4BF2AC042EB74B6E669A7F0586020DB3598278A61C4B9F67DD0 PUSH1 0x0 SHL PUSH2 0x1E0E JUMP JUMPDEST PUSH1 0x40 MLOAD PUSH32 0xF06294A300000000000000000000000000000000000000000000000000000000 DUP2 MSTORE PUSH1 0x4 ADD PUSH1 0x40 MLOAD DUP1 SWAP2 SUB SWAP1 REVERT JUMPDEST PUSH2 0x1BDA PUSH32 0x69B7510F177DEF550123DA0E3993855DAC263E501BE1A54796058A436FA5BD2E PUSH1 0x0 SHL PUSH2 0x1E0E JUMP JUMPDEST PUSH2 0x1C06 PUSH32 0xE3552543074CB9E0D344BC1204D27F5508ED8EFAC92CBA13279AF99606E5B850 PUSH1 0x0 SHL PUSH2 0x1E0E JUMP JUMPDEST PUSH2 0x1C32 PUSH32 0x5310DEAFD878AB102E011FAB77F506C3A46D76E653053D4D249ECAA05D5F976D PUSH1 0x0 SHL PUSH2 0x1E0E JUMP JUMPDEST PUSH2 0x3EB CALLVALUE PUSH2 0x3E8 PUSH2 0x1C43 SWAP2 SWAP1 PUSH2 0x2239 JUMP JUMPDEST PUSH2 0x1C4D SWAP2 SWAP1 PUSH2 0x22AA JUMP JUMPDEST PUSH1 0x0 DUP1 CALLER PUSH20 0xFFFFFFFFFFFFFFFFFFFFFFFFFFFFFFFFFFFFFFFF AND PUSH20 0xFFFFFFFFFFFFFFFFFFFFFFFFFFFFFFFFFFFFFFFF AND DUP2 MSTORE PUSH1 0x20 ADD SWAP1 DUP2 MSTORE PUSH1 0x20 ADD PUSH1 0x0 KECCAK256 PUSH1 0x0 DUP3 DUP3 SLOAD PUSH2 0x1C9A SWAP2 SWAP1 PUSH2 0x2205 JUMP JUMPDEST SWAP3 POP POP DUP2 SWAP1 SSTORE POP PUSH2 0x1CCD PUSH32 0x7DE41A1C0B29A652E6FA3EC2FED66F84929D74B2520BF38D053C3A2326E3DD7A PUSH1 0x0 SHL PUSH2 0x1E0E JUMP JUMPDEST PUSH2 0x1CF9 PUSH32 0x137AF0620F5B9ACF57763029DC63FDFF45F1A5A099446470002B3F4627EF2C24 PUSH1 0x0 SHL PUSH2 0x1E0E JUMP JUMPDEST PUSH2 0x1D01 PUSH2 0x1E11 JUMP JUMPDEST PUSH2 0x1D2D PUSH32 0x7AC965377C1628740CB41B5B2A8A1B2F407B320200C6E8C354938889AAA47C10 PUSH1 0x0 SHL PUSH2 0x1E0E JUMP JUMPDEST PUSH2 0x1D59 PUSH32 0xE73A9165375E6DE789E92B7C3063C681FD26433C076FC6C3D2B10B45586585B1 PUSH1 0x0 SHL PUSH2 0x1E0E JUMP JUMPDEST PUSH32 0x0 PUSH20 0xFFFFFFFFFFFFFFFFFFFFFFFFFFFFFFFFFFFFFFFF AND PUSH2 0x8FC CALLVALUE SWAP1 DUP2 ISZERO MUL SWAP1 PUSH1 0x40 MLOAD PUSH1 0x0 PUSH1 0x40 MLOAD DUP1 DUP4 SUB DUP2 DUP6 DUP9 DUP9 CALL SWAP4 POP POP POP POP ISZERO DUP1 ISZERO PUSH2 0x1DBF JUMPI RETURNDATASIZE PUSH1 0x0 DUP1 RETURNDATACOPY RETURNDATASIZE PUSH1 0x0 REVERT JUMPDEST POP POP JUMP JUMPDEST PUSH1 0x3 PUSH1 0x20 MSTORE DUP1 PUSH1 0x0 MSTORE PUSH1 0x40 PUSH1 0x0 KECCAK256 PUSH1 0x0 SWAP2 POP SLOAD SWAP1 PUSH2 0x100 EXP SWAP1 DIV PUSH20 0xFFFFFFFFFFFFFFFFFFFFFFFFFFFFFFFFFFFFFFFF AND DUP2 JUMP JUMPDEST PUSH1 0x0 PUSH1 0x20 MSTORE DUP1 PUSH1 0x0 MSTORE PUSH1 0x40 PUSH1 0x0 KECCAK256 PUSH1 0x0 SWAP2 POP SWAP1 POP SLOAD DUP2 JUMP JUMPDEST POP JUMP JUMPDEST PUSH2 0x1E3D PUSH32 0xE3178C281EDD17E86EDF0F652D999A9C8B8F7828F673307B1CAE423D8B949236 PUSH1 0x0 SHL PUSH2 0x1E0E JUMP JUMPDEST PUSH2 0x1E69 PUSH32 0xD33E41A55107D5FA5C252B21605A3D392D3B1DCA0A4EDA9E2459EC592E23687C PUSH1 0x0 SHL PUSH2 0x1E0E JUMP JUMPDEST PUSH2 0x1E95 PUSH32 0xE74AD62008EBE5425C7EBC477F16C17706CF6AEE357FA1BBFEC096FC18723776 PUSH1 0x0 SHL PUSH2 0x1E0E JUMP JUMPDEST PUSH1 0x1 PUSH1 0x4 PUSH1 0x0 DUP3 DUP3 SLOAD PUSH2 0x1EA8 SWAP2 SWAP1 PUSH2 0x2205 JUMP JUMPDEST SWAP3 POP POP DUP2 SWAP1 SSTORE POP PUSH2 0x1EDB PUSH32 0xACDD3EA1802E38F0F9D22E565AF0AE3A49C8F266AA9EA969894ACB5C10903F31 PUSH1 0x0 SHL PUSH2 0x1E0E JUMP JUMPDEST PUSH2 0x1F07 PUSH32 0x14173C7D8928439337917C5F6E78B37088EFC95A02E06B7DB8945B26A1329E78 PUSH1 0x0 SHL PUSH2 0x1E0E JUMP JUMPDEST CALLER PUSH1 0x3 PUSH1 0x0 PUSH1 0x4 SLOAD DUP2 MSTORE PUSH1 0x20 ADD SWAP1 DUP2 MSTORE PUSH1 0x20 ADD PUSH1 0x0 KECCAK256 PUSH1 0x0 PUSH2 0x100 EXP DUP2 SLOAD DUP2 PUSH20 0xFFFFFFFFFFFFFFFFFFFFFFFFFFFFFFFFFFFFFFFF MUL NOT AND SWAP1 DUP4 PUSH20 0xFFFFFFFFFFFFFFFFFFFFFFFFFFFFFFFFFFFFFFFF AND MUL OR SWAP1 SSTORE POP JUMP JUMPDEST PUSH1 0x0 PUSH20 0xFFFFFFFFFFFFFFFFFFFFFFFFFFFFFFFFFFFFFFFF DUP3 AND SWAP1 POP SWAP2 SWAP1 POP JUMP JUMPDEST PUSH1 0x0 DUP2 SWAP1 POP SWAP2 SWAP1 POP JUMP JUMPDEST PUSH1 0x0 PUSH2 0x1FA2 PUSH2 0x1F9D PUSH2 0x1F98 DUP5 PUSH2 0x1F5D JUMP JUMPDEST PUSH2 0x1F7D JUMP JUMPDEST PUSH2 0x1F5D JUMP JUMPDEST SWAP1 POP SWAP2 SWAP1 POP JUMP JUMPDEST PUSH1 0x0 PUSH2 0x1FB4 DUP3 PUSH2 0x1F87 JUMP JUMPDEST SWAP1 POP SWAP2 SWAP1 POP JUMP JUMPDEST PUSH1 0x0 PUSH2 0x1FC6 DUP3 PUSH2 0x1FA9 JUMP JUMPDEST SWAP1 POP SWAP2 SWAP1 POP JUMP JUMPDEST PUSH2 0x1FD6 DUP2 PUSH2 0x1FBB JUMP JUMPDEST DUP3 MSTORE POP POP JUMP JUMPDEST PUSH1 0x0 PUSH1 0x20 DUP3 ADD SWAP1 POP PUSH2 0x1FF1 PUSH1 0x0 DUP4 ADD DUP5 PUSH2 0x1FCD JUMP JUMPDEST SWAP3 SWAP2 POP POP JUMP JUMPDEST PUSH1 0x0 DUP2 SWAP1 POP SWAP2 SWAP1 POP JUMP JUMPDEST PUSH2 0x200A DUP2 PUSH2 0x1FF7 JUMP JUMPDEST DUP3 MSTORE POP POP JUMP JUMPDEST PUSH1 0x0 PUSH1 0x20 DUP3 ADD SWAP1 POP PUSH2 0x2025 PUSH1 0x0 DUP4 ADD DUP5 PUSH2 0x2001 JUMP JUMPDEST SWAP3 SWAP2 POP POP JUMP JUMPDEST PUSH1 0x0 PUSH2 0x2036 DUP3 PUSH2 0x1F5D JUMP JUMPDEST SWAP1 POP SWAP2 SWAP1 POP JUMP JUMPDEST PUSH2 0x2046 DUP2 PUSH2 0x202B JUMP JUMPDEST DUP3 MSTORE POP POP JUMP JUMPDEST PUSH1 0x0 PUSH1 0x20 DUP3 ADD SWAP1 POP PUSH2 0x2061 PUSH1 0x0 DUP4 ADD DUP5 PUSH2 0x203D JUMP JUMPDEST SWAP3 SWAP2 POP POP JUMP JUMPDEST PUSH1 0x0 DUP1 REVERT JUMPDEST PUSH2 0x2075 DUP2 PUSH2 0x202B JUMP JUMPDEST DUP2 EQ PUSH2 0x2080 JUMPI PUSH1 0x0 DUP1 REVERT JUMPDEST POP JUMP JUMPDEST PUSH1 0x0 DUP2 CALLDATALOAD SWAP1 POP PUSH2 0x2092 DUP2 PUSH2 0x206C JUMP JUMPDEST SWAP3 SWAP2 POP POP JUMP JUMPDEST PUSH1 0x0 PUSH1 0x20 DUP3 DUP5 SUB SLT ISZERO PUSH2 0x20AE JUMPI PUSH2 0x20AD PUSH2 0x2067 JUMP JUMPDEST JUMPDEST PUSH1 0x0 PUSH2 0x20BC DUP5 DUP3 DUP6 ADD PUSH2 0x2083 JUMP JUMPDEST SWAP2 POP POP SWAP3 SWAP2 POP POP JUMP JUMPDEST PUSH2 0x20CE DUP2 PUSH2 0x1FF7 JUMP JUMPDEST DUP2 EQ PUSH2 0x20D9 JUMPI PUSH1 0x0 DUP1 REVERT JUMPDEST POP JUMP JUMPDEST PUSH1 0x0 DUP2 CALLDATALOAD SWAP1 POP PUSH2 0x20EB DUP2 PUSH2 0x20C5 JUMP JUMPDEST SWAP3 SWAP2 POP POP JUMP JUMPDEST PUSH1 0x0 PUSH1 0x20 DUP3 DUP5 SUB SLT ISZERO PUSH2 0x2107 JUMPI PUSH2 0x2106 PUSH2 0x2067 JUMP JUMPDEST JUMPDEST PUSH1 0x0 PUSH2 0x2115 DUP5 DUP3 DUP6 ADD PUSH2 0x20DC JUMP JUMPDEST SWAP2 POP POP SWAP3 SWAP2 POP POP JUMP JUMPDEST PUSH1 0x0 DUP2 MLOAD SWAP1 POP PUSH2 0x212D DUP2 PUSH2 0x20C5 JUMP JUMPDEST SWAP3 SWAP2 POP POP JUMP JUMPDEST PUSH1 0x0 PUSH1 0x20 DUP3 DUP5 SUB SLT ISZERO PUSH2 0x2149 JUMPI PUSH2 0x2148 PUSH2 0x2067 JUMP JUMPDEST JUMPDEST PUSH1 0x0 PUSH2 0x2157 DUP5 DUP3 DUP6 ADD PUSH2 0x211E JUMP JUMPDEST SWAP2 POP POP SWAP3 SWAP2 POP POP JUMP JUMPDEST PUSH1 0x0 DUP2 MLOAD SWAP1 POP PUSH2 0x216F DUP2 PUSH2 0x206C JUMP JUMPDEST SWAP3 SWAP2 POP POP JUMP JUMPDEST PUSH1 0x0 PUSH1 0x20 DUP3 DUP5 SUB SLT ISZERO PUSH2 0x218B JUMPI PUSH2 0x218A PUSH2 0x2067 JUMP JUMPDEST JUMPDEST PUSH1 0x0 PUSH2 0x2199 DUP5 DUP3 DUP6 ADD PUSH2 0x2160 JUMP JUMPDEST SWAP2 POP POP SWAP3 SWAP2 POP POP JUMP JUMPDEST PUSH32 0x4E487B7100000000000000000000000000000000000000000000000000000000 PUSH1 0x0 MSTORE PUSH1 0x11 PUSH1 0x4 MSTORE PUSH1 0x24 PUSH1 0x0 REVERT JUMPDEST PUSH1 0x0 PUSH2 0x21DC DUP3 PUSH2 0x1FF7 JUMP JUMPDEST SWAP2 POP PUSH2 0x21E7 DUP4 PUSH2 0x1FF7 JUMP JUMPDEST SWAP3 POP DUP3 DUP3 SUB SWAP1 POP DUP2 DUP2 GT ISZERO PUSH2 0x21FF JUMPI PUSH2 0x21FE PUSH2 0x21A2 JUMP JUMPDEST JUMPDEST SWAP3 SWAP2 POP POP JUMP JUMPDEST PUSH1 0x0 PUSH2 0x2210 DUP3 PUSH2 0x1FF7 JUMP JUMPDEST SWAP2 POP PUSH2 0x221B DUP4 PUSH2 0x1FF7 JUMP JUMPDEST SWAP3 POP DUP3 DUP3 ADD SWAP1 POP DUP1 DUP3 GT ISZERO PUSH2 0x2233 JUMPI PUSH2 0x2232 PUSH2 0x21A2 JUMP JUMPDEST JUMPDEST SWAP3 SWAP2 POP POP JUMP JUMPDEST PUSH1 0x0 PUSH2 0x2244 DUP3 PUSH2 0x1FF7 JUMP JUMPDEST SWAP2 POP PUSH2 0x224F DUP4 PUSH2 0x1FF7 JUMP JUMPDEST SWAP3 POP DUP3 DUP3 MUL PUSH2 0x225D DUP2 PUSH2 0x1FF7 JUMP JUMPDEST SWAP2 POP DUP3 DUP3 DIV DUP5 EQ DUP4 ISZERO OR PUSH2 0x2274 JUMPI PUSH2 0x2273 PUSH2 0x21A2 JUMP JUMPDEST JUMPDEST POP SWAP3 SWAP2 POP POP JUMP JUMPDEST PUSH32 0x4E487B7100000000000000000000000000000000000000000000000000000000 PUSH1 0x0 MSTORE PUSH1 0x12 PUSH1 0x4 MSTORE PUSH1 0x24 PUSH1 0x0 REVERT JUMPDEST PUSH1 0x0 PUSH2 0x22B5 DUP3 PUSH2 0x1FF7 JUMP JUMPDEST SWAP2 POP PUSH2 0x22C0 DUP4 PUSH2 0x1FF7 JUMP JUMPDEST SWAP3 POP DUP3 PUSH2 0x22D0 JUMPI PUSH2 0x22CF PUSH2 0x227B JUMP JUMPDEST JUMPDEST DUP3 DUP3 DIV SWAP1 POP SWAP3 SWAP2 POP POP JUMP INVALID LOG2 PUSH5 0x6970667358 0x22 SLT KECCAK256 0xA8 EXTCODECOPY SWAP12 SAR SWAP6 0x5E 0xD9 LOG3 0x2E GASPRICE 0xE4 0xC0 ISZERO 0xE1 JUMP DIFFICULTY PUSH21 0xEE2060E0CC8C332865964EF3298E4764736F6C6343 STOP ADDMOD GT STOP CALLER "
        },
        "methodIdentifiers": {
          "Owner()": "b4a99a4e",
          "dequeue()": "957908d1",
          "first()": "3df4ddf4",
          "goerliBridgeInstance()": "06557c31",
          "last()": "47799da8",
          "lockTokensForGoerli(uint256)": "c637aa97",
          "lockedForGoerliETH(address)": "e3d66f68",
          "mockOwnerGoerliBridgeAddress(address)": "bd31a23a",
          "optimismBridgedETH(address)": "c5aaccf7",
          "ownerAddBridgeLiqudity()": "8521eebe",
          "ownerRemoveBridgeLiqudity()": "08dd057a",
          "ownerUnlockOptimismETH()": "515b74f2",
          "queue(uint256)": "ddf0b009"
        }
      }
    }
  }
}