{
  "contracts/MockBridge.sol": {
    "MockGoerliBridge": {
      "abi": [
        {
          "inputs": [],
          "stateMutability": "nonpayable",
          "type": "constructor"
        },
        {
          "inputs": [],
          "name": "bridgeEmpty",
          "type": "error"
        },
        {
          "inputs": [],
          "name": "bridgeOnOtherSideNeedsLiqudity",
          "type": "error"
        },
        {
          "inputs": [],
          "name": "bridgedAlready",
          "type": "error"
        },
        {
          "inputs": [],
          "name": "msgValueDoesNotCoverFee",
          "type": "error"
        },
        {
          "inputs": [],
          "name": "msgValueLessThan1000",
          "type": "error"
        },
        {
          "inputs": [],
          "name": "msgValueZero",
          "type": "error"
        },
        {
          "inputs": [],
          "name": "notExternalBridge",
          "type": "error"
        },
        {
          "inputs": [],
          "name": "notOwnerAddress",
          "type": "error"
        },
        {
          "inputs": [],
          "name": "ownerBridgeUsersBeforeWithdraw",
          "type": "error"
        },
        {
          "inputs": [],
          "name": "queueIsEmpty",
          "type": "error"
        },
        {
          "inputs": [],
          "name": "queueNotEmpty",
          "type": "error"
        },
        {
          "inputs": [],
          "name": "Owner",
          "outputs": [
            {
              "internalType": "address",
              "name": "",
              "type": "address"
            }
          ],
          "stateMutability": "view",
          "type": "function"
        },
        {
          "inputs": [],
          "name": "dequeue",
          "outputs": [],
          "stateMutability": "nonpayable",
          "type": "function"
        },
        {
          "inputs": [],
          "name": "first",
          "outputs": [
            {
              "internalType": "uint256",
              "name": "",
              "type": "uint256"
            }
          ],
          "stateMutability": "view",
          "type": "function"
        },
        {
          "inputs": [
            {
              "internalType": "address",
              "name": "",
              "type": "address"
            }
          ],
          "name": "goerliBridgedETH",
          "outputs": [
            {
              "internalType": "uint256",
              "name": "",
              "type": "uint256"
            }
          ],
          "stateMutability": "view",
          "type": "function"
        },
        {
          "inputs": [],
          "name": "last",
          "outputs": [
            {
              "internalType": "uint256",
              "name": "",
              "type": "uint256"
            }
          ],
          "stateMutability": "view",
          "type": "function"
        },
        {
          "inputs": [
            {
              "internalType": "uint256",
              "name": "bridgeAmount",
              "type": "uint256"
            }
          ],
          "name": "lockTokensForOptimism",
          "outputs": [],
          "stateMutability": "payable",
          "type": "function"
        },
        {
          "inputs": [
            {
              "internalType": "address",
              "name": "",
              "type": "address"
            }
          ],
          "name": "lockedForOptimismETH",
          "outputs": [
            {
              "internalType": "uint256",
              "name": "",
              "type": "uint256"
            }
          ],
          "stateMutability": "view",
          "type": "function"
        },
        {
          "inputs": [
            {
              "internalType": "address",
              "name": "_token",
              "type": "address"
            }
          ],
          "name": "mockOwnerOptimismBridgeAddress",
          "outputs": [],
          "stateMutability": "nonpayable",
          "type": "function"
        },
        {
          "inputs": [],
          "name": "optimismBridgeInstance",
          "outputs": [
            {
              "internalType": "contract MockOptimismBridge",
              "name": "",
              "type": "address"
            }
          ],
          "stateMutability": "view",
          "type": "function"
        },
        {
          "inputs": [],
          "name": "ownerAddBridgeLiqudity",
          "outputs": [],
          "stateMutability": "payable",
          "type": "function"
        },
        {
          "inputs": [],
          "name": "ownerRemoveBridgeLiqudity",
          "outputs": [],
          "stateMutability": "nonpayable",
          "type": "function"
        },
        {
          "inputs": [],
          "name": "ownerUnlockOptimismETH",
          "outputs": [],
          "stateMutability": "nonpayable",
          "type": "function"
        },
        {
          "inputs": [
            {
              "internalType": "uint256",
              "name": "",
              "type": "uint256"
            }
          ],
          "name": "queue",
          "outputs": [
            {
              "internalType": "address",
              "name": "",
              "type": "address"
            }
          ],
          "stateMutability": "view",
          "type": "function"
        }
      ],
      "evm": {
        "bytecode": {
          "linkReferences": {},
          "object": "60a060405260016005553480156200001657600080fd5b506200004b7f40a2f1377d7953581e26d9a96c6cba6446fbdb8c68a01a448c56c4f54886b50360001b620000ed60201b60201c565b6200007f7f5785bae68073e625a96873396cd1382066708d8fe089ba60e6e1f294dcfc22e460001b620000ed60201b60201c565b620000b37f0b27800777a630c4e5b99dca33f63addbfa031c601da77e9288a22d6178e032a60001b620000ed60201b60201c565b3373ffffffffffffffffffffffffffffffffffffffff1660808173ffffffffffffffffffffffffffffffffffffffff1681525050620000f0565b50565b6080516122086200012f600039600081816106370152818161073001528181610fce01528181611533015281816115db0152611c9d01526122086000f3fe6080604052600436106100c25760003560e01c80638521eebe1161007f578063b4a99a4e11610059578063b4a99a4e14610211578063d06019f51461023c578063ddf0b00914610265578063e76438ab146102a2576100c2565b80638521eebe146101b3578063957908d1146101bd578063abb6b5a1146101d4576100c2565b806308dd057a146100c75780633df4ddf4146100de57806347799da814610109578063515b74f2146101345780637bb1fdd21461014b5780637f6c6d1014610188575b600080fd5b3480156100d357600080fd5b506100dc6102be565b005b3480156100ea57600080fd5b506100f361069e565b6040516101009190611e6d565b60405180910390f35b34801561011557600080fd5b5061011e6106a4565b60405161012b9190611e6d565b60405180910390f35b34801561014057600080fd5b506101496106aa565b005b34801561015757600080fd5b50610172600480360381019061016d9190611eeb565b610f0a565b60405161017f9190611e6d565b60405180910390f35b34801561019457600080fd5b5061019d610f22565b6040516101aa9190611f77565b60405180910390f35b6101bb610f48565b005b3480156101c957600080fd5b506101d2611195565b005b3480156101e057600080fd5b506101fb60048036038101906101f69190611eeb565b611519565b6040516102089190611e6d565b60405180910390f35b34801561021d57600080fd5b50610226611531565b6040516102339190611fa1565b60405180910390f35b34801561024857600080fd5b50610263600480360381019061025e9190611eeb565b611555565b005b34801561027157600080fd5b5061028c60048036038101906102879190611fe8565b611752565b6040516102999190611fa1565b60405180910390f35b6102bc60048036038101906102b79190611fe8565b611785565b005b6102ea7fbbad0c0f67a88f95fa166b2637cfc273bbca57b9fef32bb57f7e148670b8062160001b611d05565b6103167f8cecce3c04b5930ac60687856b72ee6aebbcc05e4e53c2354364e616a1be988b60001b611d05565b6103427f1408197091849300d803dc34c6c652d1541c07eb08a06e42dd12739c2f2e430360001b611d05565b600047036103a8576103767f1a378b6757202cc12b4c91609923e234e57ecbc9cf4e9c1b84edd5ecdb6bef5b60001b611d05565b6040517f7a1f291700000000000000000000000000000000000000000000000000000000815260040160405180910390fd5b6103d47ff75c2fe03c7159a77c45fe84fd10da137c1bf8a31551e4bce9b63bfb13942a5a60001b611d05565b6104007f198980fe365e9c7bfdbf73874eaa435020cc44fa092936f133dd01463480c05860001b611d05565b61042c7f5e4153b737a498527fa664f962a715c45ccd0ce99481c8c3a2114625ad45704060001b611d05565b600260009054906101000a900473ffffffffffffffffffffffffffffffffffffffff1673ffffffffffffffffffffffffffffffffffffffff16633df4ddf46040518163ffffffff1660e01b8152600401602060405180830381865afa158015610499573d6000803e3d6000fd5b505050506040513d601f19601f820116820180604052508101906104bd919061202a565b600260009054906101000a900473ffffffffffffffffffffffffffffffffffffffff1673ffffffffffffffffffffffffffffffffffffffff166347799da86040518163ffffffff1660e01b8152600401602060405180830381865afa15801561052a573d6000803e3d6000fd5b505050506040513d601f19601f8201168201806040525081019061054e919061202a565b106105b15761057f7f3df2ea7978cfa93f18412752e8b3882c061df3cbbc5b555478f343bef91e96fa60001b611d05565b6040517f230accfd00000000000000000000000000000000000000000000000000000000815260040160405180910390fd5b6105dd7f93892903fa0cadeb60ad47c67dc58b0ab4eca05093cf3a89dde91d3392d80e8060001b611d05565b6106097ffbca49e9c03b3fc361c75184a39ad2ab0d428532d9a1270bd27ce4932ff7834d60001b611d05565b6106357f2372c2e98b03f1591cd312fa4abd475874e53dfe0d969c70abf87085139a699260001b611d05565b7f000000000000000000000000000000000000000000000000000000000000000073ffffffffffffffffffffffffffffffffffffffff166108fc479081150290604051600060405180830381858888f1935050505015801561069b573d6000803e3d6000fd5b50565b60055481565b60045481565b6106d67fde1a1446d7ec70d306c4237068e09ee2796aac4da408eaffdcea2ae6da4cb12c60001b611d05565b6107027f7d6b43e3e2f8363c67f3214333ea37b569c2c9d93c1f7d095f3b00819c155ea960001b611d05565b61072e7f608e468ade1d0af8f81aad1f3c9d5d4adbed59789a2873afd971271f0e3d02bb60001b611d05565b7f000000000000000000000000000000000000000000000000000000000000000073ffffffffffffffffffffffffffffffffffffffff163373ffffffffffffffffffffffffffffffffffffffff16146107df576107ad7f533e23229f1303152c263898c5f56ae53485a838ebdafe48ef3c7317e219344060001b611d05565b6040517f1ee8575e00000000000000000000000000000000000000000000000000000000815260040160405180910390fd5b61080b7f1755e455426703dd45d79a701645adfdefd7a93fa4729671e50ab44f3c99b3a760001b611d05565b6108377fe993ead29d174aa68c507fda7d34d5b91a2cf733baf36ab09ab2219bbc0f1f7660001b611d05565b6108637f0e570da68ce3a9b0be9a40743eccfa58f8c9102e9b7f35058cc4f7177a0a00ba60001b611d05565b600260009054906101000a900473ffffffffffffffffffffffffffffffffffffffff1673ffffffffffffffffffffffffffffffffffffffff16633df4ddf46040518163ffffffff1660e01b8152600401602060405180830381865afa1580156108d0573d6000803e3d6000fd5b505050506040513d601f19601f820116820180604052508101906108f4919061202a565b600260009054906101000a900473ffffffffffffffffffffffffffffffffffffffff1673ffffffffffffffffffffffffffffffffffffffff166347799da86040518163ffffffff1660e01b8152600401602060405180830381865afa158015610961573d6000803e3d6000fd5b505050506040513d601f19601f82011682018060405250810190610985919061202a565b10156109e9576109b77f1eb5d54fbac2940f8283d5a6762a10381788de664d2a2b7e797d33ebb816743d60001b611d05565b6040517f5e61bb8700000000000000000000000000000000000000000000000000000000815260040160405180910390fd5b610a157f4c1e4ea933982339483a02020ce5902c93e1fcdc2d279f08a18837ec1d8ee4f560001b611d05565b610a417f1512fa360529ac1c8c4c7ac167da8e83939092ecb6192b189e7ecadbb9bc1d1e60001b611d05565b610a6d7fcc91bf3f96f931a96e7decb38ede1be58bb7e846cc0a0b8ed956d930ccbee14060001b611d05565b6000600260009054906101000a900473ffffffffffffffffffffffffffffffffffffffff1673ffffffffffffffffffffffffffffffffffffffff1663ddf0b009600260009054906101000a900473ffffffffffffffffffffffffffffffffffffffff1673ffffffffffffffffffffffffffffffffffffffff166347799da86040518163ffffffff1660e01b8152600401602060405180830381865afa158015610b1a573d6000803e3d6000fd5b505050506040513d601f19601f82011682018060405250810190610b3e919061202a565b6040518263ffffffff1660e01b8152600401610b5a9190611e6d565b602060405180830381865afa158015610b77573d6000803e3d6000fd5b505050506040513d601f19601f82011682018060405250810190610b9b919061206c565b9050610bc97f234755fbb7df4d2dd54aef2847fa521e018a734e8d64fb9c4cda54a392ff145260001b611d05565b610bf57f4a3a03060dee4fc569d843857c1cd5881a913691bcfee7a897beb205eb2f5d1f60001b611d05565b600260009054906101000a900473ffffffffffffffffffffffffffffffffffffffff1673ffffffffffffffffffffffffffffffffffffffff1663957908d16040518163ffffffff1660e01b8152600401600060405180830381600087803b158015610c5f57600080fd5b505af1158015610c73573d6000803e3d6000fd5b50505050610ca37f925cc899b2b3129983701709e022a4e1b7b78706b94b213be7b22b30661e4e6160001b611d05565b610ccf7fad9f2c3be6ba845d34ca855e928806555b3c8c91d912eb4e0349581ab4b1716260001b611d05565b6000600160008373ffffffffffffffffffffffffffffffffffffffff1673ffffffffffffffffffffffffffffffffffffffff16815260200190815260200160002054600260009054906101000a900473ffffffffffffffffffffffffffffffffffffffff1673ffffffffffffffffffffffffffffffffffffffff1663e3d66f68846040518263ffffffff1660e01b8152600401610d6c9190611fa1565b602060405180830381865afa158015610d89573d6000803e3d6000fd5b505050506040513d601f19601f82011682018060405250810190610dad919061202a565b610db791906120c8565b9050610de57f83bc2f5e45b47997c6d4c375134cea4f0d8af2b6de93f06d0ff34ecb62dcaf1260001b611d05565b610e117fced4b1b50a625433ef3de402a3c2c28a50ce6d814e32e5b593514f08663f3b5860001b611d05565b80600160008473ffffffffffffffffffffffffffffffffffffffff1673ffffffffffffffffffffffffffffffffffffffff1681526020019081526020016000206000828254610e6091906120fc565b92505081905550610e937f6194199ee726016eb8c7ad1244388999d8ffd1f2dfa87c632042f364fa0ce1d760001b611d05565b610ebf7f4c6f61843924f6084a58103d485730ff693b3160fe1f5ec43845d7e1157ad0b260001b611d05565b8173ffffffffffffffffffffffffffffffffffffffff166108fc829081150290604051600060405180830381858888f19350505050158015610f05573d6000803e3d6000fd5b505050565b60016020528060005260406000206000915090505481565b600260009054906101000a900473ffffffffffffffffffffffffffffffffffffffff1681565b610f747f19f7f2752a0894866dba472e0c8b2d0dc181846e0a6b1129f57c10c7d47aacee60001b611d05565b610fa07f6265cf21c74ec435b2b8ed694e454cf36a4c59d66460e2996a56376d993ef0cf60001b611d05565b610fcc7f3cbeb1a803b3f2a6a1e298f716914f8fa31c6e25b700ba6b8ac45bd19cd0c86a60001b611d05565b7f000000000000000000000000000000000000000000000000000000000000000073ffffffffffffffffffffffffffffffffffffffff163373ffffffffffffffffffffffffffffffffffffffff161461107d5761104b7fb752bf3c40e1bdaa215545ac741b067ab0b7504e09cdac669a929d77bd6c3c9160001b611d05565b6040517f1ee8575e00000000000000000000000000000000000000000000000000000000815260040160405180910390fd5b6110a97f5a43143de4d2a405af2a1d36f11ea13b5197ce37dac89a89f150301426bc7e3560001b611d05565b6110d57fc9f3abe9b65ce2ba70bab17a3e5eda182595d8404d688fb194aee1435ad5f3e060001b611d05565b6111017f778a98740f2eb351a1572d6f089e0061267a08e1cb694265fc88ace1d636901260001b611d05565b60003403611167576111357f187749aab59525347f559956cdd6392d95925cea13a50b4b47447c8234f1b40960001b611d05565b6040517f0cdb5d8500000000000000000000000000000000000000000000000000000000815260040160405180910390fd5b6111937f53e4ea328694fa3ff1b3069f209d02d57944e4632c5fe5815dc90fe4f8ff90b860001b611d05565b565b6111c17f81df54fd4c7ea864cd1727ced81c55815b8d7a076766c656c9c13e11dc03901e60001b611d05565b6111ed7fe2fac6e05144cb7e4920cd3a1f2024c9e8523abb1064bec730292d27f97271f460001b611d05565b6112197ff6e7ad30ff018d47e30ec204cf71144764c53916d98d14487c52176d2de6714a60001b611d05565b600260009054906101000a900473ffffffffffffffffffffffffffffffffffffffff1673ffffffffffffffffffffffffffffffffffffffff163373ffffffffffffffffffffffffffffffffffffffff161415806112c45750600073ffffffffffffffffffffffffffffffffffffffff16600260009054906101000a900473ffffffffffffffffffffffffffffffffffffffff1673ffffffffffffffffffffffffffffffffffffffff16145b15611327576112f57f49592190701a693bf7bc1078b1babac3696179663de13254a5ec1f3e6f10f64860001b611d05565b6040517f4da1bc3400000000000000000000000000000000000000000000000000000000815260040160405180910390fd5b6113537fbe70ea274b57de5ba7df9bf54f58e26bcbae4281c08205c269af95d2dfd19c8960001b611d05565b61137f7fdbf7c8d0c51ae5029c1cb2198e84e92d740d2cccabdbc533e239d67a97a330ef60001b611d05565b6113ab7f8bbfc06193e7bcabec1a5d60a063401fb46c65219c9f4f56e272b700d5ec662960001b611d05565b6005546004541015611415576113e37f4b287158f96cc1d6b5bb8d4db92156b08bfa8430bc9e9475cc0a50612e41ea2660001b611d05565b6040517f5e61bb8700000000000000000000000000000000000000000000000000000000815260040160405180910390fd5b6114417f2bf483b1fc2123a5a2d122bb5548177280887f6d8fddae09c2e212828bddf37360001b611d05565b61146d7fb0cc7824519d58db13e9c4cb968a2ae5a3c7608f3f3175bb6175afa96fd2258e60001b611d05565b60036000600554815260200190815260200160002060006101000a81549073ffffffffffffffffffffffffffffffffffffffff02191690556114d17f3996e902479919f294eaec805a8cdbe1ede40c7ec2e02594a500385dd629ac3d60001b611d05565b6114fd7f6a92e3d2fa98d0e166c0527b50217c62810d35e2395c63fb1aa44b04804ae8cd60001b611d05565b60016005600082825461151091906120fc565b92505081905550565b60006020528060005260406000206000915090505481565b7f000000000000000000000000000000000000000000000000000000000000000081565b6115817fe26059617f20620af9075f550d034d3469b67b24fc5d26d13c19d6d01d9a621b60001b611d05565b6115ad7f2c333c4dd912fec024bd33b18d85b8b408b86471235544352e304daaa0aaf7d260001b611d05565b6115d97f3dc9c01e410050d6d95aa95e959482ecd9e2b37dbcfe71a8468459a5dd493d9660001b611d05565b7f000000000000000000000000000000000000000000000000000000000000000073ffffffffffffffffffffffffffffffffffffffff163373ffffffffffffffffffffffffffffffffffffffff161461168a576116587fec979c98791e0e35f719f10d940113bf55a5d6e27dc4f60f6bafe11f0e375eee60001b611d05565b6040517f1ee8575e00000000000000000000000000000000000000000000000000000000815260040160405180910390fd5b6116b67f41818cf0439d7757dba5348e178ce300c9a680faa4a827639c634eda07eab55c60001b611d05565b6116e27ff7b8458a3dafc129c7acd5294d31cdced5d428f44ac53f255d5db860a110dddf60001b611d05565b61170e7f944a7667297dc3c05494703bd11d5a6470736376b454639a6d8b605daa12719260001b611d05565b80600260006101000a81548173ffffffffffffffffffffffffffffffffffffffff021916908373ffffffffffffffffffffffffffffffffffffffff16021790555050565b60036020528060005260406000206000915054906101000a900473ffffffffffffffffffffffffffffffffffffffff1681565b6117b17f8138756fee0fa05770aac80e147562882c95cb3684d8b9b3ec8d2fcfcd3c54bb60001b611d05565b6117dd7f1058ccb837e0e9739434e777fb574a770c00a12368d16c7d5d54add3412a80e160001b611d05565b6118097f886a95e13aa0044452848fe0e813d82b215527835355a3a7356f33db21acaf2660001b611d05565b6103e88110156118715761183f7f422e69b81e712eef4da7a368f6a501d3e37c9d765f7e270f6bf69660894dcb9c60001b611d05565b6040517fa9f2d61800000000000000000000000000000000000000000000000000000000815260040160405180910390fd5b61189d7f72da34d6f38b3c083cf942729b701d4949e820fac67f6f94710c9142ef8475cb60001b611d05565b6118c97ffa8ef710207bc1ad37fd3cf659a82b084a869078d05c19f46e4bc72e76b8c8d560001b611d05565b6118f57f5d69b5aff1a22a0b347152e85f6379f69f17da1c5dc4713b378632852d778f6160001b611d05565b6103e8816103eb6119069190612130565b61191091906121a1565b3414611974576119427f70f50f1a0acb106f7cb0e5dc436f98088d38ca45a5f74c135b5c4cd239b9365660001b611d05565b6040517f400f9fb800000000000000000000000000000000000000000000000000000000815260040160405180910390fd5b6119a07ffa790aab8d8b8785e6ec8190a681b907f017b2c3e5b7107a20d59ba3a7e94dd260001b611d05565b6119cc7f3c73f61be752f9bc067416ea0f7193ff93153871e909e6873b4da02b9294895c60001b611d05565b6119f87f55be489e7793c6677ece9de998c221d74eade7fe66b3092166fb59199d45eca360001b611d05565b80600260009054906101000a900473ffffffffffffffffffffffffffffffffffffffff1673ffffffffffffffffffffffffffffffffffffffff16311080611a8d5750600073ffffffffffffffffffffffffffffffffffffffff16600260009054906101000a900473ffffffffffffffffffffffffffffffffffffffff1673ffffffffffffffffffffffffffffffffffffffff16145b15611af057611abe7ff05263e459bb12a78a842ee1ccc5bd1a69ba192356914d08cd9a804cee41d02860001b611d05565b6040517ff06294a300000000000000000000000000000000000000000000000000000000815260040160405180910390fd5b611b1c7f061bea090dfb61b50a9f424714e9471122fa0da7869a4d2c80e9bedd8aa3181e60001b611d05565b611b487feedd0571ef7bb85b611da618507814266e526d2f5c39c1abc9695d2902e2078960001b611d05565b611b747f99f0cf2d541166f6abb6d27da3d0f35614a65d43bd0c3843d4d6511ab7cbc66a60001b611d05565b6103eb346103e8611b859190612130565b611b8f91906121a1565b6000803373ffffffffffffffffffffffffffffffffffffffff1673ffffffffffffffffffffffffffffffffffffffff1681526020019081526020016000206000828254611bdc91906120fc565b92505081905550611c0f7fcdaac4df2be7b5c75756f68f72964d23eec6fc031a058e308f1bcc245505969b60001b611d05565b611c3b7fc22bc0252ed92f3c72e1678db40ac50ab644668210da6615bcb4183ebd57447a60001b611d05565b611c43611d08565b611c6f7fec2b41d4e25c802ddc59fc083d285fd28aea3c1ceffa2f2a68f9d2f890173e9260001b611d05565b611c9b7feb862c16a9675d05644ed06de3cf5f35e6bcf38be7f6c5d057e51fc20aec6aa560001b611d05565b7f000000000000000000000000000000000000000000000000000000000000000073ffffffffffffffffffffffffffffffffffffffff166108fc349081150290604051600060405180830381858888f19350505050158015611d01573d6000803e3d6000fd5b5050565b50565b611d347fcb3fe7466771a87454ac4a22b6956041bb4bbbb64e887a73342c0dac0597519160001b611d05565b611d607f5c3be25f2106a3d561cd10afe3987a67808745179331ebe8c105a1d11c55236560001b611d05565b611d8c7fbf7e21bb5d20bbc34db7eae293217a7f4c0948500bc2487c9fb153a9aa332b0460001b611d05565b600160046000828254611d9f91906120fc565b92505081905550611dd27fc026dedadb7938f204132ffbc8673ccff324c3450c4d49b758633564568bb34c60001b611d05565b611dfe7fedc10efe48112c3a7c2376d65349e77fa33824f92e02fcf8ee6ef9d71da3070f60001b611d05565b3360036000600454815260200190815260200160002060006101000a81548173ffffffffffffffffffffffffffffffffffffffff021916908373ffffffffffffffffffffffffffffffffffffffff160217905550565b6000819050919050565b611e6781611e54565b82525050565b6000602082019050611e826000830184611e5e565b92915050565b600080fd5b600073ffffffffffffffffffffffffffffffffffffffff82169050919050565b6000611eb882611e8d565b9050919050565b611ec881611ead565b8114611ed357600080fd5b50565b600081359050611ee581611ebf565b92915050565b600060208284031215611f0157611f00611e88565b5b6000611f0f84828501611ed6565b91505092915050565b6000819050919050565b6000611f3d611f38611f3384611e8d565b611f18565b611e8d565b9050919050565b6000611f4f82611f22565b9050919050565b6000611f6182611f44565b9050919050565b611f7181611f56565b82525050565b6000602082019050611f8c6000830184611f68565b92915050565b611f9b81611ead565b82525050565b6000602082019050611fb66000830184611f92565b92915050565b611fc581611e54565b8114611fd057600080fd5b50565b600081359050611fe281611fbc565b92915050565b600060208284031215611ffe57611ffd611e88565b5b600061200c84828501611fd3565b91505092915050565b60008151905061202481611fbc565b92915050565b6000602082840312156120405761203f611e88565b5b600061204e84828501612015565b91505092915050565b60008151905061206681611ebf565b92915050565b60006020828403121561208257612081611e88565b5b600061209084828501612057565b91505092915050565b7f4e487b7100000000000000000000000000000000000000000000000000000000600052601160045260246000fd5b60006120d382611e54565b91506120de83611e54565b92508282039050818111156120f6576120f5612099565b5b92915050565b600061210782611e54565b915061211283611e54565b925082820190508082111561212a57612129612099565b5b92915050565b600061213b82611e54565b915061214683611e54565b925082820261215481611e54565b9150828204841483151761216b5761216a612099565b5b5092915050565b7f4e487b7100000000000000000000000000000000000000000000000000000000600052601260045260246000fd5b60006121ac82611e54565b91506121b783611e54565b9250826121c7576121c6612172565b5b82820490509291505056fea264697066735822122051128452b531e32bae23a989de517df51eb4771d7272bb140af731aec1c1cf3764736f6c63430008110033",
          "opcodes": "PUSH1 0xA0 PUSH1 0x40 MSTORE PUSH1 0x1 PUSH1 0x5 SSTORE CALLVALUE DUP1 ISZERO PUSH3 0x16 JUMPI PUSH1 0x0 DUP1 REVERT JUMPDEST POP PUSH3 0x4B PUSH32 0x40A2F1377D7953581E26D9A96C6CBA6446FBDB8C68A01A448C56C4F54886B503 PUSH1 0x0 SHL PUSH3 0xED PUSH1 0x20 SHL PUSH1 0x20 SHR JUMP JUMPDEST PUSH3 0x7F PUSH32 0x5785BAE68073E625A96873396CD1382066708D8FE089BA60E6E1F294DCFC22E4 PUSH1 0x0 SHL PUSH3 0xED PUSH1 0x20 SHL PUSH1 0x20 SHR JUMP JUMPDEST PUSH3 0xB3 PUSH32 0xB27800777A630C4E5B99DCA33F63ADDBFA031C601DA77E9288A22D6178E032A PUSH1 0x0 SHL PUSH3 0xED PUSH1 0x20 SHL PUSH1 0x20 SHR JUMP JUMPDEST CALLER PUSH20 0xFFFFFFFFFFFFFFFFFFFFFFFFFFFFFFFFFFFFFFFF AND PUSH1 0x80 DUP2 PUSH20 0xFFFFFFFFFFFFFFFFFFFFFFFFFFFFFFFFFFFFFFFF AND DUP2 MSTORE POP POP PUSH3 0xF0 JUMP JUMPDEST POP JUMP JUMPDEST PUSH1 0x80 MLOAD PUSH2 0x2208 PUSH3 0x12F PUSH1 0x0 CODECOPY PUSH1 0x0 DUP2 DUP2 PUSH2 0x637 ADD MSTORE DUP2 DUP2 PUSH2 0x730 ADD MSTORE DUP2 DUP2 PUSH2 0xFCE ADD MSTORE DUP2 DUP2 PUSH2 0x1533 ADD MSTORE DUP2 DUP2 PUSH2 0x15DB ADD MSTORE PUSH2 0x1C9D ADD MSTORE PUSH2 0x2208 PUSH1 0x0 RETURN INVALID PUSH1 0x80 PUSH1 0x40 MSTORE PUSH1 0x4 CALLDATASIZE LT PUSH2 0xC2 JUMPI PUSH1 0x0 CALLDATALOAD PUSH1 0xE0 SHR DUP1 PUSH4 0x8521EEBE GT PUSH2 0x7F JUMPI DUP1 PUSH4 0xB4A99A4E GT PUSH2 0x59 JUMPI DUP1 PUSH4 0xB4A99A4E EQ PUSH2 0x211 JUMPI DUP1 PUSH4 0xD06019F5 EQ PUSH2 0x23C JUMPI DUP1 PUSH4 0xDDF0B009 EQ PUSH2 0x265 JUMPI DUP1 PUSH4 0xE76438AB EQ PUSH2 0x2A2 JUMPI PUSH2 0xC2 JUMP JUMPDEST DUP1 PUSH4 0x8521EEBE EQ PUSH2 0x1B3 JUMPI DUP1 PUSH4 0x957908D1 EQ PUSH2 0x1BD JUMPI DUP1 PUSH4 0xABB6B5A1 EQ PUSH2 0x1D4 JUMPI PUSH2 0xC2 JUMP JUMPDEST DUP1 PUSH4 0x8DD057A EQ PUSH2 0xC7 JUMPI DUP1 PUSH4 0x3DF4DDF4 EQ PUSH2 0xDE JUMPI DUP1 PUSH4 0x47799DA8 EQ PUSH2 0x109 JUMPI DUP1 PUSH4 0x515B74F2 EQ PUSH2 0x134 JUMPI DUP1 PUSH4 0x7BB1FDD2 EQ PUSH2 0x14B JUMPI DUP1 PUSH4 0x7F6C6D10 EQ PUSH2 0x188 JUMPI JUMPDEST PUSH1 0x0 DUP1 REVERT JUMPDEST CALLVALUE DUP1 ISZERO PUSH2 0xD3 JUMPI PUSH1 0x0 DUP1 REVERT JUMPDEST POP PUSH2 0xDC PUSH2 0x2BE JUMP JUMPDEST STOP JUMPDEST CALLVALUE DUP1 ISZERO PUSH2 0xEA JUMPI PUSH1 0x0 DUP1 REVERT JUMPDEST POP PUSH2 0xF3 PUSH2 0x69E JUMP JUMPDEST PUSH1 0x40 MLOAD PUSH2 0x100 SWAP2 SWAP1 PUSH2 0x1E6D JUMP JUMPDEST PUSH1 0x40 MLOAD DUP1 SWAP2 SUB SWAP1 RETURN JUMPDEST CALLVALUE DUP1 ISZERO PUSH2 0x115 JUMPI PUSH1 0x0 DUP1 REVERT JUMPDEST POP PUSH2 0x11E PUSH2 0x6A4 JUMP JUMPDEST PUSH1 0x40 MLOAD PUSH2 0x12B SWAP2 SWAP1 PUSH2 0x1E6D JUMP JUMPDEST PUSH1 0x40 MLOAD DUP1 SWAP2 SUB SWAP1 RETURN JUMPDEST CALLVALUE DUP1 ISZERO PUSH2 0x140 JUMPI PUSH1 0x0 DUP1 REVERT JUMPDEST POP PUSH2 0x149 PUSH2 0x6AA JUMP JUMPDEST STOP JUMPDEST CALLVALUE DUP1 ISZERO PUSH2 0x157 JUMPI PUSH1 0x0 DUP1 REVERT JUMPDEST POP PUSH2 0x172 PUSH1 0x4 DUP1 CALLDATASIZE SUB DUP2 ADD SWAP1 PUSH2 0x16D SWAP2 SWAP1 PUSH2 0x1EEB JUMP JUMPDEST PUSH2 0xF0A JUMP JUMPDEST PUSH1 0x40 MLOAD PUSH2 0x17F SWAP2 SWAP1 PUSH2 0x1E6D JUMP JUMPDEST PUSH1 0x40 MLOAD DUP1 SWAP2 SUB SWAP1 RETURN JUMPDEST CALLVALUE DUP1 ISZERO PUSH2 0x194 JUMPI PUSH1 0x0 DUP1 REVERT JUMPDEST POP PUSH2 0x19D PUSH2 0xF22 JUMP JUMPDEST PUSH1 0x40 MLOAD PUSH2 0x1AA SWAP2 SWAP1 PUSH2 0x1F77 JUMP JUMPDEST PUSH1 0x40 MLOAD DUP1 SWAP2 SUB SWAP1 RETURN JUMPDEST PUSH2 0x1BB PUSH2 0xF48 JUMP JUMPDEST STOP JUMPDEST CALLVALUE DUP1 ISZERO PUSH2 0x1C9 JUMPI PUSH1 0x0 DUP1 REVERT JUMPDEST POP PUSH2 0x1D2 PUSH2 0x1195 JUMP JUMPDEST STOP JUMPDEST CALLVALUE DUP1 ISZERO PUSH2 0x1E0 JUMPI PUSH1 0x0 DUP1 REVERT JUMPDEST POP PUSH2 0x1FB PUSH1 0x4 DUP1 CALLDATASIZE SUB DUP2 ADD SWAP1 PUSH2 0x1F6 SWAP2 SWAP1 PUSH2 0x1EEB JUMP JUMPDEST PUSH2 0x1519 JUMP JUMPDEST PUSH1 0x40 MLOAD PUSH2 0x208 SWAP2 SWAP1 PUSH2 0x1E6D JUMP JUMPDEST PUSH1 0x40 MLOAD DUP1 SWAP2 SUB SWAP1 RETURN JUMPDEST CALLVALUE DUP1 ISZERO PUSH2 0x21D JUMPI PUSH1 0x0 DUP1 REVERT JUMPDEST POP PUSH2 0x226 PUSH2 0x1531 JUMP JUMPDEST PUSH1 0x40 MLOAD PUSH2 0x233 SWAP2 SWAP1 PUSH2 0x1FA1 JUMP JUMPDEST PUSH1 0x40 MLOAD DUP1 SWAP2 SUB SWAP1 RETURN JUMPDEST CALLVALUE DUP1 ISZERO PUSH2 0x248 JUMPI PUSH1 0x0 DUP1 REVERT JUMPDEST POP PUSH2 0x263 PUSH1 0x4 DUP1 CALLDATASIZE SUB DUP2 ADD SWAP1 PUSH2 0x25E SWAP2 SWAP1 PUSH2 0x1EEB JUMP JUMPDEST PUSH2 0x1555 JUMP JUMPDEST STOP JUMPDEST CALLVALUE DUP1 ISZERO PUSH2 0x271 JUMPI PUSH1 0x0 DUP1 REVERT JUMPDEST POP PUSH2 0x28C PUSH1 0x4 DUP1 CALLDATASIZE SUB DUP2 ADD SWAP1 PUSH2 0x287 SWAP2 SWAP1 PUSH2 0x1FE8 JUMP JUMPDEST PUSH2 0x1752 JUMP JUMPDEST PUSH1 0x40 MLOAD PUSH2 0x299 SWAP2 SWAP1 PUSH2 0x1FA1 JUMP JUMPDEST PUSH1 0x40 MLOAD DUP1 SWAP2 SUB SWAP1 RETURN JUMPDEST PUSH2 0x2BC PUSH1 0x4 DUP1 CALLDATASIZE SUB DUP2 ADD SWAP1 PUSH2 0x2B7 SWAP2 SWAP1 PUSH2 0x1FE8 JUMP JUMPDEST PUSH2 0x1785 JUMP JUMPDEST STOP JUMPDEST PUSH2 0x2EA PUSH32 0xBBAD0C0F67A88F95FA166B2637CFC273BBCA57B9FEF32BB57F7E148670B80621 PUSH1 0x0 SHL PUSH2 0x1D05 JUMP JUMPDEST PUSH2 0x316 PUSH32 0x8CECCE3C04B5930AC60687856B72EE6AEBBCC05E4E53C2354364E616A1BE988B PUSH1 0x0 SHL PUSH2 0x1D05 JUMP JUMPDEST PUSH2 0x342 PUSH32 0x1408197091849300D803DC34C6C652D1541C07EB08A06E42DD12739C2F2E4303 PUSH1 0x0 SHL PUSH2 0x1D05 JUMP JUMPDEST PUSH1 0x0 SELFBALANCE SUB PUSH2 0x3A8 JUMPI PUSH2 0x376 PUSH32 0x1A378B6757202CC12B4C91609923E234E57ECBC9CF4E9C1B84EDD5ECDB6BEF5B PUSH1 0x0 SHL PUSH2 0x1D05 JUMP JUMPDEST PUSH1 0x40 MLOAD PUSH32 0x7A1F291700000000000000000000000000000000000000000000000000000000 DUP2 MSTORE PUSH1 0x4 ADD PUSH1 0x40 MLOAD DUP1 SWAP2 SUB SWAP1 REVERT JUMPDEST PUSH2 0x3D4 PUSH32 0xF75C2FE03C7159A77C45FE84FD10DA137C1BF8A31551E4BCE9B63BFB13942A5A PUSH1 0x0 SHL PUSH2 0x1D05 JUMP JUMPDEST PUSH2 0x400 PUSH32 0x198980FE365E9C7BFDBF73874EAA435020CC44FA092936F133DD01463480C058 PUSH1 0x0 SHL PUSH2 0x1D05 JUMP JUMPDEST PUSH2 0x42C PUSH32 0x5E4153B737A498527FA664F962A715C45CCD0CE99481C8C3A2114625AD457040 PUSH1 0x0 SHL PUSH2 0x1D05 JUMP JUMPDEST PUSH1 0x2 PUSH1 0x0 SWAP1 SLOAD SWAP1 PUSH2 0x100 EXP SWAP1 DIV PUSH20 0xFFFFFFFFFFFFFFFFFFFFFFFFFFFFFFFFFFFFFFFF AND PUSH20 0xFFFFFFFFFFFFFFFFFFFFFFFFFFFFFFFFFFFFFFFF AND PUSH4 0x3DF4DDF4 PUSH1 0x40 MLOAD DUP2 PUSH4 0xFFFFFFFF AND PUSH1 0xE0 SHL DUP2 MSTORE PUSH1 0x4 ADD PUSH1 0x20 PUSH1 0x40 MLOAD DUP1 DUP4 SUB DUP2 DUP7 GAS STATICCALL ISZERO DUP1 ISZERO PUSH2 0x499 JUMPI RETURNDATASIZE PUSH1 0x0 DUP1 RETURNDATACOPY RETURNDATASIZE PUSH1 0x0 REVERT JUMPDEST POP POP POP POP PUSH1 0x40 MLOAD RETURNDATASIZE PUSH1 0x1F NOT PUSH1 0x1F DUP3 ADD AND DUP3 ADD DUP1 PUSH1 0x40 MSTORE POP DUP2 ADD SWAP1 PUSH2 0x4BD SWAP2 SWAP1 PUSH2 0x202A JUMP JUMPDEST PUSH1 0x2 PUSH1 0x0 SWAP1 SLOAD SWAP1 PUSH2 0x100 EXP SWAP1 DIV PUSH20 0xFFFFFFFFFFFFFFFFFFFFFFFFFFFFFFFFFFFFFFFF AND PUSH20 0xFFFFFFFFFFFFFFFFFFFFFFFFFFFFFFFFFFFFFFFF AND PUSH4 0x47799DA8 PUSH1 0x40 MLOAD DUP2 PUSH4 0xFFFFFFFF AND PUSH1 0xE0 SHL DUP2 MSTORE PUSH1 0x4 ADD PUSH1 0x20 PUSH1 0x40 MLOAD DUP1 DUP4 SUB DUP2 DUP7 GAS STATICCALL ISZERO DUP1 ISZERO PUSH2 0x52A JUMPI RETURNDATASIZE PUSH1 0x0 DUP1 RETURNDATACOPY RETURNDATASIZE PUSH1 0x0 REVERT JUMPDEST POP POP POP POP PUSH1 0x40 MLOAD RETURNDATASIZE PUSH1 0x1F NOT PUSH1 0x1F DUP3 ADD AND DUP3 ADD DUP1 PUSH1 0x40 MSTORE POP DUP2 ADD SWAP1 PUSH2 0x54E SWAP2 SWAP1 PUSH2 0x202A JUMP JUMPDEST LT PUSH2 0x5B1 JUMPI PUSH2 0x57F PUSH32 0x3DF2EA7978CFA93F18412752E8B3882C061DF3CBBC5B555478F343BEF91E96FA PUSH1 0x0 SHL PUSH2 0x1D05 JUMP JUMPDEST PUSH1 0x40 MLOAD PUSH32 0x230ACCFD00000000000000000000000000000000000000000000000000000000 DUP2 MSTORE PUSH1 0x4 ADD PUSH1 0x40 MLOAD DUP1 SWAP2 SUB SWAP1 REVERT JUMPDEST PUSH2 0x5DD PUSH32 0x93892903FA0CADEB60AD47C67DC58B0AB4ECA05093CF3A89DDE91D3392D80E80 PUSH1 0x0 SHL PUSH2 0x1D05 JUMP JUMPDEST PUSH2 0x609 PUSH32 0xFBCA49E9C03B3FC361C75184A39AD2AB0D428532D9A1270BD27CE4932FF7834D PUSH1 0x0 SHL PUSH2 0x1D05 JUMP JUMPDEST PUSH2 0x635 PUSH32 0x2372C2E98B03F1591CD312FA4ABD475874E53DFE0D969C70ABF87085139A6992 PUSH1 0x0 SHL PUSH2 0x1D05 JUMP JUMPDEST PUSH32 0x0 PUSH20 0xFFFFFFFFFFFFFFFFFFFFFFFFFFFFFFFFFFFFFFFF AND PUSH2 0x8FC SELFBALANCE SWAP1 DUP2 ISZERO MUL SWAP1 PUSH1 0x40 MLOAD PUSH1 0x0 PUSH1 0x40 MLOAD DUP1 DUP4 SUB DUP2 DUP6 DUP9 DUP9 CALL SWAP4 POP POP POP POP ISZERO DUP1 ISZERO PUSH2 0x69B JUMPI RETURNDATASIZE PUSH1 0x0 DUP1 RETURNDATACOPY RETURNDATASIZE PUSH1 0x0 REVERT JUMPDEST POP JUMP JUMPDEST PUSH1 0x5 SLOAD DUP2 JUMP JUMPDEST PUSH1 0x4 SLOAD DUP2 JUMP JUMPDEST PUSH2 0x6D6 PUSH32 0xDE1A1446D7EC70D306C4237068E09EE2796AAC4DA408EAFFDCEA2AE6DA4CB12C PUSH1 0x0 SHL PUSH2 0x1D05 JUMP JUMPDEST PUSH2 0x702 PUSH32 0x7D6B43E3E2F8363C67F3214333EA37B569C2C9D93C1F7D095F3B00819C155EA9 PUSH1 0x0 SHL PUSH2 0x1D05 JUMP JUMPDEST PUSH2 0x72E PUSH32 0x608E468ADE1D0AF8F81AAD1F3C9D5D4ADBED59789A2873AFD971271F0E3D02BB PUSH1 0x0 SHL PUSH2 0x1D05 JUMP JUMPDEST PUSH32 0x0 PUSH20 0xFFFFFFFFFFFFFFFFFFFFFFFFFFFFFFFFFFFFFFFF AND CALLER PUSH20 0xFFFFFFFFFFFFFFFFFFFFFFFFFFFFFFFFFFFFFFFF AND EQ PUSH2 0x7DF JUMPI PUSH2 0x7AD PUSH32 0x533E23229F1303152C263898C5F56AE53485A838EBDAFE48EF3C7317E2193440 PUSH1 0x0 SHL PUSH2 0x1D05 JUMP JUMPDEST PUSH1 0x40 MLOAD PUSH32 0x1EE8575E00000000000000000000000000000000000000000000000000000000 DUP2 MSTORE PUSH1 0x4 ADD PUSH1 0x40 MLOAD DUP1 SWAP2 SUB SWAP1 REVERT JUMPDEST PUSH2 0x80B PUSH32 0x1755E455426703DD45D79A701645ADFDEFD7A93FA4729671E50AB44F3C99B3A7 PUSH1 0x0 SHL PUSH2 0x1D05 JUMP JUMPDEST PUSH2 0x837 PUSH32 0xE993EAD29D174AA68C507FDA7D34D5B91A2CF733BAF36AB09AB2219BBC0F1F76 PUSH1 0x0 SHL PUSH2 0x1D05 JUMP JUMPDEST PUSH2 0x863 PUSH32 0xE570DA68CE3A9B0BE9A40743ECCFA58F8C9102E9B7F35058CC4F7177A0A00BA PUSH1 0x0 SHL PUSH2 0x1D05 JUMP JUMPDEST PUSH1 0x2 PUSH1 0x0 SWAP1 SLOAD SWAP1 PUSH2 0x100 EXP SWAP1 DIV PUSH20 0xFFFFFFFFFFFFFFFFFFFFFFFFFFFFFFFFFFFFFFFF AND PUSH20 0xFFFFFFFFFFFFFFFFFFFFFFFFFFFFFFFFFFFFFFFF AND PUSH4 0x3DF4DDF4 PUSH1 0x40 MLOAD DUP2 PUSH4 0xFFFFFFFF AND PUSH1 0xE0 SHL DUP2 MSTORE PUSH1 0x4 ADD PUSH1 0x20 PUSH1 0x40 MLOAD DUP1 DUP4 SUB DUP2 DUP7 GAS STATICCALL ISZERO DUP1 ISZERO PUSH2 0x8D0 JUMPI RETURNDATASIZE PUSH1 0x0 DUP1 RETURNDATACOPY RETURNDATASIZE PUSH1 0x0 REVERT JUMPDEST POP POP POP POP PUSH1 0x40 MLOAD RETURNDATASIZE PUSH1 0x1F NOT PUSH1 0x1F DUP3 ADD AND DUP3 ADD DUP1 PUSH1 0x40 MSTORE POP DUP2 ADD SWAP1 PUSH2 0x8F4 SWAP2 SWAP1 PUSH2 0x202A JUMP JUMPDEST PUSH1 0x2 PUSH1 0x0 SWAP1 SLOAD SWAP1 PUSH2 0x100 EXP SWAP1 DIV PUSH20 0xFFFFFFFFFFFFFFFFFFFFFFFFFFFFFFFFFFFFFFFF AND PUSH20 0xFFFFFFFFFFFFFFFFFFFFFFFFFFFFFFFFFFFFFFFF AND PUSH4 0x47799DA8 PUSH1 0x40 MLOAD DUP2 PUSH4 0xFFFFFFFF AND PUSH1 0xE0 SHL DUP2 MSTORE PUSH1 0x4 ADD PUSH1 0x20 PUSH1 0x40 MLOAD DUP1 DUP4 SUB DUP2 DUP7 GAS STATICCALL ISZERO DUP1 ISZERO PUSH2 0x961 JUMPI RETURNDATASIZE PUSH1 0x0 DUP1 RETURNDATACOPY RETURNDATASIZE PUSH1 0x0 REVERT JUMPDEST POP POP POP POP PUSH1 0x40 MLOAD RETURNDATASIZE PUSH1 0x1F NOT PUSH1 0x1F DUP3 ADD AND DUP3 ADD DUP1 PUSH1 0x40 MSTORE POP DUP2 ADD SWAP1 PUSH2 0x985 SWAP2 SWAP1 PUSH2 0x202A JUMP JUMPDEST LT ISZERO PUSH2 0x9E9 JUMPI PUSH2 0x9B7 PUSH32 0x1EB5D54FBAC2940F8283D5A6762A10381788DE664D2A2B7E797D33EBB816743D PUSH1 0x0 SHL PUSH2 0x1D05 JUMP JUMPDEST PUSH1 0x40 MLOAD PUSH32 0x5E61BB8700000000000000000000000000000000000000000000000000000000 DUP2 MSTORE PUSH1 0x4 ADD PUSH1 0x40 MLOAD DUP1 SWAP2 SUB SWAP1 REVERT JUMPDEST PUSH2 0xA15 PUSH32 0x4C1E4EA933982339483A02020CE5902C93E1FCDC2D279F08A18837EC1D8EE4F5 PUSH1 0x0 SHL PUSH2 0x1D05 JUMP JUMPDEST PUSH2 0xA41 PUSH32 0x1512FA360529AC1C8C4C7AC167DA8E83939092ECB6192B189E7ECADBB9BC1D1E PUSH1 0x0 SHL PUSH2 0x1D05 JUMP JUMPDEST PUSH2 0xA6D PUSH32 0xCC91BF3F96F931A96E7DECB38EDE1BE58BB7E846CC0A0B8ED956D930CCBEE140 PUSH1 0x0 SHL PUSH2 0x1D05 JUMP JUMPDEST PUSH1 0x0 PUSH1 0x2 PUSH1 0x0 SWAP1 SLOAD SWAP1 PUSH2 0x100 EXP SWAP1 DIV PUSH20 0xFFFFFFFFFFFFFFFFFFFFFFFFFFFFFFFFFFFFFFFF AND PUSH20 0xFFFFFFFFFFFFFFFFFFFFFFFFFFFFFFFFFFFFFFFF AND PUSH4 0xDDF0B009 PUSH1 0x2 PUSH1 0x0 SWAP1 SLOAD SWAP1 PUSH2 0x100 EXP SWAP1 DIV PUSH20 0xFFFFFFFFFFFFFFFFFFFFFFFFFFFFFFFFFFFFFFFF AND PUSH20 0xFFFFFFFFFFFFFFFFFFFFFFFFFFFFFFFFFFFFFFFF AND PUSH4 0x47799DA8 PUSH1 0x40 MLOAD DUP2 PUSH4 0xFFFFFFFF AND PUSH1 0xE0 SHL DUP2 MSTORE PUSH1 0x4 ADD PUSH1 0x20 PUSH1 0x40 MLOAD DUP1 DUP4 SUB DUP2 DUP7 GAS STATICCALL ISZERO DUP1 ISZERO PUSH2 0xB1A JUMPI RETURNDATASIZE PUSH1 0x0 DUP1 RETURNDATACOPY RETURNDATASIZE PUSH1 0x0 REVERT JUMPDEST POP POP POP POP PUSH1 0x40 MLOAD RETURNDATASIZE PUSH1 0x1F NOT PUSH1 0x1F DUP3 ADD AND DUP3 ADD DUP1 PUSH1 0x40 MSTORE POP DUP2 ADD SWAP1 PUSH2 0xB3E SWAP2 SWAP1 PUSH2 0x202A JUMP JUMPDEST PUSH1 0x40 MLOAD DUP3 PUSH4 0xFFFFFFFF AND PUSH1 0xE0 SHL DUP2 MSTORE PUSH1 0x4 ADD PUSH2 0xB5A SWAP2 SWAP1 PUSH2 0x1E6D JUMP JUMPDEST PUSH1 0x20 PUSH1 0x40 MLOAD DUP1 DUP4 SUB DUP2 DUP7 GAS STATICCALL ISZERO DUP1 ISZERO PUSH2 0xB77 JUMPI RETURNDATASIZE PUSH1 0x0 DUP1 RETURNDATACOPY RETURNDATASIZE PUSH1 0x0 REVERT JUMPDEST POP POP POP POP PUSH1 0x40 MLOAD RETURNDATASIZE PUSH1 0x1F NOT PUSH1 0x1F DUP3 ADD AND DUP3 ADD DUP1 PUSH1 0x40 MSTORE POP DUP2 ADD SWAP1 PUSH2 0xB9B SWAP2 SWAP1 PUSH2 0x206C JUMP JUMPDEST SWAP1 POP PUSH2 0xBC9 PUSH32 0x234755FBB7DF4D2DD54AEF2847FA521E018A734E8D64FB9C4CDA54A392FF1452 PUSH1 0x0 SHL PUSH2 0x1D05 JUMP JUMPDEST PUSH2 0xBF5 PUSH32 0x4A3A03060DEE4FC569D843857C1CD5881A913691BCFEE7A897BEB205EB2F5D1F PUSH1 0x0 SHL PUSH2 0x1D05 JUMP JUMPDEST PUSH1 0x2 PUSH1 0x0 SWAP1 SLOAD SWAP1 PUSH2 0x100 EXP SWAP1 DIV PUSH20 0xFFFFFFFFFFFFFFFFFFFFFFFFFFFFFFFFFFFFFFFF AND PUSH20 0xFFFFFFFFFFFFFFFFFFFFFFFFFFFFFFFFFFFFFFFF AND PUSH4 0x957908D1 PUSH1 0x40 MLOAD DUP2 PUSH4 0xFFFFFFFF AND PUSH1 0xE0 SHL DUP2 MSTORE PUSH1 0x4 ADD PUSH1 0x0 PUSH1 0x40 MLOAD DUP1 DUP4 SUB DUP2 PUSH1 0x0 DUP8 DUP1 EXTCODESIZE ISZERO DUP1 ISZERO PUSH2 0xC5F JUMPI PUSH1 0x0 DUP1 REVERT JUMPDEST POP GAS CALL ISZERO DUP1 ISZERO PUSH2 0xC73 JUMPI RETURNDATASIZE PUSH1 0x0 DUP1 RETURNDATACOPY RETURNDATASIZE PUSH1 0x0 REVERT JUMPDEST POP POP POP POP PUSH2 0xCA3 PUSH32 0x925CC899B2B3129983701709E022A4E1B7B78706B94B213BE7B22B30661E4E61 PUSH1 0x0 SHL PUSH2 0x1D05 JUMP JUMPDEST PUSH2 0xCCF PUSH32 0xAD9F2C3BE6BA845D34CA855E928806555B3C8C91D912EB4E0349581AB4B17162 PUSH1 0x0 SHL PUSH2 0x1D05 JUMP JUMPDEST PUSH1 0x0 PUSH1 0x1 PUSH1 0x0 DUP4 PUSH20 0xFFFFFFFFFFFFFFFFFFFFFFFFFFFFFFFFFFFFFFFF AND PUSH20 0xFFFFFFFFFFFFFFFFFFFFFFFFFFFFFFFFFFFFFFFF AND DUP2 MSTORE PUSH1 0x20 ADD SWAP1 DUP2 MSTORE PUSH1 0x20 ADD PUSH1 0x0 KECCAK256 SLOAD PUSH1 0x2 PUSH1 0x0 SWAP1 SLOAD SWAP1 PUSH2 0x100 EXP SWAP1 DIV PUSH20 0xFFFFFFFFFFFFFFFFFFFFFFFFFFFFFFFFFFFFFFFF AND PUSH20 0xFFFFFFFFFFFFFFFFFFFFFFFFFFFFFFFFFFFFFFFF AND PUSH4 0xE3D66F68 DUP5 PUSH1 0x40 MLOAD DUP3 PUSH4 0xFFFFFFFF AND PUSH1 0xE0 SHL DUP2 MSTORE PUSH1 0x4 ADD PUSH2 0xD6C SWAP2 SWAP1 PUSH2 0x1FA1 JUMP JUMPDEST PUSH1 0x20 PUSH1 0x40 MLOAD DUP1 DUP4 SUB DUP2 DUP7 GAS STATICCALL ISZERO DUP1 ISZERO PUSH2 0xD89 JUMPI RETURNDATASIZE PUSH1 0x0 DUP1 RETURNDATACOPY RETURNDATASIZE PUSH1 0x0 REVERT JUMPDEST POP POP POP POP PUSH1 0x40 MLOAD RETURNDATASIZE PUSH1 0x1F NOT PUSH1 0x1F DUP3 ADD AND DUP3 ADD DUP1 PUSH1 0x40 MSTORE POP DUP2 ADD SWAP1 PUSH2 0xDAD SWAP2 SWAP1 PUSH2 0x202A JUMP JUMPDEST PUSH2 0xDB7 SWAP2 SWAP1 PUSH2 0x20C8 JUMP JUMPDEST SWAP1 POP PUSH2 0xDE5 PUSH32 0x83BC2F5E45B47997C6D4C375134CEA4F0D8AF2B6DE93F06D0FF34ECB62DCAF12 PUSH1 0x0 SHL PUSH2 0x1D05 JUMP JUMPDEST PUSH2 0xE11 PUSH32 0xCED4B1B50A625433EF3DE402A3C2C28A50CE6D814E32E5B593514F08663F3B58 PUSH1 0x0 SHL PUSH2 0x1D05 JUMP JUMPDEST DUP1 PUSH1 0x1 PUSH1 0x0 DUP5 PUSH20 0xFFFFFFFFFFFFFFFFFFFFFFFFFFFFFFFFFFFFFFFF AND PUSH20 0xFFFFFFFFFFFFFFFFFFFFFFFFFFFFFFFFFFFFFFFF AND DUP2 MSTORE PUSH1 0x20 ADD SWAP1 DUP2 MSTORE PUSH1 0x20 ADD PUSH1 0x0 KECCAK256 PUSH1 0x0 DUP3 DUP3 SLOAD PUSH2 0xE60 SWAP2 SWAP1 PUSH2 0x20FC JUMP JUMPDEST SWAP3 POP POP DUP2 SWAP1 SSTORE POP PUSH2 0xE93 PUSH32 0x6194199EE726016EB8C7AD1244388999D8FFD1F2DFA87C632042F364FA0CE1D7 PUSH1 0x0 SHL PUSH2 0x1D05 JUMP JUMPDEST PUSH2 0xEBF PUSH32 0x4C6F61843924F6084A58103D485730FF693B3160FE1F5EC43845D7E1157AD0B2 PUSH1 0x0 SHL PUSH2 0x1D05 JUMP JUMPDEST DUP2 PUSH20 0xFFFFFFFFFFFFFFFFFFFFFFFFFFFFFFFFFFFFFFFF AND PUSH2 0x8FC DUP3 SWAP1 DUP2 ISZERO MUL SWAP1 PUSH1 0x40 MLOAD PUSH1 0x0 PUSH1 0x40 MLOAD DUP1 DUP4 SUB DUP2 DUP6 DUP9 DUP9 CALL SWAP4 POP POP POP POP ISZERO DUP1 ISZERO PUSH2 0xF05 JUMPI RETURNDATASIZE PUSH1 0x0 DUP1 RETURNDATACOPY RETURNDATASIZE PUSH1 0x0 REVERT JUMPDEST POP POP POP JUMP JUMPDEST PUSH1 0x1 PUSH1 0x20 MSTORE DUP1 PUSH1 0x0 MSTORE PUSH1 0x40 PUSH1 0x0 KECCAK256 PUSH1 0x0 SWAP2 POP SWAP1 POP SLOAD DUP2 JUMP JUMPDEST PUSH1 0x2 PUSH1 0x0 SWAP1 SLOAD SWAP1 PUSH2 0x100 EXP SWAP1 DIV PUSH20 0xFFFFFFFFFFFFFFFFFFFFFFFFFFFFFFFFFFFFFFFF AND DUP2 JUMP JUMPDEST PUSH2 0xF74 PUSH32 0x19F7F2752A0894866DBA472E0C8B2D0DC181846E0A6B1129F57C10C7D47AACEE PUSH1 0x0 SHL PUSH2 0x1D05 JUMP JUMPDEST PUSH2 0xFA0 PUSH32 0x6265CF21C74EC435B2B8ED694E454CF36A4C59D66460E2996A56376D993EF0CF PUSH1 0x0 SHL PUSH2 0x1D05 JUMP JUMPDEST PUSH2 0xFCC PUSH32 0x3CBEB1A803B3F2A6A1E298F716914F8FA31C6E25B700BA6B8AC45BD19CD0C86A PUSH1 0x0 SHL PUSH2 0x1D05 JUMP JUMPDEST PUSH32 0x0 PUSH20 0xFFFFFFFFFFFFFFFFFFFFFFFFFFFFFFFFFFFFFFFF AND CALLER PUSH20 0xFFFFFFFFFFFFFFFFFFFFFFFFFFFFFFFFFFFFFFFF AND EQ PUSH2 0x107D JUMPI PUSH2 0x104B PUSH32 0xB752BF3C40E1BDAA215545AC741B067AB0B7504E09CDAC669A929D77BD6C3C91 PUSH1 0x0 SHL PUSH2 0x1D05 JUMP JUMPDEST PUSH1 0x40 MLOAD PUSH32 0x1EE8575E00000000000000000000000000000000000000000000000000000000 DUP2 MSTORE PUSH1 0x4 ADD PUSH1 0x40 MLOAD DUP1 SWAP2 SUB SWAP1 REVERT JUMPDEST PUSH2 0x10A9 PUSH32 0x5A43143DE4D2A405AF2A1D36F11EA13B5197CE37DAC89A89F150301426BC7E35 PUSH1 0x0 SHL PUSH2 0x1D05 JUMP JUMPDEST PUSH2 0x10D5 PUSH32 0xC9F3ABE9B65CE2BA70BAB17A3E5EDA182595D8404D688FB194AEE1435AD5F3E0 PUSH1 0x0 SHL PUSH2 0x1D05 JUMP JUMPDEST PUSH2 0x1101 PUSH32 0x778A98740F2EB351A1572D6F089E0061267A08E1CB694265FC88ACE1D6369012 PUSH1 0x0 SHL PUSH2 0x1D05 JUMP JUMPDEST PUSH1 0x0 CALLVALUE SUB PUSH2 0x1167 JUMPI PUSH2 0x1135 PUSH32 0x187749AAB59525347F559956CDD6392D95925CEA13A50B4B47447C8234F1B409 PUSH1 0x0 SHL PUSH2 0x1D05 JUMP JUMPDEST PUSH1 0x40 MLOAD PUSH32 0xCDB5D8500000000000000000000000000000000000000000000000000000000 DUP2 MSTORE PUSH1 0x4 ADD PUSH1 0x40 MLOAD DUP1 SWAP2 SUB SWAP1 REVERT JUMPDEST PUSH2 0x1193 PUSH32 0x53E4EA328694FA3FF1B3069F209D02D57944E4632C5FE5815DC90FE4F8FF90B8 PUSH1 0x0 SHL PUSH2 0x1D05 JUMP JUMPDEST JUMP JUMPDEST PUSH2 0x11C1 PUSH32 0x81DF54FD4C7EA864CD1727CED81C55815B8D7A076766C656C9C13E11DC03901E PUSH1 0x0 SHL PUSH2 0x1D05 JUMP JUMPDEST PUSH2 0x11ED PUSH32 0xE2FAC6E05144CB7E4920CD3A1F2024C9E8523ABB1064BEC730292D27F97271F4 PUSH1 0x0 SHL PUSH2 0x1D05 JUMP JUMPDEST PUSH2 0x1219 PUSH32 0xF6E7AD30FF018D47E30EC204CF71144764C53916D98D14487C52176D2DE6714A PUSH1 0x0 SHL PUSH2 0x1D05 JUMP JUMPDEST PUSH1 0x2 PUSH1 0x0 SWAP1 SLOAD SWAP1 PUSH2 0x100 EXP SWAP1 DIV PUSH20 0xFFFFFFFFFFFFFFFFFFFFFFFFFFFFFFFFFFFFFFFF AND PUSH20 0xFFFFFFFFFFFFFFFFFFFFFFFFFFFFFFFFFFFFFFFF AND CALLER PUSH20 0xFFFFFFFFFFFFFFFFFFFFFFFFFFFFFFFFFFFFFFFF AND EQ ISZERO DUP1 PUSH2 0x12C4 JUMPI POP PUSH1 0x0 PUSH20 0xFFFFFFFFFFFFFFFFFFFFFFFFFFFFFFFFFFFFFFFF AND PUSH1 0x2 PUSH1 0x0 SWAP1 SLOAD SWAP1 PUSH2 0x100 EXP SWAP1 DIV PUSH20 0xFFFFFFFFFFFFFFFFFFFFFFFFFFFFFFFFFFFFFFFF AND PUSH20 0xFFFFFFFFFFFFFFFFFFFFFFFFFFFFFFFFFFFFFFFF AND EQ JUMPDEST ISZERO PUSH2 0x1327 JUMPI PUSH2 0x12F5 PUSH32 0x49592190701A693BF7BC1078B1BABAC3696179663DE13254A5EC1F3E6F10F648 PUSH1 0x0 SHL PUSH2 0x1D05 JUMP JUMPDEST PUSH1 0x40 MLOAD PUSH32 0x4DA1BC3400000000000000000000000000000000000000000000000000000000 DUP2 MSTORE PUSH1 0x4 ADD PUSH1 0x40 MLOAD DUP1 SWAP2 SUB SWAP1 REVERT JUMPDEST PUSH2 0x1353 PUSH32 0xBE70EA274B57DE5BA7DF9BF54F58E26BCBAE4281C08205C269AF95D2DFD19C89 PUSH1 0x0 SHL PUSH2 0x1D05 JUMP JUMPDEST PUSH2 0x137F PUSH32 0xDBF7C8D0C51AE5029C1CB2198E84E92D740D2CCCABDBC533E239D67A97A330EF PUSH1 0x0 SHL PUSH2 0x1D05 JUMP JUMPDEST PUSH2 0x13AB PUSH32 0x8BBFC06193E7BCABEC1A5D60A063401FB46C65219C9F4F56E272B700D5EC6629 PUSH1 0x0 SHL PUSH2 0x1D05 JUMP JUMPDEST PUSH1 0x5 SLOAD PUSH1 0x4 SLOAD LT ISZERO PUSH2 0x1415 JUMPI PUSH2 0x13E3 PUSH32 0x4B287158F96CC1D6B5BB8D4DB92156B08BFA8430BC9E9475CC0A50612E41EA26 PUSH1 0x0 SHL PUSH2 0x1D05 JUMP JUMPDEST PUSH1 0x40 MLOAD PUSH32 0x5E61BB8700000000000000000000000000000000000000000000000000000000 DUP2 MSTORE PUSH1 0x4 ADD PUSH1 0x40 MLOAD DUP1 SWAP2 SUB SWAP1 REVERT JUMPDEST PUSH2 0x1441 PUSH32 0x2BF483B1FC2123A5A2D122BB5548177280887F6D8FDDAE09C2E212828BDDF373 PUSH1 0x0 SHL PUSH2 0x1D05 JUMP JUMPDEST PUSH2 0x146D PUSH32 0xB0CC7824519D58DB13E9C4CB968A2AE5A3C7608F3F3175BB6175AFA96FD2258E PUSH1 0x0 SHL PUSH2 0x1D05 JUMP JUMPDEST PUSH1 0x3 PUSH1 0x0 PUSH1 0x5 SLOAD DUP2 MSTORE PUSH1 0x20 ADD SWAP1 DUP2 MSTORE PUSH1 0x20 ADD PUSH1 0x0 KECCAK256 PUSH1 0x0 PUSH2 0x100 EXP DUP2 SLOAD SWAP1 PUSH20 0xFFFFFFFFFFFFFFFFFFFFFFFFFFFFFFFFFFFFFFFF MUL NOT AND SWAP1 SSTORE PUSH2 0x14D1 PUSH32 0x3996E902479919F294EAEC805A8CDBE1EDE40C7EC2E02594A500385DD629AC3D PUSH1 0x0 SHL PUSH2 0x1D05 JUMP JUMPDEST PUSH2 0x14FD PUSH32 0x6A92E3D2FA98D0E166C0527B50217C62810D35E2395C63FB1AA44B04804AE8CD PUSH1 0x0 SHL PUSH2 0x1D05 JUMP JUMPDEST PUSH1 0x1 PUSH1 0x5 PUSH1 0x0 DUP3 DUP3 SLOAD PUSH2 0x1510 SWAP2 SWAP1 PUSH2 0x20FC JUMP JUMPDEST SWAP3 POP POP DUP2 SWAP1 SSTORE POP JUMP JUMPDEST PUSH1 0x0 PUSH1 0x20 MSTORE DUP1 PUSH1 0x0 MSTORE PUSH1 0x40 PUSH1 0x0 KECCAK256 PUSH1 0x0 SWAP2 POP SWAP1 POP SLOAD DUP2 JUMP JUMPDEST PUSH32 0x0 DUP2 JUMP JUMPDEST PUSH2 0x1581 PUSH32 0xE26059617F20620AF9075F550D034D3469B67B24FC5D26D13C19D6D01D9A621B PUSH1 0x0 SHL PUSH2 0x1D05 JUMP JUMPDEST PUSH2 0x15AD PUSH32 0x2C333C4DD912FEC024BD33B18D85B8B408B86471235544352E304DAAA0AAF7D2 PUSH1 0x0 SHL PUSH2 0x1D05 JUMP JUMPDEST PUSH2 0x15D9 PUSH32 0x3DC9C01E410050D6D95AA95E959482ECD9E2B37DBCFE71A8468459A5DD493D96 PUSH1 0x0 SHL PUSH2 0x1D05 JUMP JUMPDEST PUSH32 0x0 PUSH20 0xFFFFFFFFFFFFFFFFFFFFFFFFFFFFFFFFFFFFFFFF AND CALLER PUSH20 0xFFFFFFFFFFFFFFFFFFFFFFFFFFFFFFFFFFFFFFFF AND EQ PUSH2 0x168A JUMPI PUSH2 0x1658 PUSH32 0xEC979C98791E0E35F719F10D940113BF55A5D6E27DC4F60F6BAFE11F0E375EEE PUSH1 0x0 SHL PUSH2 0x1D05 JUMP JUMPDEST PUSH1 0x40 MLOAD PUSH32 0x1EE8575E00000000000000000000000000000000000000000000000000000000 DUP2 MSTORE PUSH1 0x4 ADD PUSH1 0x40 MLOAD DUP1 SWAP2 SUB SWAP1 REVERT JUMPDEST PUSH2 0x16B6 PUSH32 0x41818CF0439D7757DBA5348E178CE300C9A680FAA4A827639C634EDA07EAB55C PUSH1 0x0 SHL PUSH2 0x1D05 JUMP JUMPDEST PUSH2 0x16E2 PUSH32 0xF7B8458A3DAFC129C7ACD5294D31CDCED5D428F44AC53F255D5DB860A110DDDF PUSH1 0x0 SHL PUSH2 0x1D05 JUMP JUMPDEST PUSH2 0x170E PUSH32 0x944A7667297DC3C05494703BD11D5A6470736376B454639A6D8B605DAA127192 PUSH1 0x0 SHL PUSH2 0x1D05 JUMP JUMPDEST DUP1 PUSH1 0x2 PUSH1 0x0 PUSH2 0x100 EXP DUP2 SLOAD DUP2 PUSH20 0xFFFFFFFFFFFFFFFFFFFFFFFFFFFFFFFFFFFFFFFF MUL NOT AND SWAP1 DUP4 PUSH20 0xFFFFFFFFFFFFFFFFFFFFFFFFFFFFFFFFFFFFFFFF AND MUL OR SWAP1 SSTORE POP POP JUMP JUMPDEST PUSH1 0x3 PUSH1 0x20 MSTORE DUP1 PUSH1 0x0 MSTORE PUSH1 0x40 PUSH1 0x0 KECCAK256 PUSH1 0x0 SWAP2 POP SLOAD SWAP1 PUSH2 0x100 EXP SWAP1 DIV PUSH20 0xFFFFFFFFFFFFFFFFFFFFFFFFFFFFFFFFFFFFFFFF AND DUP2 JUMP JUMPDEST PUSH2 0x17B1 PUSH32 0x8138756FEE0FA05770AAC80E147562882C95CB3684D8B9B3EC8D2FCFCD3C54BB PUSH1 0x0 SHL PUSH2 0x1D05 JUMP JUMPDEST PUSH2 0x17DD PUSH32 0x1058CCB837E0E9739434E777FB574A770C00A12368D16C7D5D54ADD3412A80E1 PUSH1 0x0 SHL PUSH2 0x1D05 JUMP JUMPDEST PUSH2 0x1809 PUSH32 0x886A95E13AA0044452848FE0E813D82B215527835355A3A7356F33DB21ACAF26 PUSH1 0x0 SHL PUSH2 0x1D05 JUMP JUMPDEST PUSH2 0x3E8 DUP2 LT ISZERO PUSH2 0x1871 JUMPI PUSH2 0x183F PUSH32 0x422E69B81E712EEF4DA7A368F6A501D3E37C9D765F7E270F6BF69660894DCB9C PUSH1 0x0 SHL PUSH2 0x1D05 JUMP JUMPDEST PUSH1 0x40 MLOAD PUSH32 0xA9F2D61800000000000000000000000000000000000000000000000000000000 DUP2 MSTORE PUSH1 0x4 ADD PUSH1 0x40 MLOAD DUP1 SWAP2 SUB SWAP1 REVERT JUMPDEST PUSH2 0x189D PUSH32 0x72DA34D6F38B3C083CF942729B701D4949E820FAC67F6F94710C9142EF8475CB PUSH1 0x0 SHL PUSH2 0x1D05 JUMP JUMPDEST PUSH2 0x18C9 PUSH32 0xFA8EF710207BC1AD37FD3CF659A82B084A869078D05C19F46E4BC72E76B8C8D5 PUSH1 0x0 SHL PUSH2 0x1D05 JUMP JUMPDEST PUSH2 0x18F5 PUSH32 0x5D69B5AFF1A22A0B347152E85F6379F69F17DA1C5DC4713B378632852D778F61 PUSH1 0x0 SHL PUSH2 0x1D05 JUMP JUMPDEST PUSH2 0x3E8 DUP2 PUSH2 0x3EB PUSH2 0x1906 SWAP2 SWAP1 PUSH2 0x2130 JUMP JUMPDEST PUSH2 0x1910 SWAP2 SWAP1 PUSH2 0x21A1 JUMP JUMPDEST CALLVALUE EQ PUSH2 0x1974 JUMPI PUSH2 0x1942 PUSH32 0x70F50F1A0ACB106F7CB0E5DC436F98088D38CA45A5F74C135B5C4CD239B93656 PUSH1 0x0 SHL PUSH2 0x1D05 JUMP JUMPDEST PUSH1 0x40 MLOAD PUSH32 0x400F9FB800000000000000000000000000000000000000000000000000000000 DUP2 MSTORE PUSH1 0x4 ADD PUSH1 0x40 MLOAD DUP1 SWAP2 SUB SWAP1 REVERT JUMPDEST PUSH2 0x19A0 PUSH32 0xFA790AAB8D8B8785E6EC8190A681B907F017B2C3E5B7107A20D59BA3A7E94DD2 PUSH1 0x0 SHL PUSH2 0x1D05 JUMP JUMPDEST PUSH2 0x19CC PUSH32 0x3C73F61BE752F9BC067416EA0F7193FF93153871E909E6873B4DA02B9294895C PUSH1 0x0 SHL PUSH2 0x1D05 JUMP JUMPDEST PUSH2 0x19F8 PUSH32 0x55BE489E7793C6677ECE9DE998C221D74EADE7FE66B3092166FB59199D45ECA3 PUSH1 0x0 SHL PUSH2 0x1D05 JUMP JUMPDEST DUP1 PUSH1 0x2 PUSH1 0x0 SWAP1 SLOAD SWAP1 PUSH2 0x100 EXP SWAP1 DIV PUSH20 0xFFFFFFFFFFFFFFFFFFFFFFFFFFFFFFFFFFFFFFFF AND PUSH20 0xFFFFFFFFFFFFFFFFFFFFFFFFFFFFFFFFFFFFFFFF AND BALANCE LT DUP1 PUSH2 0x1A8D JUMPI POP PUSH1 0x0 PUSH20 0xFFFFFFFFFFFFFFFFFFFFFFFFFFFFFFFFFFFFFFFF AND PUSH1 0x2 PUSH1 0x0 SWAP1 SLOAD SWAP1 PUSH2 0x100 EXP SWAP1 DIV PUSH20 0xFFFFFFFFFFFFFFFFFFFFFFFFFFFFFFFFFFFFFFFF AND PUSH20 0xFFFFFFFFFFFFFFFFFFFFFFFFFFFFFFFFFFFFFFFF AND EQ JUMPDEST ISZERO PUSH2 0x1AF0 JUMPI PUSH2 0x1ABE PUSH32 0xF05263E459BB12A78A842EE1CCC5BD1A69BA192356914D08CD9A804CEE41D028 PUSH1 0x0 SHL PUSH2 0x1D05 JUMP JUMPDEST PUSH1 0x40 MLOAD PUSH32 0xF06294A300000000000000000000000000000000000000000000000000000000 DUP2 MSTORE PUSH1 0x4 ADD PUSH1 0x40 MLOAD DUP1 SWAP2 SUB SWAP1 REVERT JUMPDEST PUSH2 0x1B1C PUSH32 0x61BEA090DFB61B50A9F424714E9471122FA0DA7869A4D2C80E9BEDD8AA3181E PUSH1 0x0 SHL PUSH2 0x1D05 JUMP JUMPDEST PUSH2 0x1B48 PUSH32 0xEEDD0571EF7BB85B611DA618507814266E526D2F5C39C1ABC9695D2902E20789 PUSH1 0x0 SHL PUSH2 0x1D05 JUMP JUMPDEST PUSH2 0x1B74 PUSH32 0x99F0CF2D541166F6ABB6D27DA3D0F35614A65D43BD0C3843D4D6511AB7CBC66A PUSH1 0x0 SHL PUSH2 0x1D05 JUMP JUMPDEST PUSH2 0x3EB CALLVALUE PUSH2 0x3E8 PUSH2 0x1B85 SWAP2 SWAP1 PUSH2 0x2130 JUMP JUMPDEST PUSH2 0x1B8F SWAP2 SWAP1 PUSH2 0x21A1 JUMP JUMPDEST PUSH1 0x0 DUP1 CALLER PUSH20 0xFFFFFFFFFFFFFFFFFFFFFFFFFFFFFFFFFFFFFFFF AND PUSH20 0xFFFFFFFFFFFFFFFFFFFFFFFFFFFFFFFFFFFFFFFF AND DUP2 MSTORE PUSH1 0x20 ADD SWAP1 DUP2 MSTORE PUSH1 0x20 ADD PUSH1 0x0 KECCAK256 PUSH1 0x0 DUP3 DUP3 SLOAD PUSH2 0x1BDC SWAP2 SWAP1 PUSH2 0x20FC JUMP JUMPDEST SWAP3 POP POP DUP2 SWAP1 SSTORE POP PUSH2 0x1C0F PUSH32 0xCDAAC4DF2BE7B5C75756F68F72964D23EEC6FC031A058E308F1BCC245505969B PUSH1 0x0 SHL PUSH2 0x1D05 JUMP JUMPDEST PUSH2 0x1C3B PUSH32 0xC22BC0252ED92F3C72E1678DB40AC50AB644668210DA6615BCB4183EBD57447A PUSH1 0x0 SHL PUSH2 0x1D05 JUMP JUMPDEST PUSH2 0x1C43 PUSH2 0x1D08 JUMP JUMPDEST PUSH2 0x1C6F PUSH32 0xEC2B41D4E25C802DDC59FC083D285FD28AEA3C1CEFFA2F2A68F9D2F890173E92 PUSH1 0x0 SHL PUSH2 0x1D05 JUMP JUMPDEST PUSH2 0x1C9B PUSH32 0xEB862C16A9675D05644ED06DE3CF5F35E6BCF38BE7F6C5D057E51FC20AEC6AA5 PUSH1 0x0 SHL PUSH2 0x1D05 JUMP JUMPDEST PUSH32 0x0 PUSH20 0xFFFFFFFFFFFFFFFFFFFFFFFFFFFFFFFFFFFFFFFF AND PUSH2 0x8FC CALLVALUE SWAP1 DUP2 ISZERO MUL SWAP1 PUSH1 0x40 MLOAD PUSH1 0x0 PUSH1 0x40 MLOAD DUP1 DUP4 SUB DUP2 DUP6 DUP9 DUP9 CALL SWAP4 POP POP POP POP ISZERO DUP1 ISZERO PUSH2 0x1D01 JUMPI RETURNDATASIZE PUSH1 0x0 DUP1 RETURNDATACOPY RETURNDATASIZE PUSH1 0x0 REVERT JUMPDEST POP POP JUMP JUMPDEST POP JUMP JUMPDEST PUSH2 0x1D34 PUSH32 0xCB3FE7466771A87454AC4A22B6956041BB4BBBB64E887A73342C0DAC05975191 PUSH1 0x0 SHL PUSH2 0x1D05 JUMP JUMPDEST PUSH2 0x1D60 PUSH32 0x5C3BE25F2106A3D561CD10AFE3987A67808745179331EBE8C105A1D11C552365 PUSH1 0x0 SHL PUSH2 0x1D05 JUMP JUMPDEST PUSH2 0x1D8C PUSH32 0xBF7E21BB5D20BBC34DB7EAE293217A7F4C0948500BC2487C9FB153A9AA332B04 PUSH1 0x0 SHL PUSH2 0x1D05 JUMP JUMPDEST PUSH1 0x1 PUSH1 0x4 PUSH1 0x0 DUP3 DUP3 SLOAD PUSH2 0x1D9F SWAP2 SWAP1 PUSH2 0x20FC JUMP JUMPDEST SWAP3 POP POP DUP2 SWAP1 SSTORE POP PUSH2 0x1DD2 PUSH32 0xC026DEDADB7938F204132FFBC8673CCFF324C3450C4D49B758633564568BB34C PUSH1 0x0 SHL PUSH2 0x1D05 JUMP JUMPDEST PUSH2 0x1DFE PUSH32 0xEDC10EFE48112C3A7C2376D65349E77FA33824F92E02FCF8EE6EF9D71DA3070F PUSH1 0x0 SHL PUSH2 0x1D05 JUMP JUMPDEST CALLER PUSH1 0x3 PUSH1 0x0 PUSH1 0x4 SLOAD DUP2 MSTORE PUSH1 0x20 ADD SWAP1 DUP2 MSTORE PUSH1 0x20 ADD PUSH1 0x0 KECCAK256 PUSH1 0x0 PUSH2 0x100 EXP DUP2 SLOAD DUP2 PUSH20 0xFFFFFFFFFFFFFFFFFFFFFFFFFFFFFFFFFFFFFFFF MUL NOT AND SWAP1 DUP4 PUSH20 0xFFFFFFFFFFFFFFFFFFFFFFFFFFFFFFFFFFFFFFFF AND MUL OR SWAP1 SSTORE POP JUMP JUMPDEST PUSH1 0x0 DUP2 SWAP1 POP SWAP2 SWAP1 POP JUMP JUMPDEST PUSH2 0x1E67 DUP2 PUSH2 0x1E54 JUMP JUMPDEST DUP3 MSTORE POP POP JUMP JUMPDEST PUSH1 0x0 PUSH1 0x20 DUP3 ADD SWAP1 POP PUSH2 0x1E82 PUSH1 0x0 DUP4 ADD DUP5 PUSH2 0x1E5E JUMP JUMPDEST SWAP3 SWAP2 POP POP JUMP JUMPDEST PUSH1 0x0 DUP1 REVERT JUMPDEST PUSH1 0x0 PUSH20 0xFFFFFFFFFFFFFFFFFFFFFFFFFFFFFFFFFFFFFFFF DUP3 AND SWAP1 POP SWAP2 SWAP1 POP JUMP JUMPDEST PUSH1 0x0 PUSH2 0x1EB8 DUP3 PUSH2 0x1E8D JUMP JUMPDEST SWAP1 POP SWAP2 SWAP1 POP JUMP JUMPDEST PUSH2 0x1EC8 DUP2 PUSH2 0x1EAD JUMP JUMPDEST DUP2 EQ PUSH2 0x1ED3 JUMPI PUSH1 0x0 DUP1 REVERT JUMPDEST POP JUMP JUMPDEST PUSH1 0x0 DUP2 CALLDATALOAD SWAP1 POP PUSH2 0x1EE5 DUP2 PUSH2 0x1EBF JUMP JUMPDEST SWAP3 SWAP2 POP POP JUMP JUMPDEST PUSH1 0x0 PUSH1 0x20 DUP3 DUP5 SUB SLT ISZERO PUSH2 0x1F01 JUMPI PUSH2 0x1F00 PUSH2 0x1E88 JUMP JUMPDEST JUMPDEST PUSH1 0x0 PUSH2 0x1F0F DUP5 DUP3 DUP6 ADD PUSH2 0x1ED6 JUMP JUMPDEST SWAP2 POP POP SWAP3 SWAP2 POP POP JUMP JUMPDEST PUSH1 0x0 DUP2 SWAP1 POP SWAP2 SWAP1 POP JUMP JUMPDEST PUSH1 0x0 PUSH2 0x1F3D PUSH2 0x1F38 PUSH2 0x1F33 DUP5 PUSH2 0x1E8D JUMP JUMPDEST PUSH2 0x1F18 JUMP JUMPDEST PUSH2 0x1E8D JUMP JUMPDEST SWAP1 POP SWAP2 SWAP1 POP JUMP JUMPDEST PUSH1 0x0 PUSH2 0x1F4F DUP3 PUSH2 0x1F22 JUMP JUMPDEST SWAP1 POP SWAP2 SWAP1 POP JUMP JUMPDEST PUSH1 0x0 PUSH2 0x1F61 DUP3 PUSH2 0x1F44 JUMP JUMPDEST SWAP1 POP SWAP2 SWAP1 POP JUMP JUMPDEST PUSH2 0x1F71 DUP2 PUSH2 0x1F56 JUMP JUMPDEST DUP3 MSTORE POP POP JUMP JUMPDEST PUSH1 0x0 PUSH1 0x20 DUP3 ADD SWAP1 POP PUSH2 0x1F8C PUSH1 0x0 DUP4 ADD DUP5 PUSH2 0x1F68 JUMP JUMPDEST SWAP3 SWAP2 POP POP JUMP JUMPDEST PUSH2 0x1F9B DUP2 PUSH2 0x1EAD JUMP JUMPDEST DUP3 MSTORE POP POP JUMP JUMPDEST PUSH1 0x0 PUSH1 0x20 DUP3 ADD SWAP1 POP PUSH2 0x1FB6 PUSH1 0x0 DUP4 ADD DUP5 PUSH2 0x1F92 JUMP JUMPDEST SWAP3 SWAP2 POP POP JUMP JUMPDEST PUSH2 0x1FC5 DUP2 PUSH2 0x1E54 JUMP JUMPDEST DUP2 EQ PUSH2 0x1FD0 JUMPI PUSH1 0x0 DUP1 REVERT JUMPDEST POP JUMP JUMPDEST PUSH1 0x0 DUP2 CALLDATALOAD SWAP1 POP PUSH2 0x1FE2 DUP2 PUSH2 0x1FBC JUMP JUMPDEST SWAP3 SWAP2 POP POP JUMP JUMPDEST PUSH1 0x0 PUSH1 0x20 DUP3 DUP5 SUB SLT ISZERO PUSH2 0x1FFE JUMPI PUSH2 0x1FFD PUSH2 0x1E88 JUMP JUMPDEST JUMPDEST PUSH1 0x0 PUSH2 0x200C DUP5 DUP3 DUP6 ADD PUSH2 0x1FD3 JUMP JUMPDEST SWAP2 POP POP SWAP3 SWAP2 POP POP JUMP JUMPDEST PUSH1 0x0 DUP2 MLOAD SWAP1 POP PUSH2 0x2024 DUP2 PUSH2 0x1FBC JUMP JUMPDEST SWAP3 SWAP2 POP POP JUMP JUMPDEST PUSH1 0x0 PUSH1 0x20 DUP3 DUP5 SUB SLT ISZERO PUSH2 0x2040 JUMPI PUSH2 0x203F PUSH2 0x1E88 JUMP JUMPDEST JUMPDEST PUSH1 0x0 PUSH2 0x204E DUP5 DUP3 DUP6 ADD PUSH2 0x2015 JUMP JUMPDEST SWAP2 POP POP SWAP3 SWAP2 POP POP JUMP JUMPDEST PUSH1 0x0 DUP2 MLOAD SWAP1 POP PUSH2 0x2066 DUP2 PUSH2 0x1EBF JUMP JUMPDEST SWAP3 SWAP2 POP POP JUMP JUMPDEST PUSH1 0x0 PUSH1 0x20 DUP3 DUP5 SUB SLT ISZERO PUSH2 0x2082 JUMPI PUSH2 0x2081 PUSH2 0x1E88 JUMP JUMPDEST JUMPDEST PUSH1 0x0 PUSH2 0x2090 DUP5 DUP3 DUP6 ADD PUSH2 0x2057 JUMP JUMPDEST SWAP2 POP POP SWAP3 SWAP2 POP POP JUMP JUMPDEST PUSH32 0x4E487B7100000000000000000000000000000000000000000000000000000000 PUSH1 0x0 MSTORE PUSH1 0x11 PUSH1 0x4 MSTORE PUSH1 0x24 PUSH1 0x0 REVERT JUMPDEST PUSH1 0x0 PUSH2 0x20D3 DUP3 PUSH2 0x1E54 JUMP JUMPDEST SWAP2 POP PUSH2 0x20DE DUP4 PUSH2 0x1E54 JUMP JUMPDEST SWAP3 POP DUP3 DUP3 SUB SWAP1 POP DUP2 DUP2 GT ISZERO PUSH2 0x20F6 JUMPI PUSH2 0x20F5 PUSH2 0x2099 JUMP JUMPDEST JUMPDEST SWAP3 SWAP2 POP POP JUMP JUMPDEST PUSH1 0x0 PUSH2 0x2107 DUP3 PUSH2 0x1E54 JUMP JUMPDEST SWAP2 POP PUSH2 0x2112 DUP4 PUSH2 0x1E54 JUMP JUMPDEST SWAP3 POP DUP3 DUP3 ADD SWAP1 POP DUP1 DUP3 GT ISZERO PUSH2 0x212A JUMPI PUSH2 0x2129 PUSH2 0x2099 JUMP JUMPDEST JUMPDEST SWAP3 SWAP2 POP POP JUMP JUMPDEST PUSH1 0x0 PUSH2 0x213B DUP3 PUSH2 0x1E54 JUMP JUMPDEST SWAP2 POP PUSH2 0x2146 DUP4 PUSH2 0x1E54 JUMP JUMPDEST SWAP3 POP DUP3 DUP3 MUL PUSH2 0x2154 DUP2 PUSH2 0x1E54 JUMP JUMPDEST SWAP2 POP DUP3 DUP3 DIV DUP5 EQ DUP4 ISZERO OR PUSH2 0x216B JUMPI PUSH2 0x216A PUSH2 0x2099 JUMP JUMPDEST JUMPDEST POP SWAP3 SWAP2 POP POP JUMP JUMPDEST PUSH32 0x4E487B7100000000000000000000000000000000000000000000000000000000 PUSH1 0x0 MSTORE PUSH1 0x12 PUSH1 0x4 MSTORE PUSH1 0x24 PUSH1 0x0 REVERT JUMPDEST PUSH1 0x0 PUSH2 0x21AC DUP3 PUSH2 0x1E54 JUMP JUMPDEST SWAP2 POP PUSH2 0x21B7 DUP4 PUSH2 0x1E54 JUMP JUMPDEST SWAP3 POP DUP3 PUSH2 0x21C7 JUMPI PUSH2 0x21C6 PUSH2 0x2172 JUMP JUMPDEST JUMPDEST DUP3 DUP3 DIV SWAP1 POP SWAP3 SWAP2 POP POP JUMP INVALID LOG2 PUSH5 0x6970667358 0x22 SLT KECCAK256 MLOAD SLT DUP5 MSTORE 0xB5 BALANCE 0xE3 0x2B 0xAE 0x23 0xA9 DUP10 0xDE MLOAD PUSH30 0xF51EB4771D7272BB140AF731AEC1C1CF3764736F6C634300081100330000 "
        },
        "methodIdentifiers": {
          "Owner()": "b4a99a4e",
          "dequeue()": "957908d1",
          "first()": "3df4ddf4",
          "goerliBridgedETH(address)": "7bb1fdd2",
          "last()": "47799da8",
          "lockTokensForOptimism(uint256)": "e76438ab",
          "lockedForOptimismETH(address)": "abb6b5a1",
          "mockOwnerOptimismBridgeAddress(address)": "d06019f5",
          "optimismBridgeInstance()": "7f6c6d10",
          "ownerAddBridgeLiqudity()": "8521eebe",
          "ownerRemoveBridgeLiqudity()": "08dd057a",
          "ownerUnlockOptimismETH()": "515b74f2",
          "queue(uint256)": "ddf0b009"
        }
      }
    }
  }
}