{
  "_format": "hh-sol-artifact-1",
  "contractName": "MockGoerliBridgeERC20",
  "sourceName": "contracts/MockBridgeWrapped.sol",
  "abi": [
    {
      "inputs": [
        {
          "internalType": "address",
          "name": "addressWETH",
          "type": "address"
        },
        {
          "internalType": "address",
          "name": "addressWMATIC",
          "type": "address"
        }
      ],
      "stateMutability": "nonpayable",
      "type": "constructor"
    },
    {
      "inputs": [],
      "name": "bridgeEmpty",
      "type": "error"
    },
    {
      "inputs": [],
      "name": "bridgeOnOtherSideNeedsLiqudity",
      "type": "error"
    },
    {
      "inputs": [],
      "name": "bridgedAlready",
      "type": "error"
    },
    {
      "inputs": [],
      "name": "msgValueDoesNotCoverFee",
      "type": "error"
    },
    {
      "inputs": [],
      "name": "msgValueLessThan1000",
      "type": "error"
    },
    {
      "inputs": [],
      "name": "msgValueZero",
      "type": "error"
    },
    {
      "inputs": [],
      "name": "notExternalBridge",
      "type": "error"
    },
    {
      "inputs": [],
      "name": "notOwnerAddress",
      "type": "error"
    },
    {
      "inputs": [],
      "name": "ownerBridgeUsersBeforeWithdraw",
      "type": "error"
    },
    {
      "inputs": [],
      "name": "queueIsEmpty",
      "type": "error"
    },
    {
      "inputs": [],
      "name": "queueNotEmpty",
      "type": "error"
    },
    {
      "inputs": [],
      "name": "Owner",
      "outputs": [
        {
          "internalType": "address",
          "name": "",
          "type": "address"
        }
      ],
      "stateMutability": "view",
      "type": "function"
    },
    {
      "inputs": [],
      "name": "callMATIC",
      "outputs": [
        {
          "internalType": "contract ERC20TokenContractMATIC",
          "name": "",
          "type": "address"
        }
      ],
      "stateMutability": "view",
      "type": "function"
    },
    {
      "inputs": [],
      "name": "callWETH",
      "outputs": [
        {
          "internalType": "contract ERC20TokenContractWETH",
          "name": "",
          "type": "address"
        }
      ],
      "stateMutability": "view",
      "type": "function"
    },
    {
      "inputs": [],
      "name": "dequeue",
      "outputs": [],
      "stateMutability": "nonpayable",
      "type": "function"
    },
    {
      "inputs": [],
      "name": "first",
      "outputs": [
        {
          "internalType": "uint256",
          "name": "",
          "type": "uint256"
        }
      ],
      "stateMutability": "view",
      "type": "function"
    },
    {
      "inputs": [
        {
          "internalType": "address",
          "name": "",
          "type": "address"
        }
      ],
      "name": "goerliBridgedETH",
      "outputs": [
        {
          "internalType": "uint256",
          "name": "",
          "type": "uint256"
        }
      ],
      "stateMutability": "view",
      "type": "function"
    },
    {
      "inputs": [],
      "name": "last",
      "outputs": [
        {
          "internalType": "uint256",
          "name": "",
          "type": "uint256"
        }
      ],
      "stateMutability": "view",
      "type": "function"
    },
    {
      "inputs": [
        {
          "internalType": "uint256",
          "name": "bridgeAmount",
          "type": "uint256"
        }
      ],
      "name": "lockTokensForOptimism",
      "outputs": [],
      "stateMutability": "payable",
      "type": "function"
    },
    {
      "inputs": [
        {
          "internalType": "address",
          "name": "",
          "type": "address"
        }
      ],
      "name": "lockedForOptimismETH",
      "outputs": [
        {
          "internalType": "uint256",
          "name": "",
          "type": "uint256"
        }
      ],
      "stateMutability": "view",
      "type": "function"
    },
    {
      "inputs": [
        {
          "internalType": "address",
          "name": "_token",
          "type": "address"
        }
      ],
      "name": "mockOwnerOptimismBridgeAddress",
      "outputs": [],
      "stateMutability": "nonpayable",
      "type": "function"
    },
    {
      "inputs": [],
      "name": "mumbaiBridgeInstance",
      "outputs": [
        {
          "internalType": "contract MockMumbaiBridge",
          "name": "",
          "type": "address"
        }
      ],
      "stateMutability": "view",
      "type": "function"
    },
    {
      "inputs": [],
      "name": "ownerRemoveBridgeLiqudity",
      "outputs": [],
      "stateMutability": "nonpayable",
      "type": "function"
    },
    {
      "inputs": [],
      "name": "ownerUnlockGoerliETH",
      "outputs": [],
      "stateMutability": "nonpayable",
      "type": "function"
    },
    {
      "inputs": [
        {
          "internalType": "uint256",
          "name": "",
          "type": "uint256"
        }
      ],
      "name": "queue",
      "outputs": [
        {
          "internalType": "address",
          "name": "",
          "type": "address"
        }
      ],
      "stateMutability": "view",
      "type": "function"
    }
  ],
  "bytecode": "0x60a060405260016007553480156200001657600080fd5b50604051620028443803806200284483398181016040528101906200003c9190620002d3565b620000707fb4feee9a71c737ad36674ee290137d3c3833128c53f683530392b85f48726da560001b6200026660201b60201c565b620000a47feef8c8b1eb477c70ff607570b8228bb0d77a01e7d2b62aed32d0b7931c9652e760001b6200026660201b60201c565b620000d87f81d9b71f3b22bbb8924d9d20ebcc31e7a9d00c22afd61acd17eed5a4c364c3c660001b6200026660201b60201c565b3373ffffffffffffffffffffffffffffffffffffffff1660808173ffffffffffffffffffffffffffffffffffffffff1681525050620001407fe21aec8d2104413afb5c848e53683fad38399b1590b008f8809bf4be8945289e60001b6200026660201b60201c565b620001747f37d6469b8b1ca9b8daed7dcc22441fb2d1fcb71209d72fee35aeb4234264b3ad60001b6200026660201b60201c565b80600260006101000a81548173ffffffffffffffffffffffffffffffffffffffff021916908373ffffffffffffffffffffffffffffffffffffffff160217905550620001e97f55fcf399212999db09324eef8ca48b4d1675be736ebf9f2106d144bfe9b4271d60001b6200026660201b60201c565b6200021d7ff05d3c57a53c884f0cf5f742ddf0fedb4c1c9ea4dbfeef817eb7b9720346a19b60001b6200026660201b60201c565b81600360006101000a81548173ffffffffffffffffffffffffffffffffffffffff021916908373ffffffffffffffffffffffffffffffffffffffff16021790555050506200031a565b50565b600080fd5b600073ffffffffffffffffffffffffffffffffffffffff82169050919050565b60006200029b826200026e565b9050919050565b620002ad816200028e565b8114620002b957600080fd5b50565b600081519050620002cd81620002a2565b92915050565b60008060408385031215620002ed57620002ec62000269565b5b6000620002fd85828601620002bc565b92505060206200031085828601620002bc565b9150509250929050565b6080516124eb62000359600039600081816103ab0152818161090701528181610db101528181611640015281816117340152611e7a01526124eb6000f3fe6080604052600436106100dd5760003560e01c8063af11cb401161007f578063cc7c7a7d11610059578063cc7c7a7d14610278578063d06019f5146102a3578063ddf0b009146102cc578063e76438ab14610309576100dd565b8063af11cb401461020b578063b4a99a4e14610222578063c4e8fe431461024d576100dd565b80637bb1fdd2116100bb5780637bb1fdd21461014f578063957908d11461018c5780639ee813d2146101a3578063abb6b5a1146101ce576100dd565b806308dd057a146100e25780633df4ddf4146100f957806347799da814610124575b600080fd5b3480156100ee57600080fd5b506100f7610325565b005b34801561010557600080fd5b5061010e610a25565b60405161011b919061204a565b60405180910390f35b34801561013057600080fd5b50610139610a2b565b604051610146919061204a565b60405180910390f35b34801561015b57600080fd5b50610176600480360381019061017191906120c8565b610a31565b604051610183919061204a565b60405180910390f35b34801561019857600080fd5b506101a1610a49565b005b3480156101af57600080fd5b506101b8610ced565b6040516101c59190612154565b60405180910390f35b3480156101da57600080fd5b506101f560048036038101906101f091906120c8565b610d13565b604051610202919061204a565b60405180910390f35b34801561021757600080fd5b50610220610d2b565b005b34801561022e57600080fd5b5061023761163e565b604051610244919061217e565b60405180910390f35b34801561025957600080fd5b50610262611662565b60405161026f91906121ba565b60405180910390f35b34801561028457600080fd5b5061028d611688565b60405161029a91906121f6565b60405180910390f35b3480156102af57600080fd5b506102ca60048036038101906102c591906120c8565b6116ae565b005b3480156102d857600080fd5b506102f360048036038101906102ee919061223d565b6118ab565b604051610300919061217e565b60405180910390f35b610323600480360381019061031e919061223d565b6118de565b005b6103517f4377d017d35df25ed68e3271e97036f17a7be5c0379b16acde408889f42fee4f60001b611ee2565b61037d7f7789e2a0071ac474851214c97231f26d060f2b8719e6b7427af7d4504bce44d860001b611ee2565b6103a97fd44a7639ff9f7b0c451f3434b4f8c0ff71c14e22e0fbf20f4bee0f382546566860001b611ee2565b7f000000000000000000000000000000000000000000000000000000000000000073ffffffffffffffffffffffffffffffffffffffff163373ffffffffffffffffffffffffffffffffffffffff161461045a576104287f20759d47fb1de2a7d407176f67146b0f02f729536ca2869e3d1c6a7c40450cdc60001b611ee2565b6040517f1ee8575e00000000000000000000000000000000000000000000000000000000815260040160405180910390fd5b6104867f50d45f353b0127adb5e29a323d06746dc550d50f5944b712e0d414a491a0a6d660001b611ee2565b6104b27f4bcb7c2e8a349b05fb2b3e902408dd30adcc36f3ee0e94d465d9170e1471fe1060001b611ee2565b6104de7ff1f57e3eb285f031096c2db4539ea6a39f6500dfdbe99c1367b8e3f2ff87610660001b611ee2565b6000600260009054906101000a900473ffffffffffffffffffffffffffffffffffffffff1673ffffffffffffffffffffffffffffffffffffffff166370a08231306040518263ffffffff1660e01b815260040161053b919061217e565b602060405180830381865afa158015610558573d6000803e3d6000fd5b505050506040513d601f19601f8201168201806040525081019061057c919061227f565b036105df576105ad7f98f79bc1cdb8011b820a6671ad54c78aa709716de92d5d52cae0e55e3fccd70e60001b611ee2565b6040517f7a1f291700000000000000000000000000000000000000000000000000000000815260040160405180910390fd5b61060b7f91674e7222fc90c36852d702cc727be7e2c1cae5c85fc0cfef49adf5998f494b60001b611ee2565b6106377f613637570071aea05b6c6600a542d5e5b5f887d6959f42d1c23f3b113b2cd17160001b611ee2565b6106637f6d17d69b2241e66ef2e77944b109a346b6b651490264f42ed6f9b9cc3662c5c260001b611ee2565b600073ffffffffffffffffffffffffffffffffffffffff16600460009054906101000a900473ffffffffffffffffffffffffffffffffffffffff1673ffffffffffffffffffffffffffffffffffffffff1614806107e05750600460009054906101000a900473ffffffffffffffffffffffffffffffffffffffff1673ffffffffffffffffffffffffffffffffffffffff16633df4ddf46040518163ffffffff1660e01b8152600401602060405180830381865afa158015610728573d6000803e3d6000fd5b505050506040513d601f19601f8201168201806040525081019061074c919061227f565b600460009054906101000a900473ffffffffffffffffffffffffffffffffffffffff1673ffffffffffffffffffffffffffffffffffffffff166347799da86040518163ffffffff1660e01b8152600401602060405180830381865afa1580156107b9573d6000803e3d6000fd5b505050506040513d601f19601f820116820180604052508101906107dd919061227f565b10155b15610843576108117f7ac5d5e0901f28a799d79d823057f287d047ea5d43c6ce6c7964ae52ef6980b560001b611ee2565b6040517f230accfd00000000000000000000000000000000000000000000000000000000815260040160405180910390fd5b61086f7f15c2eb1209c5f30a22e113f0bb0c62ffb06b4b76f2f35053b18acf6af8817dab60001b611ee2565b61089b7f3646b5edee40ec424e9dc524abf72715bdbad27356798a74d462aeee30a5660060001b611ee2565b6108c77fea96ab3d64fe1de44697c22f48799d455e10e8f333cdc2326beb5c67835b025f60001b611ee2565b600260009054906101000a900473ffffffffffffffffffffffffffffffffffffffff1673ffffffffffffffffffffffffffffffffffffffff1663a9059cbb7f0000000000000000000000000000000000000000000000000000000000000000600260009054906101000a900473ffffffffffffffffffffffffffffffffffffffff1673ffffffffffffffffffffffffffffffffffffffff166370a08231306040518263ffffffff1660e01b8152600401610981919061217e565b602060405180830381865afa15801561099e573d6000803e3d6000fd5b505050506040513d601f19601f820116820180604052508101906109c2919061227f565b6040518363ffffffff1660e01b81526004016109df9291906122ac565b6020604051808303816000875af11580156109fe573d6000803e3d6000fd5b505050506040513d601f19601f82011682018060405250810190610a22919061230d565b50565b60075481565b60065481565b60016020528060005260406000206000915090505481565b610a757fc3f4641e0aea383935d03313bdb92647c89388150a6f2d0aa6db677ffb5a666c60001b611ee2565b610aa17f724685dee753c8dcb52f2a5ce7dc04f40b4c3edcf9470160fa113b8c15f3854360001b611ee2565b610acd7f486c1aa1021d6884866abbff94b3b49f46073f596800237226682568dd07f4d960001b611ee2565b600073ffffffffffffffffffffffffffffffffffffffff16600460009054906101000a900473ffffffffffffffffffffffffffffffffffffffff1673ffffffffffffffffffffffffffffffffffffffff161480610b785750600460009054906101000a900473ffffffffffffffffffffffffffffffffffffffff1673ffffffffffffffffffffffffffffffffffffffff163373ffffffffffffffffffffffffffffffffffffffff1614155b80610b865750600754600654105b15610be957610bb77ff0064fecf280513dcfed0efe9e0569146171dde84c4e17d8a78816026e0041e660001b611ee2565b6040517f4da1bc3400000000000000000000000000000000000000000000000000000000815260040160405180910390fd5b610c157fa185cb690f0bb09a23db01187777e74a02ffe18baf7711b0e950df5aa3a82d9560001b611ee2565b610c417f514aff85211196a338a3b841e50c427857c45e16a94517750a1d65683921154760001b611ee2565b60056000600754815260200190815260200160002060006101000a81549073ffffffffffffffffffffffffffffffffffffffff0219169055610ca57fc474c2c15d183b85964841840ae90be1b18757563d20a2e48c98a6804989a92c60001b611ee2565b610cd17f3395810341d4f2b120d09839c8aed0f014c6484105c16b29fc4e7b99c7ca27a460001b611ee2565b600160076000828254610ce49190612369565b92505081905550565b600360009054906101000a900473ffffffffffffffffffffffffffffffffffffffff1681565b60006020528060005260406000206000915090505481565b610d577f5994898c4a10c009b5d259711abbb400d8287d70c0dbfba9f8f14793792e6d6e60001b611ee2565b610d837f2a8b8f96c760377099c04dd2566327675259c3ef6ea6d77fd1a6138ee705fbf160001b611ee2565b610daf7f1f12a6a5c57b495ccbdea48f73ffaf1f4f501c571c4818e6e520117781819b1c60001b611ee2565b7f000000000000000000000000000000000000000000000000000000000000000073ffffffffffffffffffffffffffffffffffffffff163373ffffffffffffffffffffffffffffffffffffffff1614610e6057610e2e7f38e381005116c1a98ad1a13e9d47e4eef1233d8059fa107b9e99c48ff83edc8560001b611ee2565b6040517f1ee8575e00000000000000000000000000000000000000000000000000000000815260040160405180910390fd5b610e8c7f23cb081743bb4406698f97e8119bb2b8db12e32b4fffca24ba7223773ce74a7760001b611ee2565b610eb87fbfa2c88f636faf2320ca301585b210454119d38bb99805d8f3111a3ece59294660001b611ee2565b610ee47fef0d237b4c742569c1922361b9e66b739356962fd7583270c2146ded2f77d15a60001b611ee2565b600073ffffffffffffffffffffffffffffffffffffffff16600460009054906101000a900473ffffffffffffffffffffffffffffffffffffffff1673ffffffffffffffffffffffffffffffffffffffff1614806110605750600460009054906101000a900473ffffffffffffffffffffffffffffffffffffffff1673ffffffffffffffffffffffffffffffffffffffff16633df4ddf46040518163ffffffff1660e01b8152600401602060405180830381865afa158015610fa9573d6000803e3d6000fd5b505050506040513d601f19601f82011682018060405250810190610fcd919061227f565b600460009054906101000a900473ffffffffffffffffffffffffffffffffffffffff1673ffffffffffffffffffffffffffffffffffffffff166347799da86040518163ffffffff1660e01b8152600401602060405180830381865afa15801561103a573d6000803e3d6000fd5b505050506040513d601f19601f8201168201806040525081019061105e919061227f565b105b156110c3576110917fc54d0bc630497e7da5b63c74cf6e71aab7dbab057f0e99bdfed315608ca8278e60001b611ee2565b6040517f5e61bb8700000000000000000000000000000000000000000000000000000000815260040160405180910390fd5b6110ef7f1c442f2873a54f4b417f78c1ffe2ad4d6507a745056aee32d274ed67ef7b50a060001b611ee2565b61111b7ffcda2cb0b2e4be7b6b3e432cc17db033ce9768e8c3e75f56fc1549a32096018a60001b611ee2565b6111477f21cf2158e8cfd4695040c8c9ca30b310f6a43dc9af740a61e1c3123dbe4821e760001b611ee2565b6000600460009054906101000a900473ffffffffffffffffffffffffffffffffffffffff1673ffffffffffffffffffffffffffffffffffffffff1663ddf0b009600460009054906101000a900473ffffffffffffffffffffffffffffffffffffffff1673ffffffffffffffffffffffffffffffffffffffff166347799da86040518163ffffffff1660e01b8152600401602060405180830381865afa1580156111f4573d6000803e3d6000fd5b505050506040513d601f19601f82011682018060405250810190611218919061227f565b6040518263ffffffff1660e01b8152600401611234919061204a565b602060405180830381865afa158015611251573d6000803e3d6000fd5b505050506040513d601f19601f8201168201806040525081019061127591906123b2565b90506112a37f4e9849274dfdbf88ba36c7f62a3a99ef965b9a5d50df965927efbf6549a444a760001b611ee2565b6112cf7f8ae51670c12788161ffe9aa1f4b5ed42854b7e68bd103cc3d688ee79fa09208e60001b611ee2565b600460009054906101000a900473ffffffffffffffffffffffffffffffffffffffff1673ffffffffffffffffffffffffffffffffffffffff1663957908d16040518163ffffffff1660e01b8152600401600060405180830381600087803b15801561133957600080fd5b505af115801561134d573d6000803e3d6000fd5b5050505061137d7f2110c43a995c0b891ef561bd2a05ac9a699d5ae7e71b3c91715db4d34d119d1460001b611ee2565b6113a97fb9d016df5a4a62531f1b10a705d8c8731b6aa88128d31f7b568f46a8fe98d0ea60001b611ee2565b6000600160008373ffffffffffffffffffffffffffffffffffffffff1673ffffffffffffffffffffffffffffffffffffffff16815260200190815260200160002054600460009054906101000a900473ffffffffffffffffffffffffffffffffffffffff1673ffffffffffffffffffffffffffffffffffffffff1663e3d66f68846040518263ffffffff1660e01b8152600401611446919061217e565b602060405180830381865afa158015611463573d6000803e3d6000fd5b505050506040513d601f19601f82011682018060405250810190611487919061227f565b61149191906123df565b90506114bf7fdc973daac4727327c1bd82efdedfe8cc520aa1128fa0cc10a0c5dfd7d00cdae160001b611ee2565b6114eb7f5bbbbb2f3c2fc5e4f18cef39a68fab8f01a2e41c223170331ec07345eccc9f9c60001b611ee2565b80600160008473ffffffffffffffffffffffffffffffffffffffff1673ffffffffffffffffffffffffffffffffffffffff168152602001908152602001600020600082825461153a9190612369565b9250508190555061156d7f160626b33cb1463ba92aa73ed179c49f8bda39afa26ce237bb697c7dde07c61560001b611ee2565b6115997f2a365131cd736dbfee8414df3aa3b0395b6bbd9da87522d56e1d8caa7c4ba62160001b611ee2565b600260009054906101000a900473ffffffffffffffffffffffffffffffffffffffff1673ffffffffffffffffffffffffffffffffffffffff1663a9059cbb83836040518363ffffffff1660e01b81526004016115f69291906122ac565b6020604051808303816000875af1158015611615573d6000803e3d6000fd5b505050506040513d601f19601f82011682018060405250810190611639919061230d565b505050565b7f000000000000000000000000000000000000000000000000000000000000000081565b600460009054906101000a900473ffffffffffffffffffffffffffffffffffffffff1681565b600260009054906101000a900473ffffffffffffffffffffffffffffffffffffffff1681565b6116da7f39e059ade106258fe1d76e4f8d723db07657df5caed5092595d08fd1066ada3960001b611ee2565b6117067f0a4235a1d5eaa413abb55f8d10a6b817a4e30ab27057e3068a3539e86a9ee03960001b611ee2565b6117327ff7d80383800df5eae030269ee96e1e7980b3255114e87bd4aff881c5cdf40beb60001b611ee2565b7f000000000000000000000000000000000000000000000000000000000000000073ffffffffffffffffffffffffffffffffffffffff163373ffffffffffffffffffffffffffffffffffffffff16146117e3576117b17fa3b8dc17ec61c0a4c1f98c17c22bca9d2d2b905d93c5cd9f158184224a0a5f3d60001b611ee2565b6040517f1ee8575e00000000000000000000000000000000000000000000000000000000815260040160405180910390fd5b61180f7fe2c601f1f6c35422033b9e0458926c6bb3ee21c00d5493a723d40a37ed14368360001b611ee2565b61183b7fd57e102b15ae693aedf186984e9f9598741aa48f3730008554537732c07e137560001b611ee2565b6118677ff75e79a5a27235c2e3467039ac9433fa2c88defaf7fcea2f4df07b842e8485a260001b611ee2565b80600460006101000a81548173ffffffffffffffffffffffffffffffffffffffff021916908373ffffffffffffffffffffffffffffffffffffffff16021790555050565b60056020528060005260406000206000915054906101000a900473ffffffffffffffffffffffffffffffffffffffff1681565b61190a7ffbb8227818848288f41be247ca0c369b48942596d791be20b1f932af09ca7f7660001b611ee2565b6119367fcd9e2a97b68e61ebbd52d1a2bd21ee4f239daf41d11c45cd740a2da6be90a6c760001b611ee2565b6119627ffd8ef65cd8ec5a6032f81c639b8edc39d3aa4abfee893dde95fdfb2763b920d060001b611ee2565b6103e88110156119ca576119987ff4f71d397604e15029820d1cf47df82593d43e6bf98799887aa8c9a8f355e98e60001b611ee2565b6040517fa9f2d61800000000000000000000000000000000000000000000000000000000815260040160405180910390fd5b6119f67ffb7e5226609ee2777c462878813b3c202e5ec577c5a9b21f624903b5395206bc60001b611ee2565b611a227f1f3a4594aa6f1e8e08114463b763978c0112867542a33d6fe159fa6c00f05f6960001b611ee2565b611a4e7f502e39d4ce5005480a162c35231d47741fc28f24e79ae678b86592314c882d9d60001b611ee2565b6103e8816103eb611a5f9190612413565b611a699190612484565b3414611acd57611a9b7f907035d99413550a04066333fb589a69cfff29d939dd1d5dfaccfb76268f33ba60001b611ee2565b6040517f400f9fb800000000000000000000000000000000000000000000000000000000815260040160405180910390fd5b611af97f4b664781ef863c300f2ce51c485f78cb15d1133e2b1c8a44a9192ca4eda3c11e60001b611ee2565b611b257fc972fd7adfa500c2a8139a3ed9d47a44291b151ec1f12b832ea06c1fee35127660001b611ee2565b611b517fa8fa06a9e9a8e1592e40400832d59a8da463dcbfe0d14f991c9e3deba2b9127a60001b611ee2565b600073ffffffffffffffffffffffffffffffffffffffff16600460009054906101000a900473ffffffffffffffffffffffffffffffffffffffff1673ffffffffffffffffffffffffffffffffffffffff161480611c6a575080600360009054906101000a900473ffffffffffffffffffffffffffffffffffffffff1673ffffffffffffffffffffffffffffffffffffffff166370a08231600460009054906101000a900473ffffffffffffffffffffffffffffffffffffffff166040518263ffffffff1660e01b8152600401611c27919061217e565b602060405180830381865afa158015611c44573d6000803e3d6000fd5b505050506040513d601f19601f82011682018060405250810190611c68919061227f565b105b15611ccd57611c9b7f050f21502a0aa47ccd7f9050accc4b43e334b98e788f00af3d1ac4ff79af163560001b611ee2565b6040517ff06294a300000000000000000000000000000000000000000000000000000000815260040160405180910390fd5b611cf97f94149b29d4bd078600fcedf937233e8dfbf754bac79fb6b16c97dd686056147e60001b611ee2565b611d257f57ea1f34908ad25a8d73a66dd0f8d664c80c4458545bf7488127c6a465903bf860001b611ee2565b611d517f4d483fea9922c032a02885f0421dac33e8523167ccd12b5100f0ca536ac83ace60001b611ee2565b6103eb346103e8611d629190612413565b611d6c9190612484565b6000803373ffffffffffffffffffffffffffffffffffffffff1673ffffffffffffffffffffffffffffffffffffffff1681526020019081526020016000206000828254611db99190612369565b92505081905550611dec7f2abfb0b56e69c9a4d3a5f6bbb3a95a714f8745981372d189d6c521a0b9e6e10860001b611ee2565b611e187f157543f593c48001ac635441b67c919b3e1a848355687c7a500e1b2deb5321f360001b611ee2565b611e20611ee5565b611e4c7f36f8fb74edbe306067f3b44c9ec950e546724aee1343832a909fa300e24cdcc860001b611ee2565b611e787fed8c7171a097fbb5860e71276f89d7556b87b49dba399ed2b952f2f1368cd75260001b611ee2565b7f000000000000000000000000000000000000000000000000000000000000000073ffffffffffffffffffffffffffffffffffffffff166108fc349081150290604051600060405180830381858888f19350505050158015611ede573d6000803e3d6000fd5b5050565b50565b611f117f796cab161ece4b09c0e1be6b923513272508828542fd968c89025dab7e791a4e60001b611ee2565b611f3d7fd009f3072f494f1392269fcd8062c2c08c93ece8a6006d4c2e203fa146f259a760001b611ee2565b611f697f2623e0b679705ee26a77797235685b5361b6b81ddea213bb4691f5f602dda9db60001b611ee2565b600160066000828254611f7c9190612369565b92505081905550611faf7f7ec414675359b69ddb1102840de4f102b047e26939e7a1f99a1b0c7bffe09ee760001b611ee2565b611fdb7f379a378ace1d86a13fc1f5338ea91eddf08ba856851877e26bf6434fea38051560001b611ee2565b3360056000600654815260200190815260200160002060006101000a81548173ffffffffffffffffffffffffffffffffffffffff021916908373ffffffffffffffffffffffffffffffffffffffff160217905550565b6000819050919050565b61204481612031565b82525050565b600060208201905061205f600083018461203b565b92915050565b600080fd5b600073ffffffffffffffffffffffffffffffffffffffff82169050919050565b60006120958261206a565b9050919050565b6120a58161208a565b81146120b057600080fd5b50565b6000813590506120c28161209c565b92915050565b6000602082840312156120de576120dd612065565b5b60006120ec848285016120b3565b91505092915050565b6000819050919050565b600061211a6121156121108461206a565b6120f5565b61206a565b9050919050565b600061212c826120ff565b9050919050565b600061213e82612121565b9050919050565b61214e81612133565b82525050565b60006020820190506121696000830184612145565b92915050565b6121788161208a565b82525050565b6000602082019050612193600083018461216f565b92915050565b60006121a482612121565b9050919050565b6121b481612199565b82525050565b60006020820190506121cf60008301846121ab565b92915050565b60006121e082612121565b9050919050565b6121f0816121d5565b82525050565b600060208201905061220b60008301846121e7565b92915050565b61221a81612031565b811461222557600080fd5b50565b60008135905061223781612211565b92915050565b60006020828403121561225357612252612065565b5b600061226184828501612228565b91505092915050565b60008151905061227981612211565b92915050565b60006020828403121561229557612294612065565b5b60006122a38482850161226a565b91505092915050565b60006040820190506122c1600083018561216f565b6122ce602083018461203b565b9392505050565b60008115159050919050565b6122ea816122d5565b81146122f557600080fd5b50565b600081519050612307816122e1565b92915050565b60006020828403121561232357612322612065565b5b6000612331848285016122f8565b91505092915050565b7f4e487b7100000000000000000000000000000000000000000000000000000000600052601160045260246000fd5b600061237482612031565b915061237f83612031565b92508282019050808211156123975761239661233a565b5b92915050565b6000815190506123ac8161209c565b92915050565b6000602082840312156123c8576123c7612065565b5b60006123d68482850161239d565b91505092915050565b60006123ea82612031565b91506123f583612031565b925082820390508181111561240d5761240c61233a565b5b92915050565b600061241e82612031565b915061242983612031565b925082820261243781612031565b9150828204841483151761244e5761244d61233a565b5b5092915050565b7f4e487b7100000000000000000000000000000000000000000000000000000000600052601260045260246000fd5b600061248f82612031565b915061249a83612031565b9250826124aa576124a9612455565b5b82820490509291505056fea26469706673582212205f033378485ba3c688cf44e954cdb8be62997de98da2ae2c9d27650928d29f7564736f6c63430008110033",
  "linkReferences": {},
  "deployedLinkReferences": {}
}