{
  "_format": "hh-sol-artifact-1",
  "contractName": "MockGoerliBridgeERC20",
  "sourceName": "contracts/MockBridgeWrapped.sol",
  "abi": [
    {
      "inputs": [
        {
          "internalType": "address",
          "name": "addressWETH",
          "type": "address"
        },
        {
          "internalType": "address",
          "name": "addressWMATIC",
          "type": "address"
        }
      ],
      "stateMutability": "nonpayable",
      "type": "constructor"
    },
    {
      "inputs": [],
      "name": "bridgeEmpty",
      "type": "error"
    },
    {
      "inputs": [],
      "name": "bridgeOnOtherSideNeedsLiqudity",
      "type": "error"
    },
    {
      "inputs": [],
      "name": "bridgedAlready",
      "type": "error"
    },
    {
      "inputs": [],
      "name": "msgValueNot1003",
      "type": "error"
    },
    {
      "inputs": [],
      "name": "msgValueZero",
      "type": "error"
    },
    {
      "inputs": [],
      "name": "notExternalBridge",
      "type": "error"
    },
    {
      "inputs": [],
      "name": "notOwnerAddress",
      "type": "error"
    },
    {
      "inputs": [],
      "name": "ownerBridgeUsersBeforeWithdraw",
      "type": "error"
    },
    {
      "inputs": [],
      "name": "queueIsEmpty",
      "type": "error"
    },
    {
      "inputs": [],
      "name": "queueNotEmpty",
      "type": "error"
    },
    {
      "inputs": [],
      "name": "Owner",
      "outputs": [
        {
          "internalType": "address",
          "name": "",
          "type": "address"
        }
      ],
      "stateMutability": "view",
      "type": "function"
    },
    {
      "inputs": [],
      "name": "callMATIC",
      "outputs": [
        {
          "internalType": "contract ERC20TokenContractMATIC",
          "name": "",
          "type": "address"
        }
      ],
      "stateMutability": "view",
      "type": "function"
    },
    {
      "inputs": [],
      "name": "callWETH",
      "outputs": [
        {
          "internalType": "contract ERC20TokenContractWETH",
          "name": "",
          "type": "address"
        }
      ],
      "stateMutability": "view",
      "type": "function"
    },
    {
      "inputs": [],
      "name": "dequeue",
      "outputs": [],
      "stateMutability": "nonpayable",
      "type": "function"
    },
    {
      "inputs": [],
      "name": "first",
      "outputs": [
        {
          "internalType": "uint256",
          "name": "",
          "type": "uint256"
        }
      ],
      "stateMutability": "view",
      "type": "function"
    },
    {
      "inputs": [],
      "name": "last",
      "outputs": [
        {
          "internalType": "uint256",
          "name": "",
          "type": "uint256"
        }
      ],
      "stateMutability": "view",
      "type": "function"
    },
    {
      "inputs": [],
      "name": "lockTokensForOptimism",
      "outputs": [],
      "stateMutability": "payable",
      "type": "function"
    },
    {
      "inputs": [
        {
          "internalType": "address",
          "name": "_token",
          "type": "address"
        }
      ],
      "name": "mockOwnerOptimismBridgeAddress",
      "outputs": [],
      "stateMutability": "nonpayable",
      "type": "function"
    },
    {
      "inputs": [],
      "name": "mumbaiBridgeInstance",
      "outputs": [
        {
          "internalType": "contract MockMumbaiBridge",
          "name": "",
          "type": "address"
        }
      ],
      "stateMutability": "view",
      "type": "function"
    },
    {
      "inputs": [],
      "name": "ownerRemoveBridgeLiqudity",
      "outputs": [],
      "stateMutability": "nonpayable",
      "type": "function"
    },
    {
      "inputs": [],
      "name": "ownerUnlockGoerliETH",
      "outputs": [],
      "stateMutability": "nonpayable",
      "type": "function"
    },
    {
      "inputs": [
        {
          "internalType": "uint256",
          "name": "",
          "type": "uint256"
        }
      ],
      "name": "queue",
      "outputs": [
        {
          "internalType": "address",
          "name": "",
          "type": "address"
        }
      ],
      "stateMutability": "view",
      "type": "function"
    }
  ],
  "bytecode": "0x60a060405260016005553480156200001657600080fd5b50604051620023b9380380620023b983398181016040528101906200003c9190620002d2565b620000707f2a8b8f96c760377099c04dd2566327675259c3ef6ea6d77fd1a6138ee705fbf160001b6200026560201b60201c565b620000a47f1f12a6a5c57b495ccbdea48f73ffaf1f4f501c571c4818e6e520117781819b1c60001b6200026560201b60201c565b620000d87f38e381005116c1a98ad1a13e9d47e4eef1233d8059fa107b9e99c48ff83edc8560001b6200026560201b60201c565b3373ffffffffffffffffffffffffffffffffffffffff1660808173ffffffffffffffffffffffffffffffffffffffff1681525050620001407f23cb081743bb4406698f97e8119bb2b8db12e32b4fffca24ba7223773ce74a7760001b6200026560201b60201c565b620001747fbfa2c88f636faf2320ca301585b210454119d38bb99805d8f3111a3ece59294660001b6200026560201b60201c565b806000806101000a81548173ffffffffffffffffffffffffffffffffffffffff021916908373ffffffffffffffffffffffffffffffffffffffff160217905550620001e87fef0d237b4c742569c1922361b9e66b739356962fd7583270c2146ded2f77d15a60001b6200026560201b60201c565b6200021c7fc54d0bc630497e7da5b63c74cf6e71aab7dbab057f0e99bdfed315608ca8278e60001b6200026560201b60201c565b81600160006101000a81548173ffffffffffffffffffffffffffffffffffffffff021916908373ffffffffffffffffffffffffffffffffffffffff160217905550505062000319565b50565b600080fd5b600073ffffffffffffffffffffffffffffffffffffffff82169050919050565b60006200029a826200026d565b9050919050565b620002ac816200028d565b8114620002b857600080fd5b50565b600081519050620002cc81620002a1565b92915050565b60008060408385031215620002ec57620002eb62000268565b5b6000620002fc85828601620002bb565b92505060206200030f85828601620002bb565b9150509250929050565b60805161206162000358600039600081816102e90152818161084201528181610d630152818161111a015281816117b801526118aa01526120616000f3fe6080604052600436106100a75760003560e01c8063af11cb4011610064578063af11cb4014610165578063b4a99a4e1461017c578063c4e8fe43146101a7578063cc7c7a7d146101d2578063d06019f5146101fd578063ddf0b00914610226576100a7565b806308dd057a146100ac5780633df4ddf4146100c357806347799da8146100ee5780634e22d20814610119578063957908d1146101235780639ee813d21461013a575b600080fd5b3480156100b857600080fd5b506100c1610263565b005b3480156100cf57600080fd5b506100d861095e565b6040516100e59190611bbc565b60405180910390f35b3480156100fa57600080fd5b50610103610964565b6040516101109190611bbc565b60405180910390f35b61012161096a565b005b34801561012f57600080fd5b50610138610dca565b005b34801561014657600080fd5b5061014f61106e565b60405161015c9190611c56565b60405180910390f35b34801561017157600080fd5b5061017a611094565b005b34801561018857600080fd5b506101916117b6565b60405161019e9190611c92565b60405180910390f35b3480156101b357600080fd5b506101bc6117da565b6040516101c99190611cce565b60405180910390f35b3480156101de57600080fd5b506101e7611800565b6040516101f49190611d0a565b60405180910390f35b34801561020957600080fd5b50610224600480360381019061021f9190611d56565b611824565b005b34801561023257600080fd5b5061024d60048036038101906102489190611daf565b611a21565b60405161025a9190611c92565b60405180910390f35b61028f7f0d777b81b473219f0e8e90ce1848e9dd9ac24cda8f52facf26d7caac6e333ecf60001b611a54565b6102bb7fa8fd983f4315c2ee266d3970c7dc1720dc5ebeabc97201ff23b5531533952ea360001b611a54565b6102e77fc09243650fbbf36921a5df2c95eef90619d6c960cfc596fc7df9a6bfc21bf30b60001b611a54565b7f000000000000000000000000000000000000000000000000000000000000000073ffffffffffffffffffffffffffffffffffffffff163373ffffffffffffffffffffffffffffffffffffffff1614610398576103667f2c370ee4c6dc80f0a010cb83f1714ad1aa4b6f1f1d573ff56ec20497f4445def60001b611a54565b6040517f1ee8575e00000000000000000000000000000000000000000000000000000000815260040160405180910390fd5b6103c47fc1fe388d6b23f5e18e2368313f0e78cce5dbcb70773106c77848d6bc88e91ac860001b611a54565b6103f07f625c69e0c8635101564adaeeed0418f6fb5f0931dd7a5d7a24103857696d8fcb60001b611a54565b61041c7f9ed16dd4ff5fd45008ccbb1417cf5b5963ee0cd43a8b0e7db9441b04289ca90e60001b611a54565b60008060009054906101000a900473ffffffffffffffffffffffffffffffffffffffff1673ffffffffffffffffffffffffffffffffffffffff166370a08231306040518263ffffffff1660e01b81526004016104789190611c92565b602060405180830381865afa158015610495573d6000803e3d6000fd5b505050506040513d601f19601f820116820180604052508101906104b99190611df1565b0361051c576104ea7f4f481e72ea118c2920a6b769b1f324f6d6e902492862e48f5f220abeaeddcf3f60001b611a54565b6040517f7a1f291700000000000000000000000000000000000000000000000000000000815260040160405180910390fd5b6105487f7a39c50d209f9cedf2bc3226cb211c4cf2b8052a2e3b8005790fbe544203c6de60001b611a54565b6105747f2e6b35af793424f1b488b8763ac2160ec30f1c8ee1606328458e3927ecf57bac60001b611a54565b6105a07faa81ac34d33ecb110a5710f6a8d50afccf571c10ee494f9bbc2f25d16134f0c660001b611a54565b600073ffffffffffffffffffffffffffffffffffffffff16600260009054906101000a900473ffffffffffffffffffffffffffffffffffffffff1673ffffffffffffffffffffffffffffffffffffffff16148061071d5750600260009054906101000a900473ffffffffffffffffffffffffffffffffffffffff1673ffffffffffffffffffffffffffffffffffffffff16633df4ddf46040518163ffffffff1660e01b8152600401602060405180830381865afa158015610665573d6000803e3d6000fd5b505050506040513d601f19601f820116820180604052508101906106899190611df1565b600260009054906101000a900473ffffffffffffffffffffffffffffffffffffffff1673ffffffffffffffffffffffffffffffffffffffff166347799da86040518163ffffffff1660e01b8152600401602060405180830381865afa1580156106f6573d6000803e3d6000fd5b505050506040513d601f19601f8201168201806040525081019061071a9190611df1565b10155b156107805761074e7fe7ad693c06f033975c1ce8643aa282e0f9b10184c45ddacef284aa7d388147bc60001b611a54565b6040517f230accfd00000000000000000000000000000000000000000000000000000000815260040160405180910390fd5b6107ac7f1058e4bb368e52e9f44f6ff431518518b36fc63c9439181c4e45ff1928bb936460001b611a54565b6107d87f9acbbe1be54a05181f8b49ae37312877060fbc91ccee31d0a2af16d9f95e052460001b611a54565b6108047f9158537b8b9f1188fe4e4206e82d265712d3ce32d661dd6fa59bf3eb5952a87c60001b611a54565b60008054906101000a900473ffffffffffffffffffffffffffffffffffffffff1673ffffffffffffffffffffffffffffffffffffffff1663a9059cbb7f000000000000000000000000000000000000000000000000000000000000000060008054906101000a900473ffffffffffffffffffffffffffffffffffffffff1673ffffffffffffffffffffffffffffffffffffffff166370a08231306040518263ffffffff1660e01b81526004016108ba9190611c92565b602060405180830381865afa1580156108d7573d6000803e3d6000fd5b505050506040513d601f19601f820116820180604052508101906108fb9190611df1565b6040518363ffffffff1660e01b8152600401610918929190611e1e565b6020604051808303816000875af1158015610937573d6000803e3d6000fd5b505050506040513d601f19601f8201168201806040525081019061095b9190611e7f565b50565b60055481565b60045481565b6109967fd44a7639ff9f7b0c451f3434b4f8c0ff71c14e22e0fbf20f4bee0f382546566860001b611a54565b6109c27f20759d47fb1de2a7d407176f67146b0f02f729536ca2869e3d1c6a7c40450cdc60001b611a54565b6109ee7f50d45f353b0127adb5e29a323d06746dc550d50f5944b712e0d414a491a0a6d660001b611a54565b6103eb3414610a5557610a237f4bcb7c2e8a349b05fb2b3e902408dd30adcc36f3ee0e94d465d9170e1471fe1060001b611a54565b6040517fa43d860800000000000000000000000000000000000000000000000000000000815260040160405180910390fd5b610a817ff1f57e3eb285f031096c2db4539ea6a39f6500dfdbe99c1367b8e3f2ff87610660001b611a54565b610aad7f98f79bc1cdb8011b820a6671ad54c78aa709716de92d5d52cae0e55e3fccd70e60001b611a54565b610ad97f91674e7222fc90c36852d702cc727be7e2c1cae5c85fc0cfef49adf5998f494b60001b611a54565b600073ffffffffffffffffffffffffffffffffffffffff16600260009054906101000a900473ffffffffffffffffffffffffffffffffffffffff1673ffffffffffffffffffffffffffffffffffffffff161480610c1a5750600160009054906101000a900473ffffffffffffffffffffffffffffffffffffffff1673ffffffffffffffffffffffffffffffffffffffff166370a08231600260009054906101000a900473ffffffffffffffffffffffffffffffffffffffff166040518263ffffffff1660e01b8152600401610bae9190611c92565b602060405180830381865afa158015610bcb573d6000803e3d6000fd5b505050506040513d601f19601f82011682018060405250810190610bef9190611df1565b6103e86005546002600454610c049190611edb565b610c0e9190611f0f565b610c189190611f43565b115b15610c7d57610c4b7f613637570071aea05b6c6600a542d5e5b5f887d6959f42d1c23f3b113b2cd17160001b611a54565b6040517ff06294a300000000000000000000000000000000000000000000000000000000815260040160405180910390fd5b610ca97f6d17d69b2241e66ef2e77944b109a346b6b651490264f42ed6f9b9cc3662c5c260001b611a54565b610cd57f7ac5d5e0901f28a799d79d823057f287d047ea5d43c6ce6c7964ae52ef6980b560001b611a54565b610d017f15c2eb1209c5f30a22e113f0bb0c62ffb06b4b76f2f35053b18acf6af8817dab60001b611a54565b610d09611a57565b610d357f3646b5edee40ec424e9dc524abf72715bdbad27356798a74d462aeee30a5660060001b611a54565b610d617fea96ab3d64fe1de44697c22f48799d455e10e8f333cdc2326beb5c67835b025f60001b611a54565b7f000000000000000000000000000000000000000000000000000000000000000073ffffffffffffffffffffffffffffffffffffffff166108fc349081150290604051600060405180830381858888f19350505050158015610dc7573d6000803e3d6000fd5b50565b610df67f2110c43a995c0b891ef561bd2a05ac9a699d5ae7e71b3c91715db4d34d119d1460001b611a54565b610e227fb9d016df5a4a62531f1b10a705d8c8731b6aa88128d31f7b568f46a8fe98d0ea60001b611a54565b610e4e7fdc973daac4727327c1bd82efdedfe8cc520aa1128fa0cc10a0c5dfd7d00cdae160001b611a54565b600073ffffffffffffffffffffffffffffffffffffffff16600260009054906101000a900473ffffffffffffffffffffffffffffffffffffffff1673ffffffffffffffffffffffffffffffffffffffff161480610ef95750600260009054906101000a900473ffffffffffffffffffffffffffffffffffffffff1673ffffffffffffffffffffffffffffffffffffffff163373ffffffffffffffffffffffffffffffffffffffff1614155b80610f075750600554600454105b15610f6a57610f387f5bbbbb2f3c2fc5e4f18cef39a68fab8f01a2e41c223170331ec07345eccc9f9c60001b611a54565b6040517f4da1bc3400000000000000000000000000000000000000000000000000000000815260040160405180910390fd5b610f967f160626b33cb1463ba92aa73ed179c49f8bda39afa26ce237bb697c7dde07c61560001b611a54565b610fc27f2a365131cd736dbfee8414df3aa3b0395b6bbd9da87522d56e1d8caa7c4ba62160001b611a54565b60036000600554815260200190815260200160002060006101000a81549073ffffffffffffffffffffffffffffffffffffffff02191690556110267f4377d017d35df25ed68e3271e97036f17a7be5c0379b16acde408889f42fee4f60001b611a54565b6110527f7789e2a0071ac474851214c97231f26d060f2b8719e6b7427af7d4504bce44d860001b611a54565b6001600560008282546110659190611edb565b92505081905550565b600160009054906101000a900473ffffffffffffffffffffffffffffffffffffffff1681565b6110c07f39e059ade106258fe1d76e4f8d723db07657df5caed5092595d08fd1066ada3960001b611a54565b6110ec7f0a4235a1d5eaa413abb55f8d10a6b817a4e30ab27057e3068a3539e86a9ee03960001b611a54565b6111187ff7d80383800df5eae030269ee96e1e7980b3255114e87bd4aff881c5cdf40beb60001b611a54565b7f000000000000000000000000000000000000000000000000000000000000000073ffffffffffffffffffffffffffffffffffffffff163373ffffffffffffffffffffffffffffffffffffffff16146111c9576111977fa3b8dc17ec61c0a4c1f98c17c22bca9d2d2b905d93c5cd9f158184224a0a5f3d60001b611a54565b6040517f1ee8575e00000000000000000000000000000000000000000000000000000000815260040160405180910390fd5b6111f57fe2c601f1f6c35422033b9e0458926c6bb3ee21c00d5493a723d40a37ed14368360001b611a54565b6112217fd57e102b15ae693aedf186984e9f9598741aa48f3730008554537732c07e137560001b611a54565b61124d7ff75e79a5a27235c2e3467039ac9433fa2c88defaf7fcea2f4df07b842e8485a260001b611a54565b600073ffffffffffffffffffffffffffffffffffffffff16600260009054906101000a900473ffffffffffffffffffffffffffffffffffffffff1673ffffffffffffffffffffffffffffffffffffffff1614806113c95750600260009054906101000a900473ffffffffffffffffffffffffffffffffffffffff1673ffffffffffffffffffffffffffffffffffffffff16633df4ddf46040518163ffffffff1660e01b8152600401602060405180830381865afa158015611312573d6000803e3d6000fd5b505050506040513d601f19601f820116820180604052508101906113369190611df1565b600260009054906101000a900473ffffffffffffffffffffffffffffffffffffffff1673ffffffffffffffffffffffffffffffffffffffff166347799da86040518163ffffffff1660e01b8152600401602060405180830381865afa1580156113a3573d6000803e3d6000fd5b505050506040513d601f19601f820116820180604052508101906113c79190611df1565b105b1561142c576113fa7f9d7807a409af0a741c41e1ad75189ba2e45963cc99f8bacb9cab768a8ea0d1dd60001b611a54565b6040517f5e61bb8700000000000000000000000000000000000000000000000000000000815260040160405180910390fd5b6114587f938530c2b2ce219647a6ca8ef4881375f382b09cbc53ea72eccb53df9a245b7460001b611a54565b6114847f65127fd406a6dc9ebf23671eb9fc430c2db34a28948cc910b8d8973d04cdeb2a60001b611a54565b6114b07f0a99701e9a2df05792f1706378a13c6e743eedac906c07fb4f4571fd34afacd160001b611a54565b6000600260009054906101000a900473ffffffffffffffffffffffffffffffffffffffff1673ffffffffffffffffffffffffffffffffffffffff1663ddf0b009600260009054906101000a900473ffffffffffffffffffffffffffffffffffffffff1673ffffffffffffffffffffffffffffffffffffffff166347799da86040518163ffffffff1660e01b8152600401602060405180830381865afa15801561155d573d6000803e3d6000fd5b505050506040513d601f19601f820116820180604052508101906115819190611df1565b6040518263ffffffff1660e01b815260040161159d9190611bbc565b602060405180830381865afa1580156115ba573d6000803e3d6000fd5b505050506040513d601f19601f820116820180604052508101906115de9190611f9a565b905061160c7f477bd23cd8ad9ebbb6272458fb027ad822681544d1bce640f17ab08bc518a13860001b611a54565b6116387f5226d2ed7d0618c863388159d886c7d8a50eea4cd2bfb72bbe6ef4b012e05ccc60001b611a54565b600260009054906101000a900473ffffffffffffffffffffffffffffffffffffffff1673ffffffffffffffffffffffffffffffffffffffff1663957908d16040518163ffffffff1660e01b8152600401600060405180830381600087803b1580156116a257600080fd5b505af11580156116b6573d6000803e3d6000fd5b505050506116e67f1dddf7902996072a6c72192be4a0062f7a2a1e4b125a57b19199743f82729d2560001b611a54565b6117127fe8fe73fd319650f1c120b26e571e4b04582ffdf859fa70d86a53827cd53dc21d60001b611a54565b60008054906101000a900473ffffffffffffffffffffffffffffffffffffffff1673ffffffffffffffffffffffffffffffffffffffff1663a9059cbb826103e86040518363ffffffff1660e01b815260040161176f929190612002565b6020604051808303816000875af115801561178e573d6000803e3d6000fd5b505050506040513d601f19601f820116820180604052508101906117b29190611e7f565b5050565b7f000000000000000000000000000000000000000000000000000000000000000081565b600260009054906101000a900473ffffffffffffffffffffffffffffffffffffffff1681565b60008054906101000a900473ffffffffffffffffffffffffffffffffffffffff1681565b6118507fad2db3df790180d0db585ee48df4572fcae93c1c3c89500e77e4a5a38048a5c560001b611a54565b61187c7f4cbb63a6545cc4400e4dd5bdd4452f82b7df240370298540dc915108d80f66e660001b611a54565b6118a87f19717510212aa0c28da0c1ee1923776e3d843c9af73be266b1ae63c4255a83c260001b611a54565b7f000000000000000000000000000000000000000000000000000000000000000073ffffffffffffffffffffffffffffffffffffffff163373ffffffffffffffffffffffffffffffffffffffff1614611959576119277f52199f021c8d2882b6c2b060eee1009e97cff3b9d7dbfcabc1450d920334918860001b611a54565b6040517f1ee8575e00000000000000000000000000000000000000000000000000000000815260040160405180910390fd5b6119857fb8f21c15d7c509205c1366c916239b518ef593a9de021d1325fffede778b9d8b60001b611a54565b6119b17fce52edf416770ec8e3518789787a7bd6db432291513a7e7b30831f073ef5f1c860001b611a54565b6119dd7ff171e61974d13345956a7e1e5007d6115385037e5d09d6a9f225c39e2843a3ec60001b611a54565b80600260006101000a81548173ffffffffffffffffffffffffffffffffffffffff021916908373ffffffffffffffffffffffffffffffffffffffff16021790555050565b60036020528060005260406000206000915054906101000a900473ffffffffffffffffffffffffffffffffffffffff1681565b50565b611a837f1c442f2873a54f4b417f78c1ffe2ad4d6507a745056aee32d274ed67ef7b50a060001b611a54565b611aaf7ffcda2cb0b2e4be7b6b3e432cc17db033ce9768e8c3e75f56fc1549a32096018a60001b611a54565b611adb7f21cf2158e8cfd4695040c8c9ca30b310f6a43dc9af740a61e1c3123dbe4821e760001b611a54565b600160046000828254611aee9190611edb565b92505081905550611b217f4e9849274dfdbf88ba36c7f62a3a99ef965b9a5d50df965927efbf6549a444a760001b611a54565b611b4d7f8ae51670c12788161ffe9aa1f4b5ed42854b7e68bd103cc3d688ee79fa09208e60001b611a54565b3360036000600454815260200190815260200160002060006101000a81548173ffffffffffffffffffffffffffffffffffffffff021916908373ffffffffffffffffffffffffffffffffffffffff160217905550565b6000819050919050565b611bb681611ba3565b82525050565b6000602082019050611bd16000830184611bad565b92915050565b600073ffffffffffffffffffffffffffffffffffffffff82169050919050565b6000819050919050565b6000611c1c611c17611c1284611bd7565b611bf7565b611bd7565b9050919050565b6000611c2e82611c01565b9050919050565b6000611c4082611c23565b9050919050565b611c5081611c35565b82525050565b6000602082019050611c6b6000830184611c47565b92915050565b6000611c7c82611bd7565b9050919050565b611c8c81611c71565b82525050565b6000602082019050611ca76000830184611c83565b92915050565b6000611cb882611c23565b9050919050565b611cc881611cad565b82525050565b6000602082019050611ce36000830184611cbf565b92915050565b6000611cf482611c23565b9050919050565b611d0481611ce9565b82525050565b6000602082019050611d1f6000830184611cfb565b92915050565b600080fd5b611d3381611c71565b8114611d3e57600080fd5b50565b600081359050611d5081611d2a565b92915050565b600060208284031215611d6c57611d6b611d25565b5b6000611d7a84828501611d41565b91505092915050565b611d8c81611ba3565b8114611d9757600080fd5b50565b600081359050611da981611d83565b92915050565b600060208284031215611dc557611dc4611d25565b5b6000611dd384828501611d9a565b91505092915050565b600081519050611deb81611d83565b92915050565b600060208284031215611e0757611e06611d25565b5b6000611e1584828501611ddc565b91505092915050565b6000604082019050611e336000830185611c83565b611e406020830184611bad565b9392505050565b60008115159050919050565b611e5c81611e47565b8114611e6757600080fd5b50565b600081519050611e7981611e53565b92915050565b600060208284031215611e9557611e94611d25565b5b6000611ea384828501611e6a565b91505092915050565b7f4e487b7100000000000000000000000000000000000000000000000000000000600052601160045260246000fd5b6000611ee682611ba3565b9150611ef183611ba3565b9250828201905080821115611f0957611f08611eac565b5b92915050565b6000611f1a82611ba3565b9150611f2583611ba3565b9250828203905081811115611f3d57611f3c611eac565b5b92915050565b6000611f4e82611ba3565b9150611f5983611ba3565b9250828202611f6781611ba3565b91508282048414831517611f7e57611f7d611eac565b5b5092915050565b600081519050611f9481611d2a565b92915050565b600060208284031215611fb057611faf611d25565b5b6000611fbe84828501611f85565b91505092915050565b6000819050919050565b6000611fec611fe7611fe284611fc7565b611bf7565b611ba3565b9050919050565b611ffc81611fd1565b82525050565b60006040820190506120176000830185611c83565b6120246020830184611ff3565b939250505056fea26469706673582212201fd8be50c9105a14a4b8c44d0cadaeac4f2e7e54041631d882d28861089ae21964736f6c63430008110033",
  "linkReferences": {},
  "deployedLinkReferences": {}
}