{
  "_format": "hh-sol-artifact-1",
  "contractName": "MockMumbaiBridge",
  "sourceName": "contracts/MockBridgeWrapped.sol",
  "abi": [
    {
      "inputs": [
        {
          "internalType": "address",
          "name": "addressWETH",
          "type": "address"
        },
        {
          "internalType": "address",
          "name": "addressWMATIC",
          "type": "address"
        }
      ],
      "stateMutability": "nonpayable",
      "type": "constructor"
    },
    {
      "inputs": [],
      "name": "bridgeEmpty",
      "type": "error"
    },
    {
      "inputs": [],
      "name": "bridgeOnOtherSideNeedsLiqudity",
      "type": "error"
    },
    {
      "inputs": [],
      "name": "msgValueDoesNotCoverFee",
      "type": "error"
    },
    {
      "inputs": [],
      "name": "msgValueLessThan1000",
      "type": "error"
    },
    {
      "inputs": [],
      "name": "msgValueZero",
      "type": "error"
    },
    {
      "inputs": [],
      "name": "notExternalBridge",
      "type": "error"
    },
    {
      "inputs": [],
      "name": "notOwnerAddress",
      "type": "error"
    },
    {
      "inputs": [],
      "name": "queueIsEmpty",
      "type": "error"
    },
    {
      "inputs": [],
      "name": "queueNotEmpty",
      "type": "error"
    },
    {
      "inputs": [],
      "name": "Owner",
      "outputs": [
        {
          "internalType": "address",
          "name": "",
          "type": "address"
        }
      ],
      "stateMutability": "view",
      "type": "function"
    },
    {
      "inputs": [],
      "name": "callMATIC",
      "outputs": [
        {
          "internalType": "contract ERC20TokenContractMATIC",
          "name": "",
          "type": "address"
        }
      ],
      "stateMutability": "view",
      "type": "function"
    },
    {
      "inputs": [],
      "name": "callWETH",
      "outputs": [
        {
          "internalType": "contract ERC20TokenContractWETH",
          "name": "",
          "type": "address"
        }
      ],
      "stateMutability": "view",
      "type": "function"
    },
    {
      "inputs": [],
      "name": "dequeue",
      "outputs": [],
      "stateMutability": "nonpayable",
      "type": "function"
    },
    {
      "inputs": [],
      "name": "first",
      "outputs": [
        {
          "internalType": "uint256",
          "name": "",
          "type": "uint256"
        }
      ],
      "stateMutability": "view",
      "type": "function"
    },
    {
      "inputs": [],
      "name": "goerliBridgeInstance",
      "outputs": [
        {
          "internalType": "contract MockGoerliBridgeERC20",
          "name": "",
          "type": "address"
        }
      ],
      "stateMutability": "view",
      "type": "function"
    },
    {
      "inputs": [],
      "name": "last",
      "outputs": [
        {
          "internalType": "uint256",
          "name": "",
          "type": "uint256"
        }
      ],
      "stateMutability": "view",
      "type": "function"
    },
    {
      "inputs": [
        {
          "internalType": "uint256",
          "name": "bridgeAmount",
          "type": "uint256"
        }
      ],
      "name": "lockTokensForGoerli",
      "outputs": [],
      "stateMutability": "payable",
      "type": "function"
    },
    {
      "inputs": [
        {
          "internalType": "address",
          "name": "",
          "type": "address"
        }
      ],
      "name": "lockedForGoerliETH",
      "outputs": [
        {
          "internalType": "uint256",
          "name": "",
          "type": "uint256"
        }
      ],
      "stateMutability": "view",
      "type": "function"
    },
    {
      "inputs": [
        {
          "internalType": "address",
          "name": "_token",
          "type": "address"
        }
      ],
      "name": "mockOwnerGoerliBridgeAddress",
      "outputs": [],
      "stateMutability": "nonpayable",
      "type": "function"
    },
    {
      "inputs": [
        {
          "internalType": "address",
          "name": "",
          "type": "address"
        }
      ],
      "name": "optimismBridgedETH",
      "outputs": [
        {
          "internalType": "uint256",
          "name": "",
          "type": "uint256"
        }
      ],
      "stateMutability": "view",
      "type": "function"
    },
    {
      "inputs": [],
      "name": "ownerRemoveBridgeLiqudity",
      "outputs": [],
      "stateMutability": "nonpayable",
      "type": "function"
    },
    {
      "inputs": [],
      "name": "ownerUnlockOptimismETH",
      "outputs": [],
      "stateMutability": "nonpayable",
      "type": "function"
    },
    {
      "inputs": [
        {
          "internalType": "uint256",
          "name": "",
          "type": "uint256"
        }
      ],
      "name": "queue",
      "outputs": [
        {
          "internalType": "address",
          "name": "",
          "type": "address"
        }
      ],
      "stateMutability": "view",
      "type": "function"
    }
  ],
  "bytecode": "0x60a060405260016005553480156200001657600080fd5b50604051620028423803806200284283398181016040528101906200003c9190620002d2565b620000707f53599100b6232ed58d2bcf8798cd50f53ce52b8279657bbda658ff2cbacb681560001b6200026560201b60201c565b620000a47f87de1ad3eaf721a1235c4b1cd80f1ef44b4d7a80818c7c5ea38e728f2f0199de60001b6200026560201b60201c565b620000d87fcb72fa44e49f111d1830ab018fe98787e569746dfcf751f85015afb0c3827d0560001b6200026560201b60201c565b3373ffffffffffffffffffffffffffffffffffffffff1660808173ffffffffffffffffffffffffffffffffffffffff1681525050620001407f70c5e6c7f472a6f129f3bc1927fcf482ea0d672834707608268ddf5bac9c36b260001b6200026560201b60201c565b620001747fca81a136015accf2fd937314bce17d4ed2c9a13ffa384274bebc1ff466157d9260001b6200026560201b60201c565b80600660006101000a81548173ffffffffffffffffffffffffffffffffffffffff021916908373ffffffffffffffffffffffffffffffffffffffff160217905550620001e97fda0d476e53184ea99550c7d1297c8a4d439130621a63d78a498e82852b321e5660001b6200026560201b60201c565b6200021c7edbf37b04ef88ea735b75888e84252a61b4ebd0977ac1f471d821fb0cfba76c60001b6200026560201b60201c565b81600760006101000a81548173ffffffffffffffffffffffffffffffffffffffff021916908373ffffffffffffffffffffffffffffffffffffffff160217905550505062000319565b50565b600080fd5b600073ffffffffffffffffffffffffffffffffffffffff82169050919050565b60006200029a826200026d565b9050919050565b620002ac816200028d565b8114620002b857600080fd5b50565b600081519050620002cc81620002a1565b92915050565b60008060408385031215620002ec57620002eb62000268565b5b6000620002fc85828601620002bb565b92505060206200030f85828601620002bb565b9150509250929050565b6080516124ea62000358600039600081816103d10152818161092c01528181610adc01528181611635015281816116dd0152611e0801526124ea6000f3fe6080604052600436106100dd5760003560e01c8063b4a99a4e1161007f578063c637aa9711610059578063c637aa9714610264578063cc7c7a7d14610280578063ddf0b009146102ab578063e3d66f68146102e8576100dd565b8063b4a99a4e146101d3578063bd31a23a146101fe578063c5aaccf714610227576100dd565b806347799da8116100bb57806347799da81461014f578063515b74f21461017a578063957908d1146101915780639ee813d2146101a8576100dd565b806306557c31146100e257806308dd057a1461010d5780633df4ddf414610124575b600080fd5b3480156100ee57600080fd5b506100f7610325565b60405161010491906120af565b60405180910390f35b34801561011957600080fd5b5061012261034b565b005b34801561013057600080fd5b50610139610a4a565b60405161014691906120e3565b60405180910390f35b34801561015b57600080fd5b50610164610a50565b60405161017191906120e3565b60405180910390f35b34801561018657600080fd5b5061018f610a56565b005b34801561019d57600080fd5b506101a6611369565b005b3480156101b457600080fd5b506101bd61160d565b6040516101ca919061211f565b60405180910390f35b3480156101df57600080fd5b506101e8611633565b6040516101f5919061215b565b60405180910390f35b34801561020a57600080fd5b50610225600480360381019061022091906121a7565b611657565b005b34801561023357600080fd5b5061024e600480360381019061024991906121a7565b611854565b60405161025b91906120e3565b60405180910390f35b61027e60048036038101906102799190612200565b61186c565b005b34801561028c57600080fd5b50610295611e70565b6040516102a2919061224e565b60405180910390f35b3480156102b757600080fd5b506102d260048036038101906102cd9190612200565b611e96565b6040516102df919061215b565b60405180910390f35b3480156102f457600080fd5b5061030f600480360381019061030a91906121a7565b611ec9565b60405161031c91906120e3565b60405180910390f35b600260009054906101000a900473ffffffffffffffffffffffffffffffffffffffff1681565b6103777fee54224e045024fd2ca8f3daaf560be5ef800de3a0a482ff6bf635010783597660001b611ee1565b6103a37f8b8d60bb8fe4bb83ff943661128748ed67d2a2c3e0cca5870a88fc2e1b79fbc560001b611ee1565b6103cf7fbad1d248db851cc0ee515d12dcec791ab6a92d73a4935040c16c8b56a37d06d160001b611ee1565b7f000000000000000000000000000000000000000000000000000000000000000073ffffffffffffffffffffffffffffffffffffffff163373ffffffffffffffffffffffffffffffffffffffff16146104805761044e7f0438f8ac9b6c59703d6345ba05889206e46ba683104a754f0a4be6637282591f60001b611ee1565b6040517f1ee8575e00000000000000000000000000000000000000000000000000000000815260040160405180910390fd5b6104ac7fad5fb4a5ac5af0f50bc6a098a8359fbdef134d7e7652e2c198f6d485c7d5dffe60001b611ee1565b6104d87f95db03fa52b32490a42211f427ca6faebb7f951a5a8cf3cb17293fde9e06329560001b611ee1565b6105047f4def43f4bda9ad711c134fc27279e1f4c7dad59f0cca83bd8bba38766b7ba2c960001b611ee1565b6000600760009054906101000a900473ffffffffffffffffffffffffffffffffffffffff1673ffffffffffffffffffffffffffffffffffffffff166370a08231306040518263ffffffff1660e01b8152600401610561919061215b565b602060405180830381865afa15801561057e573d6000803e3d6000fd5b505050506040513d601f19601f820116820180604052508101906105a2919061227e565b03610605576105d37ffc185ce60b6f6e0fff82967853a851349ec4f644d66f257ba41e0a1a427282ed60001b611ee1565b6040517f7a1f291700000000000000000000000000000000000000000000000000000000815260040160405180910390fd5b6106317f14f0e88b1631aad33626b0547d46faacf3ed8d7831f71cb9b96dd1e41b155f3260001b611ee1565b61065d7f999e5d94f4b2f0753e83969ed976d28a86fd2e3d7becd66f08a4a62d30d4772160001b611ee1565b6106897f3558184107ca9c7ed539b9055ab0a02314358c646f337ee7048d289e7495d63d60001b611ee1565b600073ffffffffffffffffffffffffffffffffffffffff16600260009054906101000a900473ffffffffffffffffffffffffffffffffffffffff1673ffffffffffffffffffffffffffffffffffffffff1614806108065750600260009054906101000a900473ffffffffffffffffffffffffffffffffffffffff1673ffffffffffffffffffffffffffffffffffffffff16633df4ddf46040518163ffffffff1660e01b8152600401602060405180830381865afa15801561074e573d6000803e3d6000fd5b505050506040513d601f19601f82011682018060405250810190610772919061227e565b600260009054906101000a900473ffffffffffffffffffffffffffffffffffffffff1673ffffffffffffffffffffffffffffffffffffffff166347799da86040518163ffffffff1660e01b8152600401602060405180830381865afa1580156107df573d6000803e3d6000fd5b505050506040513d601f19601f82011682018060405250810190610803919061227e565b10155b15610869576108377f693f0900bf7853ad14e507fa4ed8d11de623115744430894b11a174d194feb5460001b611ee1565b6040517f230accfd00000000000000000000000000000000000000000000000000000000815260040160405180910390fd5b6108947e38f2b33e370c9484dd220859c70ac8f96f124c67fe00fff3c001387cdace3560001b611ee1565b6108c07f86d632c96519baced6f38666e9560526274863d4581f70af63d7284c7471088c60001b611ee1565b6108ec7ffbbf55cd7aa002c2e96c64d893a6963c2810141c6b97ee4d136163c18c53be5c60001b611ee1565b600760009054906101000a900473ffffffffffffffffffffffffffffffffffffffff1673ffffffffffffffffffffffffffffffffffffffff1663a9059cbb7f0000000000000000000000000000000000000000000000000000000000000000600760009054906101000a900473ffffffffffffffffffffffffffffffffffffffff1673ffffffffffffffffffffffffffffffffffffffff166370a08231306040518263ffffffff1660e01b81526004016109a6919061215b565b602060405180830381865afa1580156109c3573d6000803e3d6000fd5b505050506040513d601f19601f820116820180604052508101906109e7919061227e565b6040518363ffffffff1660e01b8152600401610a049291906122ab565b6020604051808303816000875af1158015610a23573d6000803e3d6000fd5b505050506040513d601f19601f82011682018060405250810190610a47919061230c565b50565b60055481565b60045481565b610a827f9a0e10bd0c0e8c8ca4d7ba27265ce1a02c28052a34f31d7062b754cc4df5f88860001b611ee1565b610aae7f2c2c8c6575b583b4531fba46f912e2ac4934190f9aa507a5a6d110185c99019260001b611ee1565b610ada7fae442861f9ab982d91faca0f0b6eb3eb790fc8905e50bcf97e6d56fe1c77050160001b611ee1565b7f000000000000000000000000000000000000000000000000000000000000000073ffffffffffffffffffffffffffffffffffffffff163373ffffffffffffffffffffffffffffffffffffffff1614610b8b57610b597f9536df988ad368b1365defc16aaeb05b344e95484f796f8884c6430e1e65572f60001b611ee1565b6040517f1ee8575e00000000000000000000000000000000000000000000000000000000815260040160405180910390fd5b610bb77fd40a35031a6b9ae8032e658a2a492e7eb126e830edf16a82a1ef970f96a4f25e60001b611ee1565b610be37fc5c9153d189b0226912d63344316eee5461be336de0511e7e2ea022fbb06c91660001b611ee1565b610c0f7f6ca208d3b9cbd02a4da15a2d6386e64f675ebdb765b667497fbf6e9f143a1e9e60001b611ee1565b600073ffffffffffffffffffffffffffffffffffffffff16600260009054906101000a900473ffffffffffffffffffffffffffffffffffffffff1673ffffffffffffffffffffffffffffffffffffffff161480610d8b5750600260009054906101000a900473ffffffffffffffffffffffffffffffffffffffff1673ffffffffffffffffffffffffffffffffffffffff16633df4ddf46040518163ffffffff1660e01b8152600401602060405180830381865afa158015610cd4573d6000803e3d6000fd5b505050506040513d601f19601f82011682018060405250810190610cf8919061227e565b600260009054906101000a900473ffffffffffffffffffffffffffffffffffffffff1673ffffffffffffffffffffffffffffffffffffffff166347799da86040518163ffffffff1660e01b8152600401602060405180830381865afa158015610d65573d6000803e3d6000fd5b505050506040513d601f19601f82011682018060405250810190610d89919061227e565b105b15610dee57610dbc7f78d478e420f2ae25240d89f88eb1546b8f3b251687324fbfbfe235de5af34fbf60001b611ee1565b6040517f5e61bb8700000000000000000000000000000000000000000000000000000000815260040160405180910390fd5b610e1a7fb2c1b6f6f1c596275418b32e1b18dbee7a1e6dcbae818dcfdee65f04ddf8fcad60001b611ee1565b610e467f266e8f6012b21567892b0c8e8e5ad2aa44a428a60705b7dee25b351c20ea529260001b611ee1565b610e727f609c4cff848f4c3292c0e4e6a01460d438675a9eb6d16a0b592270c1f54c9a5a60001b611ee1565b6000600260009054906101000a900473ffffffffffffffffffffffffffffffffffffffff1673ffffffffffffffffffffffffffffffffffffffff1663ddf0b009600260009054906101000a900473ffffffffffffffffffffffffffffffffffffffff1673ffffffffffffffffffffffffffffffffffffffff166347799da86040518163ffffffff1660e01b8152600401602060405180830381865afa158015610f1f573d6000803e3d6000fd5b505050506040513d601f19601f82011682018060405250810190610f43919061227e565b6040518263ffffffff1660e01b8152600401610f5f91906120e3565b602060405180830381865afa158015610f7c573d6000803e3d6000fd5b505050506040513d601f19601f82011682018060405250810190610fa0919061234e565b9050610fce7f2376fbc2eaed0b2cd0b97d8a8b796912b03b04b200000b77f63c2f10ba31769660001b611ee1565b610ffa7fbfad14a12ab18e163e5c773dd5ad9a5d197aa8baf39fdf8cb6c8ce2668933b1860001b611ee1565b600260009054906101000a900473ffffffffffffffffffffffffffffffffffffffff1673ffffffffffffffffffffffffffffffffffffffff1663957908d16040518163ffffffff1660e01b8152600401600060405180830381600087803b15801561106457600080fd5b505af1158015611078573d6000803e3d6000fd5b505050506110a87f27680c23d38f051c13b4fe9f84c560291e859b103f6055e0390803576c21583e60001b611ee1565b6110d47f12abbba4422d37f79ec8758e85452e578e854f15914081ba0ee31f511cd3f70360001b611ee1565b6000600160008373ffffffffffffffffffffffffffffffffffffffff1673ffffffffffffffffffffffffffffffffffffffff16815260200190815260200160002054600260009054906101000a900473ffffffffffffffffffffffffffffffffffffffff1673ffffffffffffffffffffffffffffffffffffffff1663abb6b5a1846040518263ffffffff1660e01b8152600401611171919061215b565b602060405180830381865afa15801561118e573d6000803e3d6000fd5b505050506040513d601f19601f820116820180604052508101906111b2919061227e565b6111bc91906123aa565b90506111ea7f098915b50a7725877aa3306e94ca1697a86602cbf02e9ea1162bb47590cd499060001b611ee1565b6112167f18f289a18e027b1ea531daee98a04a52a013ac472e95189db1481ae0818af16260001b611ee1565b80600160008473ffffffffffffffffffffffffffffffffffffffff1673ffffffffffffffffffffffffffffffffffffffff168152602001908152602001600020600082825461126591906123de565b925050819055506112987f025a4281162937a6e9cec7404e75c43799d705cf1026a60079b73e5a5abcedcb60001b611ee1565b6112c47f4a8352e9c209a699d2dba62b08c15a326ac60ed314e4193f6de306c8edf157f560001b611ee1565b600760009054906101000a900473ffffffffffffffffffffffffffffffffffffffff1673ffffffffffffffffffffffffffffffffffffffff1663a9059cbb83836040518363ffffffff1660e01b81526004016113219291906122ab565b6020604051808303816000875af1158015611340573d6000803e3d6000fd5b505050506040513d601f19601f82011682018060405250810190611364919061230c565b505050565b6113957ffab84e389558290ec0b8e8a6e4e17f9b42e54425372ecc1e5856c2cc0379ef5260001b611ee1565b6113c17f32f2130e0bee43e1d3adc6615b33d064560e82c8312b735db766ab89cbc2104b60001b611ee1565b6113ed7ff3bf9e3187a6521c7f2699df85560a5ca738d77439d0726789df1fc37dc5a08860001b611ee1565b600073ffffffffffffffffffffffffffffffffffffffff16600260009054906101000a900473ffffffffffffffffffffffffffffffffffffffff1673ffffffffffffffffffffffffffffffffffffffff1614806114985750600260009054906101000a900473ffffffffffffffffffffffffffffffffffffffff1673ffffffffffffffffffffffffffffffffffffffff163373ffffffffffffffffffffffffffffffffffffffff1614155b806114a65750600554600454105b15611509576114d77f9891f9450c2d90e4e634813e5add9f5a5de3ee4346ff8d9ec8914190bdf2708560001b611ee1565b6040517f4da1bc3400000000000000000000000000000000000000000000000000000000815260040160405180910390fd5b6115357ffe5d5d8b486131264d3a9820115816572e3cd9ed694a6d991537f1b6b7cf805760001b611ee1565b6115617fd9f34418c3a3372e76c43b6a2d42ed6f1384f72052f105c3621ea18fb160b87360001b611ee1565b60036000600554815260200190815260200160002060006101000a81549073ffffffffffffffffffffffffffffffffffffffff02191690556115c57ff0b088d8207cc27cc978f9b901cf268b87fd5229dd45b4824e6ab55e81028f5760001b611ee1565b6115f17fab5407a4d4329e676bbf0952511a86d0b28052d847ec4d46f1080c833a8d364f60001b611ee1565b60016005600082825461160491906123de565b92505081905550565b600760009054906101000a900473ffffffffffffffffffffffffffffffffffffffff1681565b7f000000000000000000000000000000000000000000000000000000000000000081565b6116837f89474cd304b3d584b6b929df80f4ee240b6d86ea6695dde932381e725146f10860001b611ee1565b6116af7f9393d978a035c5fbb2c65374f8736f4cd06c398c02e1cf5f10346d4c423c602260001b611ee1565b6116db7f259c48350a90ab3ba44cde459ef923307d30d511977cab5041c730e903c9779760001b611ee1565b7f000000000000000000000000000000000000000000000000000000000000000073ffffffffffffffffffffffffffffffffffffffff163373ffffffffffffffffffffffffffffffffffffffff161461178c5761175a7f9f48ad36604a5fd88c340ad6bd7205828c874d205b44c559bde166192d34cfa560001b611ee1565b6040517f1ee8575e00000000000000000000000000000000000000000000000000000000815260040160405180910390fd5b6117b87fbb05b5876405d95c5f80eef05555e79e138ae1efa25e60ae2974b2bedb64c10c60001b611ee1565b6117e47f3d23a87728409a7b95bb5139066efc51fe1e9f80af6850fe58fc1c1e51bcf94060001b611ee1565b6118107f96388bc21f5b3ec3ba34880d9f9a504c997cae8fb875c92a7a66cad80cfdc9da60001b611ee1565b80600260006101000a81548173ffffffffffffffffffffffffffffffffffffffff021916908373ffffffffffffffffffffffffffffffffffffffff16021790555050565b60016020528060005260406000206000915090505481565b6118987f44fa6e98deecfe70b77c9af0d3fae17fcf49920338b19d69c096b78a4b055f7660001b611ee1565b6118c47f6447849b3a64516cd21bde6c49b79c18714e9d269bbbe4cd267fdc3a71c2274660001b611ee1565b6118f07fbc9db6c29cc36ce26223c879b5489db7be9fe8a67661311c619806a83155f52060001b611ee1565b6103e8811015611958576119267f4767095f6a3d10c8f0d27840604e641a3ed71ad4a40337fed960490ac4762d4360001b611ee1565b6040517fa9f2d61800000000000000000000000000000000000000000000000000000000815260040160405180910390fd5b6119847f8cd8ea7298b46cb9f8860c251b73d6b15dca76d326c6f43474c93d53ec4c3e2360001b611ee1565b6119b07ffb0f99a9cc060978d5e8cce7e93ed908f7dce5c43e509b5acd8215fa2a7758c560001b611ee1565b6119dc7f67c112e3958984e8d6f2e0fba799643b2d21aae9fe825ebf9c7fd2fa1d8b0d5060001b611ee1565b6103e8816103eb6119ed9190612412565b6119f79190612483565b3414611a5b57611a297f0b62da0dc238c2d29518e8ba1ecd7d22dd26ebe25082444f4571d8da42bba9cc60001b611ee1565b6040517f400f9fb800000000000000000000000000000000000000000000000000000000815260040160405180910390fd5b611a877f4b66a2a59f940b83d12628f3b2fa7824d671ccd38906ccbfccb6899d3dabaf9460001b611ee1565b611ab37f3e30a6ad11f6608b094b70446ade10d429ca211cc4a350b0da43778df419273f60001b611ee1565b611adf7f5507ba71878f6e138d8715ab6ffec89e85f7472edb8a5ef8a57bd10aab2f7d0e60001b611ee1565b600073ffffffffffffffffffffffffffffffffffffffff16600260009054906101000a900473ffffffffffffffffffffffffffffffffffffffff1673ffffffffffffffffffffffffffffffffffffffff161480611bf8575080600660009054906101000a900473ffffffffffffffffffffffffffffffffffffffff1673ffffffffffffffffffffffffffffffffffffffff166370a08231600260009054906101000a900473ffffffffffffffffffffffffffffffffffffffff166040518263ffffffff1660e01b8152600401611bb5919061215b565b602060405180830381865afa158015611bd2573d6000803e3d6000fd5b505050506040513d601f19601f82011682018060405250810190611bf6919061227e565b105b15611c5b57611c297f8033979550730d0d0679efe972ab1ea6d4641a3df87c71ad536bf611b5012b5460001b611ee1565b6040517ff06294a300000000000000000000000000000000000000000000000000000000815260040160405180910390fd5b611c877f4c1f89a718f72d8877d097e2eef3f302a511e1d7497bebc28872be164adee31560001b611ee1565b611cb37fea8c0dab0b483b02f67fe4646105aaff3299225c790de5627c1b7641e16b07dc60001b611ee1565b611cdf7f11d094206759642a9222285ffd1e634edafddf0f491e693d55d8e69b44a45fdd60001b611ee1565b6103eb346103e8611cf09190612412565b611cfa9190612483565b6000803373ffffffffffffffffffffffffffffffffffffffff1673ffffffffffffffffffffffffffffffffffffffff1681526020019081526020016000206000828254611d4791906123de565b92505081905550611d7a7fea5d85059a9803d9d73b8e63225e0132fdb9562707c1365823fff81aa3a1cb2760001b611ee1565b611da67f8552b0b6ac7a9a34c13104b8780f996eaf06f65d197f34c5e98812d2db42564c60001b611ee1565b611dae611ee4565b611dda7fac9f751a061a9576291bf1595c6584ccedc5d377444dafdb68215356f1ab437260001b611ee1565b611e067f1d0ccd67a9a1ba05199f2c504be0c4b1ce3ee94cb66851a1bcc87d8eadf449ef60001b611ee1565b7f000000000000000000000000000000000000000000000000000000000000000073ffffffffffffffffffffffffffffffffffffffff166108fc349081150290604051600060405180830381858888f19350505050158015611e6c573d6000803e3d6000fd5b5050565b600660009054906101000a900473ffffffffffffffffffffffffffffffffffffffff1681565b60036020528060005260406000206000915054906101000a900473ffffffffffffffffffffffffffffffffffffffff1681565b60006020528060005260406000206000915090505481565b50565b611f107f5bd440d2d4e2c6c415be8d3ffa66cca3fe57e3f4a118e664908aadee609c5a5e60001b611ee1565b611f3c7f6c76a02d943a7c4730d1c0fbd8d8c99f2f063ac248e75248042d01fba844aeef60001b611ee1565b611f687fd7e47b66972ea65a2ea26243326ba81a896c3d1d406d717d9700560f0a94882b60001b611ee1565b600160046000828254611f7b91906123de565b92505081905550611fae7f9828f37f33d2ac8066238a37dec38f5df6e948bd790cc98215903a024a50a91360001b611ee1565b611fda7f57972dfa150618bbe36460adc332c85060f76ada96d6d5c59b3e690e2bedbef060001b611ee1565b3360036000600454815260200190815260200160002060006101000a81548173ffffffffffffffffffffffffffffffffffffffff021916908373ffffffffffffffffffffffffffffffffffffffff160217905550565b600073ffffffffffffffffffffffffffffffffffffffff82169050919050565b6000819050919050565b600061207561207061206b84612030565b612050565b612030565b9050919050565b60006120878261205a565b9050919050565b60006120998261207c565b9050919050565b6120a98161208e565b82525050565b60006020820190506120c460008301846120a0565b92915050565b6000819050919050565b6120dd816120ca565b82525050565b60006020820190506120f860008301846120d4565b92915050565b60006121098261207c565b9050919050565b612119816120fe565b82525050565b60006020820190506121346000830184612110565b92915050565b600061214582612030565b9050919050565b6121558161213a565b82525050565b6000602082019050612170600083018461214c565b92915050565b600080fd5b6121848161213a565b811461218f57600080fd5b50565b6000813590506121a18161217b565b92915050565b6000602082840312156121bd576121bc612176565b5b60006121cb84828501612192565b91505092915050565b6121dd816120ca565b81146121e857600080fd5b50565b6000813590506121fa816121d4565b92915050565b60006020828403121561221657612215612176565b5b6000612224848285016121eb565b91505092915050565b60006122388261207c565b9050919050565b6122488161222d565b82525050565b6000602082019050612263600083018461223f565b92915050565b600081519050612278816121d4565b92915050565b60006020828403121561229457612293612176565b5b60006122a284828501612269565b91505092915050565b60006040820190506122c0600083018561214c565b6122cd60208301846120d4565b9392505050565b60008115159050919050565b6122e9816122d4565b81146122f457600080fd5b50565b600081519050612306816122e0565b92915050565b60006020828403121561232257612321612176565b5b6000612330848285016122f7565b91505092915050565b6000815190506123488161217b565b92915050565b60006020828403121561236457612363612176565b5b600061237284828501612339565b91505092915050565b7f4e487b7100000000000000000000000000000000000000000000000000000000600052601160045260246000fd5b60006123b5826120ca565b91506123c0836120ca565b92508282039050818111156123d8576123d761237b565b5b92915050565b60006123e9826120ca565b91506123f4836120ca565b925082820190508082111561240c5761240b61237b565b5b92915050565b600061241d826120ca565b9150612428836120ca565b9250828202612436816120ca565b9150828204841483151761244d5761244c61237b565b5b5092915050565b7f4e487b7100000000000000000000000000000000000000000000000000000000600052601260045260246000fd5b600061248e826120ca565b9150612499836120ca565b9250826124a9576124a8612454565b5b82820490509291505056fea2646970667358221220f88bfe0e54cedf659dd22b75c5aa65e238adead5f45590008e5ad6d2baf3f34364736f6c63430008110033",
  "linkReferences": {},
  "deployedLinkReferences": {}
}