{
  "_format": "hh-sol-artifact-1",
  "contractName": "MockMumbaiBridge",
  "sourceName": "contracts/MockBridgeWrapped.sol",
  "abi": [
    {
      "inputs": [
        {
          "internalType": "address",
          "name": "addressWETH",
          "type": "address"
        },
        {
          "internalType": "address",
          "name": "addressWMATIC",
          "type": "address"
        }
      ],
      "stateMutability": "nonpayable",
      "type": "constructor"
    },
    {
      "inputs": [],
      "name": "bridgeEmpty",
      "type": "error"
    },
    {
      "inputs": [],
      "name": "bridgeOnOtherSideNeedsLiqudity",
      "type": "error"
    },
    {
      "inputs": [],
      "name": "msgValueNot1003",
      "type": "error"
    },
    {
      "inputs": [],
      "name": "msgValueZero",
      "type": "error"
    },
    {
      "inputs": [],
      "name": "notExternalBridge",
      "type": "error"
    },
    {
      "inputs": [],
      "name": "notOwnerAddress",
      "type": "error"
    },
    {
      "inputs": [],
      "name": "queueIsEmpty",
      "type": "error"
    },
    {
      "inputs": [],
      "name": "queueNotEmpty",
      "type": "error"
    },
    {
      "inputs": [],
      "name": "Owner",
      "outputs": [
        {
          "internalType": "address",
          "name": "",
          "type": "address"
        }
      ],
      "stateMutability": "view",
      "type": "function"
    },
    {
      "inputs": [],
      "name": "callMATIC",
      "outputs": [
        {
          "internalType": "contract ERC20TokenContractMATIC",
          "name": "",
          "type": "address"
        }
      ],
      "stateMutability": "view",
      "type": "function"
    },
    {
      "inputs": [],
      "name": "callWETH",
      "outputs": [
        {
          "internalType": "contract ERC20TokenContractWETH",
          "name": "",
          "type": "address"
        }
      ],
      "stateMutability": "view",
      "type": "function"
    },
    {
      "inputs": [],
      "name": "dequeue",
      "outputs": [],
      "stateMutability": "nonpayable",
      "type": "function"
    },
    {
      "inputs": [],
      "name": "first",
      "outputs": [
        {
          "internalType": "uint256",
          "name": "",
          "type": "uint256"
        }
      ],
      "stateMutability": "view",
      "type": "function"
    },
    {
      "inputs": [],
      "name": "goerliBridgeInstance",
      "outputs": [
        {
          "internalType": "contract MockGoerliBridgeERC20",
          "name": "",
          "type": "address"
        }
      ],
      "stateMutability": "view",
      "type": "function"
    },
    {
      "inputs": [],
      "name": "last",
      "outputs": [
        {
          "internalType": "uint256",
          "name": "",
          "type": "uint256"
        }
      ],
      "stateMutability": "view",
      "type": "function"
    },
    {
      "inputs": [],
      "name": "lockTokensForGoerli",
      "outputs": [],
      "stateMutability": "payable",
      "type": "function"
    },
    {
      "inputs": [
        {
          "internalType": "address",
          "name": "_token",
          "type": "address"
        }
      ],
      "name": "mockOwnerGoerliBridgeAddress",
      "outputs": [],
      "stateMutability": "nonpayable",
      "type": "function"
    },
    {
      "inputs": [],
      "name": "ownerRemoveBridgeLiqudity",
      "outputs": [],
      "stateMutability": "nonpayable",
      "type": "function"
    },
    {
      "inputs": [],
      "name": "ownerUnlockOptimismETH",
      "outputs": [],
      "stateMutability": "nonpayable",
      "type": "function"
    },
    {
      "inputs": [
        {
          "internalType": "uint256",
          "name": "",
          "type": "uint256"
        }
      ],
      "name": "queue",
      "outputs": [
        {
          "internalType": "address",
          "name": "",
          "type": "address"
        }
      ],
      "stateMutability": "view",
      "type": "function"
    }
  ],
  "bytecode": "0x60a060405260016003553480156200001657600080fd5b50604051620023a4380380620023a483398181016040528101906200003c9190620002d3565b620000707f4767095f6a3d10c8f0d27840604e641a3ed71ad4a40337fed960490ac4762d4360001b6200026660201b60201c565b620000a47f8cd8ea7298b46cb9f8860c251b73d6b15dca76d326c6f43474c93d53ec4c3e2360001b6200026660201b60201c565b620000d87ffb0f99a9cc060978d5e8cce7e93ed908f7dce5c43e509b5acd8215fa2a7758c560001b6200026660201b60201c565b3373ffffffffffffffffffffffffffffffffffffffff1660808173ffffffffffffffffffffffffffffffffffffffff1681525050620001407f67c112e3958984e8d6f2e0fba799643b2d21aae9fe825ebf9c7fd2fa1d8b0d5060001b6200026660201b60201c565b620001747f0b62da0dc238c2d29518e8ba1ecd7d22dd26ebe25082444f4571d8da42bba9cc60001b6200026660201b60201c565b80600460006101000a81548173ffffffffffffffffffffffffffffffffffffffff021916908373ffffffffffffffffffffffffffffffffffffffff160217905550620001e97f4b66a2a59f940b83d12628f3b2fa7824d671ccd38906ccbfccb6899d3dabaf9460001b6200026660201b60201c565b6200021d7f3e30a6ad11f6608b094b70446ade10d429ca211cc4a350b0da43778df419273f60001b6200026660201b60201c565b81600560006101000a81548173ffffffffffffffffffffffffffffffffffffffff021916908373ffffffffffffffffffffffffffffffffffffffff16021790555050506200031a565b50565b600080fd5b600073ffffffffffffffffffffffffffffffffffffffff82169050919050565b60006200029b826200026e565b9050919050565b620002ad816200028e565b8114620002b957600080fd5b50565b600081519050620002cd81620002a2565b92915050565b60008060408385031215620002ed57620002ec62000269565b5b6000620002fd85828601620002bc565b92505060206200031085828601620002bc565b9150509250929050565b60805161204b620003596000396000818161030d0152818161086201528181610a120152818161136c0152818161141401526119d7015261204b6000f3fe6080604052600436106100a75760003560e01c80639ee813d2116100645780639ee813d214610172578063b4a99a4e1461019d578063bd31a23a146101c8578063cc7c7a7d146101f1578063ddf0b0091461021c578063f67744c414610259576100a7565b806306557c31146100ac57806308dd057a146100d75780633df4ddf4146100ee57806347799da814610119578063515b74f214610144578063957908d11461015b575b600080fd5b3480156100b857600080fd5b506100c1610263565b6040516100ce9190611c0c565b60405180910390f35b3480156100e357600080fd5b506100ec610287565b005b3480156100fa57600080fd5b50610103610980565b6040516101109190611c40565b60405180910390f35b34801561012557600080fd5b5061012e610986565b60405161013b9190611c40565b60405180910390f35b34801561015057600080fd5b5061015961098c565b005b34801561016757600080fd5b506101706110a5565b005b34801561017e57600080fd5b50610187611344565b6040516101949190611c7c565b60405180910390f35b3480156101a957600080fd5b506101b261136a565b6040516101bf9190611cb8565b60405180910390f35b3480156101d457600080fd5b506101ef60048036038101906101ea9190611d04565b61138e565b005b3480156101fd57600080fd5b5061020661158a565b6040516102139190611d52565b60405180910390f35b34801561022857600080fd5b50610243600480360381019061023e9190611d99565b6115b0565b6040516102509190611cb8565b60405180910390f35b6102616115e3565b005b60008054906101000a900473ffffffffffffffffffffffffffffffffffffffff1681565b6102b37fee54224e045024fd2ca8f3daaf560be5ef800de3a0a482ff6bf635010783597660001b611a3e565b6102df7f8b8d60bb8fe4bb83ff943661128748ed67d2a2c3e0cca5870a88fc2e1b79fbc560001b611a3e565b61030b7fbad1d248db851cc0ee515d12dcec791ab6a92d73a4935040c16c8b56a37d06d160001b611a3e565b7f000000000000000000000000000000000000000000000000000000000000000073ffffffffffffffffffffffffffffffffffffffff163373ffffffffffffffffffffffffffffffffffffffff16146103bc5761038a7f0438f8ac9b6c59703d6345ba05889206e46ba683104a754f0a4be6637282591f60001b611a3e565b6040517f1ee8575e00000000000000000000000000000000000000000000000000000000815260040160405180910390fd5b6103e87fad5fb4a5ac5af0f50bc6a098a8359fbdef134d7e7652e2c198f6d485c7d5dffe60001b611a3e565b6104147f95db03fa52b32490a42211f427ca6faebb7f951a5a8cf3cb17293fde9e06329560001b611a3e565b6104407f4def43f4bda9ad711c134fc27279e1f4c7dad59f0cca83bd8bba38766b7ba2c960001b611a3e565b6000600560009054906101000a900473ffffffffffffffffffffffffffffffffffffffff1673ffffffffffffffffffffffffffffffffffffffff166370a08231306040518263ffffffff1660e01b815260040161049d9190611cb8565b602060405180830381865afa1580156104ba573d6000803e3d6000fd5b505050506040513d601f19601f820116820180604052508101906104de9190611ddb565b036105415761050f7ffc185ce60b6f6e0fff82967853a851349ec4f644d66f257ba41e0a1a427282ed60001b611a3e565b6040517f7a1f291700000000000000000000000000000000000000000000000000000000815260040160405180910390fd5b61056d7f14f0e88b1631aad33626b0547d46faacf3ed8d7831f71cb9b96dd1e41b155f3260001b611a3e565b6105997f999e5d94f4b2f0753e83969ed976d28a86fd2e3d7becd66f08a4a62d30d4772160001b611a3e565b6105c57f3558184107ca9c7ed539b9055ab0a02314358c646f337ee7048d289e7495d63d60001b611a3e565b600073ffffffffffffffffffffffffffffffffffffffff1660008054906101000a900473ffffffffffffffffffffffffffffffffffffffff1673ffffffffffffffffffffffffffffffffffffffff16148061073c575060008054906101000a900473ffffffffffffffffffffffffffffffffffffffff1673ffffffffffffffffffffffffffffffffffffffff16633df4ddf46040518163ffffffff1660e01b8152600401602060405180830381865afa158015610686573d6000803e3d6000fd5b505050506040513d601f19601f820116820180604052508101906106aa9190611ddb565b60008054906101000a900473ffffffffffffffffffffffffffffffffffffffff1673ffffffffffffffffffffffffffffffffffffffff166347799da86040518163ffffffff1660e01b8152600401602060405180830381865afa158015610715573d6000803e3d6000fd5b505050506040513d601f19601f820116820180604052508101906107399190611ddb565b10155b1561079f5761076d7f693f0900bf7853ad14e507fa4ed8d11de623115744430894b11a174d194feb5460001b611a3e565b6040517f230accfd00000000000000000000000000000000000000000000000000000000815260040160405180910390fd5b6107ca7e38f2b33e370c9484dd220859c70ac8f96f124c67fe00fff3c001387cdace3560001b611a3e565b6107f67f86d632c96519baced6f38666e9560526274863d4581f70af63d7284c7471088c60001b611a3e565b6108227ffbbf55cd7aa002c2e96c64d893a6963c2810141c6b97ee4d136163c18c53be5c60001b611a3e565b600560009054906101000a900473ffffffffffffffffffffffffffffffffffffffff1673ffffffffffffffffffffffffffffffffffffffff1663a9059cbb7f0000000000000000000000000000000000000000000000000000000000000000600560009054906101000a900473ffffffffffffffffffffffffffffffffffffffff1673ffffffffffffffffffffffffffffffffffffffff166370a08231306040518263ffffffff1660e01b81526004016108dc9190611cb8565b602060405180830381865afa1580156108f9573d6000803e3d6000fd5b505050506040513d601f19601f8201168201806040525081019061091d9190611ddb565b6040518363ffffffff1660e01b815260040161093a929190611e08565b6020604051808303816000875af1158015610959573d6000803e3d6000fd5b505050506040513d601f19601f8201168201806040525081019061097d9190611e69565b50565b60035481565b60025481565b6109b87fd40a35031a6b9ae8032e658a2a492e7eb126e830edf16a82a1ef970f96a4f25e60001b611a3e565b6109e47fc5c9153d189b0226912d63344316eee5461be336de0511e7e2ea022fbb06c91660001b611a3e565b610a107f6ca208d3b9cbd02a4da15a2d6386e64f675ebdb765b667497fbf6e9f143a1e9e60001b611a3e565b7f000000000000000000000000000000000000000000000000000000000000000073ffffffffffffffffffffffffffffffffffffffff163373ffffffffffffffffffffffffffffffffffffffff1614610ac157610a8f7f78d478e420f2ae25240d89f88eb1546b8f3b251687324fbfbfe235de5af34fbf60001b611a3e565b6040517f1ee8575e00000000000000000000000000000000000000000000000000000000815260040160405180910390fd5b610aed7fb2c1b6f6f1c596275418b32e1b18dbee7a1e6dcbae818dcfdee65f04ddf8fcad60001b611a3e565b610b197f266e8f6012b21567892b0c8e8e5ad2aa44a428a60705b7dee25b351c20ea529260001b611a3e565b610b457f609c4cff848f4c3292c0e4e6a01460d438675a9eb6d16a0b592270c1f54c9a5a60001b611a3e565b600073ffffffffffffffffffffffffffffffffffffffff1660008054906101000a900473ffffffffffffffffffffffffffffffffffffffff1673ffffffffffffffffffffffffffffffffffffffff161480610cbb575060008054906101000a900473ffffffffffffffffffffffffffffffffffffffff1673ffffffffffffffffffffffffffffffffffffffff16633df4ddf46040518163ffffffff1660e01b8152600401602060405180830381865afa158015610c06573d6000803e3d6000fd5b505050506040513d601f19601f82011682018060405250810190610c2a9190611ddb565b60008054906101000a900473ffffffffffffffffffffffffffffffffffffffff1673ffffffffffffffffffffffffffffffffffffffff166347799da86040518163ffffffff1660e01b8152600401602060405180830381865afa158015610c95573d6000803e3d6000fd5b505050506040513d601f19601f82011682018060405250810190610cb99190611ddb565b105b15610d1e57610cec7f2376fbc2eaed0b2cd0b97d8a8b796912b03b04b200000b77f63c2f10ba31769660001b611a3e565b6040517f5e61bb8700000000000000000000000000000000000000000000000000000000815260040160405180910390fd5b610d4a7fbfad14a12ab18e163e5c773dd5ad9a5d197aa8baf39fdf8cb6c8ce2668933b1860001b611a3e565b610d767f27680c23d38f051c13b4fe9f84c560291e859b103f6055e0390803576c21583e60001b611a3e565b610da27f12abbba4422d37f79ec8758e85452e578e854f15914081ba0ee31f511cd3f70360001b611a3e565b60008060009054906101000a900473ffffffffffffffffffffffffffffffffffffffff1673ffffffffffffffffffffffffffffffffffffffff1663ddf0b00960008054906101000a900473ffffffffffffffffffffffffffffffffffffffff1673ffffffffffffffffffffffffffffffffffffffff166347799da86040518163ffffffff1660e01b8152600401602060405180830381865afa158015610e4c573d6000803e3d6000fd5b505050506040513d601f19601f82011682018060405250810190610e709190611ddb565b6040518263ffffffff1660e01b8152600401610e8c9190611c40565b602060405180830381865afa158015610ea9573d6000803e3d6000fd5b505050506040513d601f19601f82011682018060405250810190610ecd9190611eab565b9050610efb7f098915b50a7725877aa3306e94ca1697a86602cbf02e9ea1162bb47590cd499060001b611a3e565b610f277f18f289a18e027b1ea531daee98a04a52a013ac472e95189db1481ae0818af16260001b611a3e565b60008054906101000a900473ffffffffffffffffffffffffffffffffffffffff1673ffffffffffffffffffffffffffffffffffffffff1663957908d16040518163ffffffff1660e01b8152600401600060405180830381600087803b158015610f8f57600080fd5b505af1158015610fa3573d6000803e3d6000fd5b50505050610fd37f025a4281162937a6e9cec7404e75c43799d705cf1026a60079b73e5a5abcedcb60001b611a3e565b610fff7f4a8352e9c209a699d2dba62b08c15a326ac60ed314e4193f6de306c8edf157f560001b611a3e565b600560009054906101000a900473ffffffffffffffffffffffffffffffffffffffff1673ffffffffffffffffffffffffffffffffffffffff1663a9059cbb826103e86040518363ffffffff1660e01b815260040161105e929190611f13565b6020604051808303816000875af115801561107d573d6000803e3d6000fd5b505050506040513d601f19601f820116820180604052508101906110a19190611e69565b5050565b6110d17fcb72fa44e49f111d1830ab018fe98787e569746dfcf751f85015afb0c3827d0560001b611a3e565b6110fd7f70c5e6c7f472a6f129f3bc1927fcf482ea0d672834707608268ddf5bac9c36b260001b611a3e565b6111297fca81a136015accf2fd937314bce17d4ed2c9a13ffa384274bebc1ff466157d9260001b611a3e565b600073ffffffffffffffffffffffffffffffffffffffff1660008054906101000a900473ffffffffffffffffffffffffffffffffffffffff1673ffffffffffffffffffffffffffffffffffffffff1614806111d0575060008054906101000a900473ffffffffffffffffffffffffffffffffffffffff1673ffffffffffffffffffffffffffffffffffffffff163373ffffffffffffffffffffffffffffffffffffffff1614155b806111de5750600354600254105b156112415761120f7fda0d476e53184ea99550c7d1297c8a4d439130621a63d78a498e82852b321e5660001b611a3e565b6040517f4da1bc3400000000000000000000000000000000000000000000000000000000815260040160405180910390fd5b61126c7edbf37b04ef88ea735b75888e84252a61b4ebd0977ac1f471d821fb0cfba76c60001b611a3e565b6112987f44fa6e98deecfe70b77c9af0d3fae17fcf49920338b19d69c096b78a4b055f7660001b611a3e565b60016000600354815260200190815260200160002060006101000a81549073ffffffffffffffffffffffffffffffffffffffff02191690556112fc7f6447849b3a64516cd21bde6c49b79c18714e9d269bbbe4cd267fdc3a71c2274660001b611a3e565b6113287fbc9db6c29cc36ce26223c879b5489db7be9fe8a67661311c619806a83155f52060001b611a3e565b60016003600082825461133b9190611f6b565b92505081905550565b600560009054906101000a900473ffffffffffffffffffffffffffffffffffffffff1681565b7f000000000000000000000000000000000000000000000000000000000000000081565b6113ba7f89474cd304b3d584b6b929df80f4ee240b6d86ea6695dde932381e725146f10860001b611a3e565b6113e67f9393d978a035c5fbb2c65374f8736f4cd06c398c02e1cf5f10346d4c423c602260001b611a3e565b6114127f259c48350a90ab3ba44cde459ef923307d30d511977cab5041c730e903c9779760001b611a3e565b7f000000000000000000000000000000000000000000000000000000000000000073ffffffffffffffffffffffffffffffffffffffff163373ffffffffffffffffffffffffffffffffffffffff16146114c3576114917f9f48ad36604a5fd88c340ad6bd7205828c874d205b44c559bde166192d34cfa560001b611a3e565b6040517f1ee8575e00000000000000000000000000000000000000000000000000000000815260040160405180910390fd5b6114ef7fbb05b5876405d95c5f80eef05555e79e138ae1efa25e60ae2974b2bedb64c10c60001b611a3e565b61151b7f3d23a87728409a7b95bb5139066efc51fe1e9f80af6850fe58fc1c1e51bcf94060001b611a3e565b6115477f96388bc21f5b3ec3ba34880d9f9a504c997cae8fb875c92a7a66cad80cfdc9da60001b611a3e565b806000806101000a81548173ffffffffffffffffffffffffffffffffffffffff021916908373ffffffffffffffffffffffffffffffffffffffff16021790555050565b600460009054906101000a900473ffffffffffffffffffffffffffffffffffffffff1681565b60016020528060005260406000206000915054906101000a900473ffffffffffffffffffffffffffffffffffffffff1681565b61160f7f5507ba71878f6e138d8715ab6ffec89e85f7472edb8a5ef8a57bd10aab2f7d0e60001b611a3e565b61163b7f8033979550730d0d0679efe972ab1ea6d4641a3df87c71ad536bf611b5012b5460001b611a3e565b6116677f4c1f89a718f72d8877d097e2eef3f302a511e1d7497bebc28872be164adee31560001b611a3e565b6103eb34146116ce5761169c7fea8c0dab0b483b02f67fe4646105aaff3299225c790de5627c1b7641e16b07dc60001b611a3e565b6040517fa43d860800000000000000000000000000000000000000000000000000000000815260040160405180910390fd5b6116fa7f11d094206759642a9222285ffd1e634edafddf0f491e693d55d8e69b44a45fdd60001b611a3e565b6117267fea5d85059a9803d9d73b8e63225e0132fdb9562707c1365823fff81aa3a1cb2760001b611a3e565b6117527f8552b0b6ac7a9a34c13104b8780f996eaf06f65d197f34c5e98812d2db42564c60001b611a3e565b600073ffffffffffffffffffffffffffffffffffffffff1660008054906101000a900473ffffffffffffffffffffffffffffffffffffffff1673ffffffffffffffffffffffffffffffffffffffff16148061188e5750600460009054906101000a900473ffffffffffffffffffffffffffffffffffffffff1673ffffffffffffffffffffffffffffffffffffffff166370a0823160008054906101000a900473ffffffffffffffffffffffffffffffffffffffff166040518263ffffffff1660e01b81526004016118239190611cb8565b602060405180830381865afa158015611840573d6000803e3d6000fd5b505050506040513d601f19601f820116820180604052508101906118649190611ddb565b6103e8600354600280546118789190611f6b565b6118829190611f9f565b61188c9190611fd3565b115b156118f1576118bf7fac9f751a061a9576291bf1595c6584ccedc5d377444dafdb68215356f1ab437260001b611a3e565b6040517ff06294a300000000000000000000000000000000000000000000000000000000815260040160405180910390fd5b61191d7f1d0ccd67a9a1ba05199f2c504be0c4b1ce3ee94cb66851a1bcc87d8eadf449ef60001b611a3e565b6119497f9a0e10bd0c0e8c8ca4d7ba27265ce1a02c28052a34f31d7062b754cc4df5f88860001b611a3e565b6119757f2c2c8c6575b583b4531fba46f912e2ac4934190f9aa507a5a6d110185c99019260001b611a3e565b61197d611a41565b6119a97fae442861f9ab982d91faca0f0b6eb3eb790fc8905e50bcf97e6d56fe1c77050160001b611a3e565b6119d57f9536df988ad368b1365defc16aaeb05b344e95484f796f8884c6430e1e65572f60001b611a3e565b7f000000000000000000000000000000000000000000000000000000000000000073ffffffffffffffffffffffffffffffffffffffff166108fc349081150290604051600060405180830381858888f19350505050158015611a3b573d6000803e3d6000fd5b50565b50565b611a6d7fd9f34418c3a3372e76c43b6a2d42ed6f1384f72052f105c3621ea18fb160b87360001b611a3e565b611a997ff0b088d8207cc27cc978f9b901cf268b87fd5229dd45b4824e6ab55e81028f5760001b611a3e565b611ac57fab5407a4d4329e676bbf0952511a86d0b28052d847ec4d46f1080c833a8d364f60001b611a3e565b600160026000828254611ad89190611f6b565b92505081905550611b0b7f53599100b6232ed58d2bcf8798cd50f53ce52b8279657bbda658ff2cbacb681560001b611a3e565b611b377f87de1ad3eaf721a1235c4b1cd80f1ef44b4d7a80818c7c5ea38e728f2f0199de60001b611a3e565b3360016000600254815260200190815260200160002060006101000a81548173ffffffffffffffffffffffffffffffffffffffff021916908373ffffffffffffffffffffffffffffffffffffffff160217905550565b600073ffffffffffffffffffffffffffffffffffffffff82169050919050565b6000819050919050565b6000611bd2611bcd611bc884611b8d565b611bad565b611b8d565b9050919050565b6000611be482611bb7565b9050919050565b6000611bf682611bd9565b9050919050565b611c0681611beb565b82525050565b6000602082019050611c216000830184611bfd565b92915050565b6000819050919050565b611c3a81611c27565b82525050565b6000602082019050611c556000830184611c31565b92915050565b6000611c6682611bd9565b9050919050565b611c7681611c5b565b82525050565b6000602082019050611c916000830184611c6d565b92915050565b6000611ca282611b8d565b9050919050565b611cb281611c97565b82525050565b6000602082019050611ccd6000830184611ca9565b92915050565b600080fd5b611ce181611c97565b8114611cec57600080fd5b50565b600081359050611cfe81611cd8565b92915050565b600060208284031215611d1a57611d19611cd3565b5b6000611d2884828501611cef565b91505092915050565b6000611d3c82611bd9565b9050919050565b611d4c81611d31565b82525050565b6000602082019050611d676000830184611d43565b92915050565b611d7681611c27565b8114611d8157600080fd5b50565b600081359050611d9381611d6d565b92915050565b600060208284031215611daf57611dae611cd3565b5b6000611dbd84828501611d84565b91505092915050565b600081519050611dd581611d6d565b92915050565b600060208284031215611df157611df0611cd3565b5b6000611dff84828501611dc6565b91505092915050565b6000604082019050611e1d6000830185611ca9565b611e2a6020830184611c31565b9392505050565b60008115159050919050565b611e4681611e31565b8114611e5157600080fd5b50565b600081519050611e6381611e3d565b92915050565b600060208284031215611e7f57611e7e611cd3565b5b6000611e8d84828501611e54565b91505092915050565b600081519050611ea581611cd8565b92915050565b600060208284031215611ec157611ec0611cd3565b5b6000611ecf84828501611e96565b91505092915050565b6000819050919050565b6000611efd611ef8611ef384611ed8565b611bad565b611c27565b9050919050565b611f0d81611ee2565b82525050565b6000604082019050611f286000830185611ca9565b611f356020830184611f04565b9392505050565b7f4e487b7100000000000000000000000000000000000000000000000000000000600052601160045260246000fd5b6000611f7682611c27565b9150611f8183611c27565b9250828201905080821115611f9957611f98611f3c565b5b92915050565b6000611faa82611c27565b9150611fb583611c27565b9250828203905081811115611fcd57611fcc611f3c565b5b92915050565b6000611fde82611c27565b9150611fe983611c27565b9250828202611ff781611c27565b9150828204841483151761200e5761200d611f3c565b5b509291505056fea2646970667358221220416656169bfe06f232c10b629b432d6a7e4ba77f16f33ebf93acc86b3bbde09e64736f6c63430008110033",
  "linkReferences": {},
  "deployedLinkReferences": {}
}