{
  "_format": "hh-sol-artifact-1",
  "contractName": "MockMumbaiBridge",
  "sourceName": "contracts/MockBridgeMsgERC20.sol",
  "abi": [
    {
      "inputs": [
        {
          "internalType": "address",
          "name": "_token",
          "type": "address"
        }
      ],
      "stateMutability": "nonpayable",
      "type": "constructor"
    },
    {
      "inputs": [],
      "name": "bridgeEmpty",
      "type": "error"
    },
    {
      "inputs": [],
      "name": "bridgeOnOtherSideNeedsLiqudity",
      "type": "error"
    },
    {
      "inputs": [],
      "name": "msgValueDoesNotCoverFee",
      "type": "error"
    },
    {
      "inputs": [],
      "name": "msgValueLessThan1000",
      "type": "error"
    },
    {
      "inputs": [],
      "name": "msgValueZero",
      "type": "error"
    },
    {
      "inputs": [],
      "name": "notExternalBridge",
      "type": "error"
    },
    {
      "inputs": [],
      "name": "notOwnerAddress",
      "type": "error"
    },
    {
      "inputs": [],
      "name": "queueIsEmpty",
      "type": "error"
    },
    {
      "inputs": [],
      "name": "queueNotEmpty",
      "type": "error"
    },
    {
      "inputs": [],
      "name": "Owner",
      "outputs": [
        {
          "internalType": "address",
          "name": "",
          "type": "address"
        }
      ],
      "stateMutability": "view",
      "type": "function"
    },
    {
      "inputs": [],
      "name": "callWETH",
      "outputs": [
        {
          "internalType": "contract ERC20TokenContractWETH",
          "name": "",
          "type": "address"
        }
      ],
      "stateMutability": "view",
      "type": "function"
    },
    {
      "inputs": [],
      "name": "dequeue",
      "outputs": [],
      "stateMutability": "nonpayable",
      "type": "function"
    },
    {
      "inputs": [],
      "name": "first",
      "outputs": [
        {
          "internalType": "uint256",
          "name": "",
          "type": "uint256"
        }
      ],
      "stateMutability": "view",
      "type": "function"
    },
    {
      "inputs": [],
      "name": "goerliBridgeInstance",
      "outputs": [
        {
          "internalType": "contract MockGoerliBridgeERC20",
          "name": "",
          "type": "address"
        }
      ],
      "stateMutability": "view",
      "type": "function"
    },
    {
      "inputs": [],
      "name": "last",
      "outputs": [
        {
          "internalType": "uint256",
          "name": "",
          "type": "uint256"
        }
      ],
      "stateMutability": "view",
      "type": "function"
    },
    {
      "inputs": [
        {
          "internalType": "uint256",
          "name": "bridgeAmount",
          "type": "uint256"
        }
      ],
      "name": "lockTokensForGoerli",
      "outputs": [],
      "stateMutability": "payable",
      "type": "function"
    },
    {
      "inputs": [
        {
          "internalType": "address",
          "name": "",
          "type": "address"
        }
      ],
      "name": "lockedForGoerliETH",
      "outputs": [
        {
          "internalType": "uint256",
          "name": "",
          "type": "uint256"
        }
      ],
      "stateMutability": "view",
      "type": "function"
    },
    {
      "inputs": [
        {
          "internalType": "address",
          "name": "_token",
          "type": "address"
        }
      ],
      "name": "mockOwnerGoerliBridgeAddress",
      "outputs": [],
      "stateMutability": "nonpayable",
      "type": "function"
    },
    {
      "inputs": [
        {
          "internalType": "address",
          "name": "",
          "type": "address"
        }
      ],
      "name": "optimismBridgedETH",
      "outputs": [
        {
          "internalType": "uint256",
          "name": "",
          "type": "uint256"
        }
      ],
      "stateMutability": "view",
      "type": "function"
    },
    {
      "inputs": [],
      "name": "ownerRemoveBridgeLiqudity",
      "outputs": [],
      "stateMutability": "nonpayable",
      "type": "function"
    },
    {
      "inputs": [],
      "name": "ownerUnlockOptimismETH",
      "outputs": [],
      "stateMutability": "nonpayable",
      "type": "function"
    },
    {
      "inputs": [
        {
          "internalType": "uint256",
          "name": "",
          "type": "uint256"
        }
      ],
      "name": "queue",
      "outputs": [
        {
          "internalType": "address",
          "name": "",
          "type": "address"
        }
      ],
      "stateMutability": "view",
      "type": "function"
    }
  ],
  "bytecode": "0x60a060405260016005553480156200001657600080fd5b50604051620026cd380380620026cd83398181016040528101906200003c919062000229565b620000707f9e32e9ce16d12810a6641f449dcc58288b4f9a4aad7cd87febb3cf0be25b1d2a60001b620001bc60201b60201c565b620000a47fb7e98c3c66b422085b3e082e85f525cead185dde9b4aed50096d2424602d4d9f60001b620001bc60201b60201c565b620000d87f1e48cdfc364ab4dec5e3fd1d203daf7ac82782103809c662d46a9605e64c3add60001b620001bc60201b60201c565b3373ffffffffffffffffffffffffffffffffffffffff1660808173ffffffffffffffffffffffffffffffffffffffff1681525050620001407fa3ab2218f4582861db7b856087a2977d12de64a5e1e8026544858a444abecf7760001b620001bc60201b60201c565b620001747feb4064090aed2bba0bed11c2bc20e9d1e1a5589eab663b4d32878127a5ef1d8c60001b620001bc60201b60201c565b80600660006101000a81548173ffffffffffffffffffffffffffffffffffffffff021916908373ffffffffffffffffffffffffffffffffffffffff160217905550506200025b565b50565b600080fd5b600073ffffffffffffffffffffffffffffffffffffffff82169050919050565b6000620001f182620001c4565b9050919050565b6200020381620001e4565b81146200020f57600080fd5b50565b6000815190506200022381620001f8565b92915050565b600060208284031215620002425762000241620001bf565b5b6000620002528482850162000212565b91505092915050565b6080516124336200029a6000396000818161038b015281816108e801528181610a99015281816115f40152818161169c0152611da501526124336000f3fe6080604052600436106100c25760003560e01c80639ee813d21161007f578063c5aaccf711610059578063c5aaccf71461020c578063c637aa9714610249578063ddf0b00914610265578063e3d66f68146102a2576100c2565b80639ee813d21461018d578063b4a99a4e146101b8578063bd31a23a146101e3576100c2565b806306557c31146100c757806308dd057a146100f25780633df4ddf41461010957806347799da814610134578063515b74f21461015f578063957908d114610176575b600080fd5b3480156100d357600080fd5b506100dc6102df565b6040516100e99190612026565b60405180910390f35b3480156100fe57600080fd5b50610107610305565b005b34801561011557600080fd5b5061011e610a07565b60405161012b919061205a565b60405180910390f35b34801561014057600080fd5b50610149610a0d565b604051610156919061205a565b60405180910390f35b34801561016b57600080fd5b50610174610a13565b005b34801561018257600080fd5b5061018b611328565b005b34801561019957600080fd5b506101a26115cc565b6040516101af9190612096565b60405180910390f35b3480156101c457600080fd5b506101cd6115f2565b6040516101da91906120d2565b60405180910390f35b3480156101ef57600080fd5b5061020a6004803603810190610205919061211e565b611616565b005b34801561021857600080fd5b50610233600480360381019061022e919061211e565b611813565b604051610240919061205a565b60405180910390f35b610263600480360381019061025e9190612177565b61182b565b005b34801561027157600080fd5b5061028c60048036038101906102879190612177565b611e0d565b60405161029991906120d2565b60405180910390f35b3480156102ae57600080fd5b506102c960048036038101906102c4919061211e565b611e40565b6040516102d6919061205a565b60405180910390f35b600260009054906101000a900473ffffffffffffffffffffffffffffffffffffffff1681565b6103317f8968d5efc1edc4d27dac3fdfdae4eac0c4ec36d3c16693d2870a149e759bc2bd60001b611e58565b61035d7f9d0e733d162380bdb32881dbc3eb7227927083ad9add71f7ae6062e8a375e81760001b611e58565b6103897f102837fddf781784f3434b7c2a240c5d51e386bc34d8e06cdae81a785d848a9c60001b611e58565b7f000000000000000000000000000000000000000000000000000000000000000073ffffffffffffffffffffffffffffffffffffffff163373ffffffffffffffffffffffffffffffffffffffff161461043a576104087f71076cf20cf22b1c7eb32492a8c64bb301f4884b7eed5bd947fad6ff48dcbd9060001b611e58565b6040517f1ee8575e00000000000000000000000000000000000000000000000000000000815260040160405180910390fd5b6104667fe521ae1280b1124eac95ac4d096b6efee04ed812c1c3f12fe5daa21558c07fba60001b611e58565b6104927f5529e790c5e494c9c3faa3d60edec9ec21fec52ca93fbe00bbaa328900c0988160001b611e58565b6104be7fc093d4caf7502a20d9d7a775854a223982c3435cbe5b1baf130d81c16714e1f060001b611e58565b6000600660009054906101000a900473ffffffffffffffffffffffffffffffffffffffff1673ffffffffffffffffffffffffffffffffffffffff166370a08231306040518263ffffffff1660e01b815260040161051b91906120d2565b602060405180830381865afa158015610538573d6000803e3d6000fd5b505050506040513d601f19601f8201168201806040525081019061055c91906121b9565b036105bf5761058d7f81388b93b30e10b837d82a3e653383a24bd05f522fb6929a835a1ed488e79cdd60001b611e58565b6040517f7a1f291700000000000000000000000000000000000000000000000000000000815260040160405180910390fd5b6105eb7fb143235c6883bdaa52b68acf161772367651888b74ad81ac186a586399b00e7f60001b611e58565b6106177fd6f4bbb1c60731b4502478ada120e38469763ecde537662bc1039354a5dc434060001b611e58565b6106437fc67fadfa868b4980b30db25542c92d4dc4a28647937ec916d80fdab20a8269d460001b611e58565b600073ffffffffffffffffffffffffffffffffffffffff16600260009054906101000a900473ffffffffffffffffffffffffffffffffffffffff1673ffffffffffffffffffffffffffffffffffffffff1614806107c05750600260009054906101000a900473ffffffffffffffffffffffffffffffffffffffff1673ffffffffffffffffffffffffffffffffffffffff16633df4ddf46040518163ffffffff1660e01b8152600401602060405180830381865afa158015610708573d6000803e3d6000fd5b505050506040513d601f19601f8201168201806040525081019061072c91906121b9565b600260009054906101000a900473ffffffffffffffffffffffffffffffffffffffff1673ffffffffffffffffffffffffffffffffffffffff166347799da86040518163ffffffff1660e01b8152600401602060405180830381865afa158015610799573d6000803e3d6000fd5b505050506040513d601f19601f820116820180604052508101906107bd91906121b9565b10155b15610823576107f17f67c2f24e5ee397cf93f73ede73d4fb5917094d98ecfa7013897c0cae39722b1760001b611e58565b6040517f230accfd00000000000000000000000000000000000000000000000000000000815260040160405180910390fd5b61084f7f8ea1fef6b20f5471c867d0e3f84f3af358e5cfc16a70c4e48ab58c385b6ae19f60001b611e58565b61087b7f07dfa5d9b0bf315b1323bf5d41cf73a3db25d1faf6a879f92d929a0473de770d60001b611e58565b6108a77fec0f8362af76a1c39c3e37cc4b051f6042afa3b9a0891fed5bd46117306aeeb660001b611e58565b600660009054906101000a900473ffffffffffffffffffffffffffffffffffffffff1673ffffffffffffffffffffffffffffffffffffffff166323b872dd307f0000000000000000000000000000000000000000000000000000000000000000600660009054906101000a900473ffffffffffffffffffffffffffffffffffffffff1673ffffffffffffffffffffffffffffffffffffffff166370a08231306040518263ffffffff1660e01b815260040161096291906120d2565b602060405180830381865afa15801561097f573d6000803e3d6000fd5b505050506040513d601f19601f820116820180604052508101906109a391906121b9565b6040518463ffffffff1660e01b81526004016109c1939291906121e6565b6020604051808303816000875af11580156109e0573d6000803e3d6000fd5b505050506040513d601f19601f82011682018060405250810190610a049190612255565b50565b60055481565b60045481565b610a3f7fc77778424b60b4cf6b3dbe31c068e97001c5510eaa52e809d4b65a8b95420fa860001b611e58565b610a6b7f4be935e6243c97e81f2b10ab6899263a3ce31cb9894e8653250509f6f58b997b60001b611e58565b610a977f559dac9509eb77a81decebe0ddcd94f10adf81374e36a577428323a2b9007d2760001b611e58565b7f000000000000000000000000000000000000000000000000000000000000000073ffffffffffffffffffffffffffffffffffffffff163373ffffffffffffffffffffffffffffffffffffffff1614610b4857610b167fbca1ebcd32e0850f3e3aa03eb123f9eeb0fa4075993c4c05e8af27e69be3d5cd60001b611e58565b6040517f1ee8575e00000000000000000000000000000000000000000000000000000000815260040160405180910390fd5b610b747f6f7c8dbcd9400220ab886174a33067bb32275aa7a0e1a948867c41f9a67f37e860001b611e58565b610ba07fea5d87c4b30ee0662e1baad9704d465f3cd53f677f10b148b248f0e6c921789d60001b611e58565b610bcc7f26149ef156423ff1646cef011d9ff688e4358c9dc36a73cef61f133bd28ffa4160001b611e58565b600073ffffffffffffffffffffffffffffffffffffffff16600260009054906101000a900473ffffffffffffffffffffffffffffffffffffffff1673ffffffffffffffffffffffffffffffffffffffff161480610d485750600260009054906101000a900473ffffffffffffffffffffffffffffffffffffffff1673ffffffffffffffffffffffffffffffffffffffff16633df4ddf46040518163ffffffff1660e01b8152600401602060405180830381865afa158015610c91573d6000803e3d6000fd5b505050506040513d601f19601f82011682018060405250810190610cb591906121b9565b600260009054906101000a900473ffffffffffffffffffffffffffffffffffffffff1673ffffffffffffffffffffffffffffffffffffffff166347799da86040518163ffffffff1660e01b8152600401602060405180830381865afa158015610d22573d6000803e3d6000fd5b505050506040513d601f19601f82011682018060405250810190610d4691906121b9565b105b15610dab57610d797fdcb4cc238e18f4c5d1f20de5b7284b25a0d8e2618b375c10c923629742b74a0960001b611e58565b6040517f5e61bb8700000000000000000000000000000000000000000000000000000000815260040160405180910390fd5b610dd77f628cca55a554e34fea374d85d9eebb0f71d02e804265ed3a0624b637371af1b160001b611e58565b610e037f34fee5a9914f4393edf27c343044f58843a4f07744bc2ebf02f1bd0ddec6760f60001b611e58565b610e2f7f0f3f3600a9caf06ec513a99c298dd9fc6803ac57a4d73ee37b5c646037a2a42060001b611e58565b6000600260009054906101000a900473ffffffffffffffffffffffffffffffffffffffff1673ffffffffffffffffffffffffffffffffffffffff1663ddf0b009600260009054906101000a900473ffffffffffffffffffffffffffffffffffffffff1673ffffffffffffffffffffffffffffffffffffffff166347799da86040518163ffffffff1660e01b8152600401602060405180830381865afa158015610edc573d6000803e3d6000fd5b505050506040513d601f19601f82011682018060405250810190610f0091906121b9565b6040518263ffffffff1660e01b8152600401610f1c919061205a565b602060405180830381865afa158015610f39573d6000803e3d6000fd5b505050506040513d601f19601f82011682018060405250810190610f5d9190612297565b9050610f8b7fb73843433590617ff42bd83b67f912197c3bf385191b86b1ca63f9f668eee1a060001b611e58565b610fb77facf33846ef8c04480cba65826ca730861a2479d207e8372da7d7f889f6d39a1860001b611e58565b600260009054906101000a900473ffffffffffffffffffffffffffffffffffffffff1673ffffffffffffffffffffffffffffffffffffffff1663957908d16040518163ffffffff1660e01b8152600401600060405180830381600087803b15801561102157600080fd5b505af1158015611035573d6000803e3d6000fd5b505050506110657fcd5eba7f3fcf99452ca1b9a79c75dca6aa694e04af7c37f857e0e207120a2c8160001b611e58565b6110917ff317de9e20d3211e1058dc3e8ad1bf3d36446cbdde094a56076e31ee76b9ee4360001b611e58565b6000600160008373ffffffffffffffffffffffffffffffffffffffff1673ffffffffffffffffffffffffffffffffffffffff16815260200190815260200160002054600260009054906101000a900473ffffffffffffffffffffffffffffffffffffffff1673ffffffffffffffffffffffffffffffffffffffff1663abb6b5a1846040518263ffffffff1660e01b815260040161112e91906120d2565b602060405180830381865afa15801561114b573d6000803e3d6000fd5b505050506040513d601f19601f8201168201806040525081019061116f91906121b9565b61117991906122f3565b90506111a77f3d04bc68676f6303659539d04199b01e7cb8de7383bfff61beef967e325113d760001b611e58565b6111d37fe25fde88a862509ecfc1e5a2abf6d0c74b99279d6e4c58eb0bd60be2c8a2514f60001b611e58565b80600160008473ffffffffffffffffffffffffffffffffffffffff1673ffffffffffffffffffffffffffffffffffffffff16815260200190815260200160002060008282546112229190612327565b925050819055506112557f1f0e90198cadd7b36a1054c23b1d271f79169551eec3590c0367fc3e6a90362b60001b611e58565b6112817f4a16ffd22be4d6b77408e57a392f61c12a774380f6cd45a61dd60256bf06c1de60001b611e58565b600660009054906101000a900473ffffffffffffffffffffffffffffffffffffffff1673ffffffffffffffffffffffffffffffffffffffff166323b872dd3084846040518463ffffffff1660e01b81526004016112e0939291906121e6565b6020604051808303816000875af11580156112ff573d6000803e3d6000fd5b505050506040513d601f19601f820116820180604052508101906113239190612255565b505050565b6113547f10c5e727d1e0404654c67e0cf29f9e47a16018d947810c3cbe480214b7dc62bf60001b611e58565b6113807f7916112e8423a3f2eed76ab9cda45496e0886e8568731e74b973c4dbee41f48460001b611e58565b6113ac7f46c0760d01c876e6aa8fad32eac2eee2d1f26e8448280e4b5507a07ad9b1323060001b611e58565b600073ffffffffffffffffffffffffffffffffffffffff16600260009054906101000a900473ffffffffffffffffffffffffffffffffffffffff1673ffffffffffffffffffffffffffffffffffffffff1614806114575750600260009054906101000a900473ffffffffffffffffffffffffffffffffffffffff1673ffffffffffffffffffffffffffffffffffffffff163373ffffffffffffffffffffffffffffffffffffffff1614155b806114655750600554600454105b156114c8576114967f5836a420d75be92f5d126b55c2f155429c16319ead1030834af9b6b5a97bd9a860001b611e58565b6040517f4da1bc3400000000000000000000000000000000000000000000000000000000815260040160405180910390fd5b6114f47fc963d67c4fbd3b5ef6c0b75ce5c6a040b24d6924aebff7a41adc49e38f90d33460001b611e58565b6115207fba2abab93bec190e93e2c47902b335a71adb0ef4896c1159dc5d0d34a5f2dc8060001b611e58565b60036000600554815260200190815260200160002060006101000a81549073ffffffffffffffffffffffffffffffffffffffff02191690556115847f4ef0f213709a2068cbf363593f7cb9a46a94a330d00e2a874a7a259ccae45c7b60001b611e58565b6115b07ff815ba4134a03814a3f7eb590bb94fa35d7d10fec86837a1b97e1cc1dc47b66460001b611e58565b6001600560008282546115c39190612327565b92505081905550565b600660009054906101000a900473ffffffffffffffffffffffffffffffffffffffff1681565b7f000000000000000000000000000000000000000000000000000000000000000081565b6116427f84e685907255ea8264b11b62d68fa67277863e58290882df47f6bb003cb4423360001b611e58565b61166e7f1a894409a7d7e37fab7092a9a1ec917586e2b0c5271863a632dd4953a6af275d60001b611e58565b61169a7f0a6065754474fc60b88a055d1225c9ee1200650a1b4ee5bfd4600cba006272ec60001b611e58565b7f000000000000000000000000000000000000000000000000000000000000000073ffffffffffffffffffffffffffffffffffffffff163373ffffffffffffffffffffffffffffffffffffffff161461174b576117197fe62bfa6f580fbacc20c938ee1b641bbb0d960ef350ba38a3954f7e0325a0e68560001b611e58565b6040517f1ee8575e00000000000000000000000000000000000000000000000000000000815260040160405180910390fd5b6117777fea6648f4977a06c43736ef50a5f0c7de3ad7036282a60cb8197306d178c3645060001b611e58565b6117a37f9dbfdc74844acd3a484e868b51e57ae21a51dd504a81c2a01f66fa5324d692c660001b611e58565b6117cf7ffc528094a0f2b7499d9ae069c4d3e0b525a3e8decb7ac9f08dd45a5f3cb8dbf360001b611e58565b80600260006101000a81548173ffffffffffffffffffffffffffffffffffffffff021916908373ffffffffffffffffffffffffffffffffffffffff16021790555050565b60016020528060005260406000206000915090505481565b6118577f324278e51726ee71fabe80b69bb7c8d6034781940c4e26d7de828b8696d8b4ec60001b611e58565b6118837f241cf45d1be4bccefafb53cbbb5ac03bdad5469474edd6abb8fd6f33ea58973660001b611e58565b6118af7f56b82c4e59c51d4ef21af198f84d76fe838ff73092065ee85570470d6e85426c60001b611e58565b6103e8811015611917576118e57fd0672708c49a6e6c65dee6d4ce2b705b4e3a3d380ed89619b1b32a4f5ccdb74760001b611e58565b6040517fa9f2d61800000000000000000000000000000000000000000000000000000000815260040160405180910390fd5b6119437ff50c0ed59aa1dfce30fab5b9796449981b75319e9b01f183c31b21741477c62e60001b611e58565b61196f7f2a3da6c6859211184c5c0476d14bc97059dc45f380a3bebe248191a46d6cf14860001b611e58565b61199b7f02e51222fc208e29416fbbd7fb25326816f14ed61b04c8c214a92b0d1926a62160001b611e58565b6103e8816103eb6119ac919061235b565b6119b691906123cc565b3414611a1a576119e87f03db5d1fa9a96ece3da9d7eba78d9fe9b5063650e143cc299cd602a4eb8aca4a60001b611e58565b6040517f400f9fb800000000000000000000000000000000000000000000000000000000815260040160405180910390fd5b611a467f378a3ae9e16c0280ee5cf7941e2c9934a45ee064fd775d4ed1254125befdd14d60001b611e58565b611a727ffb9208cf3d3eed7e07678150eab3d9b2722c7d6968b969bad760901a93d2e36b60001b611e58565b611a9e7f3e7150fe48cda10c06aac7eaf2492f5ff8dcf13eca0af5a7ccd15c78ed7772b560001b611e58565b600073ffffffffffffffffffffffffffffffffffffffff16600260009054906101000a900473ffffffffffffffffffffffffffffffffffffffff1673ffffffffffffffffffffffffffffffffffffffff161480611b95575080600660009054906101000a900473ffffffffffffffffffffffffffffffffffffffff1673ffffffffffffffffffffffffffffffffffffffff166370a08231306040518263ffffffff1660e01b8152600401611b5291906120d2565b602060405180830381865afa158015611b6f573d6000803e3d6000fd5b505050506040513d601f19601f82011682018060405250810190611b9391906121b9565b105b15611bf857611bc67f785ec7a0f254c471ec0e3b38dd456a0252688aca423401801cfe9ced4d539ac160001b611e58565b6040517ff06294a300000000000000000000000000000000000000000000000000000000815260040160405180910390fd5b611c247f5ffb86ae087ad228de2f3ee6db87f1f4cffef9a3bc65be16ce093a021f0087b660001b611e58565b611c507fd013074831da151b96371e3519eb659d1b68eea5ac931102265d00f7035a19d560001b611e58565b611c7c7f0ec6178e7bca188e90be2e9708cfd7ddbf576e2476983bd0dec0b6cc7be7180460001b611e58565b6103eb346103e8611c8d919061235b565b611c9791906123cc565b6000803373ffffffffffffffffffffffffffffffffffffffff1673ffffffffffffffffffffffffffffffffffffffff1681526020019081526020016000206000828254611ce49190612327565b92505081905550611d177f6fc53bd13343fe6a8b029909b5708db4a5eb291176258f65833dfe31b4d856ba60001b611e58565b611d437fa5ef19f442282dae7173eddc06ba2907e8a223c716336de61095a801f90e4fa160001b611e58565b611d4b611e5b565b611d777fe8967ac4efa392ef5044003431c2acd211ca980ef125c2c06083acb6b0d74d0160001b611e58565b611da37f35add2646736ceb1576eae9bc47045973ef97fe71d06893a03190591e9063feb60001b611e58565b7f000000000000000000000000000000000000000000000000000000000000000073ffffffffffffffffffffffffffffffffffffffff166108fc349081150290604051600060405180830381858888f19350505050158015611e09573d6000803e3d6000fd5b5050565b60036020528060005260406000206000915054906101000a900473ffffffffffffffffffffffffffffffffffffffff1681565b60006020528060005260406000206000915090505481565b50565b611e877f33c18fdaa07a894bbf2088fdec44a388c93fc7f25c615c6e9738e457f057b10d60001b611e58565b611eb37ff6567058884a8ed76315dd1b4519ffa240ffda0740f8ab689efe0b60e0c9779d60001b611e58565b611edf7f6b629f46170ddec4540194636ed7ffbaa766cfc99960af83efead598ef25505060001b611e58565b600160046000828254611ef29190612327565b92505081905550611f257f10036951e9060616ae282f23698d14d46a4e412fc919788602cd18910d7e99d260001b611e58565b611f517f9cdd9c73de5cb9547605fa50d6470954f05e52dd52d5ce931236091ce66f25ac60001b611e58565b3360036000600454815260200190815260200160002060006101000a81548173ffffffffffffffffffffffffffffffffffffffff021916908373ffffffffffffffffffffffffffffffffffffffff160217905550565b600073ffffffffffffffffffffffffffffffffffffffff82169050919050565b6000819050919050565b6000611fec611fe7611fe284611fa7565b611fc7565b611fa7565b9050919050565b6000611ffe82611fd1565b9050919050565b600061201082611ff3565b9050919050565b61202081612005565b82525050565b600060208201905061203b6000830184612017565b92915050565b6000819050919050565b61205481612041565b82525050565b600060208201905061206f600083018461204b565b92915050565b600061208082611ff3565b9050919050565b61209081612075565b82525050565b60006020820190506120ab6000830184612087565b92915050565b60006120bc82611fa7565b9050919050565b6120cc816120b1565b82525050565b60006020820190506120e760008301846120c3565b92915050565b600080fd5b6120fb816120b1565b811461210657600080fd5b50565b600081359050612118816120f2565b92915050565b600060208284031215612134576121336120ed565b5b600061214284828501612109565b91505092915050565b61215481612041565b811461215f57600080fd5b50565b6000813590506121718161214b565b92915050565b60006020828403121561218d5761218c6120ed565b5b600061219b84828501612162565b91505092915050565b6000815190506121b38161214b565b92915050565b6000602082840312156121cf576121ce6120ed565b5b60006121dd848285016121a4565b91505092915050565b60006060820190506121fb60008301866120c3565b61220860208301856120c3565b612215604083018461204b565b949350505050565b60008115159050919050565b6122328161221d565b811461223d57600080fd5b50565b60008151905061224f81612229565b92915050565b60006020828403121561226b5761226a6120ed565b5b600061227984828501612240565b91505092915050565b600081519050612291816120f2565b92915050565b6000602082840312156122ad576122ac6120ed565b5b60006122bb84828501612282565b91505092915050565b7f4e487b7100000000000000000000000000000000000000000000000000000000600052601160045260246000fd5b60006122fe82612041565b915061230983612041565b9250828203905081811115612321576123206122c4565b5b92915050565b600061233282612041565b915061233d83612041565b9250828201905080821115612355576123546122c4565b5b92915050565b600061236682612041565b915061237183612041565b925082820261237f81612041565b91508282048414831517612396576123956122c4565b5b5092915050565b7f4e487b7100000000000000000000000000000000000000000000000000000000600052601260045260246000fd5b60006123d782612041565b91506123e283612041565b9250826123f2576123f161239d565b5b82820490509291505056fea26469706673582212208c69df82a6d157e00d825af245a457bfe6b3d9f271cfb52cbbb31039c610f8d664736f6c63430008110033",
  "linkReferences": {},
  "deployedLinkReferences": {}
}