{
  "_format": "hh-sol-artifact-1",
  "contractName": "MockGoerliBridgeERC20",
  "sourceName": "contracts/MockBridgeMsgERC20.sol",
  "abi": [
    {
      "inputs": [
        {
          "internalType": "address",
          "name": "_token",
          "type": "address"
        }
      ],
      "stateMutability": "nonpayable",
      "type": "constructor"
    },
    {
      "inputs": [],
      "name": "bridgeEmpty",
      "type": "error"
    },
    {
      "inputs": [],
      "name": "bridgeOnOtherSideNeedsLiqudity",
      "type": "error"
    },
    {
      "inputs": [],
      "name": "bridgedAlready",
      "type": "error"
    },
    {
      "inputs": [],
      "name": "msgValueDoesNotCoverFee",
      "type": "error"
    },
    {
      "inputs": [],
      "name": "msgValueLessThan1000",
      "type": "error"
    },
    {
      "inputs": [],
      "name": "msgValueZero",
      "type": "error"
    },
    {
      "inputs": [],
      "name": "notExternalBridge",
      "type": "error"
    },
    {
      "inputs": [],
      "name": "notOwnerAddress",
      "type": "error"
    },
    {
      "inputs": [],
      "name": "ownerBridgeUsersBeforeWithdraw",
      "type": "error"
    },
    {
      "inputs": [],
      "name": "queueIsEmpty",
      "type": "error"
    },
    {
      "inputs": [],
      "name": "queueNotEmpty",
      "type": "error"
    },
    {
      "inputs": [],
      "name": "Owner",
      "outputs": [
        {
          "internalType": "address",
          "name": "",
          "type": "address"
        }
      ],
      "stateMutability": "view",
      "type": "function"
    },
    {
      "inputs": [],
      "name": "callMATIC",
      "outputs": [
        {
          "internalType": "contract ERC20TokenContractMATIC",
          "name": "",
          "type": "address"
        }
      ],
      "stateMutability": "view",
      "type": "function"
    },
    {
      "inputs": [],
      "name": "dequeue",
      "outputs": [],
      "stateMutability": "nonpayable",
      "type": "function"
    },
    {
      "inputs": [],
      "name": "first",
      "outputs": [
        {
          "internalType": "uint256",
          "name": "",
          "type": "uint256"
        }
      ],
      "stateMutability": "view",
      "type": "function"
    },
    {
      "inputs": [
        {
          "internalType": "address",
          "name": "",
          "type": "address"
        }
      ],
      "name": "goerliBridgedETH",
      "outputs": [
        {
          "internalType": "uint256",
          "name": "",
          "type": "uint256"
        }
      ],
      "stateMutability": "view",
      "type": "function"
    },
    {
      "inputs": [],
      "name": "last",
      "outputs": [
        {
          "internalType": "uint256",
          "name": "",
          "type": "uint256"
        }
      ],
      "stateMutability": "view",
      "type": "function"
    },
    {
      "inputs": [
        {
          "internalType": "uint256",
          "name": "bridgeAmount",
          "type": "uint256"
        }
      ],
      "name": "lockTokensForOptimism",
      "outputs": [],
      "stateMutability": "payable",
      "type": "function"
    },
    {
      "inputs": [
        {
          "internalType": "address",
          "name": "",
          "type": "address"
        }
      ],
      "name": "lockedForOptimismETH",
      "outputs": [
        {
          "internalType": "uint256",
          "name": "",
          "type": "uint256"
        }
      ],
      "stateMutability": "view",
      "type": "function"
    },
    {
      "inputs": [
        {
          "internalType": "address",
          "name": "_token",
          "type": "address"
        }
      ],
      "name": "mockOwnerOptimismBridgeAddress",
      "outputs": [],
      "stateMutability": "nonpayable",
      "type": "function"
    },
    {
      "inputs": [],
      "name": "mumbaiBridgeInstance",
      "outputs": [
        {
          "internalType": "contract MockMumbaiBridge",
          "name": "",
          "type": "address"
        }
      ],
      "stateMutability": "view",
      "type": "function"
    },
    {
      "inputs": [],
      "name": "ownerRemoveBridgeLiqudity",
      "outputs": [],
      "stateMutability": "nonpayable",
      "type": "function"
    },
    {
      "inputs": [],
      "name": "ownerUnlockGoerliETH",
      "outputs": [],
      "stateMutability": "nonpayable",
      "type": "function"
    },
    {
      "inputs": [
        {
          "internalType": "uint256",
          "name": "",
          "type": "uint256"
        }
      ],
      "name": "queue",
      "outputs": [
        {
          "internalType": "address",
          "name": "",
          "type": "address"
        }
      ],
      "stateMutability": "view",
      "type": "function"
    }
  ],
  "bytecode": "0x60a060405260016006553480156200001657600080fd5b50604051620026cc380380620026cc83398181016040528101906200003c919062000229565b620000707f675cc36a19ca7a8058879780135b61f6bb99178403681629949ef4e75ac9446e60001b620001bc60201b60201c565b620000a47fcf13017cb534853e18d4e43bd57b3c431d93b3d6e70073621c6b89383683845060001b620001bc60201b60201c565b620000d87f5df1a88086c6586324bd61bf8668e52ab6df607fc2c4f02348c656cd0349642b60001b620001bc60201b60201c565b3373ffffffffffffffffffffffffffffffffffffffff1660808173ffffffffffffffffffffffffffffffffffffffff1681525050620001407f754dcc15e3f879a816faaafd08aa7c7c986ac11df59538fc698fd1f585a7e9a460001b620001bc60201b60201c565b620001747fc7564dbaf27e85704284daa0b7c16208773a339128d58c08f44eff357cfd872660001b620001bc60201b60201c565b80600260006101000a81548173ffffffffffffffffffffffffffffffffffffffff021916908373ffffffffffffffffffffffffffffffffffffffff160217905550506200025b565b50565b600080fd5b600073ffffffffffffffffffffffffffffffffffffffff82169050919050565b6000620001f182620001c4565b9050919050565b6200020381620001e4565b81146200020f57600080fd5b50565b6000815190506200022381620001f8565b92915050565b600060208284031215620002425762000241620001bf565b5b6000620002528482850162000212565b91505092915050565b6080516124326200029a60003960008181610365015281816108c201528181610d47015281816115d8015281816116cc0152611def01526124326000f3fe6080604052600436106100c25760003560e01c8063af11cb401161007f578063cc7c7a7d11610059578063cc7c7a7d14610232578063d06019f51461025d578063ddf0b00914610286578063e76438ab146102c3576100c2565b8063af11cb40146101c5578063b4a99a4e146101dc578063c4e8fe4314610207576100c2565b806308dd057a146100c75780633df4ddf4146100de57806347799da8146101095780637bb1fdd214610134578063957908d114610171578063abb6b5a114610188575b600080fd5b3480156100d357600080fd5b506100dc6102df565b005b3480156100ea57600080fd5b506100f36109e1565b6040516101009190611fbf565b60405180910390f35b34801561011557600080fd5b5061011e6109e7565b60405161012b9190611fbf565b60405180910390f35b34801561014057600080fd5b5061015b6004803603810190610156919061203d565b6109ed565b6040516101689190611fbf565b60405180910390f35b34801561017d57600080fd5b50610186610a05565b005b34801561019457600080fd5b506101af60048036038101906101aa919061203d565b610ca9565b6040516101bc9190611fbf565b60405180910390f35b3480156101d157600080fd5b506101da610cc1565b005b3480156101e857600080fd5b506101f16115d6565b6040516101fe9190612079565b60405180910390f35b34801561021357600080fd5b5061021c6115fa565b60405161022991906120f3565b60405180910390f35b34801561023e57600080fd5b50610247611620565b604051610254919061212f565b60405180910390f35b34801561026957600080fd5b50610284600480360381019061027f919061203d565b611646565b005b34801561029257600080fd5b506102ad60048036038101906102a89190612176565b611843565b6040516102ba9190612079565b60405180910390f35b6102dd60048036038101906102d89190612176565b611876565b005b61030b7fbc9e32f7cd8698d95cfa14717f660c419414f86707d6baf2b9715989d43fd7a760001b611e57565b6103377fd593a42cf960ae735d544224f6369540eb0c49a2d185aedd5280e773c3e9d8f660001b611e57565b6103637ffb2baae150ee1ed6dd026f6cac807b0c1f0f62568c5403f58b3bb8316e32a29060001b611e57565b7f000000000000000000000000000000000000000000000000000000000000000073ffffffffffffffffffffffffffffffffffffffff163373ffffffffffffffffffffffffffffffffffffffff1614610414576103e27fb6942a4d45020d5cc6015ac0a055f9cf170d0461535a20604a1ba5a10747f5e260001b611e57565b6040517f1ee8575e00000000000000000000000000000000000000000000000000000000815260040160405180910390fd5b6104407fc1e976c7cc8bd34485251d99471666127d109460b78821a7872a34bc0fbb815a60001b611e57565b61046c7f4156138da54e97e81ba22fa5ed30d2dac3f6d46f9a0afbd722eb2ba75b2e853660001b611e57565b6104987fb13b920d4e4c29c1b6f309743c9ace99acb88c1a63cbd33b49ee5c50d393987160001b611e57565b6000600260009054906101000a900473ffffffffffffffffffffffffffffffffffffffff1673ffffffffffffffffffffffffffffffffffffffff166370a08231306040518263ffffffff1660e01b81526004016104f59190612079565b602060405180830381865afa158015610512573d6000803e3d6000fd5b505050506040513d601f19601f8201168201806040525081019061053691906121b8565b03610599576105677fc7bada76caa31b78716560b6e9dc8cc210675e823d9f11254bceab94cfb403dd60001b611e57565b6040517f7a1f291700000000000000000000000000000000000000000000000000000000815260040160405180910390fd5b6105c57f1af0fa3ea26aef17fa177efc0df6989266c00d19290d2fd7d1c1a8993ca5f82760001b611e57565b6105f17fd642a4c37096be48087a27a12b0629fd0df7cdf4dc90cf571940a020ad992ac060001b611e57565b61061d7f5fd756dd60c01b7e02230a4364dc34bf68e398e6b4159c5c627e572044c0274360001b611e57565b600073ffffffffffffffffffffffffffffffffffffffff16600360009054906101000a900473ffffffffffffffffffffffffffffffffffffffff1673ffffffffffffffffffffffffffffffffffffffff16148061079a5750600360009054906101000a900473ffffffffffffffffffffffffffffffffffffffff1673ffffffffffffffffffffffffffffffffffffffff16633df4ddf46040518163ffffffff1660e01b8152600401602060405180830381865afa1580156106e2573d6000803e3d6000fd5b505050506040513d601f19601f8201168201806040525081019061070691906121b8565b600360009054906101000a900473ffffffffffffffffffffffffffffffffffffffff1673ffffffffffffffffffffffffffffffffffffffff166347799da86040518163ffffffff1660e01b8152600401602060405180830381865afa158015610773573d6000803e3d6000fd5b505050506040513d601f19601f8201168201806040525081019061079791906121b8565b10155b156107fd576107cb7fb0104c277b1b7e33dfb093a9b3a8f58f88294444852d669dd656b88adcc7804460001b611e57565b6040517f230accfd00000000000000000000000000000000000000000000000000000000815260040160405180910390fd5b6108297f1b01bf7a3fee5c04dd30dffd7b34c8247a84bee638e9b1ed87d2449cab2141a360001b611e57565b6108557f94608f6776d7bdff0502ccabc541466e09efcf34c29f39400f684eb1e95655b360001b611e57565b6108817fb8aa92112fbe91960464a5976969e04aa51a761d832805bada755eff642a0e5360001b611e57565b600260009054906101000a900473ffffffffffffffffffffffffffffffffffffffff1673ffffffffffffffffffffffffffffffffffffffff166323b872dd307f0000000000000000000000000000000000000000000000000000000000000000600260009054906101000a900473ffffffffffffffffffffffffffffffffffffffff1673ffffffffffffffffffffffffffffffffffffffff166370a08231306040518263ffffffff1660e01b815260040161093c9190612079565b602060405180830381865afa158015610959573d6000803e3d6000fd5b505050506040513d601f19601f8201168201806040525081019061097d91906121b8565b6040518463ffffffff1660e01b815260040161099b939291906121e5565b6020604051808303816000875af11580156109ba573d6000803e3d6000fd5b505050506040513d601f19601f820116820180604052508101906109de9190612254565b50565b60065481565b60055481565b60016020528060005260406000206000915090505481565b610a317f8aef64f9caac085ada338df297750f66c401fbfb1ae4214cffb7073a1a2847cc60001b611e57565b610a5d7fd45784bd38277aaa3b845061a6eee9b57a3dc05042037573c12ae455d006027f60001b611e57565b610a897f8740aa3174ee68e382e95bbdfc3eb47782f273e809cbb36fde0fcf4e573f5f3360001b611e57565b600073ffffffffffffffffffffffffffffffffffffffff16600360009054906101000a900473ffffffffffffffffffffffffffffffffffffffff1673ffffffffffffffffffffffffffffffffffffffff161480610b345750600360009054906101000a900473ffffffffffffffffffffffffffffffffffffffff1673ffffffffffffffffffffffffffffffffffffffff163373ffffffffffffffffffffffffffffffffffffffff1614155b80610b425750600654600554105b15610ba557610b737f9a409a118c7f302bc24f3ecd5eec01edbcfa3b49311f9f21033cb222edb5592f60001b611e57565b6040517f4da1bc3400000000000000000000000000000000000000000000000000000000815260040160405180910390fd5b610bd17f5617231c4ea8d5f1ef3cde88e10f5b0034e6eca51920efbb732f50995cb6cbaf60001b611e57565b610bfd7f9b9a58ede065cd540cdc71c07f7576ec85c7edd9de6be9f890345806249293ed60001b611e57565b60046000600654815260200190815260200160002060006101000a81549073ffffffffffffffffffffffffffffffffffffffff0219169055610c617f3fcbadbaa00b5b39967c521adc26083faac07132ccea5b64e7e7c038265ddf3b60001b611e57565b610c8d7f41644757b877675367c11c37db312c2aee0932459cdbaff96b5c75ef971e06df60001b611e57565b600160066000828254610ca091906122b0565b92505081905550565b60006020528060005260406000206000915090505481565b610ced7fa7f93cb44e687caa05fe6d3277ff78c95f7bfccb4c998d7707a6650ca6e2ed0960001b611e57565b610d197fb86fefa082ace22f49b8bacf7e2930a03b0856d70a52224b1813c1f0aeb68f7560001b611e57565b610d457f657745dc8d198ac7e99cc396792ee9e1e365022f558915f00344fbb7fea2914160001b611e57565b7f000000000000000000000000000000000000000000000000000000000000000073ffffffffffffffffffffffffffffffffffffffff163373ffffffffffffffffffffffffffffffffffffffff1614610df657610dc47f658672b18d81bc08bb93770a934583c251fc9f9424f76ca3218b2f834cc783dd60001b611e57565b6040517f1ee8575e00000000000000000000000000000000000000000000000000000000815260040160405180910390fd5b610e227f23418cec5c90ddbf11a940365fd02da8f31466e6c5ff252a21673ff5808ea12a60001b611e57565b610e4e7f9445c1c02879f43ce6e7573edf31803458cbbf0630f5a32fe9e56970f3e5af1660001b611e57565b610e7a7fc13a8fbba48ed53ab352c05ce29cb3a0a3d82af4fcacae081540b9fe0a4a75cf60001b611e57565b600073ffffffffffffffffffffffffffffffffffffffff16600360009054906101000a900473ffffffffffffffffffffffffffffffffffffffff1673ffffffffffffffffffffffffffffffffffffffff161480610ff65750600360009054906101000a900473ffffffffffffffffffffffffffffffffffffffff1673ffffffffffffffffffffffffffffffffffffffff16633df4ddf46040518163ffffffff1660e01b8152600401602060405180830381865afa158015610f3f573d6000803e3d6000fd5b505050506040513d601f19601f82011682018060405250810190610f6391906121b8565b600360009054906101000a900473ffffffffffffffffffffffffffffffffffffffff1673ffffffffffffffffffffffffffffffffffffffff166347799da86040518163ffffffff1660e01b8152600401602060405180830381865afa158015610fd0573d6000803e3d6000fd5b505050506040513d601f19601f82011682018060405250810190610ff491906121b8565b105b15611059576110277fffd880e7566d43f42cf53d4ee3f31f409458e62be7a0fbe73c0a3971cb6d8a2060001b611e57565b6040517f5e61bb8700000000000000000000000000000000000000000000000000000000815260040160405180910390fd5b6110857f04f3dac4de67061cfa82a5a455ffb5ae40b1d8c6dad23514797c35e56640a4ec60001b611e57565b6110b17fa9188cb002628cd0d91b36404052a44b02f7eeb134acfda561046148961f6b8c60001b611e57565b6110dd7f8112bf828629cf6f7629aedcfde5e6fca54b583d8c1171fd3d1074f8f8ddb3e760001b611e57565b6000600360009054906101000a900473ffffffffffffffffffffffffffffffffffffffff1673ffffffffffffffffffffffffffffffffffffffff1663ddf0b009600360009054906101000a900473ffffffffffffffffffffffffffffffffffffffff1673ffffffffffffffffffffffffffffffffffffffff166347799da86040518163ffffffff1660e01b8152600401602060405180830381865afa15801561118a573d6000803e3d6000fd5b505050506040513d601f19601f820116820180604052508101906111ae91906121b8565b6040518263ffffffff1660e01b81526004016111ca9190611fbf565b602060405180830381865afa1580156111e7573d6000803e3d6000fd5b505050506040513d601f19601f8201168201806040525081019061120b91906122f9565b90506112397f6b3b44b5c7d5540a32a22ecacd1098b812420761d03a524e18a556c190f8c16f60001b611e57565b6112657f135f07c85d4471be4a8046a168eef5d04ef2f734c7a1e5b77a20d8ac5d3d069460001b611e57565b600360009054906101000a900473ffffffffffffffffffffffffffffffffffffffff1673ffffffffffffffffffffffffffffffffffffffff1663957908d16040518163ffffffff1660e01b8152600401600060405180830381600087803b1580156112cf57600080fd5b505af11580156112e3573d6000803e3d6000fd5b505050506113137f8a102a7b2a61919a206639ebde5edea1f098be722ad0cafb079c6be23962affc60001b611e57565b61133f7f69e94a0d6abb9a58bcdbaf1f48cbe9772ff28eae34a95252df5be86c3ec44da960001b611e57565b6000600160008373ffffffffffffffffffffffffffffffffffffffff1673ffffffffffffffffffffffffffffffffffffffff16815260200190815260200160002054600360009054906101000a900473ffffffffffffffffffffffffffffffffffffffff1673ffffffffffffffffffffffffffffffffffffffff1663e3d66f68846040518263ffffffff1660e01b81526004016113dc9190612079565b602060405180830381865afa1580156113f9573d6000803e3d6000fd5b505050506040513d601f19601f8201168201806040525081019061141d91906121b8565b6114279190612326565b90506114557fdfc14c6e2d5955a0053161b4fde990372e91247e3dea97e588e6067ffc5f1a5260001b611e57565b6114817f5ebcc876eb11cbf1e7774409a8703a266b8335b42591dad1812ee027890801f660001b611e57565b80600160008473ffffffffffffffffffffffffffffffffffffffff1673ffffffffffffffffffffffffffffffffffffffff16815260200190815260200160002060008282546114d091906122b0565b925050819055506115037f3800a831029ea865f7b08efc89e402577f461c20eaf28eded64132d89a2401e460001b611e57565b61152f7fc0af081459a4e2889a6b6c93663e8c255f15caecdeeaa152783aa9d9538540c060001b611e57565b600260009054906101000a900473ffffffffffffffffffffffffffffffffffffffff1673ffffffffffffffffffffffffffffffffffffffff166323b872dd3084846040518463ffffffff1660e01b815260040161158e939291906121e5565b6020604051808303816000875af11580156115ad573d6000803e3d6000fd5b505050506040513d601f19601f820116820180604052508101906115d19190612254565b505050565b7f000000000000000000000000000000000000000000000000000000000000000081565b600360009054906101000a900473ffffffffffffffffffffffffffffffffffffffff1681565b600260009054906101000a900473ffffffffffffffffffffffffffffffffffffffff1681565b6116727f923b8316fcbbe27d6f76a7a25ab1c826335f2d10b937f6136fe70e4ae40d9f7b60001b611e57565b61169e7f7df35327bafd64010594d31ef4eb3fb651dc92da05d9870b2ea084f61b8940f860001b611e57565b6116ca7f9f4c849abfec042e7a8d2b513de4dd4409831be8e383b3aecf0bce615db650eb60001b611e57565b7f000000000000000000000000000000000000000000000000000000000000000073ffffffffffffffffffffffffffffffffffffffff163373ffffffffffffffffffffffffffffffffffffffff161461177b576117497f208a5aeb2b8ada4d09ccb4c9f84eea79831c1bd91c3b4fdf5e45947d1bae08eb60001b611e57565b6040517f1ee8575e00000000000000000000000000000000000000000000000000000000815260040160405180910390fd5b6117a77fffa5cebefed58afb35a01410489cbf5d7fd5eb98c9b92ca6ea9ef868e92b1a8460001b611e57565b6117d37f37b2d4a75610eaa3bafd4e446027a0b21bdd3c63e55e73a4381f44745278cc5360001b611e57565b6117ff7fa283b5e28545a5210795b5c7908c88dd2c714533d0ab27c11e0782b2a80c25a660001b611e57565b80600360006101000a81548173ffffffffffffffffffffffffffffffffffffffff021916908373ffffffffffffffffffffffffffffffffffffffff16021790555050565b60046020528060005260406000206000915054906101000a900473ffffffffffffffffffffffffffffffffffffffff1681565b6118a27f31a7251b3c7d1ca0cbced90b324ebd8c6ce22b7bb5fd79944128a7c0f05e048160001b611e57565b6118ce7f5fa0fa338c3987f16f58e7b0e46134a2ad688417adbdf1e6942407c6c0361f3460001b611e57565b6118fa7fe84f50c0e0cbe88bf63ff54bf9fee939ac7fd412ef3fa70b94249f9251127bed60001b611e57565b6103e8811015611962576119307f29b9478096c70dddb315410c2cd219e6791baf1128916b1e3021db7c8265bf1560001b611e57565b6040517fa9f2d61800000000000000000000000000000000000000000000000000000000815260040160405180910390fd5b61198e7fc63b03c98a17c1070ba8af7ba75bb2db9ec81169a83e4da3a592b3c454ac88b360001b611e57565b6119ba7f2100eca1547a1d2983e209921eba43b2d7297afa4c9b3f73106243742bb3c7b660001b611e57565b6119e67fa5cea6c42ecb30e91cc45b710ffaa76a643080e931a1a2012e2ceabfab23e3f360001b611e57565b6103e8816103eb6119f7919061235a565b611a0191906123cb565b3414611a6557611a337fd3a8f05ab4eb792aab8ebceac23a1443abdb9a036560e28dc0595aa4d09079d560001b611e57565b6040517f400f9fb800000000000000000000000000000000000000000000000000000000815260040160405180910390fd5b611a917fdc4f17ac6dda2636593222a59af4c58a73b74bd6413d48c8669c3263d3b77e2c60001b611e57565b611abd7f2b66b9b2ae76914ad2309af951fdf07983dbfd1bc27f2c0cd53610d8811b4dcf60001b611e57565b611ae97f6af356d57035880a471230e8fd8df6d65eb9bc6eec69639e7ed01453f1d0ffba60001b611e57565b600073ffffffffffffffffffffffffffffffffffffffff16600360009054906101000a900473ffffffffffffffffffffffffffffffffffffffff1673ffffffffffffffffffffffffffffffffffffffff161480611be0575080600260009054906101000a900473ffffffffffffffffffffffffffffffffffffffff1673ffffffffffffffffffffffffffffffffffffffff166370a08231306040518263ffffffff1660e01b8152600401611b9d9190612079565b602060405180830381865afa158015611bba573d6000803e3d6000fd5b505050506040513d601f19601f82011682018060405250810190611bde91906121b8565b105b15611c4357611c117fcbb604951e2b79f5412c7ad3832ad170f3223abcbb1520d3f006513e27a04b9c60001b611e57565b6040517ff06294a300000000000000000000000000000000000000000000000000000000815260040160405180910390fd5b611c6f7ffa5803d096578831d6ce96700fdb83bbaded00385483ee731d8cb9db6e0409f360001b611e57565b611c9b7f7006b7a01ddfd860d1acdbffc1b29392f390f4fedc0e7d56b775e6355f6e797b60001b611e57565b611cc67efa3147d7690a4d7bab3d3648bbae112344d68636edde1b4ec2134b6516400460001b611e57565b6103eb346103e8611cd7919061235a565b611ce191906123cb565b6000803373ffffffffffffffffffffffffffffffffffffffff1673ffffffffffffffffffffffffffffffffffffffff1681526020019081526020016000206000828254611d2e91906122b0565b92505081905550611d617fb071acb356f9265604b9012016b2d6737edb6e85bb8f6c09815852fd8c65693c60001b611e57565b611d8d7f3bef5832a12a5e9bab91abdf5bda60c0d74f11ce4b58623e47807efbe4a3e27260001b611e57565b611d95611e5a565b611dc17fb9ddb37a3c140ec8157d7daea79fcadd35cb71aca3a8b2b944746ca3b2bedaee60001b611e57565b611ded7f6045224b53b42235676bbdb6f0704dc87c8651e23a09a4a3633e79f5989b725660001b611e57565b7f000000000000000000000000000000000000000000000000000000000000000073ffffffffffffffffffffffffffffffffffffffff166108fc349081150290604051600060405180830381858888f19350505050158015611e53573d6000803e3d6000fd5b5050565b50565b611e867f38ce3b83bb2bf25eaa4c6db24e7776c2da78be83367a93b7cbfd339e6e5fff1460001b611e57565b611eb27f3f99e3ea0fcd5447a3a81854b22db186ac6d39458f9d2329cfaa3f706e20cddb60001b611e57565b611ede7f59d1d8724e9d0b1feb9d90571816c8a0ecde2fa6f1b723f629935c58c3eef00f60001b611e57565b600160056000828254611ef191906122b0565b92505081905550611f247f09e5c4ddc372c8b58c0be33c53cfa49ce957e4c99e89d70dc6ff1f8f2b1542e760001b611e57565b611f507fc1e37c2ffbe36d0ca5c2e7e456d996189b5a26a22de535485fc0f5467ca2706160001b611e57565b3360046000600554815260200190815260200160002060006101000a81548173ffffffffffffffffffffffffffffffffffffffff021916908373ffffffffffffffffffffffffffffffffffffffff160217905550565b6000819050919050565b611fb981611fa6565b82525050565b6000602082019050611fd46000830184611fb0565b92915050565b600080fd5b600073ffffffffffffffffffffffffffffffffffffffff82169050919050565b600061200a82611fdf565b9050919050565b61201a81611fff565b811461202557600080fd5b50565b60008135905061203781612011565b92915050565b60006020828403121561205357612052611fda565b5b600061206184828501612028565b91505092915050565b61207381611fff565b82525050565b600060208201905061208e600083018461206a565b92915050565b6000819050919050565b60006120b96120b46120af84611fdf565b612094565b611fdf565b9050919050565b60006120cb8261209e565b9050919050565b60006120dd826120c0565b9050919050565b6120ed816120d2565b82525050565b600060208201905061210860008301846120e4565b92915050565b6000612119826120c0565b9050919050565b6121298161210e565b82525050565b60006020820190506121446000830184612120565b92915050565b61215381611fa6565b811461215e57600080fd5b50565b6000813590506121708161214a565b92915050565b60006020828403121561218c5761218b611fda565b5b600061219a84828501612161565b91505092915050565b6000815190506121b28161214a565b92915050565b6000602082840312156121ce576121cd611fda565b5b60006121dc848285016121a3565b91505092915050565b60006060820190506121fa600083018661206a565b612207602083018561206a565b6122146040830184611fb0565b949350505050565b60008115159050919050565b6122318161221c565b811461223c57600080fd5b50565b60008151905061224e81612228565b92915050565b60006020828403121561226a57612269611fda565b5b60006122788482850161223f565b91505092915050565b7f4e487b7100000000000000000000000000000000000000000000000000000000600052601160045260246000fd5b60006122bb82611fa6565b91506122c683611fa6565b92508282019050808211156122de576122dd612281565b5b92915050565b6000815190506122f381612011565b92915050565b60006020828403121561230f5761230e611fda565b5b600061231d848285016122e4565b91505092915050565b600061233182611fa6565b915061233c83611fa6565b925082820390508181111561235457612353612281565b5b92915050565b600061236582611fa6565b915061237083611fa6565b925082820261237e81611fa6565b9150828204841483151761239557612394612281565b5b5092915050565b7f4e487b7100000000000000000000000000000000000000000000000000000000600052601260045260246000fd5b60006123d682611fa6565b91506123e183611fa6565b9250826123f1576123f061239c565b5b82820490509291505056fea264697066735822122088c0cb7d1bfcf7fdefd8f42176472ca1aeb5416546decc3957f658d3c2e41ab564736f6c63430008110033",
  "linkReferences": {},
  "deployedLinkReferences": {}
}