{
  "_format": "hh-sol-artifact-1",
  "contractName": "MockGoerliBridgeERC20",
  "sourceName": "contracts/MockBridgeMsgERC20.sol",
  "abi": [
    {
      "inputs": [
        {
          "internalType": "address",
          "name": "addressWETH",
          "type": "address"
        },
        {
          "internalType": "address",
          "name": "addressWMATIC",
          "type": "address"
        }
      ],
      "stateMutability": "nonpayable",
      "type": "constructor"
    },
    {
      "inputs": [],
      "name": "bridgeEmpty",
      "type": "error"
    },
    {
      "inputs": [],
      "name": "bridgeOnOtherSideNeedsLiqudity",
      "type": "error"
    },
    {
      "inputs": [],
      "name": "bridgedAlready",
      "type": "error"
    },
    {
      "inputs": [],
      "name": "msgValueDoesNotCoverFee",
      "type": "error"
    },
    {
      "inputs": [],
      "name": "msgValueLessThan1000",
      "type": "error"
    },
    {
      "inputs": [],
      "name": "msgValueZero",
      "type": "error"
    },
    {
      "inputs": [],
      "name": "notExternalBridge",
      "type": "error"
    },
    {
      "inputs": [],
      "name": "notOwnerAddress",
      "type": "error"
    },
    {
      "inputs": [],
      "name": "ownerBridgeUsersBeforeWithdraw",
      "type": "error"
    },
    {
      "inputs": [],
      "name": "queueIsEmpty",
      "type": "error"
    },
    {
      "inputs": [],
      "name": "queueNotEmpty",
      "type": "error"
    },
    {
      "inputs": [],
      "name": "Owner",
      "outputs": [
        {
          "internalType": "address",
          "name": "",
          "type": "address"
        }
      ],
      "stateMutability": "view",
      "type": "function"
    },
    {
      "inputs": [],
      "name": "callMATIC",
      "outputs": [
        {
          "internalType": "contract ERC20TokenContractMATIC",
          "name": "",
          "type": "address"
        }
      ],
      "stateMutability": "view",
      "type": "function"
    },
    {
      "inputs": [],
      "name": "callWETH",
      "outputs": [
        {
          "internalType": "contract ERC20TokenContractWETH",
          "name": "",
          "type": "address"
        }
      ],
      "stateMutability": "view",
      "type": "function"
    },
    {
      "inputs": [],
      "name": "dequeue",
      "outputs": [],
      "stateMutability": "nonpayable",
      "type": "function"
    },
    {
      "inputs": [],
      "name": "first",
      "outputs": [
        {
          "internalType": "uint256",
          "name": "",
          "type": "uint256"
        }
      ],
      "stateMutability": "view",
      "type": "function"
    },
    {
      "inputs": [
        {
          "internalType": "address",
          "name": "",
          "type": "address"
        }
      ],
      "name": "goerliBridgedETH",
      "outputs": [
        {
          "internalType": "uint256",
          "name": "",
          "type": "uint256"
        }
      ],
      "stateMutability": "view",
      "type": "function"
    },
    {
      "inputs": [],
      "name": "last",
      "outputs": [
        {
          "internalType": "uint256",
          "name": "",
          "type": "uint256"
        }
      ],
      "stateMutability": "view",
      "type": "function"
    },
    {
      "inputs": [
        {
          "internalType": "uint256",
          "name": "bridgeAmount",
          "type": "uint256"
        }
      ],
      "name": "lockTokensForOptimism",
      "outputs": [],
      "stateMutability": "payable",
      "type": "function"
    },
    {
      "inputs": [
        {
          "internalType": "address",
          "name": "",
          "type": "address"
        }
      ],
      "name": "lockedForOptimismETH",
      "outputs": [
        {
          "internalType": "uint256",
          "name": "",
          "type": "uint256"
        }
      ],
      "stateMutability": "view",
      "type": "function"
    },
    {
      "inputs": [
        {
          "internalType": "address",
          "name": "_token",
          "type": "address"
        }
      ],
      "name": "mockOwnerOptimismBridgeAddress",
      "outputs": [],
      "stateMutability": "nonpayable",
      "type": "function"
    },
    {
      "inputs": [],
      "name": "mumbaiBridgeInstance",
      "outputs": [
        {
          "internalType": "contract MockMumbaiBridge",
          "name": "",
          "type": "address"
        }
      ],
      "stateMutability": "view",
      "type": "function"
    },
    {
      "inputs": [],
      "name": "ownerRemoveBridgeLiqudity",
      "outputs": [],
      "stateMutability": "nonpayable",
      "type": "function"
    },
    {
      "inputs": [],
      "name": "ownerUnlockGoerliETH",
      "outputs": [],
      "stateMutability": "nonpayable",
      "type": "function"
    },
    {
      "inputs": [
        {
          "internalType": "uint256",
          "name": "",
          "type": "uint256"
        }
      ],
      "name": "queue",
      "outputs": [
        {
          "internalType": "address",
          "name": "",
          "type": "address"
        }
      ],
      "stateMutability": "view",
      "type": "function"
    }
  ],
  "bytecode": "0x60a060405260016007553480156200001657600080fd5b50604051620028433803806200284383398181016040528101906200003c9190620002d3565b620000707f5ea1d7dd05ea993f59b47f9a397562e16a36b309978423bc742e84e8f317c03260001b6200026660201b60201c565b620000a47ff049dc5c1d3cf4bf0dc12024a6555a79fa4879101ad77ded1e03249ad0f1c1b060001b6200026660201b60201c565b620000d87fcd0ff997d54e3ca08def75fc8aab14115f0d74840a50657fa8e54613b2bc849e60001b6200026660201b60201c565b3373ffffffffffffffffffffffffffffffffffffffff1660808173ffffffffffffffffffffffffffffffffffffffff1681525050620001407faeb0680b8a4ea22b939771f6c823ab26cf070eacbfbb1e10bbc4596917c5dde260001b6200026660201b60201c565b620001747f675cc36a19ca7a8058879780135b61f6bb99178403681629949ef4e75ac9446e60001b6200026660201b60201c565b80600260006101000a81548173ffffffffffffffffffffffffffffffffffffffff021916908373ffffffffffffffffffffffffffffffffffffffff160217905550620001e97fcf13017cb534853e18d4e43bd57b3c431d93b3d6e70073621c6b89383683845060001b6200026660201b60201c565b6200021d7f5df1a88086c6586324bd61bf8668e52ab6df607fc2c4f02348c656cd0349642b60001b6200026660201b60201c565b81600360006101000a81548173ffffffffffffffffffffffffffffffffffffffff021916908373ffffffffffffffffffffffffffffffffffffffff16021790555050506200031a565b50565b600080fd5b600073ffffffffffffffffffffffffffffffffffffffff82169050919050565b60006200029b826200026e565b9050919050565b620002ad816200028e565b8114620002b957600080fd5b50565b600081519050620002cd81620002a2565b92915050565b60008060408385031215620002ed57620002ec62000269565b5b6000620002fd85828601620002bc565b92505060206200031085828601620002bc565b9150509250929050565b6080516124ea62000359600039600081816103ab0152818161090701528181610db101528181611640015281816117340152611e7901526124ea6000f3fe6080604052600436106100dd5760003560e01c8063af11cb401161007f578063cc7c7a7d11610059578063cc7c7a7d14610278578063d06019f5146102a3578063ddf0b009146102cc578063e76438ab14610309576100dd565b8063af11cb401461020b578063b4a99a4e14610222578063c4e8fe431461024d576100dd565b80637bb1fdd2116100bb5780637bb1fdd21461014f578063957908d11461018c5780639ee813d2146101a3578063abb6b5a1146101ce576100dd565b806308dd057a146100e25780633df4ddf4146100f957806347799da814610124575b600080fd5b3480156100ee57600080fd5b506100f7610325565b005b34801561010557600080fd5b5061010e610a25565b60405161011b9190612049565b60405180910390f35b34801561013057600080fd5b50610139610a2b565b6040516101469190612049565b60405180910390f35b34801561015b57600080fd5b50610176600480360381019061017191906120c7565b610a31565b6040516101839190612049565b60405180910390f35b34801561019857600080fd5b506101a1610a49565b005b3480156101af57600080fd5b506101b8610ced565b6040516101c59190612153565b60405180910390f35b3480156101da57600080fd5b506101f560048036038101906101f091906120c7565b610d13565b6040516102029190612049565b60405180910390f35b34801561021757600080fd5b50610220610d2b565b005b34801561022e57600080fd5b5061023761163e565b604051610244919061217d565b60405180910390f35b34801561025957600080fd5b50610262611662565b60405161026f91906121b9565b60405180910390f35b34801561028457600080fd5b5061028d611688565b60405161029a91906121f5565b60405180910390f35b3480156102af57600080fd5b506102ca60048036038101906102c591906120c7565b6116ae565b005b3480156102d857600080fd5b506102f360048036038101906102ee919061223c565b6118ab565b604051610300919061217d565b60405180910390f35b610323600480360381019061031e919061223c565b6118de565b005b6103517f3800a831029ea865f7b08efc89e402577f461c20eaf28eded64132d89a2401e460001b611ee1565b61037d7fc0af081459a4e2889a6b6c93663e8c255f15caecdeeaa152783aa9d9538540c060001b611ee1565b6103a97fbc9e32f7cd8698d95cfa14717f660c419414f86707d6baf2b9715989d43fd7a760001b611ee1565b7f000000000000000000000000000000000000000000000000000000000000000073ffffffffffffffffffffffffffffffffffffffff163373ffffffffffffffffffffffffffffffffffffffff161461045a576104287fd593a42cf960ae735d544224f6369540eb0c49a2d185aedd5280e773c3e9d8f660001b611ee1565b6040517f1ee8575e00000000000000000000000000000000000000000000000000000000815260040160405180910390fd5b6104867ffb2baae150ee1ed6dd026f6cac807b0c1f0f62568c5403f58b3bb8316e32a29060001b611ee1565b6104b27fb6942a4d45020d5cc6015ac0a055f9cf170d0461535a20604a1ba5a10747f5e260001b611ee1565b6104de7fc1e976c7cc8bd34485251d99471666127d109460b78821a7872a34bc0fbb815a60001b611ee1565b6000600260009054906101000a900473ffffffffffffffffffffffffffffffffffffffff1673ffffffffffffffffffffffffffffffffffffffff166370a08231306040518263ffffffff1660e01b815260040161053b919061217d565b602060405180830381865afa158015610558573d6000803e3d6000fd5b505050506040513d601f19601f8201168201806040525081019061057c919061227e565b036105df576105ad7f4156138da54e97e81ba22fa5ed30d2dac3f6d46f9a0afbd722eb2ba75b2e853660001b611ee1565b6040517f7a1f291700000000000000000000000000000000000000000000000000000000815260040160405180910390fd5b61060b7fb13b920d4e4c29c1b6f309743c9ace99acb88c1a63cbd33b49ee5c50d393987160001b611ee1565b6106377fc7bada76caa31b78716560b6e9dc8cc210675e823d9f11254bceab94cfb403dd60001b611ee1565b6106637f1af0fa3ea26aef17fa177efc0df6989266c00d19290d2fd7d1c1a8993ca5f82760001b611ee1565b600073ffffffffffffffffffffffffffffffffffffffff16600460009054906101000a900473ffffffffffffffffffffffffffffffffffffffff1673ffffffffffffffffffffffffffffffffffffffff1614806107e05750600460009054906101000a900473ffffffffffffffffffffffffffffffffffffffff1673ffffffffffffffffffffffffffffffffffffffff16633df4ddf46040518163ffffffff1660e01b8152600401602060405180830381865afa158015610728573d6000803e3d6000fd5b505050506040513d601f19601f8201168201806040525081019061074c919061227e565b600460009054906101000a900473ffffffffffffffffffffffffffffffffffffffff1673ffffffffffffffffffffffffffffffffffffffff166347799da86040518163ffffffff1660e01b8152600401602060405180830381865afa1580156107b9573d6000803e3d6000fd5b505050506040513d601f19601f820116820180604052508101906107dd919061227e565b10155b15610843576108117fd642a4c37096be48087a27a12b0629fd0df7cdf4dc90cf571940a020ad992ac060001b611ee1565b6040517f230accfd00000000000000000000000000000000000000000000000000000000815260040160405180910390fd5b61086f7f5fd756dd60c01b7e02230a4364dc34bf68e398e6b4159c5c627e572044c0274360001b611ee1565b61089b7fb0104c277b1b7e33dfb093a9b3a8f58f88294444852d669dd656b88adcc7804460001b611ee1565b6108c77f1b01bf7a3fee5c04dd30dffd7b34c8247a84bee638e9b1ed87d2449cab2141a360001b611ee1565b600260009054906101000a900473ffffffffffffffffffffffffffffffffffffffff1673ffffffffffffffffffffffffffffffffffffffff1663a9059cbb7f0000000000000000000000000000000000000000000000000000000000000000600260009054906101000a900473ffffffffffffffffffffffffffffffffffffffff1673ffffffffffffffffffffffffffffffffffffffff166370a08231306040518263ffffffff1660e01b8152600401610981919061217d565b602060405180830381865afa15801561099e573d6000803e3d6000fd5b505050506040513d601f19601f820116820180604052508101906109c2919061227e565b6040518363ffffffff1660e01b81526004016109df9291906122ab565b6020604051808303816000875af11580156109fe573d6000803e3d6000fd5b505050506040513d601f19601f82011682018060405250810190610a22919061230c565b50565b60075481565b60065481565b60016020528060005260406000206000915090505481565b610a757f09e5c4ddc372c8b58c0be33c53cfa49ce957e4c99e89d70dc6ff1f8f2b1542e760001b611ee1565b610aa17fc1e37c2ffbe36d0ca5c2e7e456d996189b5a26a22de535485fc0f5467ca2706160001b611ee1565b610acd7f8aef64f9caac085ada338df297750f66c401fbfb1ae4214cffb7073a1a2847cc60001b611ee1565b600073ffffffffffffffffffffffffffffffffffffffff16600460009054906101000a900473ffffffffffffffffffffffffffffffffffffffff1673ffffffffffffffffffffffffffffffffffffffff161480610b785750600460009054906101000a900473ffffffffffffffffffffffffffffffffffffffff1673ffffffffffffffffffffffffffffffffffffffff163373ffffffffffffffffffffffffffffffffffffffff1614155b80610b865750600754600654105b15610be957610bb77fd45784bd38277aaa3b845061a6eee9b57a3dc05042037573c12ae455d006027f60001b611ee1565b6040517f4da1bc3400000000000000000000000000000000000000000000000000000000815260040160405180910390fd5b610c157f8740aa3174ee68e382e95bbdfc3eb47782f273e809cbb36fde0fcf4e573f5f3360001b611ee1565b610c417f9a409a118c7f302bc24f3ecd5eec01edbcfa3b49311f9f21033cb222edb5592f60001b611ee1565b60056000600754815260200190815260200160002060006101000a81549073ffffffffffffffffffffffffffffffffffffffff0219169055610ca57f5617231c4ea8d5f1ef3cde88e10f5b0034e6eca51920efbb732f50995cb6cbaf60001b611ee1565b610cd17f9b9a58ede065cd540cdc71c07f7576ec85c7edd9de6be9f890345806249293ed60001b611ee1565b600160076000828254610ce49190612368565b92505081905550565b600360009054906101000a900473ffffffffffffffffffffffffffffffffffffffff1681565b60006020528060005260406000206000915090505481565b610d577fb9ddb37a3c140ec8157d7daea79fcadd35cb71aca3a8b2b944746ca3b2bedaee60001b611ee1565b610d837f6045224b53b42235676bbdb6f0704dc87c8651e23a09a4a3633e79f5989b725660001b611ee1565b610daf7fa7f93cb44e687caa05fe6d3277ff78c95f7bfccb4c998d7707a6650ca6e2ed0960001b611ee1565b7f000000000000000000000000000000000000000000000000000000000000000073ffffffffffffffffffffffffffffffffffffffff163373ffffffffffffffffffffffffffffffffffffffff1614610e6057610e2e7fb86fefa082ace22f49b8bacf7e2930a03b0856d70a52224b1813c1f0aeb68f7560001b611ee1565b6040517f1ee8575e00000000000000000000000000000000000000000000000000000000815260040160405180910390fd5b610e8c7f657745dc8d198ac7e99cc396792ee9e1e365022f558915f00344fbb7fea2914160001b611ee1565b610eb87f658672b18d81bc08bb93770a934583c251fc9f9424f76ca3218b2f834cc783dd60001b611ee1565b610ee47f23418cec5c90ddbf11a940365fd02da8f31466e6c5ff252a21673ff5808ea12a60001b611ee1565b600073ffffffffffffffffffffffffffffffffffffffff16600460009054906101000a900473ffffffffffffffffffffffffffffffffffffffff1673ffffffffffffffffffffffffffffffffffffffff1614806110605750600460009054906101000a900473ffffffffffffffffffffffffffffffffffffffff1673ffffffffffffffffffffffffffffffffffffffff16633df4ddf46040518163ffffffff1660e01b8152600401602060405180830381865afa158015610fa9573d6000803e3d6000fd5b505050506040513d601f19601f82011682018060405250810190610fcd919061227e565b600460009054906101000a900473ffffffffffffffffffffffffffffffffffffffff1673ffffffffffffffffffffffffffffffffffffffff166347799da86040518163ffffffff1660e01b8152600401602060405180830381865afa15801561103a573d6000803e3d6000fd5b505050506040513d601f19601f8201168201806040525081019061105e919061227e565b105b156110c3576110917f9445c1c02879f43ce6e7573edf31803458cbbf0630f5a32fe9e56970f3e5af1660001b611ee1565b6040517f5e61bb8700000000000000000000000000000000000000000000000000000000815260040160405180910390fd5b6110ef7fc13a8fbba48ed53ab352c05ce29cb3a0a3d82af4fcacae081540b9fe0a4a75cf60001b611ee1565b61111b7fffd880e7566d43f42cf53d4ee3f31f409458e62be7a0fbe73c0a3971cb6d8a2060001b611ee1565b6111477f04f3dac4de67061cfa82a5a455ffb5ae40b1d8c6dad23514797c35e56640a4ec60001b611ee1565b6000600460009054906101000a900473ffffffffffffffffffffffffffffffffffffffff1673ffffffffffffffffffffffffffffffffffffffff1663ddf0b009600460009054906101000a900473ffffffffffffffffffffffffffffffffffffffff1673ffffffffffffffffffffffffffffffffffffffff166347799da86040518163ffffffff1660e01b8152600401602060405180830381865afa1580156111f4573d6000803e3d6000fd5b505050506040513d601f19601f82011682018060405250810190611218919061227e565b6040518263ffffffff1660e01b81526004016112349190612049565b602060405180830381865afa158015611251573d6000803e3d6000fd5b505050506040513d601f19601f8201168201806040525081019061127591906123b1565b90506112a37fa9188cb002628cd0d91b36404052a44b02f7eeb134acfda561046148961f6b8c60001b611ee1565b6112cf7f8112bf828629cf6f7629aedcfde5e6fca54b583d8c1171fd3d1074f8f8ddb3e760001b611ee1565b600460009054906101000a900473ffffffffffffffffffffffffffffffffffffffff1673ffffffffffffffffffffffffffffffffffffffff1663957908d16040518163ffffffff1660e01b8152600401600060405180830381600087803b15801561133957600080fd5b505af115801561134d573d6000803e3d6000fd5b5050505061137d7f6b3b44b5c7d5540a32a22ecacd1098b812420761d03a524e18a556c190f8c16f60001b611ee1565b6113a97f135f07c85d4471be4a8046a168eef5d04ef2f734c7a1e5b77a20d8ac5d3d069460001b611ee1565b6000600160008373ffffffffffffffffffffffffffffffffffffffff1673ffffffffffffffffffffffffffffffffffffffff16815260200190815260200160002054600460009054906101000a900473ffffffffffffffffffffffffffffffffffffffff1673ffffffffffffffffffffffffffffffffffffffff1663e3d66f68846040518263ffffffff1660e01b8152600401611446919061217d565b602060405180830381865afa158015611463573d6000803e3d6000fd5b505050506040513d601f19601f82011682018060405250810190611487919061227e565b61149191906123de565b90506114bf7f8a102a7b2a61919a206639ebde5edea1f098be722ad0cafb079c6be23962affc60001b611ee1565b6114eb7f69e94a0d6abb9a58bcdbaf1f48cbe9772ff28eae34a95252df5be86c3ec44da960001b611ee1565b80600160008473ffffffffffffffffffffffffffffffffffffffff1673ffffffffffffffffffffffffffffffffffffffff168152602001908152602001600020600082825461153a9190612368565b9250508190555061156d7fdfc14c6e2d5955a0053161b4fde990372e91247e3dea97e588e6067ffc5f1a5260001b611ee1565b6115997f5ebcc876eb11cbf1e7774409a8703a266b8335b42591dad1812ee027890801f660001b611ee1565b600260009054906101000a900473ffffffffffffffffffffffffffffffffffffffff1673ffffffffffffffffffffffffffffffffffffffff1663a9059cbb83836040518363ffffffff1660e01b81526004016115f69291906122ab565b6020604051808303816000875af1158015611615573d6000803e3d6000fd5b505050506040513d601f19601f82011682018060405250810190611639919061230c565b505050565b7f000000000000000000000000000000000000000000000000000000000000000081565b600460009054906101000a900473ffffffffffffffffffffffffffffffffffffffff1681565b600260009054906101000a900473ffffffffffffffffffffffffffffffffffffffff1681565b6116da7f94608f6776d7bdff0502ccabc541466e09efcf34c29f39400f684eb1e95655b360001b611ee1565b6117067fb8aa92112fbe91960464a5976969e04aa51a761d832805bada755eff642a0e5360001b611ee1565b6117327f923b8316fcbbe27d6f76a7a25ab1c826335f2d10b937f6136fe70e4ae40d9f7b60001b611ee1565b7f000000000000000000000000000000000000000000000000000000000000000073ffffffffffffffffffffffffffffffffffffffff163373ffffffffffffffffffffffffffffffffffffffff16146117e3576117b17f7df35327bafd64010594d31ef4eb3fb651dc92da05d9870b2ea084f61b8940f860001b611ee1565b6040517f1ee8575e00000000000000000000000000000000000000000000000000000000815260040160405180910390fd5b61180f7f9f4c849abfec042e7a8d2b513de4dd4409831be8e383b3aecf0bce615db650eb60001b611ee1565b61183b7f208a5aeb2b8ada4d09ccb4c9f84eea79831c1bd91c3b4fdf5e45947d1bae08eb60001b611ee1565b6118677fffa5cebefed58afb35a01410489cbf5d7fd5eb98c9b92ca6ea9ef868e92b1a8460001b611ee1565b80600460006101000a81548173ffffffffffffffffffffffffffffffffffffffff021916908373ffffffffffffffffffffffffffffffffffffffff16021790555050565b60056020528060005260406000206000915054906101000a900473ffffffffffffffffffffffffffffffffffffffff1681565b61190a7f3fcbadbaa00b5b39967c521adc26083faac07132ccea5b64e7e7c038265ddf3b60001b611ee1565b6119367f41644757b877675367c11c37db312c2aee0932459cdbaff96b5c75ef971e06df60001b611ee1565b6119627f31a7251b3c7d1ca0cbced90b324ebd8c6ce22b7bb5fd79944128a7c0f05e048160001b611ee1565b6103e88110156119ca576119987f5fa0fa338c3987f16f58e7b0e46134a2ad688417adbdf1e6942407c6c0361f3460001b611ee1565b6040517fa9f2d61800000000000000000000000000000000000000000000000000000000815260040160405180910390fd5b6119f67fe84f50c0e0cbe88bf63ff54bf9fee939ac7fd412ef3fa70b94249f9251127bed60001b611ee1565b611a227f29b9478096c70dddb315410c2cd219e6791baf1128916b1e3021db7c8265bf1560001b611ee1565b611a4e7fc63b03c98a17c1070ba8af7ba75bb2db9ec81169a83e4da3a592b3c454ac88b360001b611ee1565b6103e8816103eb611a5f9190612412565b611a699190612483565b3414611acd57611a9b7f2100eca1547a1d2983e209921eba43b2d7297afa4c9b3f73106243742bb3c7b660001b611ee1565b6040517f400f9fb800000000000000000000000000000000000000000000000000000000815260040160405180910390fd5b611af97fa5cea6c42ecb30e91cc45b710ffaa76a643080e931a1a2012e2ceabfab23e3f360001b611ee1565b611b257fd3a8f05ab4eb792aab8ebceac23a1443abdb9a036560e28dc0595aa4d09079d560001b611ee1565b611b517fdc4f17ac6dda2636593222a59af4c58a73b74bd6413d48c8669c3263d3b77e2c60001b611ee1565b600073ffffffffffffffffffffffffffffffffffffffff16600460009054906101000a900473ffffffffffffffffffffffffffffffffffffffff1673ffffffffffffffffffffffffffffffffffffffff161480611c6a575080600360009054906101000a900473ffffffffffffffffffffffffffffffffffffffff1673ffffffffffffffffffffffffffffffffffffffff166370a08231600460009054906101000a900473ffffffffffffffffffffffffffffffffffffffff166040518263ffffffff1660e01b8152600401611c27919061217d565b602060405180830381865afa158015611c44573d6000803e3d6000fd5b505050506040513d601f19601f82011682018060405250810190611c68919061227e565b105b15611ccd57611c9b7f2b66b9b2ae76914ad2309af951fdf07983dbfd1bc27f2c0cd53610d8811b4dcf60001b611ee1565b6040517ff06294a300000000000000000000000000000000000000000000000000000000815260040160405180910390fd5b611cf97f6af356d57035880a471230e8fd8df6d65eb9bc6eec69639e7ed01453f1d0ffba60001b611ee1565b611d257fcbb604951e2b79f5412c7ad3832ad170f3223abcbb1520d3f006513e27a04b9c60001b611ee1565b611d517ffa5803d096578831d6ce96700fdb83bbaded00385483ee731d8cb9db6e0409f360001b611ee1565b6103eb346103e8611d629190612412565b611d6c9190612483565b6000803373ffffffffffffffffffffffffffffffffffffffff1673ffffffffffffffffffffffffffffffffffffffff1681526020019081526020016000206000828254611db99190612368565b92505081905550611dec7f7006b7a01ddfd860d1acdbffc1b29392f390f4fedc0e7d56b775e6355f6e797b60001b611ee1565b611e177efa3147d7690a4d7bab3d3648bbae112344d68636edde1b4ec2134b6516400460001b611ee1565b611e1f611ee4565b611e4b7fb071acb356f9265604b9012016b2d6737edb6e85bb8f6c09815852fd8c65693c60001b611ee1565b611e777f3bef5832a12a5e9bab91abdf5bda60c0d74f11ce4b58623e47807efbe4a3e27260001b611ee1565b7f000000000000000000000000000000000000000000000000000000000000000073ffffffffffffffffffffffffffffffffffffffff166108fc349081150290604051600060405180830381858888f19350505050158015611edd573d6000803e3d6000fd5b5050565b50565b611f107f754dcc15e3f879a816faaafd08aa7c7c986ac11df59538fc698fd1f585a7e9a460001b611ee1565b611f3c7fc7564dbaf27e85704284daa0b7c16208773a339128d58c08f44eff357cfd872660001b611ee1565b611f687f38ce3b83bb2bf25eaa4c6db24e7776c2da78be83367a93b7cbfd339e6e5fff1460001b611ee1565b600160066000828254611f7b9190612368565b92505081905550611fae7f3f99e3ea0fcd5447a3a81854b22db186ac6d39458f9d2329cfaa3f706e20cddb60001b611ee1565b611fda7f59d1d8724e9d0b1feb9d90571816c8a0ecde2fa6f1b723f629935c58c3eef00f60001b611ee1565b3360056000600654815260200190815260200160002060006101000a81548173ffffffffffffffffffffffffffffffffffffffff021916908373ffffffffffffffffffffffffffffffffffffffff160217905550565b6000819050919050565b61204381612030565b82525050565b600060208201905061205e600083018461203a565b92915050565b600080fd5b600073ffffffffffffffffffffffffffffffffffffffff82169050919050565b600061209482612069565b9050919050565b6120a481612089565b81146120af57600080fd5b50565b6000813590506120c18161209b565b92915050565b6000602082840312156120dd576120dc612064565b5b60006120eb848285016120b2565b91505092915050565b6000819050919050565b600061211961211461210f84612069565b6120f4565b612069565b9050919050565b600061212b826120fe565b9050919050565b600061213d82612120565b9050919050565b61214d81612132565b82525050565b60006020820190506121686000830184612144565b92915050565b61217781612089565b82525050565b6000602082019050612192600083018461216e565b92915050565b60006121a382612120565b9050919050565b6121b381612198565b82525050565b60006020820190506121ce60008301846121aa565b92915050565b60006121df82612120565b9050919050565b6121ef816121d4565b82525050565b600060208201905061220a60008301846121e6565b92915050565b61221981612030565b811461222457600080fd5b50565b60008135905061223681612210565b92915050565b60006020828403121561225257612251612064565b5b600061226084828501612227565b91505092915050565b60008151905061227881612210565b92915050565b60006020828403121561229457612293612064565b5b60006122a284828501612269565b91505092915050565b60006040820190506122c0600083018561216e565b6122cd602083018461203a565b9392505050565b60008115159050919050565b6122e9816122d4565b81146122f457600080fd5b50565b600081519050612306816122e0565b92915050565b60006020828403121561232257612321612064565b5b6000612330848285016122f7565b91505092915050565b7f4e487b7100000000000000000000000000000000000000000000000000000000600052601160045260246000fd5b600061237382612030565b915061237e83612030565b925082820190508082111561239657612395612339565b5b92915050565b6000815190506123ab8161209b565b92915050565b6000602082840312156123c7576123c6612064565b5b60006123d58482850161239c565b91505092915050565b60006123e982612030565b91506123f483612030565b925082820390508181111561240c5761240b612339565b5b92915050565b600061241d82612030565b915061242883612030565b925082820261243681612030565b9150828204841483151761244d5761244c612339565b5b5092915050565b7f4e487b7100000000000000000000000000000000000000000000000000000000600052601260045260246000fd5b600061248e82612030565b915061249983612030565b9250826124a9576124a8612454565b5b82820490509291505056fea26469706673582212207508448e235539be71c936909bbcea216dd14d0795767b35e270052f8a79daac64736f6c63430008110033",
  "linkReferences": {},
  "deployedLinkReferences": {}
}