{
  "_format": "hh-sol-artifact-1",
  "contractName": "MockOptimismBridge",
  "sourceName": "contracts/MockBridgeMsgValue.sol",
  "abi": [
    {
      "inputs": [],
      "stateMutability": "nonpayable",
      "type": "constructor"
    },
    {
      "inputs": [],
      "name": "bridgeEmpty",
      "type": "error"
    },
    {
      "inputs": [],
      "name": "bridgeOnOtherSideNeedsLiqudity",
      "type": "error"
    },
    {
      "inputs": [],
      "name": "msgValueNot1003",
      "type": "error"
    },
    {
      "inputs": [],
      "name": "msgValueZero",
      "type": "error"
    },
    {
      "inputs": [],
      "name": "notExternalBridge",
      "type": "error"
    },
    {
      "inputs": [],
      "name": "notOwnerAddress",
      "type": "error"
    },
    {
      "inputs": [],
      "name": "queueIsEmpty",
      "type": "error"
    },
    {
      "inputs": [],
      "name": "queueNotEmpty",
      "type": "error"
    },
    {
      "inputs": [],
      "name": "Owner",
      "outputs": [
        {
          "internalType": "address",
          "name": "",
          "type": "address"
        }
      ],
      "stateMutability": "view",
      "type": "function"
    },
    {
      "inputs": [],
      "name": "dequeue",
      "outputs": [],
      "stateMutability": "nonpayable",
      "type": "function"
    },
    {
      "inputs": [],
      "name": "first",
      "outputs": [
        {
          "internalType": "uint256",
          "name": "",
          "type": "uint256"
        }
      ],
      "stateMutability": "view",
      "type": "function"
    },
    {
      "inputs": [],
      "name": "goerliBridgeInstance",
      "outputs": [
        {
          "internalType": "contract MockGoerliBridge",
          "name": "",
          "type": "address"
        }
      ],
      "stateMutability": "view",
      "type": "function"
    },
    {
      "inputs": [],
      "name": "last",
      "outputs": [
        {
          "internalType": "uint256",
          "name": "",
          "type": "uint256"
        }
      ],
      "stateMutability": "view",
      "type": "function"
    },
    {
      "inputs": [],
      "name": "lockTokensForGoerli",
      "outputs": [],
      "stateMutability": "payable",
      "type": "function"
    },
    {
      "inputs": [
        {
          "internalType": "address",
          "name": "_token",
          "type": "address"
        }
      ],
      "name": "mockOwnerGoerliBridgeAddress",
      "outputs": [],
      "stateMutability": "nonpayable",
      "type": "function"
    },
    {
      "inputs": [],
      "name": "ownerAddBridgeLiqudity",
      "outputs": [],
      "stateMutability": "payable",
      "type": "function"
    },
    {
      "inputs": [],
      "name": "ownerRemoveBridgeLiqudity",
      "outputs": [],
      "stateMutability": "nonpayable",
      "type": "function"
    },
    {
      "inputs": [],
      "name": "ownerUnlockOptimismETH",
      "outputs": [],
      "stateMutability": "nonpayable",
      "type": "function"
    },
    {
      "inputs": [
        {
          "internalType": "uint256",
          "name": "",
          "type": "uint256"
        }
      ],
      "name": "queue",
      "outputs": [
        {
          "internalType": "address",
          "name": "",
          "type": "address"
        }
      ],
      "stateMutability": "view",
      "type": "function"
    }
  ],
  "bytecode": "0x60a060405260016003553480156200001657600080fd5b506200004b7f2eb81b04ac49b990e03def42f6021a537aa0d7a93c5eb0d25eee3689225e382b60001b620000ed60201b60201c565b6200007f7f7430008b6cf0e6ea4aeb809fe22edaafba4c020f463fb5c28b0fb5382dd7225860001b620000ed60201b60201c565b620000b37f60715aa93bd48692fa574246846eae86a0d549fa91e992f02b3710463c71564460001b620000ed60201b60201c565b3373ffffffffffffffffffffffffffffffffffffffff1660808173ffffffffffffffffffffffffffffffffffffffff1681525050620000f0565b50565b608051611e1d62000136600039600081816102b6015281816107330152818161082c01528181610eea01528181611353015281816113fb01526119130152611e1d6000f3fe60806040526004361061009c5760003560e01c80638521eebe116100645780638521eebe14610150578063957908d11461015a578063b4a99a4e14610171578063bd31a23a1461019c578063ddf0b009146101c5578063f67744c4146102025761009c565b806306557c31146100a157806308dd057a146100cc5780633df4ddf4146100e357806347799da81461010e578063515b74f214610139575b600080fd5b3480156100ad57600080fd5b506100b661020c565b6040516100c39190611b48565b60405180910390f35b3480156100d857600080fd5b506100e1610230565b005b3480156100ef57600080fd5b506100f861079a565b6040516101059190611b7c565b60405180910390f35b34801561011a57600080fd5b506101236107a0565b6040516101309190611b7c565b60405180910390f35b34801561014557600080fd5b5061014e6107a6565b005b610158610e64565b005b34801561016657600080fd5b5061016f6110b1565b005b34801561017d57600080fd5b50610186611351565b6040516101939190611bb8565b60405180910390f35b3480156101a857600080fd5b506101c360048036038101906101be9190611c04565b611375565b005b3480156101d157600080fd5b506101ec60048036038101906101e79190611c5d565b611571565b6040516101f99190611bb8565b60405180910390f35b61020a6115a4565b005b60008054906101000a900473ffffffffffffffffffffffffffffffffffffffff1681565b61025c7fbe590e8da9d4545ffa11eef6fe7e78bac90261a190f29c0e5d315a1d8c663e2160001b61197a565b6102887f6e7407f38eb4d2c713e7803d87c37a1aac880f7fde0ad74d074fc8e272cf488c60001b61197a565b6102b47ffa96c03e9675e5ac896fc6715d2d4af42a2ad2fb64bb728ae0f525528d00e5a360001b61197a565b7f000000000000000000000000000000000000000000000000000000000000000073ffffffffffffffffffffffffffffffffffffffff163373ffffffffffffffffffffffffffffffffffffffff1614610365576103337f98e8f715a3c00338d2bf0a1789c7b0fc471ef331eec5c2bda867cf8a19dc940d60001b61197a565b6040517f1ee8575e00000000000000000000000000000000000000000000000000000000815260040160405180910390fd5b6103917f4094f0bdfbc920151109dfee54c1cb050bd27d87a7a68a8c96c2e1a1d2ae035960001b61197a565b6103bd7ff8be64cf2f11f19e135ebc98dd229f5a3a9438e6de6f9c56f6cf94db4290c83160001b61197a565b6103e97fb3368d03295f3ec2a9f9e8445d56fa9034270da55315f4e2a565324152120d8160001b61197a565b6000470361044f5761041d7f9fa8554cdeb73a838198c9a24ba32066afac02819406f4540003025e62ef1fb660001b61197a565b6040517f7a1f291700000000000000000000000000000000000000000000000000000000815260040160405180910390fd5b61047b7f9d13dad1f6dee1be2ed29b4122bc36d25a36b1ac399760333baab599bfa24c4760001b61197a565b6104a77fbf5663188a90bfcdb86c8b431fe7c40b86a739036c0c3aa86661ce2634e2807660001b61197a565b6104d37fdeb5119f645ff7ae5e96c94ae8504c17ecd27326e5ac6da9c6841ef8920f4a3160001b61197a565b600073ffffffffffffffffffffffffffffffffffffffff1660008054906101000a900473ffffffffffffffffffffffffffffffffffffffff1673ffffffffffffffffffffffffffffffffffffffff16148061064a575060008054906101000a900473ffffffffffffffffffffffffffffffffffffffff1673ffffffffffffffffffffffffffffffffffffffff16633df4ddf46040518163ffffffff1660e01b8152600401602060405180830381865afa158015610594573d6000803e3d6000fd5b505050506040513d601f19601f820116820180604052508101906105b89190611c9f565b60008054906101000a900473ffffffffffffffffffffffffffffffffffffffff1673ffffffffffffffffffffffffffffffffffffffff166347799da86040518163ffffffff1660e01b8152600401602060405180830381865afa158015610623573d6000803e3d6000fd5b505050506040513d601f19601f820116820180604052508101906106479190611c9f565b10155b156106ad5761067b7f0ec82e0e288663b34306681318f81e889bfd97b76ce4645c4efe317c84d0cc6f60001b61197a565b6040517f230accfd00000000000000000000000000000000000000000000000000000000815260040160405180910390fd5b6106d97fd69c4751c5e1796a3abfe78b3aca326501a83dd47620e3a72140bfa0bb22093660001b61197a565b6107057fad0d0a875c43941136ad44e3b3c873b074e2cd4a27953a80d2e513ef7214aade60001b61197a565b6107317f231e800abb914c199aa11671a6e34bb02c086aceb22191ddaa3490b037aaa7ae60001b61197a565b7f000000000000000000000000000000000000000000000000000000000000000073ffffffffffffffffffffffffffffffffffffffff166108fc479081150290604051600060405180830381858888f19350505050158015610797573d6000803e3d6000fd5b50565b60035481565b60025481565b6107d27f359a4d37ed0cfa45d4416b1cbdf85aa9be4288ab8044928db83ee5bf087c8e4260001b61197a565b6107fe7f17bbc6284ce5844d257fe3c8c2991228830d5d0821014b2353333d69bf2e547460001b61197a565b61082a7f30864fddbdd534d8e3e66f991655e67e3443a90203f8a3a98ea5a3bb37b915f660001b61197a565b7f000000000000000000000000000000000000000000000000000000000000000073ffffffffffffffffffffffffffffffffffffffff163373ffffffffffffffffffffffffffffffffffffffff16146108db576108a97f8d459c547718be03732d875fd9ea329820d265b823e14ed64136351214388b6f60001b61197a565b6040517f1ee8575e00000000000000000000000000000000000000000000000000000000815260040160405180910390fd5b6109077f71a219899dda5c5dcaa5f765113532ef3464fdd50ea1be9c54011b47a6777f9260001b61197a565b6109337f16e430c72f5e452f639c94e4e7bfa5ec3dd5470178c8023b36e4a1df919f87a260001b61197a565b61095f7fb285af37a4c93e1ad06ac48b086f4b7e5f921b17b6e8ec53551a5d240c07cee760001b61197a565b600073ffffffffffffffffffffffffffffffffffffffff1660008054906101000a900473ffffffffffffffffffffffffffffffffffffffff1673ffffffffffffffffffffffffffffffffffffffff161480610ad5575060008054906101000a900473ffffffffffffffffffffffffffffffffffffffff1673ffffffffffffffffffffffffffffffffffffffff16633df4ddf46040518163ffffffff1660e01b8152600401602060405180830381865afa158015610a20573d6000803e3d6000fd5b505050506040513d601f19601f82011682018060405250810190610a449190611c9f565b60008054906101000a900473ffffffffffffffffffffffffffffffffffffffff1673ffffffffffffffffffffffffffffffffffffffff166347799da86040518163ffffffff1660e01b8152600401602060405180830381865afa158015610aaf573d6000803e3d6000fd5b505050506040513d601f19601f82011682018060405250810190610ad39190611c9f565b105b15610b3757610b057e754db5d4c3e2b594f5ea491504b99035d69abf3df947f389a68be8819fc4e360001b61197a565b6040517f5e61bb8700000000000000000000000000000000000000000000000000000000815260040160405180910390fd5b610b637f81bfdfaeef812c1429c0f9267b63bb6e973be135625706d175683169543e010560001b61197a565b610b8f7f2457ba42d6cde67cbad2cbbe6e064cbf400bcaa4865eb8d4001fdc2b22344d0660001b61197a565b610bbb7f35d993e8086434d3fd1942f2ce901ccce3fc1540abe0dc0560e808610a14014d60001b61197a565b60008060009054906101000a900473ffffffffffffffffffffffffffffffffffffffff1673ffffffffffffffffffffffffffffffffffffffff1663ddf0b00960008054906101000a900473ffffffffffffffffffffffffffffffffffffffff1673ffffffffffffffffffffffffffffffffffffffff166347799da86040518163ffffffff1660e01b8152600401602060405180830381865afa158015610c65573d6000803e3d6000fd5b505050506040513d601f19601f82011682018060405250810190610c899190611c9f565b6040518263ffffffff1660e01b8152600401610ca59190611b7c565b602060405180830381865afa158015610cc2573d6000803e3d6000fd5b505050506040513d601f19601f82011682018060405250810190610ce69190611ce1565b9050610d147fe735f68f298bd51489277bce893a6547cd26ec2eeee61b01d45b4d0da0af20dd60001b61197a565b610d407f40dd9f874998dfd3720bcf704ed0de30162baf02e0be6b19c3a06f4d38ff5d5360001b61197a565b60008054906101000a900473ffffffffffffffffffffffffffffffffffffffff1673ffffffffffffffffffffffffffffffffffffffff1663957908d16040518163ffffffff1660e01b8152600401600060405180830381600087803b158015610da857600080fd5b505af1158015610dbc573d6000803e3d6000fd5b50505050610dec7fa6f76bd72fd7d82c3eea77ad688c96a5a7921082f71efa7a8820c81eb471703b60001b61197a565b610e187f04e16fbc9c644895844a76bcfd14be937954f017bcc1a7a5c031e892bba6235d60001b61197a565b8073ffffffffffffffffffffffffffffffffffffffff166108fc6103e89081150290604051600060405180830381858888f19350505050158015610e60573d6000803e3d6000fd5b5050565b610e907f77041256efd28c67e0f9b2cfcd8b6041b601d338d5c66fe7840b2f2d29aaa9ad60001b61197a565b610ebc7f2516e6d6eceb2ffffbb70592da412741393efe9523c9d9fea8fa1213359357e060001b61197a565b610ee87f48db7b7c5b58dadccb1c4739a4c90f3eef12009f998e4873b0d3c3988db0ef4e60001b61197a565b7f000000000000000000000000000000000000000000000000000000000000000073ffffffffffffffffffffffffffffffffffffffff163373ffffffffffffffffffffffffffffffffffffffff1614610f9957610f677f219856057805290b6461449e22d115270fd239428c3209bdf7f56dd506f88c2960001b61197a565b6040517f1ee8575e00000000000000000000000000000000000000000000000000000000815260040160405180910390fd5b610fc57fd9e981b29c43a4c8eb86b3370135fff9fe72d046f9f0cf08c4eb6d99c2efc3f860001b61197a565b610ff17fd60458dc735cef3fb0b3e121d0252f81988b1c3651ee39449a39728dd05a6a4860001b61197a565b61101d7f55ee088844ffb70f83907f7ae0522e7a7b302621a4e6e12504aaaf93b309797f60001b61197a565b60003403611083576110517f57b27fbe0ac03bae26d3d394eec4e97acfacbb5f6412eb08b7076df3c836699b60001b61197a565b6040517f0cdb5d8500000000000000000000000000000000000000000000000000000000815260040160405180910390fd5b6110af7f117cb357aba1c15483feef519d3ae2d8efc8765ecba68dd8c048528f888e071f60001b61197a565b565b6110dd7f15e1cc766e9d5f6115296f526ca37640df23242e82ee9f3941b45b137b6995b660001b61197a565b6111097f4ec75259bc62051717ec659d3185b031b8b5c3fc08e3cd31c49daec8203cf8f460001b61197a565b6111357f47bb451a033b55a16830ccb16d3f25b542e5aa813c97d44b6f1be97ac3f3045e60001b61197a565b600073ffffffffffffffffffffffffffffffffffffffff1660008054906101000a900473ffffffffffffffffffffffffffffffffffffffff1673ffffffffffffffffffffffffffffffffffffffff1614806111dc575060008054906101000a900473ffffffffffffffffffffffffffffffffffffffff1673ffffffffffffffffffffffffffffffffffffffff163373ffffffffffffffffffffffffffffffffffffffff1614155b806111ea5750600354600254105b1561124d5761121b7fe24b69c71c9088b3b2bc90c619d99061de4bea6bd4ad5afee80e0d5f0697027860001b61197a565b6040517f4da1bc3400000000000000000000000000000000000000000000000000000000815260040160405180910390fd5b6112797fae371bcecbc54efbfdc926b8e38739d55009f2472c4446bfebee23f60c8f7bf860001b61197a565b6112a57fc143fb79a8a1f3a8acf512b6bc5733ddb0779e1ae93f989b14c3c459a0d5e0e260001b61197a565b60016000600354815260200190815260200160002060006101000a81549073ffffffffffffffffffffffffffffffffffffffff02191690556113097faf3a0480e009e1a85e8f4f8d3c475b607b4bad65caa7bc3bd9df64ef4ef0435360001b61197a565b6113357f1ca4590f7dcbaf51e57f8d484f477b99a5442d8aa755a164e86adf411e5dd33560001b61197a565b6001600360008282546113489190611d3d565b92505081905550565b7f000000000000000000000000000000000000000000000000000000000000000081565b6113a17fde7d1e5205dfd0c7c199ae53f5117f3caad45e7b36e57f3bd3eca5b4697bd67060001b61197a565b6113cd7f7d2aeebe24aa28aee1d2183922c76a0978d5a3ac51579283084f8e5a69d9eee560001b61197a565b6113f97f874453dbbb91dfedc94b5c0803c411e8984c44da7660fa1f80f55a0bf9058c7c60001b61197a565b7f000000000000000000000000000000000000000000000000000000000000000073ffffffffffffffffffffffffffffffffffffffff163373ffffffffffffffffffffffffffffffffffffffff16146114aa576114787f359128172bb085451b4932f8f8d0fbaacb01026ad148d1a1d597e60cc9ed434c60001b61197a565b6040517f1ee8575e00000000000000000000000000000000000000000000000000000000815260040160405180910390fd5b6114d67f9150999b4b114fa88e2eb62b77dcef74545c6df7f3bf291d4891ab5b9fa3f67960001b61197a565b6115027f9c63ff065c433ad1ca4fbeb1171075011ff387937c8e2c1e5c4f850f74797d3360001b61197a565b61152e7f15a59c30fc435a8e8a33b948ab9448b58dd76c56f505f3f5184aa42d1e40df3860001b61197a565b806000806101000a81548173ffffffffffffffffffffffffffffffffffffffff021916908373ffffffffffffffffffffffffffffffffffffffff16021790555050565b60016020528060005260406000206000915054906101000a900473ffffffffffffffffffffffffffffffffffffffff1681565b6115d07f7a036c9683ed0069ad0093b5f817325d8ad7832552905bb14c08aede4a9e579760001b61197a565b6115fc7f36809914ec6cf7d5629ea2206569bf3bb7e5936ff567ec68e4d89a2c1f9dde5c60001b61197a565b6116287fce9b1b8332470093c0ae02e317eaadd7d3f393df6891751344c2f49cdc698a0960001b61197a565b6103eb341461168f5761165d7fb38778523f78fcf0c8719e33693f32fe4bda39f9d13f94015ab9b2f8878e729c60001b61197a565b6040517fa43d860800000000000000000000000000000000000000000000000000000000815260040160405180910390fd5b6116ba7e11264ad564aeaa79af6e42abac41e8a7119807fd93818f9b180f934bf2102360001b61197a565b6116e67f89745e89221cae93bd390ce3573690e62e2cf92f40c90961a2ac3c695a78394760001b61197a565b6117127f6e78c230f96b55f4c3deac8b678af5aa50f2665dade776a3e2f956152493328e60001b61197a565b600073ffffffffffffffffffffffffffffffffffffffff1660008054906101000a900473ffffffffffffffffffffffffffffffffffffffff1673ffffffffffffffffffffffffffffffffffffffff1614806117ca575060008054906101000a900473ffffffffffffffffffffffffffffffffffffffff1673ffffffffffffffffffffffffffffffffffffffff16316103e8600354600280546117b49190611d3d565b6117be9190611d71565b6117c89190611da5565b115b1561182d576117fb7f946d9eeb4b7cbc0f61e453fe87da2f357ad981c8b7b89109a8a007ef8791a83c60001b61197a565b6040517ff06294a300000000000000000000000000000000000000000000000000000000815260040160405180910390fd5b6118597f6bd897a0b013b57a18949966ad2e4c5c3edeba74e6217e90c63c3d80fe5b7de060001b61197a565b6118857f50a3f50ac8401d36a1b65fc96240d2870f7ef81ec6544dd2a0a17fd48f328b6960001b61197a565b6118b17fdfa1aed931e5e12bac76a2e71afc8fdb7651f5c364636f8c7ff25bd66af2a30960001b61197a565b6118b961197d565b6118e57f229c01766f07f2562bc970262d50ba2ce14a7f0bf1d518bf20bace6d4c59d37a60001b61197a565b6119117faa44c258a2234d4637bc406d4c6b37cd6708aff97958a094a577115d72815e4c60001b61197a565b7f000000000000000000000000000000000000000000000000000000000000000073ffffffffffffffffffffffffffffffffffffffff166108fc349081150290604051600060405180830381858888f19350505050158015611977573d6000803e3d6000fd5b50565b50565b6119a97f752797c815bf2aa74ba024622a42786d5cc4c6417d652f23b017cea4f2a0f1f360001b61197a565b6119d57f73e2d9b5cbc7111f65f07efa2e73e5bc808ef6fcf72a1fc05deeeef0d6e1889a60001b61197a565b611a017f3f3f0bf1a3be805abe7f5ed626ab5163df94fa56bc516cfab8aace5b368d72b460001b61197a565b600160026000828254611a149190611d3d565b92505081905550611a477f970f13faaeebd85f7c2fea9e78ed6e64c19ffd5a0b9de40ab1a5d1fc3d6ffb7c60001b61197a565b611a737f22d68a23b76efbd28d571b23874156432dc5710822bfe4917422613777795a7f60001b61197a565b3360016000600254815260200190815260200160002060006101000a81548173ffffffffffffffffffffffffffffffffffffffff021916908373ffffffffffffffffffffffffffffffffffffffff160217905550565b600073ffffffffffffffffffffffffffffffffffffffff82169050919050565b6000819050919050565b6000611b0e611b09611b0484611ac9565b611ae9565b611ac9565b9050919050565b6000611b2082611af3565b9050919050565b6000611b3282611b15565b9050919050565b611b4281611b27565b82525050565b6000602082019050611b5d6000830184611b39565b92915050565b6000819050919050565b611b7681611b63565b82525050565b6000602082019050611b916000830184611b6d565b92915050565b6000611ba282611ac9565b9050919050565b611bb281611b97565b82525050565b6000602082019050611bcd6000830184611ba9565b92915050565b600080fd5b611be181611b97565b8114611bec57600080fd5b50565b600081359050611bfe81611bd8565b92915050565b600060208284031215611c1a57611c19611bd3565b5b6000611c2884828501611bef565b91505092915050565b611c3a81611b63565b8114611c4557600080fd5b50565b600081359050611c5781611c31565b92915050565b600060208284031215611c7357611c72611bd3565b5b6000611c8184828501611c48565b91505092915050565b600081519050611c9981611c31565b92915050565b600060208284031215611cb557611cb4611bd3565b5b6000611cc384828501611c8a565b91505092915050565b600081519050611cdb81611bd8565b92915050565b600060208284031215611cf757611cf6611bd3565b5b6000611d0584828501611ccc565b91505092915050565b7f4e487b7100000000000000000000000000000000000000000000000000000000600052601160045260246000fd5b6000611d4882611b63565b9150611d5383611b63565b9250828201905080821115611d6b57611d6a611d0e565b5b92915050565b6000611d7c82611b63565b9150611d8783611b63565b9250828203905081811115611d9f57611d9e611d0e565b5b92915050565b6000611db082611b63565b9150611dbb83611b63565b9250828202611dc981611b63565b91508282048414831517611de057611ddf611d0e565b5b509291505056fea26469706673582212205c5121453ca337dff5163784645320c31053b96a84b8d82a0213e5971bdc53ee64736f6c63430008110033",
  "linkReferences": {},
  "deployedLinkReferences": {}
}