{
  "_format": "hh-sol-artifact-1",
  "contractName": "MockGoerliBridge",
  "sourceName": "contracts/MockBridgeMsgValue.sol",
  "abi": [
    {
      "inputs": [],
      "stateMutability": "nonpayable",
      "type": "constructor"
    },
    {
      "inputs": [],
      "name": "bridgeEmpty",
      "type": "error"
    },
    {
      "inputs": [],
      "name": "bridgeOnOtherSideNeedsLiqudity",
      "type": "error"
    },
    {
      "inputs": [],
      "name": "bridgedAlready",
      "type": "error"
    },
    {
      "inputs": [],
      "name": "msgValueNot1003",
      "type": "error"
    },
    {
      "inputs": [],
      "name": "msgValueZero",
      "type": "error"
    },
    {
      "inputs": [],
      "name": "notExternalBridge",
      "type": "error"
    },
    {
      "inputs": [],
      "name": "notOwnerAddress",
      "type": "error"
    },
    {
      "inputs": [],
      "name": "ownerBridgeUsersBeforeWithdraw",
      "type": "error"
    },
    {
      "inputs": [],
      "name": "queueIsEmpty",
      "type": "error"
    },
    {
      "inputs": [],
      "name": "queueNotEmpty",
      "type": "error"
    },
    {
      "inputs": [],
      "name": "Owner",
      "outputs": [
        {
          "internalType": "address",
          "name": "",
          "type": "address"
        }
      ],
      "stateMutability": "view",
      "type": "function"
    },
    {
      "inputs": [],
      "name": "dequeue",
      "outputs": [],
      "stateMutability": "nonpayable",
      "type": "function"
    },
    {
      "inputs": [],
      "name": "first",
      "outputs": [
        {
          "internalType": "uint256",
          "name": "",
          "type": "uint256"
        }
      ],
      "stateMutability": "view",
      "type": "function"
    },
    {
      "inputs": [],
      "name": "last",
      "outputs": [
        {
          "internalType": "uint256",
          "name": "",
          "type": "uint256"
        }
      ],
      "stateMutability": "view",
      "type": "function"
    },
    {
      "inputs": [],
      "name": "lockTokensForOptimism",
      "outputs": [],
      "stateMutability": "payable",
      "type": "function"
    },
    {
      "inputs": [
        {
          "internalType": "address",
          "name": "_token",
          "type": "address"
        }
      ],
      "name": "mockOwnerOptimismBridgeAddress",
      "outputs": [],
      "stateMutability": "nonpayable",
      "type": "function"
    },
    {
      "inputs": [],
      "name": "optimismBridgeInstance",
      "outputs": [
        {
          "internalType": "contract MockOptimismBridge",
          "name": "",
          "type": "address"
        }
      ],
      "stateMutability": "view",
      "type": "function"
    },
    {
      "inputs": [],
      "name": "ownerAddBridgeLiqudity",
      "outputs": [],
      "stateMutability": "payable",
      "type": "function"
    },
    {
      "inputs": [],
      "name": "ownerRemoveBridgeLiqudity",
      "outputs": [],
      "stateMutability": "nonpayable",
      "type": "function"
    },
    {
      "inputs": [],
      "name": "ownerUnlockGoerliETH",
      "outputs": [],
      "stateMutability": "nonpayable",
      "type": "function"
    },
    {
      "inputs": [
        {
          "internalType": "uint256",
          "name": "",
          "type": "uint256"
        }
      ],
      "name": "queue",
      "outputs": [
        {
          "internalType": "address",
          "name": "",
          "type": "address"
        }
      ],
      "stateMutability": "view",
      "type": "function"
    }
  ],
  "bytecode": "0x60a060405260016003553480156200001657600080fd5b506200004b7f9fb2ed19dbc03887b6e4eccd6699c1a01e7ea052729cfe426841d72ca24aa67660001b620000ed60201b60201c565b6200007f7fd9e234e0fc00194e388bcd0c166ae5913f343bd2d8bcb974933807f4305014c360001b620000ed60201b60201c565b620000b37f93b0ebd103240e64b5c2117eabb6dbed8d4ba08271671b8af43a7fc52f151f4160001b620000ed60201b60201c565b3373ffffffffffffffffffffffffffffffffffffffff1660808173ffffffffffffffffffffffffffffffffffffffff1681525050620000f0565b50565b608051611e1d62000136600039600081816102920152818161070e01528181610af101528181610c02015281816110ef0152818161172901526117d10152611e1d6000f3fe60806040526004361061009c5760003560e01c80638521eebe116100645780638521eebe14610143578063957908d11461014d578063af11cb4014610164578063b4a99a4e1461017b578063d06019f5146101a6578063ddf0b009146101cf5761009c565b806308dd057a146100a15780633df4ddf4146100b857806347799da8146100e35780634e22d2081461010e5780637f6c6d1014610118575b600080fd5b3480156100ad57600080fd5b506100b661020c565b005b3480156100c457600080fd5b506100cd610775565b6040516100da9190611ae2565b60405180910390f35b3480156100ef57600080fd5b506100f861077b565b6040516101059190611ae2565b60405180910390f35b610116610781565b005b34801561012457600080fd5b5061012d610b58565b60405161013a9190611b7c565b60405180910390f35b61014b610b7c565b005b34801561015957600080fd5b50610162610dc9565b005b34801561017057600080fd5b50610179611069565b005b34801561018757600080fd5b50610190611727565b60405161019d9190611bb8565b60405180910390f35b3480156101b257600080fd5b506101cd60048036038101906101c89190611c04565b61174b565b005b3480156101db57600080fd5b506101f660048036038101906101f19190611c5d565b611947565b6040516102039190611bb8565b60405180910390f35b6102387fdb7f5305665fa2fd7157b0d928e247121063297776bde8f87dc566c60a0fdcf360001b61197a565b6102647fdcc17256fb11f2c0d901726988a131836bf0bec957e696ebf9af59be8b1ac2a560001b61197a565b6102907f747408cf779832fad6492d2f491bab58d276aca48b9f4653eec0c3f484f7171860001b61197a565b7f000000000000000000000000000000000000000000000000000000000000000073ffffffffffffffffffffffffffffffffffffffff163373ffffffffffffffffffffffffffffffffffffffff16146103415761030f7fea902181e57b2e06f76cb01a6a16d5b2fdc1fce3be3cda1abf386096d5479d2360001b61197a565b6040517f1ee8575e00000000000000000000000000000000000000000000000000000000815260040160405180910390fd5b61036d7f96ea2aeda73882f183a3ac41dfc757088a317d93fe6ec950b849d69318ded13e60001b61197a565b6103997f351948596abeb350e22ee4addda14b67f83451011ad1736276ed028cd630635760001b61197a565b6103c57f5aff6913036a6bfaf601a211c06b00063b75c92ffb7bbcc59673ce8b7e61e99860001b61197a565b6000470361042b576103f97ffc6f44abce422fcd830ea06512022839bb12ad946a1e1cf95bc03e912e30a5b660001b61197a565b6040517f7a1f291700000000000000000000000000000000000000000000000000000000815260040160405180910390fd5b6104577f080b7a86f9ebc2db27a07d4a8b180094f8d9628e35df3163ed59ec533aa1430360001b61197a565b6104837fc90af6cec9bdf8d1a7764895841378f14c13b5ae49b6f9a724ea256320e997bc60001b61197a565b6104ae7ee6111787f5ae0ed88c629d5fb89f6fa6b7265d7066570f84bb9ebbf7e1e9aa60001b61197a565b600073ffffffffffffffffffffffffffffffffffffffff1660008054906101000a900473ffffffffffffffffffffffffffffffffffffffff1673ffffffffffffffffffffffffffffffffffffffff161480610625575060008054906101000a900473ffffffffffffffffffffffffffffffffffffffff1673ffffffffffffffffffffffffffffffffffffffff16633df4ddf46040518163ffffffff1660e01b8152600401602060405180830381865afa15801561056f573d6000803e3d6000fd5b505050506040513d601f19601f820116820180604052508101906105939190611c9f565b60008054906101000a900473ffffffffffffffffffffffffffffffffffffffff1673ffffffffffffffffffffffffffffffffffffffff166347799da86040518163ffffffff1660e01b8152600401602060405180830381865afa1580156105fe573d6000803e3d6000fd5b505050506040513d601f19601f820116820180604052508101906106229190611c9f565b10155b15610688576106567f82d28e8e5b098e29bd74cc1ef194a5551093a2c4fd1c84d327ee29eebf8e770e60001b61197a565b6040517f230accfd00000000000000000000000000000000000000000000000000000000815260040160405180910390fd5b6106b47f0686358ace1fe96f125061f401a75f18c3c19eb9a9cc78b4a05502acfc192da260001b61197a565b6106e07f4bc03139c9f65529a8df1260681608327194dfa77594695086765333f5e992b860001b61197a565b61070c7f547437cde1565f27e4e1d5215d7fee90a239261d6a10fb942d38c1d85580e26060001b61197a565b7f000000000000000000000000000000000000000000000000000000000000000073ffffffffffffffffffffffffffffffffffffffff166108fc479081150290604051600060405180830381858888f19350505050158015610772573d6000803e3d6000fd5b50565b60035481565b60025481565b6107ad7fb7b5fb235e2df4c33d416bf2c5fbd06c426ba73f4a3cc3a0cdcf10308e6130b660001b61197a565b6107d97f6b22dde089400637cbf8fc770abac64eeaa0ccee7c445b8ae0b68d95d272d9b060001b61197a565b6108057fb92a99f6d4a015924ad2f2ccfd60b1a965c5ff9e88250fabe2df70e91d5c5f1360001b61197a565b6103eb341461086c5761083a7f7f6a85195c3991b4c757af4f7843bb5bf42968869e1697a6fb5620b259bca59660001b61197a565b6040517fa43d860800000000000000000000000000000000000000000000000000000000815260040160405180910390fd5b6108987fb8afbd4d0e11dd367a87e7fd36a805f855554a3cdf94cbaa3dafc3b07e5f687560001b61197a565b6108c47f4d922b8843dea955d63b5b933f45d8eb3b1cd6f541ef32d04e9f3c3ad5d5d77960001b61197a565b6108f07fb22e9b7f57570665c33a5059aec562c4952a320f151a2e69888f9f9d6047cf7860001b61197a565b600073ffffffffffffffffffffffffffffffffffffffff1660008054906101000a900473ffffffffffffffffffffffffffffffffffffffff1673ffffffffffffffffffffffffffffffffffffffff1614806109a8575060008054906101000a900473ffffffffffffffffffffffffffffffffffffffff1673ffffffffffffffffffffffffffffffffffffffff16316103e8600354600280546109929190611cfb565b61099c9190611d2f565b6109a69190611d63565b115b15610a0b576109d97fa6a00b89cca598a0f57f78829e8e97854399d0f965024e4d0f92c7eb5b2a87fe60001b61197a565b6040517ff06294a300000000000000000000000000000000000000000000000000000000815260040160405180910390fd5b610a377f669a0f405199088b0fb20e88a6870b75d88fc6654705fd2718d4309b59c5d8cf60001b61197a565b610a637f3c27b69d769c1374ad3a1d56c512f35af82842419eaa1ed6f9315abd6c496fbf60001b61197a565b610a8f7f2074ac94a2edf1fe5fd6945e4bb42e485b31b387616d52be14a6f16d233a5ff160001b61197a565b610a9761197d565b610ac37fe3bf91cd0c8a95def7d61032caf0e355cfff06bac869001113549ec0289abc9560001b61197a565b610aef7f14c8d0b2db23248e1c01a2f77e4851311054f8b0b7e840065014e89789b23a0f60001b61197a565b7f000000000000000000000000000000000000000000000000000000000000000073ffffffffffffffffffffffffffffffffffffffff166108fc349081150290604051600060405180830381858888f19350505050158015610b55573d6000803e3d6000fd5b50565b60008054906101000a900473ffffffffffffffffffffffffffffffffffffffff1681565b610ba87f08814f43cad5fc30266dd814ecaca50de4f9b9ed5a41b1e3b8b3a2995d2119a460001b61197a565b610bd47f9d6cd873d12066b905053a2798a36416e8805d61a272ef24d41c111b717639f460001b61197a565b610c007fca7c0a2730679018cfddacfcf90ba42cddcc4b9dc81c3731795f133846a7797760001b61197a565b7f000000000000000000000000000000000000000000000000000000000000000073ffffffffffffffffffffffffffffffffffffffff163373ffffffffffffffffffffffffffffffffffffffff1614610cb157610c7f7fd1af7dde007a12f7c51a4a36cecdb46236079d301f32e6f79d726939793eba6960001b61197a565b6040517f1ee8575e00000000000000000000000000000000000000000000000000000000815260040160405180910390fd5b610cdd7fad36c8511bf597ebf37d665461c5b0aa02e44d3db68472d9b0d4ecd753223bd460001b61197a565b610d097f4846b0328240a5112220880d1c6591d2ccc4a1dee835d5685d4640e565164dcd60001b61197a565b610d357f218147dfca35fe947a4e00543b0e48c0d2ce0af0a5cf2ceea4da0eb98e57679560001b61197a565b60003403610d9b57610d697ff8a330e175dfac408493ee532bbf8595e1ea54ecdf25f1bb9e6f2846479b802f60001b61197a565b6040517f0cdb5d8500000000000000000000000000000000000000000000000000000000815260040160405180910390fd5b610dc77f74bb17b394f8cc7b5b0045515b9197554b295b02ad39458c5b14eea948ca11a960001b61197a565b565b610df57faa4a7941547db74574678ae749cc0df2dd2a1d71bda715c90d9aaf81d6b0629660001b61197a565b610e217f5342bc649c4dcf4aefe78e9ea24bc4507393efd53d3d7fdc016b8407f9f7409e60001b61197a565b610e4d7f4cc31d34c740aa52ec1ba6ebb4746663ccb0d58c596eb612c6f46feceb51ac1060001b61197a565b600073ffffffffffffffffffffffffffffffffffffffff1660008054906101000a900473ffffffffffffffffffffffffffffffffffffffff1673ffffffffffffffffffffffffffffffffffffffff161480610ef4575060008054906101000a900473ffffffffffffffffffffffffffffffffffffffff1673ffffffffffffffffffffffffffffffffffffffff163373ffffffffffffffffffffffffffffffffffffffff1614155b80610f025750600354600254105b15610f6557610f337f3ad632e5ce40dda95432da9c0be6ba64bd49dd8e47acffacf8e793d532e8ecc760001b61197a565b6040517f4da1bc3400000000000000000000000000000000000000000000000000000000815260040160405180910390fd5b610f917fea1ff922c5953a3e1f0b038237b9626cd878663b2cc27aed8f06e05f84c89a2d60001b61197a565b610fbd7f26692386e539330ec784e9fdc1eb10aa2ca7eb30156fed49bb6e56f429260f1760001b61197a565b60016000600354815260200190815260200160002060006101000a81549073ffffffffffffffffffffffffffffffffffffffff02191690556110217fbc6ecbbeeed7d87ac88bd70fd75687b380ad4e3f62dee9733ae68eb57697e1c760001b61197a565b61104d7f9002a21d2ac9eba0f45df1ca4e78a30515d87162a6e478f95efe94f41e03d58360001b61197a565b6001600360008282546110609190611cfb565b92505081905550565b6110957f64dd5ab96501c2f95f98cb0a92d6760b73e671401a3cfa2474b917953539375960001b61197a565b6110c17fdc7486fe88c3cc76047d09549f0b334d1e41c3a1521f4fa051e63ac981437a8660001b61197a565b6110ed7ffefdd31c97bcc591aaf33981cd26ba5d17362814156ef7877854ea787830cf2760001b61197a565b7f000000000000000000000000000000000000000000000000000000000000000073ffffffffffffffffffffffffffffffffffffffff163373ffffffffffffffffffffffffffffffffffffffff161461119e5761116c7ff570d3d74aa13683cb3b43080c682c01047c5e1290760e9fff5c608166bea97260001b61197a565b6040517f1ee8575e00000000000000000000000000000000000000000000000000000000815260040160405180910390fd5b6111c97ede50e54afdb419b4c96a2cc32a041cf93bf520197e92809885cf5d3b2bab5160001b61197a565b6111f57fcb930ccbb89f61013df526ec335c7a4107f101bb23fa615ad38ea86d36da5e7560001b61197a565b6112217f41e49198cada5d6cd5ccc37cc30b29a47a1574afc9dfcce66eb9c37bee7a732660001b61197a565b600073ffffffffffffffffffffffffffffffffffffffff1660008054906101000a900473ffffffffffffffffffffffffffffffffffffffff1673ffffffffffffffffffffffffffffffffffffffff161480611397575060008054906101000a900473ffffffffffffffffffffffffffffffffffffffff1673ffffffffffffffffffffffffffffffffffffffff16633df4ddf46040518163ffffffff1660e01b8152600401602060405180830381865afa1580156112e2573d6000803e3d6000fd5b505050506040513d601f19601f820116820180604052508101906113069190611c9f565b60008054906101000a900473ffffffffffffffffffffffffffffffffffffffff1673ffffffffffffffffffffffffffffffffffffffff166347799da86040518163ffffffff1660e01b8152600401602060405180830381865afa158015611371573d6000803e3d6000fd5b505050506040513d601f19601f820116820180604052508101906113959190611c9f565b105b156113fa576113c87f90acdc28e46e2eaaec38a14766f5915f0fc1d525294f98038f7058919812f5e460001b61197a565b6040517f5e61bb8700000000000000000000000000000000000000000000000000000000815260040160405180910390fd5b6114267f2f04ad311eaa17c9ac55a1ca702073c3aadbec62bd29380c8106ac6f33da4f1860001b61197a565b6114527f231ac68bb1d16f62a9fbe266b9ea9794c9ca9eedd09e49eebccb8d57b44615fe60001b61197a565b61147e7f5886e9dc65ceb3439ee6bd5e749092bbc8571aac8731b58fe89b4b26895b919060001b61197a565b60008060009054906101000a900473ffffffffffffffffffffffffffffffffffffffff1673ffffffffffffffffffffffffffffffffffffffff1663ddf0b00960008054906101000a900473ffffffffffffffffffffffffffffffffffffffff1673ffffffffffffffffffffffffffffffffffffffff166347799da86040518163ffffffff1660e01b8152600401602060405180830381865afa158015611528573d6000803e3d6000fd5b505050506040513d601f19601f8201168201806040525081019061154c9190611c9f565b6040518263ffffffff1660e01b81526004016115689190611ae2565b602060405180830381865afa158015611585573d6000803e3d6000fd5b505050506040513d601f19601f820116820180604052508101906115a99190611dba565b90506115d77f1cccb60d2973bd95e754a4f10c5464370dedef1a132e10450c91e78203c4565a60001b61197a565b6116037f5af3733f2ecc4eb76ecba313216ed64d49880c6e13bc12e28fd112507ba1ca1760001b61197a565b60008054906101000a900473ffffffffffffffffffffffffffffffffffffffff1673ffffffffffffffffffffffffffffffffffffffff1663957908d16040518163ffffffff1660e01b8152600401600060405180830381600087803b15801561166b57600080fd5b505af115801561167f573d6000803e3d6000fd5b505050506116af7f4ffdeadc1b3a24fff23144d37f3ca328749eef90764a6c8392e0706538ffb84e60001b61197a565b6116db7fdb076cd4b8319bba5cb2eaf8a4eb31b459f734322e22ea6e2b17e40a5d832de160001b61197a565b8073ffffffffffffffffffffffffffffffffffffffff166108fc6103e89081150290604051600060405180830381858888f19350505050158015611723573d6000803e3d6000fd5b5050565b7f000000000000000000000000000000000000000000000000000000000000000081565b6117777f4d4dc8040520baf52059facb9984059d5d90b646ba0738768e8455b525ac395460001b61197a565b6117a37f6402c7264c64085472e83b2c3ee6ed1bbee2490d6029f4233fd89b7ba198041e60001b61197a565b6117cf7f0718b68f8e2c9e932d44977de477d020f949d7d637ef8790c15b806c95da3b8260001b61197a565b7f000000000000000000000000000000000000000000000000000000000000000073ffffffffffffffffffffffffffffffffffffffff163373ffffffffffffffffffffffffffffffffffffffff16146118805761184e7f71642c31aa0ac975e27b8a558be686b863cf6c7ca93bc8e86f795261e5e2ac9260001b61197a565b6040517f1ee8575e00000000000000000000000000000000000000000000000000000000815260040160405180910390fd5b6118ac7f3450c326fe3b8eb379b74fb88a734b655947b2b83b0e63d55411d4052b16595460001b61197a565b6118d87f1cb6806bc21594e2e3afb4f3bc191b955c63f48b70dd04222c9dd7011219b6f860001b61197a565b6119047fe09aec326b82489fd575950c862e4cd8994d7bf6aa03fe558f476df00815e3ec60001b61197a565b806000806101000a81548173ffffffffffffffffffffffffffffffffffffffff021916908373ffffffffffffffffffffffffffffffffffffffff16021790555050565b60016020528060005260406000206000915054906101000a900473ffffffffffffffffffffffffffffffffffffffff1681565b50565b6119a97fa9e8e5e888d950f5abfa84ba210a1c100e90a1a2bc60153d3659c68724f08bc460001b61197a565b6119d57f6356912c8ff69f99a75fee56d8adab179d9da4de2eba2cb915f38cc1a9dac6ca60001b61197a565b611a017fd78f26e30970a1f8d937c4f4cf1d24cb769be55d7e8a4f740911d0ed3ab7a86060001b61197a565b600160026000828254611a149190611cfb565b92505081905550611a477f7939813665161724a3f06c843708f870060d120a3512911530e3fa35a6b2748360001b61197a565b611a737fb8b72037b7e0186a2b7b6bda1fc209ed13e46ae4ec645235a5a8e025fd792f4f60001b61197a565b3360016000600254815260200190815260200160002060006101000a81548173ffffffffffffffffffffffffffffffffffffffff021916908373ffffffffffffffffffffffffffffffffffffffff160217905550565b6000819050919050565b611adc81611ac9565b82525050565b6000602082019050611af76000830184611ad3565b92915050565b600073ffffffffffffffffffffffffffffffffffffffff82169050919050565b6000819050919050565b6000611b42611b3d611b3884611afd565b611b1d565b611afd565b9050919050565b6000611b5482611b27565b9050919050565b6000611b6682611b49565b9050919050565b611b7681611b5b565b82525050565b6000602082019050611b916000830184611b6d565b92915050565b6000611ba282611afd565b9050919050565b611bb281611b97565b82525050565b6000602082019050611bcd6000830184611ba9565b92915050565b600080fd5b611be181611b97565b8114611bec57600080fd5b50565b600081359050611bfe81611bd8565b92915050565b600060208284031215611c1a57611c19611bd3565b5b6000611c2884828501611bef565b91505092915050565b611c3a81611ac9565b8114611c4557600080fd5b50565b600081359050611c5781611c31565b92915050565b600060208284031215611c7357611c72611bd3565b5b6000611c8184828501611c48565b91505092915050565b600081519050611c9981611c31565b92915050565b600060208284031215611cb557611cb4611bd3565b5b6000611cc384828501611c8a565b91505092915050565b7f4e487b7100000000000000000000000000000000000000000000000000000000600052601160045260246000fd5b6000611d0682611ac9565b9150611d1183611ac9565b9250828201905080821115611d2957611d28611ccc565b5b92915050565b6000611d3a82611ac9565b9150611d4583611ac9565b9250828203905081811115611d5d57611d5c611ccc565b5b92915050565b6000611d6e82611ac9565b9150611d7983611ac9565b9250828202611d8781611ac9565b91508282048414831517611d9e57611d9d611ccc565b5b5092915050565b600081519050611db481611bd8565b92915050565b600060208284031215611dd057611dcf611bd3565b5b6000611dde84828501611da5565b9150509291505056fea26469706673582212208b7697e6ce0edc46e6e95f4e648ebbb4ae19e7d7072b7c38e6fc6eacc224d2e764736f6c63430008110033",
  "linkReferences": {},
  "deployedLinkReferences": {}
}