{
  "_format": "hh-sol-artifact-1",
  "contractName": "MockOptimismBridge",
  "sourceName": "contracts/MockBridgeMsgValue.sol",
  "abi": [
    {
      "inputs": [],
      "stateMutability": "nonpayable",
      "type": "constructor"
    },
    {
      "inputs": [],
      "name": "bridgeEmpty",
      "type": "error"
    },
    {
      "inputs": [],
      "name": "bridgeOnOtherSideNeedsLiqudity",
      "type": "error"
    },
    {
      "inputs": [],
      "name": "msgValueDoesNotCoverFee",
      "type": "error"
    },
    {
      "inputs": [],
      "name": "msgValueLessThan1000",
      "type": "error"
    },
    {
      "inputs": [],
      "name": "msgValueZero",
      "type": "error"
    },
    {
      "inputs": [],
      "name": "notExternalBridge",
      "type": "error"
    },
    {
      "inputs": [],
      "name": "notOwnerAddress",
      "type": "error"
    },
    {
      "inputs": [],
      "name": "queueIsEmpty",
      "type": "error"
    },
    {
      "inputs": [],
      "name": "queueNotEmpty",
      "type": "error"
    },
    {
      "inputs": [],
      "name": "Owner",
      "outputs": [
        {
          "internalType": "address",
          "name": "",
          "type": "address"
        }
      ],
      "stateMutability": "view",
      "type": "function"
    },
    {
      "inputs": [],
      "name": "dequeue",
      "outputs": [],
      "stateMutability": "nonpayable",
      "type": "function"
    },
    {
      "inputs": [],
      "name": "first",
      "outputs": [
        {
          "internalType": "uint256",
          "name": "",
          "type": "uint256"
        }
      ],
      "stateMutability": "view",
      "type": "function"
    },
    {
      "inputs": [],
      "name": "goerliBridgeInstance",
      "outputs": [
        {
          "internalType": "contract MockGoerliBridge",
          "name": "",
          "type": "address"
        }
      ],
      "stateMutability": "view",
      "type": "function"
    },
    {
      "inputs": [],
      "name": "last",
      "outputs": [
        {
          "internalType": "uint256",
          "name": "",
          "type": "uint256"
        }
      ],
      "stateMutability": "view",
      "type": "function"
    },
    {
      "inputs": [
        {
          "internalType": "uint256",
          "name": "bridgeAmount",
          "type": "uint256"
        }
      ],
      "name": "lockTokensForGoerli",
      "outputs": [],
      "stateMutability": "payable",
      "type": "function"
    },
    {
      "inputs": [
        {
          "internalType": "address",
          "name": "",
          "type": "address"
        }
      ],
      "name": "lockedForGoerliETH",
      "outputs": [
        {
          "internalType": "uint256",
          "name": "",
          "type": "uint256"
        }
      ],
      "stateMutability": "view",
      "type": "function"
    },
    {
      "inputs": [
        {
          "internalType": "address",
          "name": "_token",
          "type": "address"
        }
      ],
      "name": "mockOwnerGoerliBridgeAddress",
      "outputs": [],
      "stateMutability": "nonpayable",
      "type": "function"
    },
    {
      "inputs": [
        {
          "internalType": "address",
          "name": "",
          "type": "address"
        }
      ],
      "name": "optimismBridgedETH",
      "outputs": [
        {
          "internalType": "uint256",
          "name": "",
          "type": "uint256"
        }
      ],
      "stateMutability": "view",
      "type": "function"
    },
    {
      "inputs": [],
      "name": "ownerAddBridgeLiqudity",
      "outputs": [],
      "stateMutability": "payable",
      "type": "function"
    },
    {
      "inputs": [],
      "name": "ownerRemoveBridgeLiqudity",
      "outputs": [],
      "stateMutability": "nonpayable",
      "type": "function"
    },
    {
      "inputs": [],
      "name": "ownerUnlockOptimismETH",
      "outputs": [],
      "stateMutability": "nonpayable",
      "type": "function"
    },
    {
      "inputs": [
        {
          "internalType": "uint256",
          "name": "",
          "type": "uint256"
        }
      ],
      "name": "queue",
      "outputs": [
        {
          "internalType": "address",
          "name": "",
          "type": "address"
        }
      ],
      "stateMutability": "view",
      "type": "function"
    }
  ],
  "bytecode": "0x60a060405260016005553480156200001657600080fd5b506200004b7fae315d76b4fdc0509614573e6aaf7b77cc7e7f4a5f2a855e1276fa883e501ab360001b620000ed60201b60201c565b6200007f7fd8b2f05768f20732d06629991b1fd8a4561be7036b5a42e6ba379179d8ea367b60001b620000ed60201b60201c565b620000b37f5bfd670527173e11977b320429131265ea69398a9907ed1dc7a6a962857c13b160001b620000ed60201b60201c565b3373ffffffffffffffffffffffffffffffffffffffff1660808173ffffffffffffffffffffffffffffffffffffffff1681525050620000f0565b50565b608051612311620001366000396000818161036a015281816107ed015281816108e60152818161119f0152818161160c015281816116b40152611d5b01526123116000f3fe6080604052600436106100c25760003560e01c8063957908d11161007f578063c5aaccf711610059578063c5aaccf7146101eb578063c637aa9714610228578063ddf0b00914610244578063e3d66f6814610281576100c2565b8063957908d114610180578063b4a99a4e14610197578063bd31a23a146101c2576100c2565b806306557c31146100c757806308dd057a146100f25780633df4ddf41461010957806347799da814610134578063515b74f21461015f5780638521eebe14610176575b600080fd5b3480156100d357600080fd5b506100dc6102be565b6040516100e99190611fdc565b60405180910390f35b3480156100fe57600080fd5b506101076102e4565b005b34801561011557600080fd5b5061011e610854565b60405161012b9190612010565b60405180910390f35b34801561014057600080fd5b5061014961085a565b6040516101569190612010565b60405180910390f35b34801561016b57600080fd5b50610174610860565b005b61017e611119565b005b34801561018c57600080fd5b50610195611366565b005b3480156101a357600080fd5b506101ac61160a565b6040516101b9919061204c565b60405180910390f35b3480156101ce57600080fd5b506101e960048036038101906101e49190612098565b61162e565b005b3480156101f757600080fd5b50610212600480360381019061020d9190612098565b61182b565b60405161021f9190612010565b60405180910390f35b610242600480360381019061023d91906120f1565b611843565b005b34801561025057600080fd5b5061026b600480360381019061026691906120f1565b611dc3565b604051610278919061204c565b60405180910390f35b34801561028d57600080fd5b506102a860048036038101906102a39190612098565b611df6565b6040516102b59190612010565b60405180910390f35b600260009054906101000a900473ffffffffffffffffffffffffffffffffffffffff1681565b6103107f8edcd7cbc25de8d12597a6baff1d73b746dd3753cca984d3564a6e3aa1dc1c2e60001b611e0e565b61033c7fff6c188104e39c2799897ad4fa6767a8ff28c5a41e3336a58fad8796f4ede76060001b611e0e565b6103687f8e9f64298faf274d5639ba4a59fe79463b1a2bdb605489875e458d7e55e6e2d360001b611e0e565b7f000000000000000000000000000000000000000000000000000000000000000073ffffffffffffffffffffffffffffffffffffffff163373ffffffffffffffffffffffffffffffffffffffff1614610419576103e77fe027802ec1407c6528aa6789f88158b933cbe0826c945a356204c3d7beeb5c4060001b611e0e565b6040517f1ee8575e00000000000000000000000000000000000000000000000000000000815260040160405180910390fd5b6104457ff84597bcbb11bdd3a6bf921a458ed3931a51b80705d5c21d2d82a1b89bc4fdab60001b611e0e565b6104717fdd826552db2ceaf69a3e850f417693712dcb22b651cc58503dd6cc0c84f246a960001b611e0e565b61049d7fd28a418237e74af6486e732b89831f25f3fbea14096c0a28bd277e5afbe1757560001b611e0e565b60004703610503576104d17fd43e6206ab6636701d3a78b8e8f6205ce233bf947999b47b8b1837c838e186d960001b611e0e565b6040517f7a1f291700000000000000000000000000000000000000000000000000000000815260040160405180910390fd5b61052f7f8e9c42206ad51570c1a426bcd3db6719b8c1094f3ee74984b1f6b4e81003f6de60001b611e0e565b61055b7f4f3085bd710eb6695e4497afb467ecee6e30374ddbeb626af5a471612812b76d60001b611e0e565b6105877f933e686c6e6eed7e5b5c1d0c89b08f51647d680c15aeb38d85f7c7266579fe6e60001b611e0e565b600073ffffffffffffffffffffffffffffffffffffffff16600260009054906101000a900473ffffffffffffffffffffffffffffffffffffffff1673ffffffffffffffffffffffffffffffffffffffff1614806107045750600260009054906101000a900473ffffffffffffffffffffffffffffffffffffffff1673ffffffffffffffffffffffffffffffffffffffff16633df4ddf46040518163ffffffff1660e01b8152600401602060405180830381865afa15801561064c573d6000803e3d6000fd5b505050506040513d601f19601f820116820180604052508101906106709190612133565b600260009054906101000a900473ffffffffffffffffffffffffffffffffffffffff1673ffffffffffffffffffffffffffffffffffffffff166347799da86040518163ffffffff1660e01b8152600401602060405180830381865afa1580156106dd573d6000803e3d6000fd5b505050506040513d601f19601f820116820180604052508101906107019190612133565b10155b15610767576107357f8e2085f94b091f2516dae8084e95a132ce97d588d155fc7b744c6554da7b88a660001b611e0e565b6040517f230accfd00000000000000000000000000000000000000000000000000000000815260040160405180910390fd5b6107937f35771817ea5a749e4de406cb893547e9565f1fbb43b3d9fe6f4d60b89158361460001b611e0e565b6107bf7f11284c2876c598cf1340618142df7b5eb506a3f9727521528f48ccf70def870660001b611e0e565b6107eb7f8fcea256dbabae5e42d3b8e7d86ea9d3b3caa03b8aaffa76639ee87d7b0a47af60001b611e0e565b7f000000000000000000000000000000000000000000000000000000000000000073ffffffffffffffffffffffffffffffffffffffff166108fc479081150290604051600060405180830381858888f19350505050158015610851573d6000803e3d6000fd5b50565b60055481565b60045481565b61088c7fa5bcc75c60077c48bae60903feff83461e6a7a8af668436acd68db59da02d9c660001b611e0e565b6108b87f5abde711a415bd548acb031dce1b34da9f8a5a87d03173b1ce441741ab0538bb60001b611e0e565b6108e47f27af547419433dbe49a13c4d77b91fb6faa948c4d28f1fde9aa3a98cc841564260001b611e0e565b7f000000000000000000000000000000000000000000000000000000000000000073ffffffffffffffffffffffffffffffffffffffff163373ffffffffffffffffffffffffffffffffffffffff1614610995576109637f6713bc4054d2e6fee6cf7e9bfe47fe7b03acc8d9e4830886d8e66bb3661d957360001b611e0e565b6040517f1ee8575e00000000000000000000000000000000000000000000000000000000815260040160405180910390fd5b6109c17f4028ecd109be29e9f916e84265f8241b0c080afe82c226529280dd462a61d82460001b611e0e565b6109ed7fbe6b95816dd3461b66c74f5d42d8961d339b4acd94329aded3492a082f52787c60001b611e0e565b610a197ff168d26cd675156979895bbe8bcb38c3258512b96b5f3c5f4a6510db05cf2f6860001b611e0e565b600073ffffffffffffffffffffffffffffffffffffffff16600260009054906101000a900473ffffffffffffffffffffffffffffffffffffffff1673ffffffffffffffffffffffffffffffffffffffff161480610b955750600260009054906101000a900473ffffffffffffffffffffffffffffffffffffffff1673ffffffffffffffffffffffffffffffffffffffff16633df4ddf46040518163ffffffff1660e01b8152600401602060405180830381865afa158015610ade573d6000803e3d6000fd5b505050506040513d601f19601f82011682018060405250810190610b029190612133565b600260009054906101000a900473ffffffffffffffffffffffffffffffffffffffff1673ffffffffffffffffffffffffffffffffffffffff166347799da86040518163ffffffff1660e01b8152600401602060405180830381865afa158015610b6f573d6000803e3d6000fd5b505050506040513d601f19601f82011682018060405250810190610b939190612133565b105b15610bf857610bc67f302a57af8eec5110606421d6fcdb85e6894e34ac3c9fb4804d3dae50b8e9034260001b611e0e565b6040517f5e61bb8700000000000000000000000000000000000000000000000000000000815260040160405180910390fd5b610c247f62ed3fb8d5eda8551c61b61cfe433d778019d49d7cc00a9db5d16b851d9b2da760001b611e0e565b610c507fab419e3ed9bc2485a1cbea5c2f19ac69d1b7b87152a5c77e6b9ac7cbe461bfb860001b611e0e565b610c7c7f1472534d07a8d402e6aa8072ca06be9869fefaf3ef8743575416d8848bbcc44760001b611e0e565b6000600260009054906101000a900473ffffffffffffffffffffffffffffffffffffffff1673ffffffffffffffffffffffffffffffffffffffff1663ddf0b009600260009054906101000a900473ffffffffffffffffffffffffffffffffffffffff1673ffffffffffffffffffffffffffffffffffffffff166347799da86040518163ffffffff1660e01b8152600401602060405180830381865afa158015610d29573d6000803e3d6000fd5b505050506040513d601f19601f82011682018060405250810190610d4d9190612133565b6040518263ffffffff1660e01b8152600401610d699190612010565b602060405180830381865afa158015610d86573d6000803e3d6000fd5b505050506040513d601f19601f82011682018060405250810190610daa9190612175565b9050610dd87f2a7f75e58dda3d8f4001c35708e4f42cfaf81a4c8211dc8c5976764213a2159760001b611e0e565b610e047fd93d050b89aec88d828b8436d9ef526a2e25dd50b0aefa0aad90e432c7e1f72a60001b611e0e565b600260009054906101000a900473ffffffffffffffffffffffffffffffffffffffff1673ffffffffffffffffffffffffffffffffffffffff1663957908d16040518163ffffffff1660e01b8152600401600060405180830381600087803b158015610e6e57600080fd5b505af1158015610e82573d6000803e3d6000fd5b50505050610eb27f05990019a09538fc38b18aa0d216af4af0ce9d11db0968af9a7dd451a64f519660001b611e0e565b610ede7f509cf1e91c76d1ffecf871e14332a9ee19074e29820ff951714ec2c3148a2ff160001b611e0e565b6000600160008373ffffffffffffffffffffffffffffffffffffffff1673ffffffffffffffffffffffffffffffffffffffff16815260200190815260200160002054600260009054906101000a900473ffffffffffffffffffffffffffffffffffffffff1673ffffffffffffffffffffffffffffffffffffffff1663abb6b5a1846040518263ffffffff1660e01b8152600401610f7b919061204c565b602060405180830381865afa158015610f98573d6000803e3d6000fd5b505050506040513d601f19601f82011682018060405250810190610fbc9190612133565b610fc691906121d1565b9050610ff47f0f4722fa0a7d1b6eddf68e6658a047202294b0508d60d52c5e1230f85d7d6e0e60001b611e0e565b6110207f36c7a21ccc383c955bd08abe20053e8933f20434c93188590628da30cafe1fc360001b611e0e565b80600160008473ffffffffffffffffffffffffffffffffffffffff1673ffffffffffffffffffffffffffffffffffffffff168152602001908152602001600020600082825461106f9190612205565b925050819055506110a27f59a8ea542ebdb495efdf9405a96b1348af67259b0cc725e034f3bbb2dff0333a60001b611e0e565b6110ce7f4aaf533f494185e2be526bf90c182a1932cfff5d70ddaf7b1f2ff5ce1c37ade060001b611e0e565b8173ffffffffffffffffffffffffffffffffffffffff166108fc829081150290604051600060405180830381858888f19350505050158015611114573d6000803e3d6000fd5b505050565b6111457f88343cf849feea02f596e7fddf0ae65d62959d88dbc54d30cd84a74c6d1b8d8260001b611e0e565b6111717ffc816b1a284e0fed572f0a67b6b1fe91bb6758d7e9964044c4465e36d2c8d31b60001b611e0e565b61119d7f23c198e484e01b78a6a686fb6f2d133220883475fd2fd4a825d88fcffbcd2fc660001b611e0e565b7f000000000000000000000000000000000000000000000000000000000000000073ffffffffffffffffffffffffffffffffffffffff163373ffffffffffffffffffffffffffffffffffffffff161461124e5761121c7f0143b5b02695ddef0ad942139a280feca254a49bed485509ff7d4bb2b663d4de60001b611e0e565b6040517f1ee8575e00000000000000000000000000000000000000000000000000000000815260040160405180910390fd5b61127a7f4292474b580c98ffcd7134582355920440264c994700ec019796f8921aa02d0c60001b611e0e565b6112a67f5fe15de4e1a849c969c9c51acb788cd2c9232830d92588e353fcfb8019a4e9cb60001b611e0e565b6112d27fe1b531e65b070c6f0aa9413c59abdd17238992a9b0f843a20aa2a8cb1408026160001b611e0e565b60003403611338576113067f89f062a1746b05740054485eed36443bb22b715973cd567786e790455016da5260001b611e0e565b6040517f0cdb5d8500000000000000000000000000000000000000000000000000000000815260040160405180910390fd5b6113647f4cb25f9bab83aa5d1090da669995fee263ee2de5c36188f90b43a6a8ea71db5160001b611e0e565b565b6113927fc127c055f4e87ccd68df2311060971fe17d7e58e111137de784ef6e1e2ac07fc60001b611e0e565b6113be7f762c1bd157f8bec1f319171194625608f4770007a843acc17cd9b7dea4f7e0d860001b611e0e565b6113ea7f70de263955f3dcb4a63c991d04524d8dd1513be4889afe43e69e4984b8060f6e60001b611e0e565b600073ffffffffffffffffffffffffffffffffffffffff16600260009054906101000a900473ffffffffffffffffffffffffffffffffffffffff1673ffffffffffffffffffffffffffffffffffffffff1614806114955750600260009054906101000a900473ffffffffffffffffffffffffffffffffffffffff1673ffffffffffffffffffffffffffffffffffffffff163373ffffffffffffffffffffffffffffffffffffffff1614155b806114a35750600554600454105b15611506576114d47fd6454483502931c6d1608f75fb906c58fdb88fb870bb1d55c1bb9856bd71e74d60001b611e0e565b6040517f4da1bc3400000000000000000000000000000000000000000000000000000000815260040160405180910390fd5b6115327f898e9162f537ab5194b365b85a31ac314ef01f97153880a3e01c831bc4a1e01e60001b611e0e565b61155e7f3f24a56fb1bab62e49c0e9ea764842c1dab38e64ac9a37dfaecd6d950cd13b6160001b611e0e565b60036000600554815260200190815260200160002060006101000a81549073ffffffffffffffffffffffffffffffffffffffff02191690556115c27fa755b843aea2c735b72ce2cf06a40619329df290fcea88fe4de73bcf04da542460001b611e0e565b6115ee7f7a8d4fa7426c5770b855d5445e71ea7c6e19dd5d46a3ac29e68724d3ea152e2f60001b611e0e565b6001600560008282546116019190612205565b92505081905550565b7f000000000000000000000000000000000000000000000000000000000000000081565b61165a7f7c96dc9c9d98bcfbd50597f5cb466961bb045a05c9e3b0ad8e6a03c388de850060001b611e0e565b6116867ffb625cf14297ca5887f642a396d6a840d6e4c63873c6e7b15f505c9505ba2ef460001b611e0e565b6116b27f904561789af24e51da8f139a497eec539c6d05a3823e387f36e7130dad308c7560001b611e0e565b7f000000000000000000000000000000000000000000000000000000000000000073ffffffffffffffffffffffffffffffffffffffff163373ffffffffffffffffffffffffffffffffffffffff1614611763576117317fb6bea9c982c3afaeb428eb3e98719edbc898fe5798d31d91a6f7f02a85f5280d60001b611e0e565b6040517f1ee8575e00000000000000000000000000000000000000000000000000000000815260040160405180910390fd5b61178f7ff9cf884de5635698f43535edbf43290d7c7be99deeb56d29df604ee0ee24b9cb60001b611e0e565b6117bb7fe228171720c85acf5c4fd999388d6c92f48e1ef3d60376f2e3dbdd27f84b81a260001b611e0e565b6117e77f491acbadc42bc9e43c56281f54c96ed55b701596ce3be5c471856377d8f2025e60001b611e0e565b80600260006101000a81548173ffffffffffffffffffffffffffffffffffffffff021916908373ffffffffffffffffffffffffffffffffffffffff16021790555050565b60016020528060005260406000206000915090505481565b61186f7f3cdb6b2963b2738a9e0a0e9c4488f0bc12fcddde5a70124609dbe407486bdfe960001b611e0e565b61189b7fe0199d7a5a51fd297befc4c63995ffd33cbd38128e7d146e619306504c3a4abd60001b611e0e565b6118c77f6ae97574e6ea75ecf3e0bdd533eb33d0f60718d02b5702a6a946d05bfdf5b4bc60001b611e0e565b6103e881101561192f576118fd7fd0914ab55b1102b82ce5d00c36e493b3dcf7a70f12bdd11abe34df323183c03560001b611e0e565b6040517fa9f2d61800000000000000000000000000000000000000000000000000000000815260040160405180910390fd5b61195b7f026232ab07c43dcd7f51c9ab32bd7a69f0f066e982e87067284f534214c7f8eb60001b611e0e565b6119877f50616ecc1c3a8e923c16f6f1537ac9b2d9871edb1199cf947020bf69ec6ef62160001b611e0e565b6119b37f7b9b50371ffaa528a704d1798e5317a5cba41890cf3593b58ff199ddbbf834ca60001b611e0e565b6103e8816103eb6119c49190612239565b6119ce91906122aa565b3414611a3257611a007f46bad0f2150ac4bf2ac042eb74b6e669a7f0586020db3598278a61c4b9f67dd060001b611e0e565b6040517f400f9fb800000000000000000000000000000000000000000000000000000000815260040160405180910390fd5b611a5e7f69b7510f177def550123da0e3993855dac263e501be1a54796058a436fa5bd2e60001b611e0e565b611a8a7fe3552543074cb9e0d344bc1204d27f5508ed8efac92cba13279af99606e5b85060001b611e0e565b611ab67f5310deafd878ab102e011fab77f506c3a46d76e653053d4d249ecaa05d5f976d60001b611e0e565b600073ffffffffffffffffffffffffffffffffffffffff16600260009054906101000a900473ffffffffffffffffffffffffffffffffffffffff1673ffffffffffffffffffffffffffffffffffffffff161480611b4b575080600260009054906101000a900473ffffffffffffffffffffffffffffffffffffffff1673ffffffffffffffffffffffffffffffffffffffff1631105b15611bae57611b7c7f7de41a1c0b29a652e6fa3ec2fed66f84929d74b2520bf38d053c3a2326e3dd7a60001b611e0e565b6040517ff06294a300000000000000000000000000000000000000000000000000000000815260040160405180910390fd5b611bda7f137af0620f5b9acf57763029dc63fdff45f1a5a099446470002b3f4627ef2c2460001b611e0e565b611c067f7ac965377c1628740cb41b5b2a8a1b2f407b320200c6e8c354938889aaa47c1060001b611e0e565b611c327fe73a9165375e6de789e92b7c3063c681fd26433c076fc6c3d2b10b45586585b160001b611e0e565b6103eb346103e8611c439190612239565b611c4d91906122aa565b6000803373ffffffffffffffffffffffffffffffffffffffff1673ffffffffffffffffffffffffffffffffffffffff1681526020019081526020016000206000828254611c9a9190612205565b92505081905550611ccd7f5c2b5bba9118b090deb354c65f7fd34de726238d4430f46796fc74d2070a5dce60001b611e0e565b611cf97f4610e2856113bfa5ffe91d816dd1aae87ae84e37b9f090532ef0128232868c2f60001b611e0e565b611d01611e11565b611d2d7f53fe39723aa7986459b23662d25159a8bec0bd3a2831d55b3054bfac3266268560001b611e0e565b611d597fffac17b4f228667782a2c3e76932ffb698dc0eee004ccef85e3bc00e58ca028c60001b611e0e565b7f000000000000000000000000000000000000000000000000000000000000000073ffffffffffffffffffffffffffffffffffffffff166108fc349081150290604051600060405180830381858888f19350505050158015611dbf573d6000803e3d6000fd5b5050565b60036020528060005260406000206000915054906101000a900473ffffffffffffffffffffffffffffffffffffffff1681565b60006020528060005260406000206000915090505481565b50565b611e3d7f14173c7d8928439337917c5f6e78b37088efc95a02e06b7db8945b26a1329e7860001b611e0e565b611e697f52d5bb3ed9021da1a9168842ffff01399c33f41742dbeef440cece24c17bb27d60001b611e0e565b611e957f68083dd797e435fc77a5bd68baa51764dbed632f329240e482c48f86e3f3e49a60001b611e0e565b600160046000828254611ea89190612205565b92505081905550611edb7f1c1ad13112d832db4fce005cf8b192a39a472d9887b1b1c6c91a274d5f675bf360001b611e0e565b611f077fde313de4419dc22aeec1e10457c6ba0f8e6636a8501adc390123599a7a06c75060001b611e0e565b3360036000600454815260200190815260200160002060006101000a81548173ffffffffffffffffffffffffffffffffffffffff021916908373ffffffffffffffffffffffffffffffffffffffff160217905550565b600073ffffffffffffffffffffffffffffffffffffffff82169050919050565b6000819050919050565b6000611fa2611f9d611f9884611f5d565b611f7d565b611f5d565b9050919050565b6000611fb482611f87565b9050919050565b6000611fc682611fa9565b9050919050565b611fd681611fbb565b82525050565b6000602082019050611ff16000830184611fcd565b92915050565b6000819050919050565b61200a81611ff7565b82525050565b60006020820190506120256000830184612001565b92915050565b600061203682611f5d565b9050919050565b6120468161202b565b82525050565b6000602082019050612061600083018461203d565b92915050565b600080fd5b6120758161202b565b811461208057600080fd5b50565b6000813590506120928161206c565b92915050565b6000602082840312156120ae576120ad612067565b5b60006120bc84828501612083565b91505092915050565b6120ce81611ff7565b81146120d957600080fd5b50565b6000813590506120eb816120c5565b92915050565b60006020828403121561210757612106612067565b5b6000612115848285016120dc565b91505092915050565b60008151905061212d816120c5565b92915050565b60006020828403121561214957612148612067565b5b60006121578482850161211e565b91505092915050565b60008151905061216f8161206c565b92915050565b60006020828403121561218b5761218a612067565b5b600061219984828501612160565b91505092915050565b7f4e487b7100000000000000000000000000000000000000000000000000000000600052601160045260246000fd5b60006121dc82611ff7565b91506121e783611ff7565b92508282039050818111156121ff576121fe6121a2565b5b92915050565b600061221082611ff7565b915061221b83611ff7565b9250828201905080821115612233576122326121a2565b5b92915050565b600061224482611ff7565b915061224f83611ff7565b925082820261225d81611ff7565b91508282048414831517612274576122736121a2565b5b5092915050565b7f4e487b7100000000000000000000000000000000000000000000000000000000600052601260045260246000fd5b60006122b582611ff7565b91506122c083611ff7565b9250826122d0576122cf61227b565b5b82820490509291505056fea2646970667358221220e0f33925311db8e3366533d3a81d5f623972ad4590bf847a402a4df759b08e6964736f6c63430008110033",
  "linkReferences": {},
  "deployedLinkReferences": {}
}