{
  "_format": "hh-sol-artifact-1",
  "contractName": "MockGoerliBridge",
  "sourceName": "contracts/MockBridgeMsgValue.sol",
  "abi": [
    {
      "inputs": [],
      "stateMutability": "nonpayable",
      "type": "constructor"
    },
    {
      "inputs": [],
      "name": "bridgeEmpty",
      "type": "error"
    },
    {
      "inputs": [],
      "name": "bridgeOnOtherSideNeedsLiqudity",
      "type": "error"
    },
    {
      "inputs": [],
      "name": "bridgedAlready",
      "type": "error"
    },
    {
      "inputs": [],
      "name": "msgValueDoesNotCoverFee",
      "type": "error"
    },
    {
      "inputs": [],
      "name": "msgValueLessThan1000",
      "type": "error"
    },
    {
      "inputs": [],
      "name": "msgValueZero",
      "type": "error"
    },
    {
      "inputs": [],
      "name": "notExternalBridge",
      "type": "error"
    },
    {
      "inputs": [],
      "name": "notOwnerAddress",
      "type": "error"
    },
    {
      "inputs": [],
      "name": "ownerBridgeUsersBeforeWithdraw",
      "type": "error"
    },
    {
      "inputs": [],
      "name": "queueIsEmpty",
      "type": "error"
    },
    {
      "inputs": [],
      "name": "queueNotEmpty",
      "type": "error"
    },
    {
      "inputs": [],
      "name": "Owner",
      "outputs": [
        {
          "internalType": "address",
          "name": "",
          "type": "address"
        }
      ],
      "stateMutability": "view",
      "type": "function"
    },
    {
      "inputs": [],
      "name": "dequeue",
      "outputs": [],
      "stateMutability": "nonpayable",
      "type": "function"
    },
    {
      "inputs": [],
      "name": "first",
      "outputs": [
        {
          "internalType": "uint256",
          "name": "",
          "type": "uint256"
        }
      ],
      "stateMutability": "view",
      "type": "function"
    },
    {
      "inputs": [
        {
          "internalType": "address",
          "name": "",
          "type": "address"
        }
      ],
      "name": "goerliBridgedETH",
      "outputs": [
        {
          "internalType": "uint256",
          "name": "",
          "type": "uint256"
        }
      ],
      "stateMutability": "view",
      "type": "function"
    },
    {
      "inputs": [],
      "name": "last",
      "outputs": [
        {
          "internalType": "uint256",
          "name": "",
          "type": "uint256"
        }
      ],
      "stateMutability": "view",
      "type": "function"
    },
    {
      "inputs": [
        {
          "internalType": "uint256",
          "name": "bridgeAmount",
          "type": "uint256"
        }
      ],
      "name": "lockTokensForOptimism",
      "outputs": [],
      "stateMutability": "payable",
      "type": "function"
    },
    {
      "inputs": [
        {
          "internalType": "address",
          "name": "",
          "type": "address"
        }
      ],
      "name": "lockedForOptimismETH",
      "outputs": [
        {
          "internalType": "uint256",
          "name": "",
          "type": "uint256"
        }
      ],
      "stateMutability": "view",
      "type": "function"
    },
    {
      "inputs": [
        {
          "internalType": "address",
          "name": "_token",
          "type": "address"
        }
      ],
      "name": "mockOwnerOptimismBridgeAddress",
      "outputs": [],
      "stateMutability": "nonpayable",
      "type": "function"
    },
    {
      "inputs": [],
      "name": "optimismBridgeInstance",
      "outputs": [
        {
          "internalType": "contract MockOptimismBridge",
          "name": "",
          "type": "address"
        }
      ],
      "stateMutability": "view",
      "type": "function"
    },
    {
      "inputs": [],
      "name": "ownerAddBridgeLiqudity",
      "outputs": [],
      "stateMutability": "payable",
      "type": "function"
    },
    {
      "inputs": [],
      "name": "ownerRemoveBridgeLiqudity",
      "outputs": [],
      "stateMutability": "nonpayable",
      "type": "function"
    },
    {
      "inputs": [],
      "name": "ownerUnlockGoerliETH",
      "outputs": [],
      "stateMutability": "nonpayable",
      "type": "function"
    },
    {
      "inputs": [
        {
          "internalType": "uint256",
          "name": "",
          "type": "uint256"
        }
      ],
      "name": "queue",
      "outputs": [
        {
          "internalType": "address",
          "name": "",
          "type": "address"
        }
      ],
      "stateMutability": "view",
      "type": "function"
    }
  ],
  "bytecode": "0x60a060405260016005553480156200001657600080fd5b506200004b7ff17a198ec5bdea5f5b90d483ec23ad2a0aea7b0396eb2af004c74571173f73fe60001b620000ed60201b60201c565b6200007f7f72b741c749a04a6342f127ebb24f901b8fd63115f18adfc4e730662fedf73d3f60001b620000ed60201b60201c565b620000b37f453161c54387a252726f882a0d853d2f3bf66b088efe382cb1cc50037d04dcbd60001b620000ed60201b60201c565b3373ffffffffffffffffffffffffffffffffffffffff1660808173ffffffffffffffffffffffffffffffffffffffff1681525050620000f0565b50565b6080516123106200013660003960008181610344015281816107c7015281816108fe01528181610e060152818161163b015281816116e30152611da501526123106000f3fe6080604052600436106100c25760003560e01c8063957908d11161007f578063b4a99a4e11610059578063b4a99a4e14610211578063d06019f51461023c578063ddf0b00914610265578063e76438ab146102a2576100c2565b8063957908d1146101a6578063abb6b5a1146101bd578063af11cb40146101fa576100c2565b806308dd057a146100c75780633df4ddf4146100de57806347799da8146101095780637bb1fdd2146101345780637f6c6d10146101715780638521eebe1461019c575b600080fd5b3480156100d357600080fd5b506100dc6102be565b005b3480156100ea57600080fd5b506100f361082e565b6040516101009190611f75565b60405180910390f35b34801561011557600080fd5b5061011e610834565b60405161012b9190611f75565b60405180910390f35b34801561014057600080fd5b5061015b60048036038101906101569190611ff3565b61083a565b6040516101689190611f75565b60405180910390f35b34801561017d57600080fd5b50610186610852565b604051610193919061207f565b60405180910390f35b6101a4610878565b005b3480156101b257600080fd5b506101bb610ac5565b005b3480156101c957600080fd5b506101e460048036038101906101df9190611ff3565b610d69565b6040516101f19190611f75565b60405180910390f35b34801561020657600080fd5b5061020f610d81565b005b34801561021d57600080fd5b50610226611639565b60405161023391906120a9565b60405180910390f35b34801561024857600080fd5b50610263600480360381019061025e9190611ff3565b61165d565b005b34801561027157600080fd5b5061028c600480360381019061028791906120f0565b61185a565b60405161029991906120a9565b60405180910390f35b6102bc60048036038101906102b791906120f0565b61188d565b005b6102ea7fb2d006409bb267ad722d1dc7348ed4b425bc99b9d2fcecee43d16fb9fa70f91560001b611e0d565b6103167f13035c0bc3c2cb87bfa888652aacefd8bb9cc274bf69cf22f880805a516f0efc60001b611e0d565b6103427fad9a4d4b72abea04328347d8211c07d9b2edd91565ef4c338ae272efbdd4b40060001b611e0d565b7f000000000000000000000000000000000000000000000000000000000000000073ffffffffffffffffffffffffffffffffffffffff163373ffffffffffffffffffffffffffffffffffffffff16146103f3576103c17f4d8faba873956c71c189f3b26c20b66f42fce73882fbb8449ec2c87cc5fb6a8360001b611e0d565b6040517f1ee8575e00000000000000000000000000000000000000000000000000000000815260040160405180910390fd5b61041f7fb0fb38a9881c348f2deb52a029988fc62cffea04445db6ad098915ee847c5dee60001b611e0d565b61044b7f0a534f8f89eefddfbfb2c1a4d53231f3d77c10a54ff75f4346346de57079532b60001b611e0d565b6104777facdcf904c591e720ee1e703da5058ded942915d671bc67fed220253cbbbe788660001b611e0d565b600047036104dd576104ab7f6c5f0c09f39700304b3453463dc062c769f3313099e5eaf86600b1ecb594cd2d60001b611e0d565b6040517f7a1f291700000000000000000000000000000000000000000000000000000000815260040160405180910390fd5b6105097ff2a71264156e3353341adbf56c5031841e46a7721bfd58b1ffde2c7070f2523360001b611e0d565b6105357fa7888e4bd5910e7600d611bf0dd1d92718b2b3130fd9c4c7bee9963fa600b78760001b611e0d565b6105617f81cfcbf8729edb01f1a4bb4f7dc9af9689af188a39d8a9447e2c3e065c8f111460001b611e0d565b600073ffffffffffffffffffffffffffffffffffffffff16600260009054906101000a900473ffffffffffffffffffffffffffffffffffffffff1673ffffffffffffffffffffffffffffffffffffffff1614806106de5750600260009054906101000a900473ffffffffffffffffffffffffffffffffffffffff1673ffffffffffffffffffffffffffffffffffffffff16633df4ddf46040518163ffffffff1660e01b8152600401602060405180830381865afa158015610626573d6000803e3d6000fd5b505050506040513d601f19601f8201168201806040525081019061064a9190612132565b600260009054906101000a900473ffffffffffffffffffffffffffffffffffffffff1673ffffffffffffffffffffffffffffffffffffffff166347799da86040518163ffffffff1660e01b8152600401602060405180830381865afa1580156106b7573d6000803e3d6000fd5b505050506040513d601f19601f820116820180604052508101906106db9190612132565b10155b156107415761070f7f8886394e64a235b7633752f494dd6cefb95d6c9abd39937bfcee68f02571de6960001b611e0d565b6040517f230accfd00000000000000000000000000000000000000000000000000000000815260040160405180910390fd5b61076d7f32974a8c3ba52edc42c527d81328f5b625b19e39bfc9f50403d1efaf136d77c460001b611e0d565b6107997f7fbca0c309f9a73eb2a6731834b2dced5a7eaee2ca2030fe11eaf766d7bc9bfb60001b611e0d565b6107c57fc15d996439cf9b12b9a5a8d8d46fd787e577a1860c56e07845757e4ecbd79b4f60001b611e0d565b7f000000000000000000000000000000000000000000000000000000000000000073ffffffffffffffffffffffffffffffffffffffff166108fc479081150290604051600060405180830381858888f1935050505015801561082b573d6000803e3d6000fd5b50565b60055481565b60045481565b60016020528060005260406000206000915090505481565b600260009054906101000a900473ffffffffffffffffffffffffffffffffffffffff1681565b6108a47f216aa4080a5388ef9f3a89a6f0d336a58ba37f38becf17a8533539b29009ba6e60001b611e0d565b6108d07ff1a8e86522ac77b9836c063273ac1988d40d16e1f9db2c5ee55b08ac8bcb906e60001b611e0d565b6108fc7f54aa0d32313bad43bda855d4680b84d10cc083a73001340ce7c668c90e642a0360001b611e0d565b7f000000000000000000000000000000000000000000000000000000000000000073ffffffffffffffffffffffffffffffffffffffff163373ffffffffffffffffffffffffffffffffffffffff16146109ad5761097b7f625bd2138edaf3edf1d9e0e2fbf083f9499e5b315545bc4c65fc46b37f3dfb5860001b611e0d565b6040517f1ee8575e00000000000000000000000000000000000000000000000000000000815260040160405180910390fd5b6109d97f8ba7cfa068ededc7d96b6e9712388fb5cb4d2c9b53051381a9e65ddcce9e229c60001b611e0d565b610a057f7f684bc999dd4140f8ad1c62c128d00347a74d1e348297885cc67dc047f6225560001b611e0d565b610a317f68d9e622a7e683e3d9dc223155b4ac6a737624c43ef6bee9e0832bb9e706254f60001b611e0d565b60003403610a9757610a657fe562d8c86660c750d09c060b5cd4840c03c86dba992a22dc0199cb84e76fa42a60001b611e0d565b6040517f0cdb5d8500000000000000000000000000000000000000000000000000000000815260040160405180910390fd5b610ac37f6933d32c123b7e13acdfd8d9e91cc0d5fb38d6edb6c0b8bf0282093f8bd25b4760001b611e0d565b565b610af17febd03c40124fd89db389b93547ca6f0a4e489997410a8110b208d8189b3c2f4860001b611e0d565b610b1d7f1cfb2632a09a833b55d9f0fcd0438e8aa57e010c33e912975cc748ea30bf903260001b611e0d565b610b497f1e9197be00741dc5dfc93d1a0bb8a39bf95af6ef0ed1754fc3069c2efcceba9360001b611e0d565b600073ffffffffffffffffffffffffffffffffffffffff16600260009054906101000a900473ffffffffffffffffffffffffffffffffffffffff1673ffffffffffffffffffffffffffffffffffffffff161480610bf45750600260009054906101000a900473ffffffffffffffffffffffffffffffffffffffff1673ffffffffffffffffffffffffffffffffffffffff163373ffffffffffffffffffffffffffffffffffffffff1614155b80610c025750600554600454105b15610c6557610c337f4a3f9c0af71655fa7094856806c84e9be91d6f6656499713774f02dbe9e6d9e260001b611e0d565b6040517f4da1bc3400000000000000000000000000000000000000000000000000000000815260040160405180910390fd5b610c917f04b4360180fbc27da60503343f071daf347022d590d73b139768a21305f6328960001b611e0d565b610cbd7f6781231fedb7cf37f34de7fdb429613043b8eacf963390ab52a883b734e1094960001b611e0d565b60036000600554815260200190815260200160002060006101000a81549073ffffffffffffffffffffffffffffffffffffffff0219169055610d217f9af620106784cf803540a8cc1b21c3921e27f6fb195387b7b9c268ccc7eb917360001b611e0d565b610d4d7f9019dc5ac124dd47e7cac1c1ee54aeb3e1d66cd42cc71539a1e80fb2293c65f060001b611e0d565b600160056000828254610d60919061218e565b92505081905550565b60006020528060005260406000206000915090505481565b610dad7f7964126a9a468693a0446b8b90e60740dd9b845db97f5ed58aa9b694091ba33760001b611e0d565b610dd87eeb9cb882523752e78759ad157d311aecbc57bca671d62531747ebdf959ee7e60001b611e0d565b610e047fb50157a2193e6c766ffa402780b877e73cc3796ac3c0acd71a69136e3632dd9e60001b611e0d565b7f000000000000000000000000000000000000000000000000000000000000000073ffffffffffffffffffffffffffffffffffffffff163373ffffffffffffffffffffffffffffffffffffffff1614610eb557610e837f73b97c938c16714eaa314322593146a8bdcaa1717556469cc21970e8d9a73c1a60001b611e0d565b6040517f1ee8575e00000000000000000000000000000000000000000000000000000000815260040160405180910390fd5b610ee17fc93bff9359205e8129295dccd4b58e15fc68842d809de260f200b9b841af367f60001b611e0d565b610f0d7f0e123575f14f6c28869a00e9d62cab7f7254bba09160f9cf1a991849e741430d60001b611e0d565b610f397f8d62fe09489336c0d2621d5dcc3489ddf99d2558a43bcea1f668d7c360befc8c60001b611e0d565b600073ffffffffffffffffffffffffffffffffffffffff16600260009054906101000a900473ffffffffffffffffffffffffffffffffffffffff1673ffffffffffffffffffffffffffffffffffffffff1614806110b55750600260009054906101000a900473ffffffffffffffffffffffffffffffffffffffff1673ffffffffffffffffffffffffffffffffffffffff16633df4ddf46040518163ffffffff1660e01b8152600401602060405180830381865afa158015610ffe573d6000803e3d6000fd5b505050506040513d601f19601f820116820180604052508101906110229190612132565b600260009054906101000a900473ffffffffffffffffffffffffffffffffffffffff1673ffffffffffffffffffffffffffffffffffffffff166347799da86040518163ffffffff1660e01b8152600401602060405180830381865afa15801561108f573d6000803e3d6000fd5b505050506040513d601f19601f820116820180604052508101906110b39190612132565b105b15611118576110e67f83f9289e20a16d4dc0150bed1fa331f4a966dad6cc74d43e75b643db59331d2760001b611e0d565b6040517f5e61bb8700000000000000000000000000000000000000000000000000000000815260040160405180910390fd5b6111447fc8e42039bad2e8e21380d7c90f131ccdd82a2e980a1be4d4fa7fb1104ea4dcbc60001b611e0d565b6111707f01fff6c1f89ffca554bbaba6e43fe3b7e460bba5c0873e11d50ff041adda5a4660001b611e0d565b61119c7fdb71f03fcffa399d9597fce7ca8578f15755009cbc571a8fba25b856da203c5160001b611e0d565b6000600260009054906101000a900473ffffffffffffffffffffffffffffffffffffffff1673ffffffffffffffffffffffffffffffffffffffff1663ddf0b009600260009054906101000a900473ffffffffffffffffffffffffffffffffffffffff1673ffffffffffffffffffffffffffffffffffffffff166347799da86040518163ffffffff1660e01b8152600401602060405180830381865afa158015611249573d6000803e3d6000fd5b505050506040513d601f19601f8201168201806040525081019061126d9190612132565b6040518263ffffffff1660e01b81526004016112899190611f75565b602060405180830381865afa1580156112a6573d6000803e3d6000fd5b505050506040513d601f19601f820116820180604052508101906112ca91906121d7565b90506112f87fe0d9935cd1e018d6fc933697637869951befc675c1d536937b910a9a29d0060b60001b611e0d565b6113247fa0fde067c914fdcc376fa1a81b882355fc69cfd5fa3b951fb4d64ca17b4c937860001b611e0d565b600260009054906101000a900473ffffffffffffffffffffffffffffffffffffffff1673ffffffffffffffffffffffffffffffffffffffff1663957908d16040518163ffffffff1660e01b8152600401600060405180830381600087803b15801561138e57600080fd5b505af11580156113a2573d6000803e3d6000fd5b505050506113d27f6220f5955aaa09c21c325fec6675d9d3142022a7e8730098578fcb30d335065d60001b611e0d565b6113fe7f5cafe10830830fa0142cb15cab360a5bd1409dafcc9d680f7bd4e810f0b6cf5860001b611e0d565b6000600160008373ffffffffffffffffffffffffffffffffffffffff1673ffffffffffffffffffffffffffffffffffffffff16815260200190815260200160002054600260009054906101000a900473ffffffffffffffffffffffffffffffffffffffff1673ffffffffffffffffffffffffffffffffffffffff1663e3d66f68846040518263ffffffff1660e01b815260040161149b91906120a9565b602060405180830381865afa1580156114b8573d6000803e3d6000fd5b505050506040513d601f19601f820116820180604052508101906114dc9190612132565b6114e69190612204565b90506115147febe4c1e16331b206af39ec554165552ce51ed332bb6edecb7f41274a64ed7f0c60001b611e0d565b6115407f11b0fc9d3a6058b26717ffac88980c91975743a2ebdebcea480b1f3390c6352860001b611e0d565b80600160008473ffffffffffffffffffffffffffffffffffffffff1673ffffffffffffffffffffffffffffffffffffffff168152602001908152602001600020600082825461158f919061218e565b925050819055506115c27f76e754d2688e32c53fcb0b179c269e91cef1187c53cb4355cba591b6ded9a5e260001b611e0d565b6115ee7ffe1d18101ede93fc6235fc8d512f24adc8bac75492e818d7bf400d517488d4bd60001b611e0d565b8173ffffffffffffffffffffffffffffffffffffffff166108fc829081150290604051600060405180830381858888f19350505050158015611634573d6000803e3d6000fd5b505050565b7f000000000000000000000000000000000000000000000000000000000000000081565b6116897f452d8f897d20f2fbe1bd2662fcfc4424e73fb7b86c7f2d06313bd542ec562b8460001b611e0d565b6116b57f3605adb37d37c3e0cf062846f42272f4c9c8d7aaba3e2128dd5963fc79afad4a60001b611e0d565b6116e17fc636b30b546ad61e6fa17cef4cc512063e320ab803e147ffb1ce76ba1287207c60001b611e0d565b7f000000000000000000000000000000000000000000000000000000000000000073ffffffffffffffffffffffffffffffffffffffff163373ffffffffffffffffffffffffffffffffffffffff1614611792576117607ff671dfee5f48f3e1c8f3e2fb544e697878dfb77b75a948f6b481278095ec955e60001b611e0d565b6040517f1ee8575e00000000000000000000000000000000000000000000000000000000815260040160405180910390fd5b6117be7f0ad9e7c249f0c874acdaa512de1101b5e73e1167afa64bea2f31d9ad5926c1a360001b611e0d565b6117ea7fa5803cabdda111b1f271abab44c79c374b5a34c93d90f2f69ed606b80e95241d60001b611e0d565b6118167f6b2ffaadf806269ec3f56724c8a3a13d7fe9d807374ede6571cafc983fe4f4f260001b611e0d565b80600260006101000a81548173ffffffffffffffffffffffffffffffffffffffff021916908373ffffffffffffffffffffffffffffffffffffffff16021790555050565b60036020528060005260406000206000915054906101000a900473ffffffffffffffffffffffffffffffffffffffff1681565b6118b97fb89b1b7878c6d16a7973034766ab595d4712849a1b4e594bf0ada4b609bd043d60001b611e0d565b6118e57f72b35ab5ad4811c1c251e4fb6c07716356f181855423d6d868e3f38d566d9de160001b611e0d565b6119117f253a8b06aaa803bd49b76deae284883d8cd2aee3479c654ca9c88dc0016d4b5060001b611e0d565b6103e8811015611979576119477f04690624727f138e77de01e0697f0bae20eb7f25862e32667015e4deb7108fdc60001b611e0d565b6040517fa9f2d61800000000000000000000000000000000000000000000000000000000815260040160405180910390fd5b6119a57f57bec4706ec22c9ef967c0e723ee9a3cb3097708b4d1b2cbbe43fd5939fa52c360001b611e0d565b6119d17f4459e9b38210f9e9c7dfe110982369db9ec3826dbfba2658cfe7e913403f31c860001b611e0d565b6119fd7f7d6523f8000fea8ef2a1970f7ea726dd4261aa04ba2c933b5dd2e6e573c809b360001b611e0d565b6103e8816103eb611a0e9190612238565b611a1891906122a9565b3414611a7c57611a4a7f3d9787ea0aa69ed2f0d240ce4b2ef2ef449f7044912ac01aba86ecc1f749311a60001b611e0d565b6040517f400f9fb800000000000000000000000000000000000000000000000000000000815260040160405180910390fd5b611aa87ffbe7d9c275dbb02852d8d2b42fda0b7e6419446869b396af7a1ae5404da7297660001b611e0d565b611ad47ff6977e6eee43fc10c8f5ec6bc48f253d66d6a4fe45e987fa52aad54cb00addce60001b611e0d565b611b007f40bb7c75c10e6ca5dca625edfdbb1d0274976f185962f84383a5e3dd0de4fb5860001b611e0d565b600073ffffffffffffffffffffffffffffffffffffffff16600260009054906101000a900473ffffffffffffffffffffffffffffffffffffffff1673ffffffffffffffffffffffffffffffffffffffff161480611b95575080600260009054906101000a900473ffffffffffffffffffffffffffffffffffffffff1673ffffffffffffffffffffffffffffffffffffffff1631105b15611bf857611bc67f12e576e23a3875216fe47810539dab25d86904c62a77f3b4680b2a3ec1429a3160001b611e0d565b6040517ff06294a300000000000000000000000000000000000000000000000000000000815260040160405180910390fd5b611c247f0a2ea7b99df1c2a4b6b397892b5b70f5cf9972626bf082362649113f766e2a8b60001b611e0d565b611c507ff579c20b54e18a7be07783e3cf9dd26f168bb857f0e70efb5e4af2b6b72ba59d60001b611e0d565b611c7c7f75333c67d6d987559e5c556e46bb53e8976d9be259949f65f1ce6d3917cf5ef960001b611e0d565b6103eb346103e8611c8d9190612238565b611c9791906122a9565b6000803373ffffffffffffffffffffffffffffffffffffffff1673ffffffffffffffffffffffffffffffffffffffff1681526020019081526020016000206000828254611ce4919061218e565b92505081905550611d177feea409508c1460e1a122adf72224cf171d84d8f6bc01803b79b73cd3c7af555360001b611e0d565b611d437f2bfa76d67e612cf6f90186efcde07897c32694466e780390c305ed7a5dbf38b160001b611e0d565b611d4b611e10565b611d777f4df29580689839d7d31dfeb0a8f65119a09dd5d945b4350bfb67d136078b0f1f60001b611e0d565b611da37fdacf2719584116cc37483aed6dd48dacf749acfb320594365be223c49e371ec560001b611e0d565b7f000000000000000000000000000000000000000000000000000000000000000073ffffffffffffffffffffffffffffffffffffffff166108fc349081150290604051600060405180830381858888f19350505050158015611e09573d6000803e3d6000fd5b5050565b50565b611e3c7f17f0c6abb907cafca6414edf6799cddcf2ffd4e8001de522966a22aca99d630560001b611e0d565b611e687f8a1184da76fcfd290921fcd82006c2f73aec634e2abecc48326975859a2ad09660001b611e0d565b611e947ff80da446b2faba9793170eef362cb96893822832c998c6748b3945361baa169260001b611e0d565b600160046000828254611ea7919061218e565b92505081905550611eda7fd45a37525997632c4dfd25afe663f131ea707ab0b330cf98e1afa08a0a14506260001b611e0d565b611f067f30ef286d4f1de8700036e6ab726a5fa6eb479adc2302010b57341017b25773a660001b611e0d565b3360036000600454815260200190815260200160002060006101000a81548173ffffffffffffffffffffffffffffffffffffffff021916908373ffffffffffffffffffffffffffffffffffffffff160217905550565b6000819050919050565b611f6f81611f5c565b82525050565b6000602082019050611f8a6000830184611f66565b92915050565b600080fd5b600073ffffffffffffffffffffffffffffffffffffffff82169050919050565b6000611fc082611f95565b9050919050565b611fd081611fb5565b8114611fdb57600080fd5b50565b600081359050611fed81611fc7565b92915050565b60006020828403121561200957612008611f90565b5b600061201784828501611fde565b91505092915050565b6000819050919050565b600061204561204061203b84611f95565b612020565b611f95565b9050919050565b60006120578261202a565b9050919050565b60006120698261204c565b9050919050565b6120798161205e565b82525050565b60006020820190506120946000830184612070565b92915050565b6120a381611fb5565b82525050565b60006020820190506120be600083018461209a565b92915050565b6120cd81611f5c565b81146120d857600080fd5b50565b6000813590506120ea816120c4565b92915050565b60006020828403121561210657612105611f90565b5b6000612114848285016120db565b91505092915050565b60008151905061212c816120c4565b92915050565b60006020828403121561214857612147611f90565b5b60006121568482850161211d565b91505092915050565b7f4e487b7100000000000000000000000000000000000000000000000000000000600052601160045260246000fd5b600061219982611f5c565b91506121a483611f5c565b92508282019050808211156121bc576121bb61215f565b5b92915050565b6000815190506121d181611fc7565b92915050565b6000602082840312156121ed576121ec611f90565b5b60006121fb848285016121c2565b91505092915050565b600061220f82611f5c565b915061221a83611f5c565b92508282039050818111156122325761223161215f565b5b92915050565b600061224382611f5c565b915061224e83611f5c565b925082820261225c81611f5c565b915082820484148315176122735761227261215f565b5b5092915050565b7f4e487b7100000000000000000000000000000000000000000000000000000000600052601260045260246000fd5b60006122b482611f5c565b91506122bf83611f5c565b9250826122cf576122ce61227a565b5b82820490509291505056fea2646970667358221220c54948699242cc2622b0950740f3df14936eb2c7d61045c48aa2b9ede31ff78d64736f6c63430008110033",
  "linkReferences": {},
  "deployedLinkReferences": {}
}